{
  "contractName": "AirlineData",
  "abi": [
    {
      "constant": true,
      "inputs": [],
      "name": "MIN_FUND",
      "outputs": [
        {
          "name": "",
          "type": "uint256"
        }
      ],
      "payable": false,
      "stateMutability": "view",
      "type": "function"
    },
    {
      "anonymous": false,
      "inputs": [
        {
          "indexed": false,
          "name": "name",
          "type": "string"
        },
        {
          "indexed": false,
          "name": "airline",
          "type": "address"
        }
      ],
      "name": "AirlineEntered",
      "type": "event"
    },
    {
      "anonymous": false,
      "inputs": [
        {
          "indexed": false,
          "name": "name",
          "type": "string"
        },
        {
          "indexed": false,
          "name": "airline",
          "type": "address"
        }
      ],
      "name": "AirlinePendingVote",
      "type": "event"
    },
    {
      "anonymous": false,
      "inputs": [
        {
          "indexed": false,
          "name": "candidate",
          "type": "address"
        },
        {
          "indexed": false,
          "name": "voter",
          "type": "address"
        },
        {
          "indexed": false,
          "name": "votes",
          "type": "uint256"
        }
      ],
      "name": "AirlineVoted",
      "type": "event"
    },
    {
      "anonymous": false,
      "inputs": [
        {
          "indexed": false,
          "name": "name",
          "type": "string"
        },
        {
          "indexed": false,
          "name": "airline",
          "type": "address"
        }
      ],
      "name": "AirlineRegistered",
      "type": "event"
    },
    {
      "anonymous": false,
      "inputs": [
        {
          "indexed": false,
          "name": "name",
          "type": "string"
        },
        {
          "indexed": false,
          "name": "airline",
          "type": "address"
        },
        {
          "indexed": false,
          "name": "fund",
          "type": "uint256"
        }
      ],
      "name": "AirlineFunded",
      "type": "event"
    },
    {
      "constant": true,
      "inputs": [
        {
          "name": "_testingAddress",
          "type": "address"
        }
      ],
      "name": "isAirlineExist",
      "outputs": [
        {
          "name": "",
          "type": "bool"
        }
      ],
      "payable": false,
      "stateMutability": "view",
      "type": "function"
    },
    {
      "constant": true,
      "inputs": [
        {
          "name": "_testingAddress",
          "type": "address"
        }
      ],
      "name": "isAirlineEntered",
      "outputs": [
        {
          "name": "",
          "type": "bool"
        }
      ],
      "payable": false,
      "stateMutability": "view",
      "type": "function"
    },
    {
      "constant": true,
      "inputs": [
        {
          "name": "_testingAddress",
          "type": "address"
        }
      ],
      "name": "isAirlineRegistered",
      "outputs": [
        {
          "name": "",
          "type": "bool"
        }
      ],
      "payable": false,
      "stateMutability": "view",
      "type": "function"
    },
    {
      "constant": true,
      "inputs": [
        {
          "name": "_testingAddress",
          "type": "address"
        }
      ],
      "name": "isAirlineFunded",
      "outputs": [
        {
          "name": "",
          "type": "bool"
        }
      ],
      "payable": false,
      "stateMutability": "view",
      "type": "function"
    },
    {
      "constant": true,
      "inputs": [
        {
          "name": "_testingAddress",
          "type": "address"
        }
      ],
      "name": "couldFund",
      "outputs": [
        {
          "name": "",
          "type": "bool"
        }
      ],
      "payable": false,
      "stateMutability": "view",
      "type": "function"
    },
    {
      "constant": true,
      "inputs": [
        {
          "name": "_airline",
          "type": "address"
        }
      ],
      "name": "isAirlineHasEnoughFund",
      "outputs": [
        {
          "name": "",
          "type": "bool"
        }
      ],
      "payable": false,
      "stateMutability": "view",
      "type": "function"
    },
    {
      "constant": false,
      "inputs": [
        {
          "name": "_name",
          "type": "string"
        },
        {
          "name": "_airline",
          "type": "address"
        }
      ],
      "name": "addAirline",
      "outputs": [],
      "payable": false,
      "stateMutability": "nonpayable",
      "type": "function"
    },
    {
      "constant": false,
      "inputs": [
        {
          "name": "_airline",
          "type": "address"
        },
        {
          "name": "_fund",
          "type": "uint256"
        }
      ],
      "name": "addFund",
      "outputs": [],
      "payable": false,
      "stateMutability": "nonpayable",
      "type": "function"
    },
    {
      "constant": false,
      "inputs": [
        {
          "name": "_airline",
          "type": "address"
        },
        {
          "name": "_fund",
          "type": "uint256"
        }
      ],
      "name": "deductFund",
      "outputs": [],
      "payable": false,
      "stateMutability": "nonpayable",
      "type": "function"
    },
    {
      "constant": true,
      "inputs": [],
      "name": "isFewAirlines",
      "outputs": [
        {
          "name": "",
          "type": "bool"
        }
      ],
      "payable": false,
      "stateMutability": "view",
      "type": "function"
    },
    {
      "constant": true,
      "inputs": [
        {
          "name": "_candidate",
          "type": "address"
        }
      ],
      "name": "moreThanHalf",
      "outputs": [
        {
          "name": "",
          "type": "bool"
        }
      ],
      "payable": false,
      "stateMutability": "view",
      "type": "function"
    },
    {
      "constant": true,
      "inputs": [
        {
          "name": "_candidate",
          "type": "address"
        }
      ],
      "name": "checkVotes",
      "outputs": [
        {
          "name": "",
          "type": "uint256"
        }
      ],
      "payable": false,
      "stateMutability": "view",
      "type": "function"
    },
    {
      "constant": true,
      "inputs": [
        {
          "name": "_candidate",
          "type": "address"
        }
      ],
      "name": "isAirlineFulfill",
      "outputs": [
        {
          "name": "",
          "type": "bool"
        }
      ],
      "payable": false,
      "stateMutability": "view",
      "type": "function"
    },
    {
      "constant": false,
      "inputs": [
        {
          "name": "_candidate",
          "type": "address"
        },
        {
          "name": "voter",
          "type": "address"
        }
      ],
      "name": "vote",
      "outputs": [],
      "payable": false,
      "stateMutability": "nonpayable",
      "type": "function"
    },
    {
      "constant": false,
      "inputs": [
        {
          "name": "_candidate",
          "type": "address"
        }
      ],
      "name": "addToRegisteredAirlines",
      "outputs": [],
      "payable": false,
      "stateMutability": "nonpayable",
      "type": "function"
    },
    {
      "constant": true,
      "inputs": [
        {
          "name": "_airline",
          "type": "address"
        }
      ],
      "name": "queryFund",
      "outputs": [
        {
          "name": "",
          "type": "uint256"
        }
      ],
      "payable": false,
      "stateMutability": "view",
      "type": "function"
    },
    {
      "constant": true,
      "inputs": [
        {
          "name": "_airline",
          "type": "address"
        }
      ],
      "name": "queryAirline",
      "outputs": [
        {
          "name": "name",
          "type": "string"
        },
        {
          "name": "status",
          "type": "uint8"
        },
        {
          "name": "votesCount",
          "type": "uint256"
        },
        {
          "name": "funds",
          "type": "uint256"
        }
      ],
      "payable": false,
      "stateMutability": "view",
      "type": "function"
    },
    {
      "constant": true,
      "inputs": [],
      "name": "queryRegisteredAirlinesCount",
      "outputs": [
        {
          "name": "",
          "type": "uint256"
        }
      ],
      "payable": false,
      "stateMutability": "view",
      "type": "function"
    },
    {
      "constant": true,
      "inputs": [],
      "name": "queryAirlinesCount",
      "outputs": [
        {
          "name": "",
          "type": "uint256"
        }
      ],
      "payable": false,
      "stateMutability": "view",
      "type": "function"
    }
  ],
  "bytecode": "0x608060405234801561001057600080fd5b50612083806100206000396000f3fe608060405234801561001057600080fd5b506004361061012c5760003560e01c80636f1fa7a8116100ad578063c9e4b0d311610071578063c9e4b0d3146105fe578063d512c06114610656578063df00f5ea146106a4578063e9e2ea9514610700578063f53b6d65146107e05761012c565b80636f1fa7a8146103c157806388e4fe3f1461041d57806392a0b6eb1461046b578063aed6862b146104c7578063b3924810146105a25761012c565b806356f4fa1e116100f457806356f4fa1e146102895780635bcd59ae146102ab5780635caea9cb146102c95780635e913b2e146103215780636f0fec4b146103655761012c565b8063010c5c97146101315780631558ac861461018d5780631afa74e5146101ab57806334198f221461020f57806355b2bb0f1461026b575b600080fd5b6101736004803603602081101561014757600080fd5b81019080803573ffffffffffffffffffffffffffffffffffffffff16906020019092919050505061083c565b604051808215151515815260200191505060405180910390f35b6101956108ae565b6040518082815260200191505060405180910390f35b61020d600480360360408110156101c157600080fd5b81019080803573ffffffffffffffffffffffffffffffffffffffff169060200190929190803573ffffffffffffffffffffffffffffffffffffffff1690602001909291905050506108bb565b005b6102516004803603602081101561022557600080fd5b81019080803573ffffffffffffffffffffffffffffffffffffffff169060200190929190505050610b9a565b604051808215151515815260200191505060405180910390f35b610273610bbc565b6040518082815260200191505060405180910390f35b610291610bc8565b604051808215151515815260200191505060405180910390f35b6102b3610bd8565b6040518082815260200191505060405180910390f35b61030b600480360360208110156102df57600080fd5b81019080803573ffffffffffffffffffffffffffffffffffffffff169060200190929190505050610be4565b6040518082815260200191505060405180910390f35b6103636004803603602081101561033757600080fd5b81019080803573ffffffffffffffffffffffffffffffffffffffff169060200190929190505050610c33565b005b6103a76004803603602081101561037b57600080fd5b81019080803573ffffffffffffffffffffffffffffffffffffffff169060200190929190505050610d03565b604051808215151515815260200191505060405180910390f35b610403600480360360208110156103d757600080fd5b81019080803573ffffffffffffffffffffffffffffffffffffffff169060200190929190505050610d74565b604051808215151515815260200191505060405180910390f35b6104696004803603604081101561043357600080fd5b81019080803573ffffffffffffffffffffffffffffffffffffffff16906020019092919080359060200190929190505050610dd7565b005b6104ad6004803603602081101561048157600080fd5b81019080803573ffffffffffffffffffffffffffffffffffffffff169060200190929190505050610fa2565b604051808215151515815260200191505060405180910390f35b6105a0600480360360408110156104dd57600080fd5b81019080803590602001906401000000008111156104fa57600080fd5b82018360208201111561050c57600080fd5b8035906020019184600183028401116401000000008311171561052e57600080fd5b91908080601f016020809104026020016040519081016040528093929190818152602001838380828437600081840152601f19601f820116905080830192505050505050509192919290803573ffffffffffffffffffffffffffffffffffffffff169060200190929190505050610fd4565b005b6105e4600480360360208110156105b857600080fd5b81019080803573ffffffffffffffffffffffffffffffffffffffff16906020019092919050505061137d565b604051808215151515815260200191505060405180910390f35b6106406004803603602081101561061457600080fd5b81019080803573ffffffffffffffffffffffffffffffffffffffff1690602001909291905050506113d3565b6040518082815260200191505060405180910390f35b6106a26004803603604081101561066c57600080fd5b81019080803573ffffffffffffffffffffffffffffffffffffffff1690602001909291908035906020019092919050505061149c565b005b6106e6600480360360208110156106ba57600080fd5b81019080803573ffffffffffffffffffffffffffffffffffffffff1690602001909291905050506115e4565b604051808215151515815260200191505060405180910390f35b6107426004803603602081101561071657600080fd5b81019080803573ffffffffffffffffffffffffffffffffffffffff16906020019092919050505061163d565b604051808060200185600281111561075657fe5b60ff168152602001848152602001838152602001828103825286818151815260200191508051906020019080838360005b838110156107a2578082015181840152602081019050610787565b50505050905090810190601f1680156107cf5780820380516001836020036101000a031916815260200191505b509550505050505060405180910390f35b610822600480360360208110156107f657600080fd5b81019080803573ffffffffffffffffffffffffffffffffffffffff169060200190929190505050611807565b604051808215151515815260200191505060405180910390f35b60006001600281111561084b57fe5b600160008473ffffffffffffffffffffffffffffffffffffffff1673ffffffffffffffffffffffffffffffffffffffff16815260200190815260200160002060010160009054906101000a900460ff1660028111156108a657fe5b149050919050565b6000600280549050905090565b806108c58161083c565b61091a576040517f08c379a0000000000000000000000000000000000000000000000000000000008152600401808060200182810382526024815260200180611f8c6024913960400191505060405180910390fd5b610923836115e4565b610995576040517f08c379a00000000000000000000000000000000000000000000000000000000081526004018080602001828103825260168152602001807f4169726c696e6520646f6573206e6f742065786973740000000000000000000081525060200191505060405180910390fd5b61099e83610d03565b6109f3576040517f08c379a00000000000000000000000000000000000000000000000000000000081526004018080602001828103825260218152602001806120376021913960400191505060405180910390fd5b600160008473ffffffffffffffffffffffffffffffffffffffff1673ffffffffffffffffffffffffffffffffffffffff1681526020019081526020016000206002018290806001815401808255809150509060018203906000526020600020016000909192909190916101000a81548173ffffffffffffffffffffffffffffffffffffffff021916908373ffffffffffffffffffffffffffffffffffffffff16021790555050610aa283610fa2565b15610ab157610ab083610c33565b5b7ff7c50f9eb2df776ff843af719b51fe3587613ead8477a913a6418c893f85ebd98383600160008773ffffffffffffffffffffffffffffffffffffffff1673ffffffffffffffffffffffffffffffffffffffff16815260200190815260200160002060020180549050604051808473ffffffffffffffffffffffffffffffffffffffff1673ffffffffffffffffffffffffffffffffffffffff1681526020018373ffffffffffffffffffffffffffffffffffffffff1673ffffffffffffffffffffffffffffffffffffffff168152602001828152602001935050505060405180910390a1505050565b6000610ba58261083c565b80610bb55750610bb482611807565b5b9050919050565b678ac7230489e8000081565b6000600460028054905010905090565b60008080549050905090565b6000600160008373ffffffffffffffffffffffffffffffffffffffff1673ffffffffffffffffffffffffffffffffffffffff168152602001908152602001600020600201805490509050919050565b610c3c81610d03565b610c91576040517f08c379a00000000000000000000000000000000000000000000000000000000081526004018080602001828103825260238152602001806120146023913960400191505060405180910390fd5b60028190806001815401808255809150509060018203906000526020600020016000909192909190916101000a81548173ffffffffffffffffffffffffffffffffffffffff021916908373ffffffffffffffffffffffffffffffffffffffff16021790555050610d0081611878565b50565b6000806002811115610d1157fe5b600160008473ffffffffffffffffffffffffffffffffffffffff1673ffffffffffffffffffffffffffffffffffffffff16815260200190815260200160002060010160009054906101000a900460ff166002811115610d6c57fe5b149050919050565b600060016002808054905081610d8657fe5b0401600160008473ffffffffffffffffffffffffffffffffffffffff1673ffffffffffffffffffffffffffffffffffffffff1681526020019081526020016000206002018054905010159050919050565b81610de181610b9a565b610e36576040517f08c379a000000000000000000000000000000000000000000000000000000000815260040180806020018281038252603d815260200180611fd7603d913960400191505060405180910390fd5b82610e40816115e4565b610eb2576040517f08c379a00000000000000000000000000000000000000000000000000000000081526004018080602001828103825260168152602001807f4164647265737320646f6573206e6f742065786973740000000000000000000081525060200191505060405180910390fd5b600160008573ffffffffffffffffffffffffffffffffffffffff1673ffffffffffffffffffffffffffffffffffffffff168152602001908152602001600020600301548310610f4c576040517f08c379a0000000000000000000000000000000000000000000000000000000008152600401808060200182810382526027815260200180611fb06027913960400191505060405180910390fd5b82600160008673ffffffffffffffffffffffffffffffffffffffff1673ffffffffffffffffffffffffffffffffffffffff1681526020019081526020016000206003016000828254039250508190555050505050565b6000610fac610bc8565b80610fbc5750610fbb82610d74565b5b15610fca5760019050610fcf565b600090505b919050565b80610fde816115e4565b15611034576040517f08c379a0000000000000000000000000000000000000000000000000000000008152600401808060200182810382526028815260200180611f646028913960400191505060405180910390fd5b61103c611db5565b83816000018190525060008160200190600281111561105757fe5b9081600281111561106457fe5b815250506000816060018181525050600181608001901515908115158152505080600160008573ffffffffffffffffffffffffffffffffffffffff1673ffffffffffffffffffffffffffffffffffffffff16815260200190815260200160002060008201518160000190805190602001906110e0929190611df1565b5060208201518160010160006101000a81548160ff0219169083600281111561110557fe5b02179055506040820151816002019080519060200190611126929190611e71565b506060820151816003015560808201518160040160006101000a81548160ff02191690831515021790555090505060008390806001815401808255809150509060018203906000526020600020016000909192909190916101000a81548173ffffffffffffffffffffffffffffffffffffffff021916908373ffffffffffffffffffffffffffffffffffffffff160217905550507ff3100ff45bd551846ae092da6f82697190f72f24573165d1b06858cda4194d47848460405180806020018373ffffffffffffffffffffffffffffffffffffffff1673ffffffffffffffffffffffffffffffffffffffff168152602001828103825284818151815260200191508051906020019080838360005b8381101561124f578082015181840152602081019050611234565b50505050905090810190601f16801561127c5780820380516001836020036101000a031916815260200191505b50935050505060405180910390a161129383610fa2565b156112a6576112a183610c33565b611377565b7f0dd0455f85bdf4c39bcd8911401aa00834ab66fbbee80ff3189bca70fa94c60d848460405180806020018373ffffffffffffffffffffffffffffffffffffffff1673ffffffffffffffffffffffffffffffffffffffff168152602001828103825284818151815260200191508051906020019080838360005b8381101561133b578082015181840152602081019050611320565b50505050905090810190601f1680156113685780820380516001836020036101000a031916815260200191505b50935050505060405180910390a15b50505050565b6000678ac7230489e80000600160008473ffffffffffffffffffffffffffffffffffffffff1673ffffffffffffffffffffffffffffffffffffffff16815260200190815260200160002060030154119050919050565b6000816113df81611807565b611451576040517f08c379a00000000000000000000000000000000000000000000000000000000081526004018080602001828103825260208152602001807f4169726c696e65206d75737420626520696e2066756e6465642073746174757381525060200191505060405180910390fd5b600160008473ffffffffffffffffffffffffffffffffffffffff1673ffffffffffffffffffffffffffffffffffffffff16815260200190815260200160002060030154915050919050565b816114a681610b9a565b6114fb576040517f08c379a000000000000000000000000000000000000000000000000000000000815260040180806020018281038252603d815260200180611fd7603d913960400191505060405180910390fd5b82611505816115e4565b611577576040517f08c379a00000000000000000000000000000000000000000000000000000000081526004018080602001828103825260168152602001807f4164647265737320646f6573206e6f742065786973740000000000000000000081525060200191505060405180910390fd5b61158084611807565b61158e5761158d84611aee565b5b82600160008673ffffffffffffffffffffffffffffffffffffffff1673ffffffffffffffffffffffffffffffffffffffff1681526020019081526020016000206003016000828254019250508190555050505050565b6000600160008373ffffffffffffffffffffffffffffffffffffffff1673ffffffffffffffffffffffffffffffffffffffff16815260200190815260200160002060040160009054906101000a900460ff169050919050565b60606000806000600160008673ffffffffffffffffffffffffffffffffffffffff1673ffffffffffffffffffffffffffffffffffffffff1681526020019081526020016000206000018054600181600116156101000203166002900480601f01602080910402602001604051908101604052809291908181526020018280546001816001161561010002031660029004801561171a5780601f106116ef5761010080835404028352916020019161171a565b820191906000526020600020905b8154815290600101906020018083116116fd57829003601f168201915b50505050509350600160008673ffffffffffffffffffffffffffffffffffffffff1673ffffffffffffffffffffffffffffffffffffffff16815260200190815260200160002060010160009054906101000a900460ff169250600160008673ffffffffffffffffffffffffffffffffffffffff1673ffffffffffffffffffffffffffffffffffffffff168152602001908152602001600020600201805490509150600160008673ffffffffffffffffffffffffffffffffffffffff1673ffffffffffffffffffffffffffffffffffffffff1681526020019081526020016000206003015490509193509193565b600060028081111561181557fe5b600160008473ffffffffffffffffffffffffffffffffffffffff1673ffffffffffffffffffffffffffffffffffffffff16815260200190815260200160002060010160009054906101000a900460ff16600281111561187057fe5b149050919050565b8061188281610d03565b6118d7576040517f08c379a00000000000000000000000000000000000000000000000000000000081526004018080602001828103825260218152602001806120376021913960400191505060405180910390fd5b60018060008473ffffffffffffffffffffffffffffffffffffffff1673ffffffffffffffffffffffffffffffffffffffff16815260200190815260200160002060010160006101000a81548160ff0219169083600281111561193557fe5b02179055506060600160008473ffffffffffffffffffffffffffffffffffffffff1673ffffffffffffffffffffffffffffffffffffffff1681526020019081526020016000206000018054600181600116156101000203166002900480601f016020809104026020016040519081016040528092919081815260200182805460018160011615610100020316600290048015611a125780601f106119e757610100808354040283529160200191611a12565b820191906000526020600020905b8154815290600101906020018083116119f557829003601f168201915b505050505090507f4389233d1d7e817e3a41447176300b89c596c24ed4d58896d501ddb378abe2c4818460405180806020018373ffffffffffffffffffffffffffffffffffffffff1673ffffffffffffffffffffffffffffffffffffffff168152602001828103825284818151815260200191508051906020019080838360005b83811015611aae578082015181840152602081019050611a93565b50505050905090810190601f168015611adb5780820380516001836020036101000a031916815260200191505b50935050505060405180910390a1505050565b80611af88161083c565b611b4d576040517f08c379a0000000000000000000000000000000000000000000000000000000008152600401808060200182810382526024815260200180611f8c6024913960400191505060405180910390fd5b6002600160008473ffffffffffffffffffffffffffffffffffffffff1673ffffffffffffffffffffffffffffffffffffffff16815260200190815260200160002060010160006101000a81548160ff02191690836002811115611bac57fe5b02179055506060600160008473ffffffffffffffffffffffffffffffffffffffff1673ffffffffffffffffffffffffffffffffffffffff1681526020019081526020016000206000018054600181600116156101000203166002900480601f016020809104026020016040519081016040528092919081815260200182805460018160011615610100020316600290048015611c895780601f10611c5e57610100808354040283529160200191611c89565b820191906000526020600020905b815481529060010190602001808311611c6c57829003601f168201915b505050505090506000600160008573ffffffffffffffffffffffffffffffffffffffff1673ffffffffffffffffffffffffffffffffffffffff1681526020019081526020016000206003015490507f53b7c1b088635937d93a99c488cc77c6d286057c245c779959f41c8b64fc74a282858360405180806020018473ffffffffffffffffffffffffffffffffffffffff1673ffffffffffffffffffffffffffffffffffffffff168152602001838152602001828103825285818151815260200191508051906020019080838360005b83811015611d73578082015181840152602081019050611d58565b50505050905090810190601f168015611da05780820380516001836020036101000a031916815260200191505b5094505050505060405180910390a150505050565b6040518060a001604052806060815260200160006002811115611dd457fe5b815260200160608152602001600081526020016000151581525090565b828054600181600116156101000203166002900490600052602060002090601f016020900481019282601f10611e3257805160ff1916838001178555611e60565b82800160010185558215611e60579182015b82811115611e5f578251825591602001919060010190611e44565b5b509050611e6d9190611efb565b5090565b828054828255906000526020600020908101928215611eea579160200282015b82811115611ee95782518260006101000a81548173ffffffffffffffffffffffffffffffffffffffff021916908373ffffffffffffffffffffffffffffffffffffffff16021790555091602001919060010190611e91565b5b509050611ef79190611f20565b5090565b611f1d91905b80821115611f19576000816000905550600101611f01565b5090565b90565b611f6091905b80821115611f5c57600081816101000a81549073ffffffffffffffffffffffffffffffffffffffff021916905550600101611f26565b5090565b9056fe41646472657373206861732072656769737465726564206173204169726c696e65206265666f72654169726c696e65206d75737420626520696e2072656769737465726564207374617475734169726c696e6527732066756e64206973206e6f7420656e6f75676820746f20706179206e6f774169726c696e65206d7573742065697468657220626520696e2072656769737465726564206f722066756e6465642073746174757320746f2066756e6443616e646964617465206d75737420626520696e20656e7465726564207374617475734169726c696e65206d75737420626520696e20656e746572656420737461747573a165627a7a723058200c28894d5e6c46985d7ca5d8da35d8f901934701e7f2d4e656173e7dd4b69ecb0029",
  "source": "pragma solidity ^0.5.8;\r\n\r\nimport \"../node_modules/openzeppelin-solidity/contracts/math/SafeMath.sol\";\r\n\r\n\r\ncontract AirlineData{\r\n    using SafeMath for uint256;\r\n    uint256 constant public MIN_FUND = 10 ether;\r\n\r\n    struct Airline{\r\n        string name;\r\n        AirlineStatus status;\r\n        address[] voters;\r\n        uint256 fund;\r\n        bool isExist;\r\n    }\r\n    enum AirlineStatus {Entered, Registered, Funded}\r\n\r\n    address[] private airlinesList;\r\n    mapping(address=>Airline) private airlines;\r\n\r\n    address[] private registeredAirlinesList;\r\n    //mapping(address=>Airline) private registeredAirlines;\r\n\r\n    event AirlineEntered(string name, address airline);\r\n    event AirlinePendingVote(string name, address airline);\r\n    event AirlineVoted(address candidate, address voter, uint256 votes);\r\n    event AirlineRegistered(string name, address airline);\r\n    event AirlineFunded(string name, address airline, uint256 fund);\r\n\r\n    /**\r\n    Functions for checking condition of Airline & modifiers\r\n     */\r\n    function isAirlineExist(address _testingAddress) public view returns(bool){\r\n        return airlines[_testingAddress].isExist;\r\n    }\r\n    \r\n    function isAirlineEntered(address _testingAddress) public view returns(bool){\r\n        return airlines[_testingAddress].status == AirlineStatus.Entered;\r\n    }\r\n    modifier requireAirlineNotExist(address _testingAddress){\r\n        require(!isAirlineExist(_testingAddress), \"Address has registered as Airline before\");\r\n        _;\r\n    }\r\n    modifier requireAirlineExist(address _testingAddress){\r\n        require(isAirlineExist(_testingAddress), \"Address does not exist\");\r\n        _;\r\n    }\r\n    modifier requireAirlineEntered(address _testingAddress){\r\n        require(isAirlineEntered(_testingAddress), \"Airline must be in entered status\");\r\n        _;\r\n    }\r\n    function isAirlineRegistered(address _testingAddress) public view returns (bool){\r\n        return airlines[_testingAddress].status == AirlineStatus.Registered;\r\n    }\r\n    modifier requireAirlineRegistered(address _testingAddress){\r\n        require(isAirlineRegistered(_testingAddress), \"Airline must be in registered status\");\r\n        _;\r\n    }\r\n    function isAirlineFunded(address _testingAddress) public view returns (bool){\r\n        return airlines[_testingAddress].status == AirlineStatus.Funded;\r\n    }\r\n    modifier requireAirlineFunded(address _testingAddress){\r\n        require(isAirlineFunded(_testingAddress), \"Airline must be in funded status\");\r\n        _;\r\n    }\r\n\r\n    function couldFund(address _testingAddress) public view returns(bool){\r\n        return (isAirlineRegistered(_testingAddress))||(isAirlineFunded(_testingAddress));\r\n    }\r\n\r\n    modifier requireCouldFund(address _testingAddress){\r\n        require(couldFund(_testingAddress), \"Airline must either be in registered or funded status to fund\");\r\n        _;\r\n    }\r\n\r\n    function isAirlineHasEnoughFund(address _airline) public view returns(bool){\r\n        return airlines[_airline].fund>MIN_FUND;\r\n    }\r\n\r\n    modifier requireAirlinesHasEnoughFund(address _airline){\r\n        require(isAirlineHasEnoughFund(_airline), \"Airline's fund is less than MINIUM fund requirement\");\r\n        _;\r\n    }\r\n\r\n    /*\r\n    function isEnoughToPay(uint256 _funds, address _funder) public view returns(bool){\r\n        return _funder.balance > _funds;\r\n    }\r\n\r\n    modifier requireEnoughToPay(uint256 _funds, address _funder){\r\n        require(isEnoughToPay(_funds, _funder), \"Balance is not enought to fund\");\r\n        _;\r\n    }*/\r\n\r\n    modifier requireMoreThanMin(uint256 _funds){\r\n        require(_funds>MIN_FUND, \"Cannot pay less than minium fund\");\r\n        _;\r\n    }\r\n    /**\r\n    functions for handling airline register and vote\r\n     */\r\n\r\n    function addAirline(string memory _name, address _airline) public requireAirlineNotExist(_airline){\r\n        Airline memory airline;\r\n        airline.name = _name;\r\n        airline.status = AirlineStatus.Entered;\r\n        airline.fund = 0;\r\n        airline.isExist = true;\r\n        airlines[_airline] = airline;\r\n        airlinesList.push(_airline);\r\n        emit AirlineEntered(_name, _airline);\r\n        if (isAirlineFulfill(_airline)) {\r\n            addToRegisteredAirlines(_airline);\r\n        } else {\r\n            emit AirlinePendingVote(_name, _airline);\r\n        }\r\n    }\r\n\r\n    function addFund(address _airline, uint256 _fund) public requireCouldFund(_airline) requireAirlineExist(_airline){\r\n        if (!isAirlineFunded(_airline)){\r\n            _setAirlineFunded(_airline);\r\n        }\r\n        airlines[_airline].fund += _fund;\r\n    }\r\n\r\n    function deductFund(address _airline, uint256 _fund) public requireCouldFund(_airline) requireAirlineExist(_airline){\r\n        require(_fund<airlines[_airline].fund, \"Airline's fund is not enough to pay now\");\r\n        airlines[_airline].fund -= _fund;\r\n    }\r\n\r\n    function isFewAirlines() public view returns (bool){\r\n        return registeredAirlinesList.length<4;\r\n    }\r\n    \r\n    function moreThanHalf(address _candidate) public view returns(bool){\r\n        return airlines[_candidate].voters.length >= ((registeredAirlinesList.length/2)+1);\r\n    }\r\n        \r\n    function checkVotes(address _candidate) public view returns (uint256) {\r\n        return airlines[_candidate].voters.length;\r\n    }\r\n\r\n    function isAirlineFulfill(address _candidate) public view returns (bool){\r\n        if (isFewAirlines()||moreThanHalf(_candidate)){\r\n            return true;\r\n        } else {\r\n            return false;\r\n        }\r\n    }\r\n    \r\n    function vote(address _candidate, address voter) public requireAirlineRegistered(voter){\r\n        require(isAirlineExist(_candidate), \"Airline does not exist\");\r\n        require(isAirlineEntered(_candidate), \"Airline must be in entered status\");\r\n        airlines[_candidate].voters.push(voter);\r\n        if (isAirlineFulfill(_candidate)) addToRegisteredAirlines(_candidate);\r\n        emit AirlineVoted(_candidate, voter, airlines[_candidate].voters.length);\r\n    }\r\n    /**\r\n    functions for setting airline status\r\n     */\r\n\r\n    function _setAirlineRegistered(address _candidate) internal requireAirlineEntered(_candidate) {\r\n        airlines[_candidate].status = AirlineStatus.Registered;\r\n        string memory _name = airlines[_candidate].name;\r\n        emit AirlineRegistered(_name, _candidate);\r\n    }\r\n\r\n    function _setAirlineFunded(address _candidate) internal requireAirlineRegistered(_candidate) {\r\n        airlines[_candidate].status = AirlineStatus.Funded;\r\n        string memory _name = airlines[_candidate].name;\r\n        uint256 _fund = airlines[_candidate].fund;\r\n        emit AirlineFunded(_name, _candidate, _fund);\r\n    }\r\n\r\n    function addToRegisteredAirlines(address _candidate) public {\r\n        require(isAirlineEntered(_candidate), \"Candidate must be in entered status\");\r\n        //registeredAirlines[_candidate] = airlines[_candidate];\r\n        registeredAirlinesList.push(_candidate);\r\n        _setAirlineRegistered(_candidate);\r\n    }\r\n\r\n    /**\r\n    functions for query airline data\r\n     */\r\n    function queryFund(address _airline)public view requireAirlineFunded(_airline) returns(uint256){\r\n        return airlines[_airline].fund;\r\n    }\r\n\r\n    function queryAirline(address _airline) public view returns(string memory name, AirlineStatus status, uint256 votesCount, uint256 funds){\r\n            name = airlines[_airline].name;\r\n            status = airlines[_airline].status;\r\n            votesCount = airlines[_airline].voters.length;\r\n            funds = airlines[_airline].fund;\r\n        }\r\n\r\n    function queryRegisteredAirlinesCount() public view returns(uint256){\r\n        return registeredAirlinesList.length;\r\n    }\r\n\r\n    function queryAirlinesCount() public view returns(uint256){\r\n        return airlinesList.length;\r\n    }\r\n}",
  "sourcePath": "C:\\Users\\andrewchan88\\Documents\\Coding\\udacity\\Blockchain\\PartB\\homework\\project7_es_rm\\contracts\\AirlineData.sol",
  "compiler": {
    "name": "solc",
    "version": "0.5.8+commit.23d335f2.Emscripten.clang"
  },
  "schemaVersion": "3.0.13",
  "updatedAt": "2019-10-01T04:55:09.471Z",
  "devdoc": {
    "methods": {}
  },
  "userdoc": {
    "methods": {
      "addAirline(string,address)": {
        "notice": "functions for handling airline register and vote\r"
      },
      "isAirlineExist(address)": {
        "notice": "Functions for checking condition of Airline & modifiers\r"
      },
      "queryFund(address)": {
        "notice": "functions for query airline data\r"
      }
    }
  }
}