{
  "contractName": "Authorizable",
  "abi": [
    {
      "constant": false,
      "inputs": [
        {
          "name": "mode",
          "type": "bool"
        }
      ],
      "name": "setOperatingStatus",
      "outputs": [],
      "payable": false,
      "stateMutability": "nonpayable",
      "type": "function"
    },
    {
      "constant": true,
      "inputs": [],
      "name": "getOwner",
      "outputs": [
        {
          "name": "",
          "type": "address"
        }
      ],
      "payable": false,
      "stateMutability": "view",
      "type": "function"
    },
    {
      "constant": true,
      "inputs": [],
      "name": "isOperational",
      "outputs": [
        {
          "name": "",
          "type": "bool"
        }
      ],
      "payable": false,
      "stateMutability": "view",
      "type": "function"
    },
    {
      "constant": true,
      "inputs": [
        {
          "name": "_candidate",
          "type": "address"
        }
      ],
      "name": "isAuthorizedCaller",
      "outputs": [
        {
          "name": "",
          "type": "bool"
        }
      ],
      "payable": false,
      "stateMutability": "view",
      "type": "function"
    },
    {
      "constant": false,
      "inputs": [
        {
          "name": "_candidate",
          "type": "address"
        }
      ],
      "name": "addAuthorizedCaller",
      "outputs": [],
      "payable": false,
      "stateMutability": "nonpayable",
      "type": "function"
    }
  ],
  "bytecode": "0x60806040526001600060146101000a81548160ff021916908315150217905550336000806101000a81548173ffffffffffffffffffffffffffffffffffffffff021916908373ffffffffffffffffffffffffffffffffffffffff1602179055506104d68061006e6000396000f3fe608060405234801561001057600080fd5b50600436106100575760003560e01c8063110466ed1461005c57806313a155ea1461008c57806359d14b41146100d0578063893d20e81461012c578063cd905dff14610176575b600080fd5b61008a6004803603602081101561007257600080fd5b81019080803515159060200190929190505050610198565b005b6100ce600480360360208110156100a257600080fd5b81019080803573ffffffffffffffffffffffffffffffffffffffff169060200190929190505050610277565b005b610112600480360360208110156100e657600080fd5b81019080803573ffffffffffffffffffffffffffffffffffffffff1690602001909291905050506103f0565b604051808215151515815260200191505060405180910390f35b610134610446565b604051808273ffffffffffffffffffffffffffffffffffffffff1673ffffffffffffffffffffffffffffffffffffffff16815260200191505060405180910390f35b61017e61046f565b604051808215151515815260200191505060405180910390f35b6000809054906101000a900473ffffffffffffffffffffffffffffffffffffffff1673ffffffffffffffffffffffffffffffffffffffff163373ffffffffffffffffffffffffffffffffffffffff161461025a576040517f08c379a000000000000000000000000000000000000000000000000000000000815260040180806020018281038252601c8152602001807f43616c6c6572206973206e6f7420636f6e7472616374206f776e65720000000081525060200191505060405180910390fd5b80600060146101000a81548160ff02191690831515021790555050565b61027f61046f565b6102d4576040517f08c379a00000000000000000000000000000000000000000000000000000000081526004018080602001828103825260258152602001806104866025913960400191505060405180910390fd5b6000809054906101000a900473ffffffffffffffffffffffffffffffffffffffff1673ffffffffffffffffffffffffffffffffffffffff163373ffffffffffffffffffffffffffffffffffffffff1614610396576040517f08c379a000000000000000000000000000000000000000000000000000000000815260040180806020018281038252601c8152602001807f43616c6c6572206973206e6f7420636f6e7472616374206f776e65720000000081525060200191505060405180910390fd5b60018060008373ffffffffffffffffffffffffffffffffffffffff1673ffffffffffffffffffffffffffffffffffffffff16815260200190815260200160002060006101000a81548160ff02191690831515021790555050565b6000600160008373ffffffffffffffffffffffffffffffffffffffff1673ffffffffffffffffffffffffffffffffffffffff16815260200190815260200160002060009054906101000a900460ff169050919050565b60008060009054906101000a900473ffffffffffffffffffffffffffffffffffffffff16905090565b60008060149054906101000a900460ff1690509056fe436f6e74726163742069732063757272656e746c79206e6f74206f7065726174696f6e616ca165627a7a72305820f48d4a1729146bf7d6be181427dde5cf2b9d80425106f234a48f17c6d6febe9c0029",
  "source": "pragma solidity ^0.5.8;\r\n\r\nimport \"./Operational.sol\";\r\n\r\ncontract Authorizable is Operational{\r\n    //bool private authorizable = false;\r\n\r\n    mapping(address=>bool) authorizedCallers;\r\n\r\n    function isAuthorizedCaller(address _candidate) public view returns(bool){\r\n        return authorizedCallers[_candidate];\r\n    }\r\n\r\n    modifier requireAuthorizedCaller(address _candidate){\r\n        //require((!authorizable)||(authorizedCallers[_candidate]), \"Only authorized callers could call this function\");\r\n        require(authorizedCallers[_candidate], \"Only authorized callers could call this function\");\r\n        _;\r\n    }\r\n\r\n    function addAuthorizedCaller(address _candidate) public requireIsOperational requireContractOwner{\r\n        authorizedCallers[_candidate] = true;\r\n    }\r\n\r\n    /*\r\n    function setAuthorizable(bool _setting) public requireIsOperational requireContractOwner{\r\n        authorizable = _setting;\r\n    }\r\n\r\n    function isAuthorizable() public view returns(bool){\r\n        return authorizable;\r\n    }\r\n    */\r\n}\r\n",
  "sourcePath": "C:\\Users\\andrewchan88\\Documents\\Coding\\udacity\\Blockchain\\PartB\\homework\\project7_es_rm\\contracts\\Authorizable.sol",
  "compiler": {
    "name": "solc",
    "version": "0.5.8+commit.23d335f2.Emscripten.clang"
  },
  "schemaVersion": "3.0.13",
  "updatedAt": "2019-10-12T07:44:54.799Z",
  "devdoc": {
    "methods": {
      "isOperational()": {
        "details": "Modifier that requires the \"operational\" boolean variable to be \"true\"\r     This is used on all state changing functions to pause the contract in \r     the event there is an issue that needs to be fixed\r"
      }
    }
  },
  "userdoc": {
    "methods": {}
  }
}