{
  "contractName": "BuyerData",
  "abi": [
    {
      "constant": false,
      "inputs": [
        {
          "name": "mode",
          "type": "bool"
        }
      ],
      "name": "setOperatingStatus",
      "outputs": [],
      "payable": false,
      "stateMutability": "nonpayable",
      "type": "function"
    },
    {
      "constant": false,
      "inputs": [
        {
          "name": "_candidate",
          "type": "address"
        }
      ],
      "name": "addAuthorizedCaller",
      "outputs": [],
      "payable": false,
      "stateMutability": "nonpayable",
      "type": "function"
    },
    {
      "constant": true,
      "inputs": [
        {
          "name": "_candidate",
          "type": "address"
        }
      ],
      "name": "isAuthorizedCaller",
      "outputs": [
        {
          "name": "",
          "type": "bool"
        }
      ],
      "payable": false,
      "stateMutability": "view",
      "type": "function"
    },
    {
      "constant": true,
      "inputs": [],
      "name": "getOwner",
      "outputs": [
        {
          "name": "",
          "type": "address"
        }
      ],
      "payable": false,
      "stateMutability": "view",
      "type": "function"
    },
    {
      "constant": true,
      "inputs": [],
      "name": "isOperational",
      "outputs": [
        {
          "name": "",
          "type": "bool"
        }
      ],
      "payable": false,
      "stateMutability": "view",
      "type": "function"
    },
    {
      "constant": true,
      "inputs": [
        {
          "name": "_buyer",
          "type": "address"
        }
      ],
      "name": "isBuyerExist",
      "outputs": [
        {
          "name": "",
          "type": "bool"
        }
      ],
      "payable": false,
      "stateMutability": "view",
      "type": "function"
    },
    {
      "constant": false,
      "inputs": [
        {
          "name": "_buyer",
          "type": "address"
        },
        {
          "name": "_insuranceKey",
          "type": "bytes32"
        }
      ],
      "name": "appendInsurance",
      "outputs": [],
      "payable": false,
      "stateMutability": "nonpayable",
      "type": "function"
    },
    {
      "constant": false,
      "inputs": [
        {
          "name": "_buyer",
          "type": "address"
        },
        {
          "name": "_flightKey",
          "type": "bytes32"
        }
      ],
      "name": "appendFlight",
      "outputs": [],
      "payable": false,
      "stateMutability": "nonpayable",
      "type": "function"
    },
    {
      "constant": false,
      "inputs": [
        {
          "name": "_buyer",
          "type": "address"
        },
        {
          "name": "_credits",
          "type": "uint256"
        }
      ],
      "name": "addCreditsToBuyer",
      "outputs": [],
      "payable": false,
      "stateMutability": "nonpayable",
      "type": "function"
    },
    {
      "constant": false,
      "inputs": [
        {
          "name": "_buyer",
          "type": "address"
        }
      ],
      "name": "deductCredits",
      "outputs": [],
      "payable": false,
      "stateMutability": "nonpayable",
      "type": "function"
    },
    {
      "constant": true,
      "inputs": [
        {
          "name": "_buyer",
          "type": "address"
        }
      ],
      "name": "queryBuyerInsuranceKeys",
      "outputs": [
        {
          "name": "",
          "type": "bytes32[]"
        }
      ],
      "payable": false,
      "stateMutability": "view",
      "type": "function"
    },
    {
      "constant": true,
      "inputs": [
        {
          "name": "_buyer",
          "type": "address"
        }
      ],
      "name": "queryBuyerFlightKeys",
      "outputs": [
        {
          "name": "",
          "type": "bytes32[]"
        }
      ],
      "payable": false,
      "stateMutability": "view",
      "type": "function"
    },
    {
      "constant": true,
      "inputs": [
        {
          "name": "_buyer",
          "type": "address"
        }
      ],
      "name": "queryBuyerCredit",
      "outputs": [
        {
          "name": "",
          "type": "uint256"
        }
      ],
      "payable": false,
      "stateMutability": "view",
      "type": "function"
    }
  ],
  "bytecode": "0x60806040526001600060146101000a81548160ff021916908315150217905550336000806101000a81548173ffffffffffffffffffffffffffffffffffffffff021916908373ffffffffffffffffffffffffffffffffffffffff16021790555061101e8061006e6000396000f3fe608060405234801561001057600080fd5b50600436106100cf5760003560e01c80638836a3181161008c578063ad90a0c011610066578063ad90a0c01461040a578063b7c6342f14610458578063b8849073146104a6578063cd905dff14610502576100cf565b80638836a318146102d9578063893d20e814610327578063a6120b8814610371576100cf565b80630d829250146100d4578063110466ed1461011857806313a155ea146101485780633d43020b1461018c57806359d14b41146101e45780637088475614610240575b600080fd5b610116600480360360208110156100ea57600080fd5b81019080803573ffffffffffffffffffffffffffffffffffffffff169060200190929190505050610524565b005b6101466004803603602081101561012e57600080fd5b810190808035151590602001909291905050506105ec565b005b61018a6004803603602081101561015e57600080fd5b81019080803573ffffffffffffffffffffffffffffffffffffffff1690602001909291905050506106cb565b005b6101ce600480360360208110156101a257600080fd5b81019080803573ffffffffffffffffffffffffffffffffffffffff169060200190929190505050610844565b6040518082815260200191505060405180910390f35b610226600480360360208110156101fa57600080fd5b81019080803573ffffffffffffffffffffffffffffffffffffffff16906020019092919050505061090d565b604051808215151515815260200191505060405180910390f35b6102826004803603602081101561025657600080fd5b81019080803573ffffffffffffffffffffffffffffffffffffffff169060200190929190505050610963565b6040518080602001828103825283818151815260200191508051906020019060200280838360005b838110156102c55780820151818401526020810190506102aa565b505050509050019250505060405180910390f35b610325600480360360408110156102ef57600080fd5b81019080803573ffffffffffffffffffffffffffffffffffffffff16906020019092919080359060200190929190505050610a7a565b005b61032f610b03565b604051808273ffffffffffffffffffffffffffffffffffffffff1673ffffffffffffffffffffffffffffffffffffffff16815260200191505060405180910390f35b6103b36004803603602081101561038757600080fd5b81019080803573ffffffffffffffffffffffffffffffffffffffff169060200190929190505050610b2c565b6040518080602001828103825283818151815260200191508051906020019060200280838360005b838110156103f65780820151818401526020810190506103db565b505050509050019250505060405180910390f35b6104566004803603604081101561042057600080fd5b81019080803573ffffffffffffffffffffffffffffffffffffffff16906020019092919080359060200190929190505050610c43565b005b6104a46004803603604081101561046e57600080fd5b81019080803573ffffffffffffffffffffffffffffffffffffffff16906020019092919080359060200190929190505050610ccc565b005b6104e8600480360360208110156104bc57600080fd5b81019080803573ffffffffffffffffffffffffffffffffffffffff169060200190929190505050610d9d565b604051808215151515815260200191505060405180910390f35b61050a610df6565b604051808215151515815260200191505060405180910390f35b8061052e81610d9d565b6105a0576040517f08c379a00000000000000000000000000000000000000000000000000000000081526004018080602001828103825260138152602001807f427579657220646f65736e27742065786973740000000000000000000000000081525060200191505060405180910390fd5b6000600260008473ffffffffffffffffffffffffffffffffffffffff1673ffffffffffffffffffffffffffffffffffffffff168152602001908152602001600020600001819055505050565b6000809054906101000a900473ffffffffffffffffffffffffffffffffffffffff1673ffffffffffffffffffffffffffffffffffffffff163373ffffffffffffffffffffffffffffffffffffffff16146106ae576040517f08c379a000000000000000000000000000000000000000000000000000000000815260040180806020018281038252601c8152602001807f43616c6c6572206973206e6f7420636f6e7472616374206f776e65720000000081525060200191505060405180910390fd5b80600060146101000a81548160ff02191690831515021790555050565b6106d3610df6565b610728576040517f08c379a0000000000000000000000000000000000000000000000000000000008152600401808060200182810382526025815260200180610fce6025913960400191505060405180910390fd5b6000809054906101000a900473ffffffffffffffffffffffffffffffffffffffff1673ffffffffffffffffffffffffffffffffffffffff163373ffffffffffffffffffffffffffffffffffffffff16146107ea576040517f08c379a000000000000000000000000000000000000000000000000000000000815260040180806020018281038252601c8152602001807f43616c6c6572206973206e6f7420636f6e7472616374206f776e65720000000081525060200191505060405180910390fd5b60018060008373ffffffffffffffffffffffffffffffffffffffff1673ffffffffffffffffffffffffffffffffffffffff16815260200190815260200160002060006101000a81548160ff02191690831515021790555050565b60008161085081610d9d565b6108c2576040517f08c379a00000000000000000000000000000000000000000000000000000000081526004018080602001828103825260138152602001807f427579657220646f65736e27742065786973740000000000000000000000000081525060200191505060405180910390fd5b600260008473ffffffffffffffffffffffffffffffffffffffff1673ffffffffffffffffffffffffffffffffffffffff16815260200190815260200160002060000154915050919050565b6000600160008373ffffffffffffffffffffffffffffffffffffffff1673ffffffffffffffffffffffffffffffffffffffff16815260200190815260200160002060009054906101000a900460ff169050919050565b60608161096f81610d9d565b6109e1576040517f08c379a00000000000000000000000000000000000000000000000000000000081526004018080602001828103825260138152602001807f427579657220646f65736e27742065786973740000000000000000000000000081525060200191505060405180910390fd5b600260008473ffffffffffffffffffffffffffffffffffffffff1673ffffffffffffffffffffffffffffffffffffffff168152602001908152602001600020600201805480602002602001604051908101604052809291908181526020018280548015610a6d57602002820191906000526020600020905b815481526020019060010190808311610a59575b5050505050915050919050565b81610a8481610d9d565b610a9257610a9181610e0c565b5b600260008473ffffffffffffffffffffffffffffffffffffffff1673ffffffffffffffffffffffffffffffffffffffff168152602001908152602001600020600201829080600181540180825580915050906001820390600052602060002001600090919290919091505550505050565b60008060009054906101000a900473ffffffffffffffffffffffffffffffffffffffff16905090565b606081610b3881610d9d565b610baa576040517f08c379a00000000000000000000000000000000000000000000000000000000081526004018080602001828103825260138152602001807f427579657220646f65736e27742065786973740000000000000000000000000081525060200191505060405180910390fd5b600260008473ffffffffffffffffffffffffffffffffffffffff1673ffffffffffffffffffffffffffffffffffffffff168152602001908152602001600020600201805480602002602001604051908101604052809291908181526020018280548015610c3657602002820191906000526020600020905b815481526020019060010190808311610c22575b5050505050915050919050565b81610c4d81610d9d565b610c5b57610c5a81610e0c565b5b600260008473ffffffffffffffffffffffffffffffffffffffff1673ffffffffffffffffffffffffffffffffffffffff168152602001908152602001600020600301829080600181540180825580915050906001820390600052602060002001600090919290919091505550505050565b81610cd681610d9d565b610d48576040517f08c379a00000000000000000000000000000000000000000000000000000000081526004018080602001828103825260138152602001807f427579657220646f65736e27742065786973740000000000000000000000000081525060200191505060405180910390fd5b81600260008573ffffffffffffffffffffffffffffffffffffffff1673ffffffffffffffffffffffffffffffffffffffff16815260200190815260200160002060000160008282540192505081905550505050565b6000600260008373ffffffffffffffffffffffffffffffffffffffff1673ffffffffffffffffffffffffffffffffffffffff16815260200190815260200160002060010160009054906101000a900460ff169050919050565b60008060149054906101000a900460ff16905090565b610e1581610d9d565b15610e88576040517f08c379a000000000000000000000000000000000000000000000000000000000815260040180806020018281038252600c8152602001807f427579657220657869737473000000000000000000000000000000000000000081525060200191505060405180910390fd5b60608060405180608001604052806000815260200160011515815260200183815260200182815250600260008573ffffffffffffffffffffffffffffffffffffffff1673ffffffffffffffffffffffffffffffffffffffff1681526020019081526020016000206000820151816000015560208201518160010160006101000a81548160ff0219169083151502179055506040820151816002019080519060200190610f35929190610f5b565b506060820151816003019080519060200190610f52929190610f5b565b50905050505050565b828054828255906000526020600020908101928215610f97579160200282015b82811115610f96578251825591602001919060010190610f7b565b5b509050610fa49190610fa8565b5090565b610fca91905b80821115610fc6576000816000905550600101610fae565b5090565b9056fe436f6e74726163742069732063757272656e746c79206e6f74206f7065726174696f6e616ca165627a7a7230582008c00fcd0db72804fe524901e4767e6c9075f368065bc380b1fd3b4e50b272320029",
  "source": "pragma solidity ^0.5.8;\r\n\r\nimport \"../node_modules/openzeppelin-solidity/contracts/math/SafeMath.sol\";\r\nimport \"./Authorizable.sol\";\r\n\r\ncontract BuyerData is Authorizable{\r\n    using SafeMath for uint256;\r\n\r\n    struct Buyer{\r\n        uint256 credits;\r\n        bool isExist;\r\n        bytes32[] allInsuranceKeys;\r\n        bytes32[] allFlightKeys;\r\n    }\r\n\r\n    mapping(address=>Buyer) buyers;\r\n\r\n    function isBuyerExist(address _buyer) public view returns(bool){\r\n        return buyers[_buyer].isExist;\r\n    }\r\n\r\n    modifier requireBuyerExist(address _buyer) {\r\n        require(isBuyerExist(_buyer), \"Buyer doesn't exist\");\r\n        _;\r\n    }\r\n\r\n    function addBuyer(address _buyer) internal {\r\n        require(!isBuyerExist(_buyer), \"Buyer exists\");\r\n        bytes32[] memory _allInsuranceKeys;\r\n        bytes32[] memory _allFlightKeys;\r\n        buyers[_buyer] = Buyer({\r\n            credits:0, isExist:true, \r\n            allInsuranceKeys:_allInsuranceKeys,\r\n            allFlightKeys:_allFlightKeys\r\n        });\r\n    }\r\n\r\n    modifier autoAddBuyer(address _buyer){\r\n        if(!isBuyerExist(_buyer)){\r\n            addBuyer(_buyer);\r\n        }\r\n        _;\r\n    }\r\n\r\n    function appendInsurance(address _buyer, bytes32 _insuranceKey) public autoAddBuyer(_buyer){\r\n        buyers[_buyer].allInsuranceKeys.push(_insuranceKey);\r\n    }\r\n\r\n    function appendFlight(address _buyer, bytes32 _flightKey) public autoAddBuyer(_buyer){\r\n        buyers[_buyer].allFlightKeys.push(_flightKey);\r\n    }\r\n\r\n    function addCreditsToBuyer(address _buyer, uint256 _credits) public requireBuyerExist(_buyer){\r\n        buyers[_buyer].credits += _credits;\r\n    }\r\n\r\n    function deductCredits(address _buyer) public requireBuyerExist(_buyer){\r\n        buyers[_buyer].credits = 0;\r\n    }\r\n\r\n    function queryBuyerInsuranceKeys(address _buyer) public view requireBuyerExist(_buyer) returns(bytes32[] memory){\r\n        return buyers[_buyer].allInsuranceKeys;\r\n    }\r\n\r\n    function queryBuyerFlightKeys(address _buyer) public view requireBuyerExist(_buyer) returns(bytes32[] memory){\r\n        return buyers[_buyer].allInsuranceKeys;\r\n    }\r\n\r\n    function queryBuyerCredit(address _buyer) public view requireBuyerExist(_buyer) returns(uint256){\r\n        return buyers[_buyer].credits;\r\n    }\r\n}",
  "sourcePath": "C:/Users/andrewchan88/Documents/Coding/udacity/Blockchain/PartB/homework/project7_es_rm/contracts/BuyerData.sol",
  "compiler": {
    "name": "solc",
    "version": "0.5.8+commit.23d335f2.Emscripten.clang"
  },
  "schemaVersion": "3.0.13",
  "updatedAt": "2019-10-12T07:44:58.406Z",
  "devdoc": {
    "methods": {
      "isOperational()": {
        "details": "Modifier that requires the \"operational\" boolean variable to be \"true\"\r     This is used on all state changing functions to pause the contract in \r     the event there is an issue that needs to be fixed\r"
      }
    }
  },
  "userdoc": {
    "methods": {}
  }
}