{
  "contractName": "FlightSuretyData",
  "abi": [
    {
      "constant": true,
      "inputs": [
        {
          "name": "_testingAddress",
          "type": "address"
        }
      ],
      "name": "isAirlineRegistered",
      "outputs": [
        {
          "name": "",
          "type": "bool"
        }
      ],
      "payable": false,
      "stateMutability": "view",
      "type": "function"
    },
    {
      "constant": false,
      "inputs": [
        {
          "name": "_buyer",
          "type": "address"
        }
      ],
      "name": "deductCredits",
      "outputs": [],
      "payable": false,
      "stateMutability": "nonpayable",
      "type": "function"
    },
    {
      "constant": false,
      "inputs": [
        {
          "name": "_flightKey",
          "type": "bytes32"
        },
        {
          "name": "_insuranceKey",
          "type": "bytes32"
        }
      ],
      "name": "addInsuranceKey",
      "outputs": [],
      "payable": false,
      "stateMutability": "nonpayable",
      "type": "function"
    },
    {
      "constant": false,
      "inputs": [
        {
          "name": "mode",
          "type": "bool"
        }
      ],
      "name": "setOperatingStatus",
      "outputs": [],
      "payable": false,
      "stateMutability": "nonpayable",
      "type": "function"
    },
    {
      "constant": false,
      "inputs": [
        {
          "name": "_candidate",
          "type": "address"
        }
      ],
      "name": "addAuthorizedCaller",
      "outputs": [],
      "payable": false,
      "stateMutability": "nonpayable",
      "type": "function"
    },
    {
      "constant": true,
      "inputs": [],
      "name": "queryRegisteredAirlinesCount",
      "outputs": [
        {
          "name": "",
          "type": "uint256"
        }
      ],
      "payable": false,
      "stateMutability": "view",
      "type": "function"
    },
    {
      "constant": true,
      "inputs": [
        {
          "name": "_id",
          "type": "bytes32"
        }
      ],
      "name": "isFlightExist",
      "outputs": [
        {
          "name": "",
          "type": "bool"
        }
      ],
      "payable": false,
      "stateMutability": "view",
      "type": "function"
    },
    {
      "constant": true,
      "inputs": [
        {
          "name": "_testingAddress",
          "type": "address"
        }
      ],
      "name": "couldFund",
      "outputs": [
        {
          "name": "",
          "type": "bool"
        }
      ],
      "payable": false,
      "stateMutability": "view",
      "type": "function"
    },
    {
      "constant": true,
      "inputs": [
        {
          "name": "_insuranceKey",
          "type": "bytes32"
        }
      ],
      "name": "queryInsuranceInfo",
      "outputs": [
        {
          "name": "buyer",
          "type": "address"
        },
        {
          "name": "flightKey",
          "type": "bytes32"
        },
        {
          "name": "airline",
          "type": "address"
        },
        {
          "name": "fee",
          "type": "uint256"
        },
        {
          "name": "credits",
          "type": "uint256"
        },
        {
          "name": "contractTimestamp",
          "type": "uint256"
        },
        {
          "name": "insuranceStatus",
          "type": "uint8"
        }
      ],
      "payable": false,
      "stateMutability": "view",
      "type": "function"
    },
    {
      "constant": true,
      "inputs": [
        {
          "name": "_buyer",
          "type": "address"
        }
      ],
      "name": "queryBuyerCredit",
      "outputs": [
        {
          "name": "",
          "type": "uint256"
        }
      ],
      "payable": false,
      "stateMutability": "view",
      "type": "function"
    },
    {
      "constant": true,
      "inputs": [
        {
          "name": "_flightID",
          "type": "bytes32"
        }
      ],
      "name": "getNumberOfInsurance",
      "outputs": [
        {
          "name": "",
          "type": "uint256"
        }
      ],
      "payable": false,
      "stateMutability": "view",
      "type": "function"
    },
    {
      "constant": true,
      "inputs": [],
      "name": "MIN_FUND",
      "outputs": [
        {
          "name": "",
          "type": "uint256"
        }
      ],
      "payable": false,
      "stateMutability": "view",
      "type": "function"
    },
    {
      "constant": true,
      "inputs": [],
      "name": "isFewAirlines",
      "outputs": [
        {
          "name": "",
          "type": "bool"
        }
      ],
      "payable": false,
      "stateMutability": "view",
      "type": "function"
    },
    {
      "constant": true,
      "inputs": [
        {
          "name": "_id",
          "type": "bytes32"
        }
      ],
      "name": "isFlightRegistered",
      "outputs": [
        {
          "name": "",
          "type": "bool"
        }
      ],
      "payable": false,
      "stateMutability": "view",
      "type": "function"
    },
    {
      "constant": true,
      "inputs": [
        {
          "name": "_candidate",
          "type": "address"
        }
      ],
      "name": "isAuthorizedCaller",
      "outputs": [
        {
          "name": "",
          "type": "bool"
        }
      ],
      "payable": false,
      "stateMutability": "view",
      "type": "function"
    },
    {
      "constant": true,
      "inputs": [],
      "name": "queryAirlinesCount",
      "outputs": [
        {
          "name": "",
          "type": "uint256"
        }
      ],
      "payable": false,
      "stateMutability": "view",
      "type": "function"
    },
    {
      "constant": true,
      "inputs": [
        {
          "name": "_candidate",
          "type": "address"
        }
      ],
      "name": "checkVotes",
      "outputs": [
        {
          "name": "",
          "type": "uint256"
        }
      ],
      "payable": false,
      "stateMutability": "view",
      "type": "function"
    },
    {
      "constant": false,
      "inputs": [
        {
          "name": "_candidate",
          "type": "address"
        }
      ],
      "name": "addToRegisteredAirlines",
      "outputs": [],
      "payable": false,
      "stateMutability": "nonpayable",
      "type": "function"
    },
    {
      "constant": true,
      "inputs": [
        {
          "name": "_code",
          "type": "string"
        },
        {
          "name": "_timestamp",
          "type": "uint256"
        }
      ],
      "name": "generateFlightKey",
      "outputs": [
        {
          "name": "",
          "type": "bytes32"
        }
      ],
      "payable": false,
      "stateMutability": "pure",
      "type": "function"
    },
    {
      "constant": true,
      "inputs": [
        {
          "name": "_insuranceKey",
          "type": "bytes32"
        },
        {
          "name": "_candidate",
          "type": "address"
        }
      ],
      "name": "isBuyer",
      "outputs": [
        {
          "name": "",
          "type": "bool"
        }
      ],
      "payable": false,
      "stateMutability": "view",
      "type": "function"
    },
    {
      "constant": true,
      "inputs": [
        {
          "name": "_insuranceKey",
          "type": "bytes32"
        },
        {
          "name": "_candidate",
          "type": "address"
        }
      ],
      "name": "isAirline",
      "outputs": [
        {
          "name": "",
          "type": "bool"
        }
      ],
      "payable": false,
      "stateMutability": "view",
      "type": "function"
    },
    {
      "constant": true,
      "inputs": [
        {
          "name": "_testingAddress",
          "type": "address"
        }
      ],
      "name": "isAirlineEntered",
      "outputs": [
        {
          "name": "",
          "type": "bool"
        }
      ],
      "payable": false,
      "stateMutability": "view",
      "type": "function"
    },
    {
      "constant": true,
      "inputs": [
        {
          "name": "_candidate",
          "type": "address"
        }
      ],
      "name": "moreThanHalf",
      "outputs": [
        {
          "name": "",
          "type": "bool"
        }
      ],
      "payable": false,
      "stateMutability": "view",
      "type": "function"
    },
    {
      "constant": true,
      "inputs": [
        {
          "name": "_flightKey",
          "type": "bytes32"
        },
        {
          "name": "_insuranceKey",
          "type": "bytes32"
        }
      ],
      "name": "isFlightHasThisInsuranceKey",
      "outputs": [
        {
          "name": "",
          "type": "bool"
        }
      ],
      "payable": false,
      "stateMutability": "view",
      "type": "function"
    },
    {
      "constant": true,
      "inputs": [
        {
          "name": "_insuranceKey",
          "type": "bytes32"
        }
      ],
      "name": "isExist",
      "outputs": [
        {
          "name": "",
          "type": "bool"
        }
      ],
      "payable": false,
      "stateMutability": "view",
      "type": "function"
    },
    {
      "constant": true,
      "inputs": [
        {
          "name": "_airline",
          "type": "address"
        },
        {
          "name": "_flightKey",
          "type": "bytes32"
        }
      ],
      "name": "isFlightOwner",
      "outputs": [
        {
          "name": "",
          "type": "bool"
        }
      ],
      "payable": false,
      "stateMutability": "view",
      "type": "function"
    },
    {
      "constant": false,
      "inputs": [
        {
          "name": "_airline",
          "type": "address"
        },
        {
          "name": "_fund",
          "type": "uint256"
        }
      ],
      "name": "deductFund",
      "outputs": [],
      "payable": false,
      "stateMutability": "nonpayable",
      "type": "function"
    },
    {
      "constant": true,
      "inputs": [
        {
          "name": "_insuranceKey",
          "type": "bytes32"
        }
      ],
      "name": "queryInsuranceBuyer",
      "outputs": [
        {
          "name": "",
          "type": "address"
        }
      ],
      "payable": false,
      "stateMutability": "view",
      "type": "function"
    },
    {
      "constant": true,
      "inputs": [],
      "name": "getOwner",
      "outputs": [
        {
          "name": "",
          "type": "address"
        }
      ],
      "payable": false,
      "stateMutability": "view",
      "type": "function"
    },
    {
      "constant": true,
      "inputs": [
        {
          "name": "_candidate",
          "type": "address"
        }
      ],
      "name": "isAirlineFulfill",
      "outputs": [
        {
          "name": "",
          "type": "bool"
        }
      ],
      "payable": false,
      "stateMutability": "view",
      "type": "function"
    },
    {
      "constant": false,
      "inputs": [
        {
          "name": "_name",
          "type": "string"
        },
        {
          "name": "_airline",
          "type": "address"
        }
      ],
      "name": "addAirline",
      "outputs": [],
      "payable": false,
      "stateMutability": "nonpayable",
      "type": "function"
    },
    {
      "constant": true,
      "inputs": [
        {
          "name": "_airline",
          "type": "address"
        }
      ],
      "name": "isAirlineHasEnoughFund",
      "outputs": [
        {
          "name": "",
          "type": "bool"
        }
      ],
      "payable": false,
      "stateMutability": "view",
      "type": "function"
    },
    {
      "constant": true,
      "inputs": [
        {
          "name": "_flightID",
          "type": "bytes32"
        }
      ],
      "name": "getInsuranceKeysList",
      "outputs": [
        {
          "name": "",
          "type": "bytes32[]"
        }
      ],
      "payable": false,
      "stateMutability": "view",
      "type": "function"
    },
    {
      "constant": true,
      "inputs": [
        {
          "name": "_buyer",
          "type": "address"
        },
        {
          "name": "_flightKey",
          "type": "bytes32"
        },
        {
          "name": "_contractTimestamp",
          "type": "uint256"
        }
      ],
      "name": "generateInsuranceKey",
      "outputs": [
        {
          "name": "",
          "type": "bytes32"
        }
      ],
      "payable": false,
      "stateMutability": "pure",
      "type": "function"
    },
    {
      "constant": true,
      "inputs": [
        {
          "name": "_buyer",
          "type": "address"
        }
      ],
      "name": "isBuyerExist",
      "outputs": [
        {
          "name": "",
          "type": "bool"
        }
      ],
      "payable": false,
      "stateMutability": "view",
      "type": "function"
    },
    {
      "constant": true,
      "inputs": [
        {
          "name": "_insuranceKey",
          "type": "bytes32"
        }
      ],
      "name": "isActivated",
      "outputs": [
        {
          "name": "",
          "type": "bool"
        }
      ],
      "payable": false,
      "stateMutability": "view",
      "type": "function"
    },
    {
      "constant": true,
      "inputs": [
        {
          "name": "_airline",
          "type": "address"
        }
      ],
      "name": "queryFund",
      "outputs": [
        {
          "name": "",
          "type": "uint256"
        }
      ],
      "payable": false,
      "stateMutability": "view",
      "type": "function"
    },
    {
      "constant": true,
      "inputs": [],
      "name": "isOperational",
      "outputs": [
        {
          "name": "",
          "type": "bool"
        }
      ],
      "payable": false,
      "stateMutability": "view",
      "type": "function"
    },
    {
      "constant": false,
      "inputs": [
        {
          "name": "_buyer",
          "type": "address"
        },
        {
          "name": "_flightKey",
          "type": "bytes32"
        },
        {
          "name": "_contractTimestamp",
          "type": "uint256"
        },
        {
          "name": "_airline",
          "type": "address"
        },
        {
          "name": "_fee",
          "type": "uint256"
        }
      ],
      "name": "addInsurance",
      "outputs": [],
      "payable": false,
      "stateMutability": "nonpayable",
      "type": "function"
    },
    {
      "constant": false,
      "inputs": [
        {
          "name": "_airline",
          "type": "address"
        },
        {
          "name": "_fund",
          "type": "uint256"
        }
      ],
      "name": "addFund",
      "outputs": [],
      "payable": false,
      "stateMutability": "nonpayable",
      "type": "function"
    },
    {
      "constant": true,
      "inputs": [
        {
          "name": "_testingAddress",
          "type": "address"
        }
      ],
      "name": "isAirlineExist",
      "outputs": [
        {
          "name": "",
          "type": "bool"
        }
      ],
      "payable": false,
      "stateMutability": "view",
      "type": "function"
    },
    {
      "constant": true,
      "inputs": [
        {
          "name": "_flightID",
          "type": "bytes32"
        }
      ],
      "name": "queryFlightInfo",
      "outputs": [
        {
          "name": "code",
          "type": "string"
        },
        {
          "name": "airline",
          "type": "address"
        },
        {
          "name": "timestamp",
          "type": "uint256"
        },
        {
          "name": "status",
          "type": "uint8"
        }
      ],
      "payable": false,
      "stateMutability": "view",
      "type": "function"
    },
    {
      "constant": true,
      "inputs": [
        {
          "name": "_airline",
          "type": "address"
        }
      ],
      "name": "queryAirline",
      "outputs": [
        {
          "name": "name",
          "type": "string"
        },
        {
          "name": "status",
          "type": "uint8"
        },
        {
          "name": "votesCount",
          "type": "uint256"
        },
        {
          "name": "funds",
          "type": "uint256"
        }
      ],
      "payable": false,
      "stateMutability": "view",
      "type": "function"
    },
    {
      "constant": false,
      "inputs": [
        {
          "name": "_insuranceKey",
          "type": "bytes32"
        }
      ],
      "name": "creditInsurance",
      "outputs": [
        {
          "name": "credits",
          "type": "uint256"
        }
      ],
      "payable": false,
      "stateMutability": "nonpayable",
      "type": "function"
    },
    {
      "constant": true,
      "inputs": [
        {
          "name": "_testingAddress",
          "type": "address"
        }
      ],
      "name": "isAirlineFunded",
      "outputs": [
        {
          "name": "",
          "type": "bool"
        }
      ],
      "payable": false,
      "stateMutability": "view",
      "type": "function"
    },
    {
      "constant": true,
      "inputs": [
        {
          "name": "_insuranceKey",
          "type": "bytes32"
        }
      ],
      "name": "isCredited",
      "outputs": [
        {
          "name": "",
          "type": "bool"
        }
      ],
      "payable": false,
      "stateMutability": "view",
      "type": "function"
    },
    {
      "constant": true,
      "inputs": [
        {
          "name": "_flightID",
          "type": "bytes32"
        }
      ],
      "name": "isFlightLateAirline",
      "outputs": [
        {
          "name": "",
          "type": "bool"
        }
      ],
      "payable": false,
      "stateMutability": "view",
      "type": "function"
    },
    {
      "anonymous": false,
      "inputs": [
        {
          "indexed": false,
          "name": "flightCode",
          "type": "string"
        },
        {
          "indexed": false,
          "name": "deparTimestamp",
          "type": "uint256"
        },
        {
          "indexed": false,
          "name": "airline",
          "type": "address"
        }
      ],
      "name": "FlightAdded",
      "type": "event"
    },
    {
      "anonymous": false,
      "inputs": [
        {
          "indexed": false,
          "name": "flightCode",
          "type": "string"
        },
        {
          "indexed": false,
          "name": "deparTimestamp",
          "type": "uint256"
        },
        {
          "indexed": false,
          "name": "airline",
          "type": "address"
        },
        {
          "indexed": false,
          "name": "state",
          "type": "uint8"
        }
      ],
      "name": "FlightArrival",
      "type": "event"
    },
    {
      "anonymous": false,
      "inputs": [
        {
          "indexed": false,
          "name": "flightKey",
          "type": "bytes32"
        },
        {
          "indexed": false,
          "name": "insuranceKey",
          "type": "bytes32"
        },
        {
          "indexed": false,
          "name": "buyer",
          "type": "address"
        },
        {
          "indexed": false,
          "name": "fee",
          "type": "uint256"
        }
      ],
      "name": "BuyInsurance",
      "type": "event"
    },
    {
      "anonymous": false,
      "inputs": [
        {
          "indexed": false,
          "name": "flightKey",
          "type": "bytes32"
        },
        {
          "indexed": false,
          "name": "insuranceKey",
          "type": "bytes32"
        },
        {
          "indexed": false,
          "name": "buyer",
          "type": "address"
        },
        {
          "indexed": false,
          "name": "credits",
          "type": "uint256"
        }
      ],
      "name": "PayInsurance",
      "type": "event"
    },
    {
      "anonymous": false,
      "inputs": [
        {
          "indexed": false,
          "name": "name",
          "type": "string"
        },
        {
          "indexed": false,
          "name": "airline",
          "type": "address"
        }
      ],
      "name": "AirlineEntered",
      "type": "event"
    },
    {
      "anonymous": false,
      "inputs": [
        {
          "indexed": false,
          "name": "name",
          "type": "string"
        },
        {
          "indexed": false,
          "name": "airline",
          "type": "address"
        }
      ],
      "name": "AirlinePendingVote",
      "type": "event"
    },
    {
      "anonymous": false,
      "inputs": [
        {
          "indexed": false,
          "name": "candidate",
          "type": "address"
        },
        {
          "indexed": false,
          "name": "voter",
          "type": "address"
        },
        {
          "indexed": false,
          "name": "votes",
          "type": "uint256"
        }
      ],
      "name": "AirlineVoted",
      "type": "event"
    },
    {
      "anonymous": false,
      "inputs": [
        {
          "indexed": false,
          "name": "name",
          "type": "string"
        },
        {
          "indexed": false,
          "name": "airline",
          "type": "address"
        }
      ],
      "name": "AirlineRegistered",
      "type": "event"
    },
    {
      "anonymous": false,
      "inputs": [
        {
          "indexed": false,
          "name": "name",
          "type": "string"
        },
        {
          "indexed": false,
          "name": "airline",
          "type": "address"
        },
        {
          "indexed": false,
          "name": "fund",
          "type": "uint256"
        }
      ],
      "name": "AirlineFunded",
      "type": "event"
    },
    {
      "constant": false,
      "inputs": [
        {
          "name": "_name",
          "type": "string"
        },
        {
          "name": "_airline",
          "type": "address"
        }
      ],
      "name": "registerAirline",
      "outputs": [],
      "payable": false,
      "stateMutability": "nonpayable",
      "type": "function"
    },
    {
      "constant": false,
      "inputs": [
        {
          "name": "_candidate",
          "type": "address"
        },
        {
          "name": "_voter",
          "type": "address"
        }
      ],
      "name": "vote",
      "outputs": [],
      "payable": false,
      "stateMutability": "nonpayable",
      "type": "function"
    },
    {
      "constant": false,
      "inputs": [
        {
          "name": "_code",
          "type": "string"
        },
        {
          "name": "_timestamp",
          "type": "uint256"
        },
        {
          "name": "_airline",
          "type": "address"
        }
      ],
      "name": "registerFlight",
      "outputs": [],
      "payable": false,
      "stateMutability": "nonpayable",
      "type": "function"
    },
    {
      "constant": false,
      "inputs": [
        {
          "name": "_buyer",
          "type": "address"
        },
        {
          "name": "_flightKey",
          "type": "bytes32"
        },
        {
          "name": "_contractTimestamp",
          "type": "uint256"
        },
        {
          "name": "_airline",
          "type": "address"
        },
        {
          "name": "_fee",
          "type": "uint256"
        }
      ],
      "name": "registerInsurance",
      "outputs": [],
      "payable": false,
      "stateMutability": "nonpayable",
      "type": "function"
    },
    {
      "constant": false,
      "inputs": [
        {
          "name": "flightKey",
          "type": "bytes32"
        }
      ],
      "name": "setFlightOnTime",
      "outputs": [],
      "payable": false,
      "stateMutability": "nonpayable",
      "type": "function"
    },
    {
      "constant": false,
      "inputs": [
        {
          "name": "flightKey",
          "type": "bytes32"
        }
      ],
      "name": "setFlightLateAirline",
      "outputs": [],
      "payable": false,
      "stateMutability": "nonpayable",
      "type": "function"
    },
    {
      "constant": false,
      "inputs": [
        {
          "name": "flightKey",
          "type": "bytes32"
        }
      ],
      "name": "setFlightLateNotAirline",
      "outputs": [],
      "payable": false,
      "stateMutability": "nonpayable",
      "type": "function"
    },
    {
      "constant": false,
      "inputs": [
        {
          "name": "insuranceKey",
          "type": "bytes32"
        }
      ],
      "name": "setInsuranceExpired",
      "outputs": [],
      "payable": false,
      "stateMutability": "nonpayable",
      "type": "function"
    },
    {
      "constant": false,
      "inputs": [
        {
          "name": "insuranceKey",
          "type": "bytes32"
        }
      ],
      "name": "setInsuranceCredited",
      "outputs": [],
      "payable": false,
      "stateMutability": "nonpayable",
      "type": "function"
    },
    {
      "constant": false,
      "inputs": [
        {
          "name": "insuranceKey",
          "type": "bytes32"
        }
      ],
      "name": "setInsuranceWithdrawn",
      "outputs": [],
      "payable": false,
      "stateMutability": "nonpayable",
      "type": "function"
    },
    {
      "constant": false,
      "inputs": [
        {
          "name": "flightKey",
          "type": "bytes32"
        }
      ],
      "name": "creditInsurees",
      "outputs": [],
      "payable": false,
      "stateMutability": "nonpayable",
      "type": "function"
    }
  ],
  "bytecode": "0x60806040526001600660146101000a81548160ff02191690831515021790555033600660006101000a81548173ffffffffffffffffffffffffffffffffffffffff021916908373ffffffffffffffffffffffffffffffffffffffff1602179055506158758061006f6000396000f3fe608060405234801561001057600080fd5b506004361061038e5760003560e01c8063762fee18116101de578063c77eb5a21161010f578063df00f5ea116100ad578063f2c6d0b21161007c578063f2c6d0b2146117a2578063f53b6d65146117d0578063fb933ebd1461182c578063fc00b286146118725761038e565b8063df00f5ea1461152e578063e7e4ff711461158a578063e9e2ea9514611680578063ee06ce2b146117605761038e565b8063cd905dff116100e9578063cd905dff1461140e578063d0d6c8e114611430578063d512c061146114b2578063d709f2a1146115005761038e565b8063c77eb5a21461135a578063c9e4b0d314611388578063cc2f6eba146113e05761038e565b80639348916f1161017c578063b3e70c3111610156578063b3e70c31146111c9578063b58c31be1461124c578063b8849073146112b8578063ba87af80146113145761038e565b80639348916f14611064578063aed6862b14611092578063b39248101461116d5761038e565b806389199e37116101b857806389199e3714610f22578063893d20e814610f9057806389c6c14e14610fda57806392a0b6eb146110085761038e565b8063762fee1814610e28578063849365a114610e6e57806388e4fe3f14610ed45761038e565b806345e2748d116102c35780635e913b2e116102615780636db6f112116102305780636db6f11214610cba5780636f0fec4b14610d205780636f1fa7a814610d7c5780637508ec2014610dd85761038e565b80635e913b2e14610a52578063637a66df14610a9657806363f045a514610b6f57806365c152f714610bd55761038e565b806358ac36a31161029d57806358ac36a31461093a57806359d14b41146109805780635bcd59ae146109dc5780635caea9cb146109fa5761038e565b806345e2748d146108cc57806355b2bb0f146108fa57806356f4fa1e146109185761038e565b80631afa74e51161033057806334198f221161030a57806334198f22146107045780633d027743146107605780633d43020b1461083257806343ba1e3c1461088a5761038e565b80631afa74e5146105d85780631dd7a3f61461063c578063242f83e8146106be5761038e565b80630f08f6551161036c5780630f08f6551461050e578063110466ed1461054657806313a155ea146105765780631558ac86146105ba5761038e565b8063010c5c97146103935780630d829250146103ef5780630e2c412914610433575b600080fd5b6103d5600480360360208110156103a957600080fd5b81019080803573ffffffffffffffffffffffffffffffffffffffff1690602001909291905050506118b8565b604051808215151515815260200191505060405180910390f35b6104316004803603602081101561040557600080fd5b81019080803573ffffffffffffffffffffffffffffffffffffffff16906020019092919050505061192a565b005b61050c6004803603604081101561044957600080fd5b810190808035906020019064010000000081111561046657600080fd5b82018360208201111561047857600080fd5b8035906020019184600183028401116401000000008311171561049a57600080fd5b91908080601f016020809104026020016040519081016040528093929190818152602001838380828437600081840152601f19601f820116905080830192505050505050509192919290803573ffffffffffffffffffffffffffffffffffffffff1690602001909291905050506119f2565b005b6105446004803603604081101561052457600080fd5b810190808035906020019092919080359060200190929190505050611b01565b005b6105746004803603602081101561055c57600080fd5b81019080803515159060200190929190505050611cbe565b005b6105b86004803603602081101561058c57600080fd5b81019080803573ffffffffffffffffffffffffffffffffffffffff169060200190929190505050611d9e565b005b6105c2611f19565b6040518082815260200191505060405180910390f35b61063a600480360360408110156105ee57600080fd5b81019080803573ffffffffffffffffffffffffffffffffffffffff169060200190929190803573ffffffffffffffffffffffffffffffffffffffff169060200190929190505050611f26565b005b6106bc600480360360a081101561065257600080fd5b81019080803573ffffffffffffffffffffffffffffffffffffffff1690602001909291908035906020019092919080359060200190929190803573ffffffffffffffffffffffffffffffffffffffff16906020019092919080359060200190929190505050611fd8565b005b6106ea600480360360208110156106d457600080fd5b81019080803590602001909291905050506120c3565b604051808215151515815260200191505060405180910390f35b6107466004803603602081101561071a57600080fd5b81019080803573ffffffffffffffffffffffffffffffffffffffff1690602001909291905050506120f0565b604051808215151515815260200191505060405180910390f35b61078c6004803603602081101561077657600080fd5b8101908080359060200190929190505050612112565b604051808873ffffffffffffffffffffffffffffffffffffffff1673ffffffffffffffffffffffffffffffffffffffff1681526020018781526020018673ffffffffffffffffffffffffffffffffffffffff1673ffffffffffffffffffffffffffffffffffffffff16815260200185815260200184815260200183815260200182600381111561081857fe5b60ff16815260200197505050505050505060405180910390f35b6108746004803603602081101561084857600080fd5b81019080803573ffffffffffffffffffffffffffffffffffffffff169060200190929190505050612224565b6040518082815260200191505060405180910390f35b6108b6600480360360208110156108a057600080fd5b8101908080359060200190929190505050612270565b6040518082815260200191505060405180910390f35b6108f8600480360360208110156108e257600080fd5b8101908080359060200190929190505050612310565b005b6109026123c0565b6040518082815260200191505060405180910390f35b6109206123cc565b604051808215151515815260200191505060405180910390f35b6109666004803603602081101561095057600080fd5b81019080803590602001909291905050506123dc565b604051808215151515815260200191505060405180910390f35b6109c26004803603602081101561099657600080fd5b81019080803573ffffffffffffffffffffffffffffffffffffffff169060200190929190505050612421565b604051808215151515815260200191505060405180910390f35b6109e4612477565b6040518082815260200191505060405180910390f35b610a3c60048036036020811015610a1057600080fd5b81019080803573ffffffffffffffffffffffffffffffffffffffff169060200190929190505050612483565b6040518082815260200191505060405180910390f35b610a9460048036036020811015610a6857600080fd5b81019080803573ffffffffffffffffffffffffffffffffffffffff1690602001909291905050506124d2565b005b610b5960048036036040811015610aac57600080fd5b8101908080359060200190640100000000811115610ac957600080fd5b820183602082011115610adb57600080fd5b80359060200191846001830284011164010000000083111715610afd57600080fd5b91908080601f016020809104026020016040519081016040528093929190818152602001838380828437600081840152601f19601f820116905080830192505050505050509192919290803590602001909291905050506125a2565b6040518082815260200191505060405180910390f35b610bbb60048036036040811015610b8557600080fd5b8101908080359060200190929190803573ffffffffffffffffffffffffffffffffffffffff169060200190929190505050612626565b604051808215151515815260200191505060405180910390f35b610cb860048036036060811015610beb57600080fd5b8101908080359060200190640100000000811115610c0857600080fd5b820183602082011115610c1a57600080fd5b80359060200191846001830284011164010000000083111715610c3c57600080fd5b91908080601f016020809104026020016040519081016040528093929190818152602001838380828437600081840152601f19601f82011690508083019250505050505050919291929080359060200190929190803573ffffffffffffffffffffffffffffffffffffffff169060200190929190505050612695565b005b610d0660048036036040811015610cd057600080fd5b8101908080359060200190929190803573ffffffffffffffffffffffffffffffffffffffff169060200190929190505050612883565b604051808215151515815260200191505060405180910390f35b610d6260048036036020811015610d3657600080fd5b81019080803573ffffffffffffffffffffffffffffffffffffffff1690602001909291905050506128f2565b604051808215151515815260200191505060405180910390f35b610dbe60048036036020811015610d9257600080fd5b81019080803573ffffffffffffffffffffffffffffffffffffffff169060200190929190505050612963565b604051808215151515815260200191505060405180910390f35b610e0e60048036036040811015610dee57600080fd5b8101908080359060200190929190803590602001909291905050506129c6565b604051808215151515815260200191505060405180910390f35b610e5460048036036020811015610e3e57600080fd5b8101908080359060200190929190505050612a82565b604051808215151515815260200191505060405180910390f35b610eba60048036036040811015610e8457600080fd5b81019080803573ffffffffffffffffffffffffffffffffffffffff16906020019092919080359060200190929190505050612aaf565b604051808215151515815260200191505060405180910390f35b610f2060048036036040811015610eea57600080fd5b81019080803573ffffffffffffffffffffffffffffffffffffffff16906020019092919080359060200190929190505050612b9b565b005b610f4e60048036036020811015610f3857600080fd5b8101908080359060200190929190505050612d66565b604051808273ffffffffffffffffffffffffffffffffffffffff1673ffffffffffffffffffffffffffffffffffffffff16815260200191505060405180910390f35b610f98612e21565b604051808273ffffffffffffffffffffffffffffffffffffffff1673ffffffffffffffffffffffffffffffffffffffff16815260200191505060405180910390f35b61100660048036036020811015610ff057600080fd5b8101908080359060200190929190505050612e4b565b005b61104a6004803603602081101561101e57600080fd5b81019080803573ffffffffffffffffffffffffffffffffffffffff169060200190929190505050612efb565b604051808215151515815260200191505060405180910390f35b6110906004803603602081101561107a57600080fd5b8101908080359060200190929190505050612f2d565b005b61116b600480360360408110156110a857600080fd5b81019080803590602001906401000000008111156110c557600080fd5b8201836020820111156110d757600080fd5b803590602001918460018302840111640100000000831117156110f957600080fd5b91908080601f016020809104026020016040519081016040528093929190818152602001838380828437600081840152601f19601f820116905080830192505050505050509192919290803573ffffffffffffffffffffffffffffffffffffffff169060200190929190505050612fdd565b005b6111af6004803603602081101561118357600080fd5b81019080803573ffffffffffffffffffffffffffffffffffffffff169060200190929190505050613386565b604051808215151515815260200191505060405180910390f35b6111f5600480360360208110156111df57600080fd5b81019080803590602001909291905050506133dc565b6040518080602001828103825283818151815260200191508051906020019060200280838360005b8381101561123857808201518184015260208101905061121d565b505050509050019250505060405180910390f35b6112a26004803603606081101561126257600080fd5b81019080803573ffffffffffffffffffffffffffffffffffffffff16906020019092919080359060200190929190803590602001909291905050506134c7565b6040518082815260200191505060405180910390f35b6112fa600480360360208110156112ce57600080fd5b81019080803573ffffffffffffffffffffffffffffffffffffffff169060200190929190505050613538565b604051808215151515815260200191505060405180910390f35b6113406004803603602081101561132a57600080fd5b8101908080359060200190929190505050613591565b604051808215151515815260200191505060405180910390f35b6113866004803603602081101561137057600080fd5b81019080803590602001909291905050506135d6565b005b6113ca6004803603602081101561139e57600080fd5b81019080803573ffffffffffffffffffffffffffffffffffffffff169060200190929190505050613686565b6040518082815260200191505060405180910390f35b61140c600480360360208110156113f657600080fd5b810190808035906020019092919050505061374f565b005b6114166138a7565b604051808215151515815260200191505060405180910390f35b6114b0600480360360a081101561144657600080fd5b81019080803573ffffffffffffffffffffffffffffffffffffffff1690602001909291908035906020019092919080359060200190929190803573ffffffffffffffffffffffffffffffffffffffff169060200190929190803590602001909291905050506138be565b005b6114fe600480360360408110156114c857600080fd5b81019080803573ffffffffffffffffffffffffffffffffffffffff16906020019092919080359060200190929190505050613b54565b005b61152c6004803603602081101561151657600080fd5b8101908080359060200190929190505050613c9c565b005b6115706004803603602081101561154457600080fd5b81019080803573ffffffffffffffffffffffffffffffffffffffff169060200190929190505050613d4c565b604051808215151515815260200191505060405180910390f35b6115b6600480360360208110156115a057600080fd5b8101908080359060200190929190505050613da5565b60405180806020018573ffffffffffffffffffffffffffffffffffffffff1673ffffffffffffffffffffffffffffffffffffffff16815260200184815260200183600381111561160257fe5b60ff168152602001828103825286818151815260200191508051906020019080838360005b83811015611642578082015181840152602081019050611627565b50505050905090810190601f16801561166f5780820380516001836020036101000a031916815260200191505b509550505050505060405180910390f35b6116c26004803603602081101561169657600080fd5b81019080803573ffffffffffffffffffffffffffffffffffffffff169060200190929190505050613edc565b60405180806020018560028111156116d657fe5b60ff168152602001848152602001838152602001828103825286818151815260200191508051906020019080838360005b83811015611722578082015181840152602081019050611707565b50505050905090810190601f16801561174f5780820380516001836020036101000a031916815260200191505b509550505050505060405180910390f35b61178c6004803603602081101561177657600080fd5b81019080803590602001909291905050506140a6565b6040518082815260200191505060405180910390f35b6117ce600480360360208110156117b857600080fd5b8101908080359060200190929190505050614207565b005b611812600480360360208110156117e657600080fd5b81019080803573ffffffffffffffffffffffffffffffffffffffff1690602001909291905050506142b7565b604051808215151515815260200191505060405180910390f35b6118586004803603602081101561184257600080fd5b8101908080359060200190929190505050614328565b604051808215151515815260200191505060405180910390f35b61189e6004803603602081101561188857600080fd5b810190808035906020019092919050505061436e565b604051808215151515815260200191505060405180910390f35b6000600160028111156118c757fe5b600160008473ffffffffffffffffffffffffffffffffffffffff1673ffffffffffffffffffffffffffffffffffffffff16815260200190815260200160002060010160009054906101000a900460ff16600281111561192257fe5b149050919050565b8061193481613538565b6119a6576040517f08c379a00000000000000000000000000000000000000000000000000000000081526004018080602001828103825260138152602001807f427579657220646f65736e27742065786973740000000000000000000000000081525060200191505060405180910390fd5b6000600460008473ffffffffffffffffffffffffffffffffffffffff1673ffffffffffffffffffffffffffffffffffffffff168152602001908152602001600020600001819055505050565b6119fa6138a7565b611a4f576040517f08c379a000000000000000000000000000000000000000000000000000000000815260040180806020018281038252602581526020018061577f6025913960400191505060405180910390fd5b33600760008273ffffffffffffffffffffffffffffffffffffffff1673ffffffffffffffffffffffffffffffffffffffff16815260200190815260200160002060009054906101000a900460ff16611af2576040517f08c379a00000000000000000000000000000000000000000000000000000000081526004018080602001828103825260308152602001806156896030913960400191505060405180910390fd5b611afc8383612fdd565b505050565b611b0a826120c3565b611b7c576040517f08c379a00000000000000000000000000000000000000000000000000000000081526004018080602001828103825260198152602001807f54686520666c6967687420646f6573206e6f742065786973740000000000000081525060200191505060405180910390fd5b611b85826123dc565b611bda576040517f08c379a000000000000000000000000000000000000000000000000000000000815260040180806020018281038252602781526020018061563e6027913960400191505060405180910390fd5b611be482826129c6565b15611c3a576040517f08c379a00000000000000000000000000000000000000000000000000000000081526004018080602001828103825260288152602001806157246028913960400191505060405180910390fd5b600160056000848152602001908152602001600020600401600083815260200190815260200160002060006101000a81548160ff021916908315150217905550600560008381526020019081526020016000206003018190806001815401808255809150509060018203906000526020600020016000909192909190915055505050565b600660009054906101000a900473ffffffffffffffffffffffffffffffffffffffff1673ffffffffffffffffffffffffffffffffffffffff163373ffffffffffffffffffffffffffffffffffffffff1614611d81576040517f08c379a000000000000000000000000000000000000000000000000000000000815260040180806020018281038252601c8152602001807f43616c6c6572206973206e6f7420636f6e7472616374206f776e65720000000081525060200191505060405180910390fd5b80600660146101000a81548160ff02191690831515021790555050565b611da66138a7565b611dfb576040517f08c379a000000000000000000000000000000000000000000000000000000000815260040180806020018281038252602581526020018061577f6025913960400191505060405180910390fd5b600660009054906101000a900473ffffffffffffffffffffffffffffffffffffffff1673ffffffffffffffffffffffffffffffffffffffff163373ffffffffffffffffffffffffffffffffffffffff1614611ebe576040517f08c379a000000000000000000000000000000000000000000000000000000000815260040180806020018281038252601c8152602001807f43616c6c6572206973206e6f7420636f6e7472616374206f776e65720000000081525060200191505060405180910390fd5b6001600760008373ffffffffffffffffffffffffffffffffffffffff1673ffffffffffffffffffffffffffffffffffffffff16815260200190815260200160002060006101000a81548160ff02191690831515021790555050565b6000600280549050905090565b33600760008273ffffffffffffffffffffffffffffffffffffffff1673ffffffffffffffffffffffffffffffffffffffff16815260200190815260200160002060009054906101000a900460ff16611fc9576040517f08c379a00000000000000000000000000000000000000000000000000000000081526004018080602001828103825260308152602001806156896030913960400191505060405180910390fd5b611fd383836143b4565b505050565b611fe06138a7565b612035576040517f08c379a000000000000000000000000000000000000000000000000000000000815260040180806020018281038252602581526020018061577f6025913960400191505060405180910390fd5b8361203f816123dc565b612094576040517f08c379a00000000000000000000000000000000000000000000000000000000081526004018080602001828103825260238152602001806157016023913960400191505060405180910390fd5b6120a186868686866138be565b60006120ae8787876134c7565b90506120ba8682611b01565b50505050505050565b60006005600083815260200190815260200160002060050160019054906101000a900460ff169050919050565b60006120fb826118b8565b8061210b575061210a826142b7565b5b9050919050565b60008060008060008060006003600089815260200190815260200160002060000160009054906101000a900473ffffffffffffffffffffffffffffffffffffffff169650600360008981526020019081526020016000206001015495506003600089815260200190815260200160002060020160009054906101000a900473ffffffffffffffffffffffffffffffffffffffff1694506003600089815260200190815260200160002060030154935060036000898152602001908152602001600020600401549250600360008981526020019081526020016000206005015491506003600089815260200190815260200160002060060160009054906101000a900460ff169050919395979092949650565b6000600460008373ffffffffffffffffffffffffffffffffffffffff1673ffffffffffffffffffffffffffffffffffffffff168152602001908152602001600020600001549050919050565b60008161227c816120c3565b6122ee576040517f08c379a00000000000000000000000000000000000000000000000000000000081526004018080602001828103825260158152602001807f466c6967687420646f6573206e6f74206578697374000000000000000000000081525060200191505060405180910390fd5b6005600084815260200190815260200160002060030180549050915050919050565b33600760008273ffffffffffffffffffffffffffffffffffffffff1673ffffffffffffffffffffffffffffffffffffffff16815260200190815260200160002060009054906101000a900460ff166123b3576040517f08c379a00000000000000000000000000000000000000000000000000000000081526004018080602001828103825260308152602001806156896030913960400191505060405180910390fd5b6123bc82614693565b5050565b678ac7230489e8000081565b6000600460028054905010905090565b60008060038111156123ea57fe5b6005600084815260200190815260200160002060050160009054906101000a900460ff16600381111561241957fe5b149050919050565b6000600760008373ffffffffffffffffffffffffffffffffffffffff1673ffffffffffffffffffffffffffffffffffffffff16815260200190815260200160002060009054906101000a900460ff169050919050565b60008080549050905090565b6000600160008373ffffffffffffffffffffffffffffffffffffffff1673ffffffffffffffffffffffffffffffffffffffff168152602001908152602001600020600201805490509050919050565b6124db816128f2565b612530576040517f08c379a00000000000000000000000000000000000000000000000000000000081526004018080602001828103825260238152602001806158066023913960400191505060405180910390fd5b60028190806001815401808255809150509060018203906000526020600020016000909192909190916101000a81548173ffffffffffffffffffffffffffffffffffffffff021916908373ffffffffffffffffffffffffffffffffffffffff1602179055505061259f8161472e565b50565b600082826040516020018083805190602001908083835b602083106125dc57805182526020820191506020810190506020830392506125b9565b6001836020036101000a0380198251168184511680821785525050505050509050018281526020019250505060405160208183030381529060405280519060200120905092915050565b60008173ffffffffffffffffffffffffffffffffffffffff166003600085815260200190815260200160002060000160009054906101000a900473ffffffffffffffffffffffffffffffffffffffff1673ffffffffffffffffffffffffffffffffffffffff1614905092915050565b61269d6138a7565b6126f2576040517f08c379a000000000000000000000000000000000000000000000000000000000815260040180806020018281038252602581526020018061577f6025913960400191505060405180910390fd5b806126fc816142b7565b61276e576040517f08c379a00000000000000000000000000000000000000000000000000000000081526004018080602001828103825260208152602001807f4169726c696e65206d75737420626520696e2066756e6465642073746174757381525060200191505060405180910390fd5b8161277881613386565b6127cd576040517f08c379a000000000000000000000000000000000000000000000000000000000815260040180806020018281038252603381526020018061574c6033913960400191505060405180910390fd5b33600760008273ffffffffffffffffffffffffffffffffffffffff1673ffffffffffffffffffffffffffffffffffffffff16815260200190815260200160002060009054906101000a900460ff16612870576040517f08c379a00000000000000000000000000000000000000000000000000000000081526004018080602001828103825260308152602001806156896030913960400191505060405180910390fd5b61287b8686866149a4565b505050505050565b60008173ffffffffffffffffffffffffffffffffffffffff166003600085815260200190815260200160002060020160009054906101000a900473ffffffffffffffffffffffffffffffffffffffff1673ffffffffffffffffffffffffffffffffffffffff1614905092915050565b600080600281111561290057fe5b600160008473ffffffffffffffffffffffffffffffffffffffff1673ffffffffffffffffffffffffffffffffffffffff16815260200190815260200160002060010160009054906101000a900460ff16600281111561295b57fe5b149050919050565b60006001600280805490508161297557fe5b0401600160008473ffffffffffffffffffffffffffffffffffffffff1673ffffffffffffffffffffffffffffffffffffffff1681526020019081526020016000206002018054905010159050919050565b6000826129d2816120c3565b612a44576040517f08c379a00000000000000000000000000000000000000000000000000000000081526004018080602001828103825260158152602001807f466c6967687420646f6573206e6f74206578697374000000000000000000000081525060200191505060405180910390fd5b60056000858152602001908152602001600020600401600084815260200190815260200160002060009054906101000a900460ff1691505092915050565b60006003600083815260200190815260200160002060060160019054906101000a900460ff169050919050565b600081612abb816120c3565b612b2d576040517f08c379a00000000000000000000000000000000000000000000000000000000081526004018080602001828103825260158152602001807f466c6967687420646f6573206e6f74206578697374000000000000000000000081525060200191505060405180910390fd5b8373ffffffffffffffffffffffffffffffffffffffff166005600085815260200190815260200160002060020160009054906101000a900473ffffffffffffffffffffffffffffffffffffffff1673ffffffffffffffffffffffffffffffffffffffff161491505092915050565b81612ba5816120f0565b612bfa576040517f08c379a000000000000000000000000000000000000000000000000000000000815260040180806020018281038252603d8152602001806157c9603d913960400191505060405180910390fd5b82612c0481613d4c565b612c76576040517f08c379a00000000000000000000000000000000000000000000000000000000081526004018080602001828103825260168152602001807f4164647265737320646f6573206e6f742065786973740000000000000000000081525060200191505060405180910390fd5b600160008573ffffffffffffffffffffffffffffffffffffffff1673ffffffffffffffffffffffffffffffffffffffff168152602001908152602001600020600301548310612d10576040517f08c379a00000000000000000000000000000000000000000000000000000000081526004018080602001828103825260278152602001806156b96027913960400191505060405180910390fd5b82600160008673ffffffffffffffffffffffffffffffffffffffff1673ffffffffffffffffffffffffffffffffffffffff1681526020019081526020016000206003016000828254039250508190555050505050565b6000612d7182612a82565b612de3576040517f08c379a00000000000000000000000000000000000000000000000000000000081526004018080602001828103825260178152602001807f496e737572616e636520646f65736e277420657869737400000000000000000081525060200191505060405180910390fd5b6003600083815260200190815260200160002060000160009054906101000a900473ffffffffffffffffffffffffffffffffffffffff169050919050565b6000600660009054906101000a900473ffffffffffffffffffffffffffffffffffffffff16905090565b33600760008273ffffffffffffffffffffffffffffffffffffffff1673ffffffffffffffffffffffffffffffffffffffff16815260200190815260200160002060009054906101000a900460ff16612eee576040517f08c379a00000000000000000000000000000000000000000000000000000000081526004018080602001828103825260308152602001806156896030913960400191505060405180910390fd5b612ef782614b96565b5050565b6000612f056123cc565b80612f155750612f1482612963565b5b15612f235760019050612f28565b600090505b919050565b33600760008273ffffffffffffffffffffffffffffffffffffffff1673ffffffffffffffffffffffffffffffffffffffff16815260200190815260200160002060009054906101000a900460ff16612fd0576040517f08c379a00000000000000000000000000000000000000000000000000000000081526004018080602001828103825260308152602001806156896030913960400191505060405180910390fd5b612fd982614c30565b5050565b80612fe781613d4c565b1561303d576040517f08c379a00000000000000000000000000000000000000000000000000000000081526004018080602001828103825260288152602001806155f26028913960400191505060405180910390fd5b6130456152f7565b83816000018190525060008160200190600281111561306057fe5b9081600281111561306d57fe5b815250506000816060018181525050600181608001901515908115158152505080600160008573ffffffffffffffffffffffffffffffffffffffff1673ffffffffffffffffffffffffffffffffffffffff16815260200190815260200160002060008201518160000190805190602001906130e9929190615333565b5060208201518160010160006101000a81548160ff0219169083600281111561310e57fe5b0217905550604082015181600201908051906020019061312f9291906153b3565b506060820151816003015560808201518160040160006101000a81548160ff02191690831515021790555090505060008390806001815401808255809150509060018203906000526020600020016000909192909190916101000a81548173ffffffffffffffffffffffffffffffffffffffff021916908373ffffffffffffffffffffffffffffffffffffffff160217905550507ff3100ff45bd551846ae092da6f82697190f72f24573165d1b06858cda4194d47848460405180806020018373ffffffffffffffffffffffffffffffffffffffff1673ffffffffffffffffffffffffffffffffffffffff168152602001828103825284818151815260200191508051906020019080838360005b8381101561325857808201518184015260208101905061323d565b50505050905090810190601f1680156132855780820380516001836020036101000a031916815260200191505b50935050505060405180910390a161329c83612efb565b156132af576132aa836124d2565b613380565b7f0dd0455f85bdf4c39bcd8911401aa00834ab66fbbee80ff3189bca70fa94c60d848460405180806020018373ffffffffffffffffffffffffffffffffffffffff1673ffffffffffffffffffffffffffffffffffffffff168152602001828103825284818151815260200191508051906020019080838360005b83811015613344578082015181840152602081019050613329565b50505050905090810190601f1680156133715780820380516001836020036101000a031916815260200191505b50935050505060405180910390a15b50505050565b6000678ac7230489e80000600160008473ffffffffffffffffffffffffffffffffffffffff1673ffffffffffffffffffffffffffffffffffffffff16815260200190815260200160002060030154119050919050565b6060816133e8816120c3565b61345a576040517f08c379a00000000000000000000000000000000000000000000000000000000081526004018080602001828103825260158152602001807f466c6967687420646f6573206e6f74206578697374000000000000000000000081525060200191505060405180910390fd5b600560008481526020019081526020016000206003018054806020026020016040519081016040528092919081815260200182805480156134ba57602002820191906000526020600020905b8154815260200190600101908083116134a6575b5050505050915050919050565b6000838383604051602001808473ffffffffffffffffffffffffffffffffffffffff1673ffffffffffffffffffffffffffffffffffffffff1660601b815260140183815260200182815260200193505050506040516020818303038152906040528051906020012090509392505050565b6000600460008373ffffffffffffffffffffffffffffffffffffffff1673ffffffffffffffffffffffffffffffffffffffff16815260200190815260200160002060010160009054906101000a900460ff169050919050565b600080600381111561359f57fe5b6003600084815260200190815260200160002060060160009054906101000a900460ff1660038111156135ce57fe5b149050919050565b33600760008273ffffffffffffffffffffffffffffffffffffffff1673ffffffffffffffffffffffffffffffffffffffff16815260200190815260200160002060009054906101000a900460ff16613679576040517f08c379a00000000000000000000000000000000000000000000000000000000081526004018080602001828103825260308152602001806156896030913960400191505060405180910390fd5b61368282614ccb565b5050565b600081613692816142b7565b613704576040517f08c379a00000000000000000000000000000000000000000000000000000000081526004018080602001828103825260208152602001807f4169726c696e65206d75737420626520696e2066756e6465642073746174757381525060200191505060405180910390fd5b600160008473ffffffffffffffffffffffffffffffffffffffff1673ffffffffffffffffffffffffffffffffffffffff16815260200190815260200160002060030154915050919050565b6137576138a7565b6137ac576040517f08c379a000000000000000000000000000000000000000000000000000000000815260040180806020018281038252602581526020018061577f6025913960400191505060405180910390fd5b806137b68161436e565b5033600760008273ffffffffffffffffffffffffffffffffffffffff1673ffffffffffffffffffffffffffffffffffffffff16815260200190815260200160002060009054906101000a900460ff1661385a576040517f08c379a00000000000000000000000000000000000000000000000000000000081526004018080602001828103825260308152602001806156896030913960400191505060405180910390fd5b6060613865846133dc565b905060008090505b81518110156138a05761389282828151811061388557fe5b60200260200101516140a6565b50808060010191505061386d565b5050505050565b6000600660149054906101000a900460ff16905090565b60006138cb8686866134c7565b90506138d561543d565b86816000019073ffffffffffffffffffffffffffffffffffffffff16908173ffffffffffffffffffffffffffffffffffffffff16815250508581602001818152505083816040019073ffffffffffffffffffffffffffffffffffffffff16908173ffffffffffffffffffffffffffffffffffffffff1681525050828160600181815250506000816080018181525050848160a001818152505060008160c00190600381111561398057fe5b9081600381111561398d57fe5b8152505060018160e0019015159081151581525050806003600084815260200190815260200160002060008201518160000160006101000a81548173ffffffffffffffffffffffffffffffffffffffff021916908373ffffffffffffffffffffffffffffffffffffffff1602179055506020820151816001015560408201518160020160006101000a81548173ffffffffffffffffffffffffffffffffffffffff021916908373ffffffffffffffffffffffffffffffffffffffff160217905550606082015181600301556080820151816004015560a0820151816005015560c08201518160060160006101000a81548160ff02191690836003811115613a9057fe5b021790555060e08201518160060160016101000a81548160ff021916908315150217905550905050613ac187613538565b613b4b5760405180604001604052806000815260200160011515815250600460008973ffffffffffffffffffffffffffffffffffffffff1673ffffffffffffffffffffffffffffffffffffffff1681526020019081526020016000206000820151816000015560208201518160010160006101000a81548160ff0219169083151502179055509050505b50505050505050565b81613b5e816120f0565b613bb3576040517f08c379a000000000000000000000000000000000000000000000000000000000815260040180806020018281038252603d8152602001806157c9603d913960400191505060405180910390fd5b82613bbd81613d4c565b613c2f576040517f08c379a00000000000000000000000000000000000000000000000000000000081526004018080602001828103825260168152602001807f4164647265737320646f6573206e6f742065786973740000000000000000000081525060200191505060405180910390fd5b613c38846142b7565b613c4657613c4584614d66565b5b82600160008673ffffffffffffffffffffffffffffffffffffffff1673ffffffffffffffffffffffffffffffffffffffff1681526020019081526020016000206003016000828254019250508190555050505050565b33600760008273ffffffffffffffffffffffffffffffffffffffff1673ffffffffffffffffffffffffffffffffffffffff16815260200190815260200160002060009054906101000a900460ff16613d3f576040517f08c379a00000000000000000000000000000000000000000000000000000000081526004018080602001828103825260308152602001806156896030913960400191505060405180910390fd5b613d488261502d565b5050565b6000600160008373ffffffffffffffffffffffffffffffffffffffff1673ffffffffffffffffffffffffffffffffffffffff16815260200190815260200160002060040160009054906101000a900460ff169050919050565b60606000806000600560008681526020019081526020016000206000018054600181600116156101000203166002900480601f016020809104026020016040519081016040528092919081815260200182805460018160011615610100020316600290048015613e565780601f10613e2b57610100808354040283529160200191613e56565b820191906000526020600020905b815481529060010190602001808311613e3957829003601f168201915b505050505093506005600086815260200190815260200160002060020160009054906101000a900473ffffffffffffffffffffffffffffffffffffffff169250600560008681526020019081526020016000206001015491506005600086815260200190815260200160002060050160009054906101000a900460ff1690509193509193565b60606000806000600160008673ffffffffffffffffffffffffffffffffffffffff1673ffffffffffffffffffffffffffffffffffffffff1681526020019081526020016000206000018054600181600116156101000203166002900480601f016020809104026020016040519081016040528092919081815260200182805460018160011615610100020316600290048015613fb95780601f10613f8e57610100808354040283529160200191613fb9565b820191906000526020600020905b815481529060010190602001808311613f9c57829003601f168201915b50505050509350600160008673ffffffffffffffffffffffffffffffffffffffff1673ffffffffffffffffffffffffffffffffffffffff16815260200190815260200160002060010160009054906101000a900460ff169250600160008673ffffffffffffffffffffffffffffffffffffffff1673ffffffffffffffffffffffffffffffffffffffff168152602001908152602001600020600201805490509150600160008673ffffffffffffffffffffffffffffffffffffffff1673ffffffffffffffffffffffffffffffffffffffff1681526020019081526020016000206003015490509193509193565b6000816140b281613591565b614107576040517f08c379a00000000000000000000000000000000000000000000000000000000081526004018080602001828103825260258152602001806157a46025913960400191505060405180910390fd5b60006003600085815260200190815260200160002060030154905060006003600086815260200190815260200160002060000160009054906101000a900473ffffffffffffffffffffffffffffffffffffffff16905060006141736002846150c890919063ffffffff16565b9050614188818461515790919063ffffffff16565b945084600360008881526020019081526020016000206004018190555084600460008473ffffffffffffffffffffffffffffffffffffffff1673ffffffffffffffffffffffffffffffffffffffff168152602001908152602001600020600001600082825401925050819055506141fe86613c9c565b50505050919050565b33600760008273ffffffffffffffffffffffffffffffffffffffff1673ffffffffffffffffffffffffffffffffffffffff16815260200190815260200160002060009054906101000a900460ff166142aa576040517f08c379a00000000000000000000000000000000000000000000000000000000081526004018080602001828103825260308152602001806156896030913960400191505060405180910390fd5b6142b3826151df565b5050565b60006002808111156142c557fe5b600160008473ffffffffffffffffffffffffffffffffffffffff1673ffffffffffffffffffffffffffffffffffffffff16815260200190815260200160002060010160009054906101000a900460ff16600281111561432057fe5b149050919050565b60006002600381111561433757fe5b6003600084815260200190815260200160002060060160009054906101000a900460ff16600381111561436657fe5b149050919050565b60006002600381111561437d57fe5b6005600084815260200190815260200160002060050160009054906101000a900460ff1660038111156143ac57fe5b149050919050565b806143be816118b8565b614413576040517f08c379a00000000000000000000000000000000000000000000000000000000081526004018080602001828103825260248152602001806156656024913960400191505060405180910390fd5b61441c83613d4c565b61448e576040517f08c379a00000000000000000000000000000000000000000000000000000000081526004018080602001828103825260168152602001807f4169726c696e6520646f6573206e6f742065786973740000000000000000000081525060200191505060405180910390fd5b614497836128f2565b6144ec576040517f08c379a00000000000000000000000000000000000000000000000000000000081526004018080602001828103825260218152602001806158296021913960400191505060405180910390fd5b600160008473ffffffffffffffffffffffffffffffffffffffff1673ffffffffffffffffffffffffffffffffffffffff1681526020019081526020016000206002018290806001815401808255809150509060018203906000526020600020016000909192909190916101000a81548173ffffffffffffffffffffffffffffffffffffffff021916908373ffffffffffffffffffffffffffffffffffffffff1602179055505061459b83612efb565b156145aa576145a9836124d2565b5b7ff7c50f9eb2df776ff843af719b51fe3587613ead8477a913a6418c893f85ebd98383600160008773ffffffffffffffffffffffffffffffffffffffff1673ffffffffffffffffffffffffffffffffffffffff16815260200190815260200160002060020180549050604051808473ffffffffffffffffffffffffffffffffffffffff1673ffffffffffffffffffffffffffffffffffffffff1681526020018373ffffffffffffffffffffffffffffffffffffffff1673ffffffffffffffffffffffffffffffffffffffff168152602001828152602001935050505060405180910390a1505050565b8061469d816123dc565b6146f2576040517f08c379a00000000000000000000000000000000000000000000000000000000081526004018080602001828103825260238152602001806157016023913960400191505060405180910390fd5b60026005600084815260200190815260200160002060050160006101000a81548160ff0219169083600381111561472557fe5b02179055505050565b80614738816128f2565b61478d576040517f08c379a00000000000000000000000000000000000000000000000000000000081526004018080602001828103825260218152602001806158296021913960400191505060405180910390fd5b60018060008473ffffffffffffffffffffffffffffffffffffffff1673ffffffffffffffffffffffffffffffffffffffff16815260200190815260200160002060010160006101000a81548160ff021916908360028111156147eb57fe5b02179055506060600160008473ffffffffffffffffffffffffffffffffffffffff1673ffffffffffffffffffffffffffffffffffffffff1681526020019081526020016000206000018054600181600116156101000203166002900480601f0160208091040260200160405190810160405280929190818152602001828054600181600116156101000203166002900480156148c85780601f1061489d576101008083540402835291602001916148c8565b820191906000526020600020905b8154815290600101906020018083116148ab57829003601f168201915b505050505090507f4389233d1d7e817e3a41447176300b89c596c24ed4d58896d501ddb378abe2c4818460405180806020018373ffffffffffffffffffffffffffffffffffffffff1673ffffffffffffffffffffffffffffffffffffffff168152602001828103825284818151815260200191508051906020019080838360005b83811015614964578082015181840152602081019050614949565b50505050905090810190601f1680156149915780820380516001836020036101000a031916815260200191505b50935050505060405180910390a1505050565b60006149b084846125a2565b90506149bb816120c3565b15614a11576040517f08c379a00000000000000000000000000000000000000000000000000000000081526004018080602001828103825260218152602001806156e06021913960400191505060405180910390fd5b6060614a1b6154be565b85816000018190525083816040019073ffffffffffffffffffffffffffffffffffffffff16908173ffffffffffffffffffffffffffffffffffffffff168152505084816020018181525050600081608001906003811115614a7857fe5b90816003811115614a8557fe5b8152505060018160a001901515908115158152505081816060018190525080600560008581526020019081526020016000206000820151816000019080519060200190614ad3929190615333565b506020820151816001015560408201518160020160006101000a81548173ffffffffffffffffffffffffffffffffffffffff021916908373ffffffffffffffffffffffffffffffffffffffff1602179055506060820151816003019080519060200190614b41929190615517565b5060808201518160050160006101000a81548160ff02191690836003811115614b6657fe5b021790555060a08201518160050160016101000a81548160ff021916908315150217905550905050505050505050565b80614ba081614328565b614bf5576040517f08c379a000000000000000000000000000000000000000000000000000000000815260040180806020018281038252602481526020018061561a6024913960400191505060405180910390fd5b600380600084815260200190815260200160002060060160006101000a81548160ff02191690836003811115614c2757fe5b02179055505050565b80614c3a81613591565b614c8f576040517f08c379a00000000000000000000000000000000000000000000000000000000081526004018080602001828103825260258152602001806157a46025913960400191505060405180910390fd5b60016003600084815260200190815260200160002060060160006101000a81548160ff02191690836003811115614cc257fe5b02179055505050565b80614cd5816123dc565b614d2a576040517f08c379a00000000000000000000000000000000000000000000000000000000081526004018080602001828103825260238152602001806157016023913960400191505060405180910390fd5b60036005600084815260200190815260200160002060050160006101000a81548160ff02191690836003811115614d5d57fe5b02179055505050565b80614d70816118b8565b614dc5576040517f08c379a00000000000000000000000000000000000000000000000000000000081526004018080602001828103825260248152602001806156656024913960400191505060405180910390fd5b6002600160008473ffffffffffffffffffffffffffffffffffffffff1673ffffffffffffffffffffffffffffffffffffffff16815260200190815260200160002060010160006101000a81548160ff02191690836002811115614e2457fe5b02179055506060600160008473ffffffffffffffffffffffffffffffffffffffff1673ffffffffffffffffffffffffffffffffffffffff1681526020019081526020016000206000018054600181600116156101000203166002900480601f016020809104026020016040519081016040528092919081815260200182805460018160011615610100020316600290048015614f015780601f10614ed657610100808354040283529160200191614f01565b820191906000526020600020905b815481529060010190602001808311614ee457829003601f168201915b505050505090506000600160008573ffffffffffffffffffffffffffffffffffffffff1673ffffffffffffffffffffffffffffffffffffffff1681526020019081526020016000206003015490507f53b7c1b088635937d93a99c488cc77c6d286057c245c779959f41c8b64fc74a282858360405180806020018473ffffffffffffffffffffffffffffffffffffffff1673ffffffffffffffffffffffffffffffffffffffff168152602001838152602001828103825285818151815260200191508051906020019080838360005b83811015614feb578082015181840152602081019050614fd0565b50505050905090810190601f1680156150185780820380516001836020036101000a031916815260200191505b5094505050505060405180910390a150505050565b8061503781613591565b61508c576040517f08c379a00000000000000000000000000000000000000000000000000000000081526004018080602001828103825260258152602001806157a46025913960400191505060405180910390fd5b60026003600084815260200190815260200160002060060160006101000a81548160ff021916908360038111156150bf57fe5b02179055505050565b600080821161513f576040517f08c379a000000000000000000000000000000000000000000000000000000000815260040180806020018281038252601a8152602001807f536166654d6174683a206469766973696f6e206279207a65726f00000000000081525060200191505060405180910390fd5b600082848161514a57fe5b0490508091505092915050565b6000808284019050838110156151d5576040517f08c379a000000000000000000000000000000000000000000000000000000000815260040180806020018281038252601b8152602001807f536166654d6174683a206164646974696f6e206f766572666c6f77000000000081525060200191505060405180910390fd5b8091505092915050565b806151e9816123dc565b61523e576040517f08c379a00000000000000000000000000000000000000000000000000000000081526004018080602001828103825260238152602001806157016023913960400191505060405180910390fd5b81615248816120c3565b6152ba576040517f08c379a00000000000000000000000000000000000000000000000000000000081526004018080602001828103825260158152602001807f466c6967687420646f6573206e6f74206578697374000000000000000000000081525060200191505060405180910390fd5b60016005600085815260200190815260200160002060050160006101000a81548160ff021916908360038111156152ed57fe5b0217905550505050565b6040518060a00160405280606081526020016000600281111561531657fe5b815260200160608152602001600081526020016000151581525090565b828054600181600116156101000203166002900490600052602060002090601f016020900481019282601f1061537457805160ff19168380011785556153a2565b828001600101855582156153a2579182015b828111156153a1578251825591602001919060010190615386565b5b5090506153af9190615564565b5090565b82805482825590600052602060002090810192821561542c579160200282015b8281111561542b5782518260006101000a81548173ffffffffffffffffffffffffffffffffffffffff021916908373ffffffffffffffffffffffffffffffffffffffff160217905550916020019190600101906153d3565b5b5090506154399190615589565b5090565b604051806101000160405280600073ffffffffffffffffffffffffffffffffffffffff16815260200160008019168152602001600073ffffffffffffffffffffffffffffffffffffffff168152602001600081526020016000815260200160008152602001600060038111156154af57fe5b81526020016000151581525090565b6040518060c001604052806060815260200160008152602001600073ffffffffffffffffffffffffffffffffffffffff168152602001606081526020016000600381111561550857fe5b81526020016000151581525090565b828054828255906000526020600020908101928215615553579160200282015b82811115615552578251825591602001919060010190615537565b5b50905061556091906155cc565b5090565b61558691905b8082111561558257600081600090555060010161556a565b5090565b90565b6155c991905b808211156155c557600081816101000a81549073ffffffffffffffffffffffffffffffffffffffff02191690555060010161558f565b5090565b90565b6155ee91905b808211156155ea5760008160009055506001016155d2565b5090565b9056fe41646472657373206861732072656769737465726564206173204169726c696e65206265666f7265496e737572616e6365206d75737420626520696e2043726564697465642073746174757354686520666c69676874206d75737420626520696e2072656769737465726564207374617475734169726c696e65206d75737420626520696e2072656769737465726564207374617475734f6e6c7920617574686f72697a65642063616c6c65727320636f756c642063616c6c20746869732066756e6374696f6e4169726c696e6527732066756e64206973206e6f7420656e6f75676820746f20706179206e6f77466c6967687420686173206265656e2072656769737465726564206265666f7265466c69676874206d75737420626520696e20526567697374657265642073746174757354686520666c696768742068617320616c726561647920676f742074686520696e737572616e63654169726c696e6527732066756e64206973206c657373207468616e204d494e49554d2066756e6420726571756972656d656e74436f6e74726163742069732063757272656e746c79206e6f74206f7065726174696f6e616c496e737572616e6365206d75737420626520696e20416374697661746564207374617475734169726c696e65206d7573742065697468657220626520696e2072656769737465726564206f722066756e6465642073746174757320746f2066756e6443616e646964617465206d75737420626520696e20656e7465726564207374617475734169726c696e65206d75737420626520696e20656e746572656420737461747573a165627a7a72305820873b6ade86e0084f5262aee9a6dca2e8d03299f388184abe7c22df8ab0542cab0029",
  "source": "pragma solidity ^0.5.8;\r\n\r\nimport \"../node_modules/openzeppelin-solidity/contracts/math/SafeMath.sol\";\r\n\r\nimport \"./AirlineData.sol\";\r\nimport \"./InsuranceData.sol\";\r\nimport \"./FlightData.sol\";\r\nimport \"./Authorizable.sol\";\r\n\r\ncontract FlightSuretyData is AirlineData, InsuranceData, FlightData, Authorizable{\r\n    using SafeMath for uint256;\r\n\r\n    function registerAirline(string memory _name, address _airline) public requireIsOperational requireAuthorizedCaller(msg.sender){\r\n        addAirline(_name, _airline);\r\n    }\r\n\r\n    function vote(address _candidate, address _voter) public requireAuthorizedCaller(msg.sender){\r\n        super.vote(_candidate, _voter);\r\n    }\r\n\r\n    function registerFlight(string memory _code, uint256 _timestamp, address _airline) public \r\n    requireIsOperational requireAirlineFunded(_airline) requireAirlinesHasEnoughFund(_airline) requireAuthorizedCaller(msg.sender){\r\n        addFlight(_code, _timestamp, _airline);\r\n    }\r\n\r\n    function registerInsurance(address _buyer, bytes32 _flightKey, uint256 _contractTimestamp, address _airline, uint256 _fee) public\r\n    requireIsOperational requireFlightRegistered(_flightKey){\r\n        addInsurance(_buyer, _flightKey, _contractTimestamp, _airline, _fee);\r\n        bytes32 _insuranceKey = generateInsuranceKey(_buyer, _flightKey, _contractTimestamp);\r\n        addInsuranceKey(_flightKey, _insuranceKey);\r\n    }\r\n\r\n    function setFlightOnTime(bytes32 flightKey) public requireAuthorizedCaller(msg.sender){\r\n        super.setFlightOnTime(flightKey);\r\n    }\r\n\r\n    function setFlightLateAirline(bytes32 flightKey) public requireAuthorizedCaller(msg.sender){\r\n        super.setFlightLateAirline(flightKey);\r\n    }\r\n\r\n     function setFlightLateNotAirline(bytes32 flightKey) public requireAuthorizedCaller(msg.sender){\r\n        super.setFlightLateNotAirline(flightKey);\r\n    }\r\n\r\n    function setInsuranceExpired(bytes32 insuranceKey) public requireAuthorizedCaller(msg.sender){\r\n        super.setInsuranceExpired(insuranceKey);\r\n    }\r\n\r\n    function setInsuranceCredited(bytes32 insuranceKey) public requireAuthorizedCaller(msg.sender){\r\n        super.setInsuranceCredited(insuranceKey);\r\n    }\r\n\r\n    function setInsuranceWithdrawn(bytes32 insuranceKey) public requireAuthorizedCaller(msg.sender){\r\n        super.setInsuranceWithdrawn(insuranceKey);\r\n    }\r\n\r\n    function creditInsurees(bytes32 flightKey) public requireIsOperational requireFlightLateAirline(flightKey) requireAuthorizedCaller(msg.sender){\r\n        bytes32[] memory insuranceKeysList = getInsuranceKeysList(flightKey);\r\n        for(uint256 i=0; i<insuranceKeysList.length; i++){\r\n            creditInsurance(insuranceKeysList[i]);\r\n        }\r\n    }\r\n}",
  "sourcePath": "C:/Users/andrewchan88/Documents/Coding/udacity/Blockchain/PartB/homework/project7_es_rm/contracts/FlightSuretyData.sol",
  "compiler": {
    "name": "solc",
    "version": "0.5.8+commit.23d335f2.Emscripten.clang"
  },
  "schemaVersion": "3.0.13",
  "updatedAt": "2019-10-01T04:55:13.286Z",
  "devdoc": {
    "methods": {
      "isOperational()": {
        "details": "Modifier that requires the \"operational\" boolean variable to be \"true\"\r     This is used on all state changing functions to pause the contract in \r     the event there is an issue that needs to be fixed\r"
      }
    }
  },
  "userdoc": {
    "methods": {
      "addAirline(string,address)": {
        "notice": "functions for handling airline register and vote\r"
      },
      "addInsurance(address,bytes32,uint256,address,uint256)": {
        "notice": "function for adding and crediting insurance\r"
      },
      "isAirlineExist(address)": {
        "notice": "Functions for checking condition of Airline & modifiers\r"
      },
      "isExist(bytes32)": {
        "notice": "Functions for conditions checking and modifiers\r"
      },
      "isFlightExist(bytes32)": {
        "notice": "functions for checking flight condition and modifiers\r"
      },
      "queryBuyerCredit(address)": {
        "notice": "functions for querying insurance info\r"
      },
      "queryFlightInfo(bytes32)": {
        "notice": "functions for querying flights status\r"
      },
      "queryFund(address)": {
        "notice": "functions for query airline data\r"
      }
    }
  }
}