{
  "contractName": "FlightSuretyData",
  "abi": [
    {
      "constant": true,
      "inputs": [
        {
          "name": "_testingAddress",
          "type": "address"
        }
      ],
      "name": "isAirlineRegistered",
      "outputs": [
        {
          "name": "",
          "type": "bool"
        }
      ],
      "payable": false,
      "stateMutability": "view",
      "type": "function"
    },
    {
      "constant": false,
      "inputs": [
        {
          "name": "_flightKey",
          "type": "bytes32"
        },
        {
          "name": "_insuranceKey",
          "type": "bytes32"
        }
      ],
      "name": "addInsuranceKey",
      "outputs": [],
      "payable": false,
      "stateMutability": "nonpayable",
      "type": "function"
    },
    {
      "constant": false,
      "inputs": [
        {
          "name": "mode",
          "type": "bool"
        }
      ],
      "name": "setOperatingStatus",
      "outputs": [],
      "payable": false,
      "stateMutability": "nonpayable",
      "type": "function"
    },
    {
      "constant": false,
      "inputs": [
        {
          "name": "_candidate",
          "type": "address"
        }
      ],
      "name": "addAuthorizedCaller",
      "outputs": [],
      "payable": false,
      "stateMutability": "nonpayable",
      "type": "function"
    },
    {
      "constant": true,
      "inputs": [],
      "name": "queryRegisteredAirlinesCount",
      "outputs": [
        {
          "name": "",
          "type": "uint256"
        }
      ],
      "payable": false,
      "stateMutability": "view",
      "type": "function"
    },
    {
      "constant": true,
      "inputs": [
        {
          "name": "_id",
          "type": "bytes32"
        }
      ],
      "name": "isFlightExist",
      "outputs": [
        {
          "name": "",
          "type": "bool"
        }
      ],
      "payable": false,
      "stateMutability": "view",
      "type": "function"
    },
    {
      "constant": true,
      "inputs": [
        {
          "name": "_testingAddress",
          "type": "address"
        }
      ],
      "name": "couldFund",
      "outputs": [
        {
          "name": "",
          "type": "bool"
        }
      ],
      "payable": false,
      "stateMutability": "view",
      "type": "function"
    },
    {
      "constant": true,
      "inputs": [
        {
          "name": "_insuranceKey",
          "type": "bytes32"
        }
      ],
      "name": "queryInsuranceInfo",
      "outputs": [
        {
          "name": "buyer",
          "type": "address"
        },
        {
          "name": "flightKey",
          "type": "bytes32"
        },
        {
          "name": "airline",
          "type": "address"
        },
        {
          "name": "fee",
          "type": "uint256"
        },
        {
          "name": "credits",
          "type": "uint256"
        },
        {
          "name": "insuranceStatus",
          "type": "uint8"
        }
      ],
      "payable": false,
      "stateMutability": "view",
      "type": "function"
    },
    {
      "constant": true,
      "inputs": [
        {
          "name": "_flightID",
          "type": "bytes32"
        }
      ],
      "name": "getNumberOfInsurance",
      "outputs": [
        {
          "name": "",
          "type": "uint256"
        }
      ],
      "payable": false,
      "stateMutability": "view",
      "type": "function"
    },
    {
      "constant": true,
      "inputs": [
        {
          "name": "fee",
          "type": "uint256"
        }
      ],
      "name": "calculateCredits",
      "outputs": [
        {
          "name": "credits",
          "type": "uint256"
        }
      ],
      "payable": false,
      "stateMutability": "pure",
      "type": "function"
    },
    {
      "constant": true,
      "inputs": [],
      "name": "MIN_FUND",
      "outputs": [
        {
          "name": "",
          "type": "uint256"
        }
      ],
      "payable": false,
      "stateMutability": "view",
      "type": "function"
    },
    {
      "constant": true,
      "inputs": [
        {
          "name": "_buyer",
          "type": "address"
        },
        {
          "name": "_flightKey",
          "type": "bytes32"
        }
      ],
      "name": "generateInsuranceKey",
      "outputs": [
        {
          "name": "",
          "type": "bytes32"
        }
      ],
      "payable": false,
      "stateMutability": "pure",
      "type": "function"
    },
    {
      "constant": true,
      "inputs": [],
      "name": "isFewAirlines",
      "outputs": [
        {
          "name": "",
          "type": "bool"
        }
      ],
      "payable": false,
      "stateMutability": "view",
      "type": "function"
    },
    {
      "constant": true,
      "inputs": [
        {
          "name": "_id",
          "type": "bytes32"
        }
      ],
      "name": "isFlightRegistered",
      "outputs": [
        {
          "name": "",
          "type": "bool"
        }
      ],
      "payable": false,
      "stateMutability": "view",
      "type": "function"
    },
    {
      "constant": true,
      "inputs": [
        {
          "name": "_candidate",
          "type": "address"
        }
      ],
      "name": "isAuthorizedCaller",
      "outputs": [
        {
          "name": "",
          "type": "bool"
        }
      ],
      "payable": false,
      "stateMutability": "view",
      "type": "function"
    },
    {
      "constant": false,
      "inputs": [
        {
          "name": "_buyer",
          "type": "address"
        },
        {
          "name": "_flightKey",
          "type": "bytes32"
        },
        {
          "name": "_airline",
          "type": "address"
        },
        {
          "name": "_fee",
          "type": "uint256"
        }
      ],
      "name": "addInsurance",
      "outputs": [],
      "payable": false,
      "stateMutability": "nonpayable",
      "type": "function"
    },
    {
      "constant": true,
      "inputs": [],
      "name": "getAllFlightKeys",
      "outputs": [
        {
          "name": "",
          "type": "bytes32[]"
        }
      ],
      "payable": false,
      "stateMutability": "view",
      "type": "function"
    },
    {
      "constant": true,
      "inputs": [],
      "name": "queryAirlinesCount",
      "outputs": [
        {
          "name": "",
          "type": "uint256"
        }
      ],
      "payable": false,
      "stateMutability": "view",
      "type": "function"
    },
    {
      "constant": true,
      "inputs": [
        {
          "name": "_candidate",
          "type": "address"
        }
      ],
      "name": "checkVotes",
      "outputs": [
        {
          "name": "",
          "type": "uint256"
        }
      ],
      "payable": false,
      "stateMutability": "view",
      "type": "function"
    },
    {
      "constant": true,
      "inputs": [
        {
          "name": "fee",
          "type": "uint256"
        }
      ],
      "name": "isLessThanMax",
      "outputs": [
        {
          "name": "",
          "type": "bool"
        }
      ],
      "payable": false,
      "stateMutability": "pure",
      "type": "function"
    },
    {
      "constant": false,
      "inputs": [
        {
          "name": "_candidate",
          "type": "address"
        }
      ],
      "name": "addToRegisteredAirlines",
      "outputs": [],
      "payable": false,
      "stateMutability": "nonpayable",
      "type": "function"
    },
    {
      "constant": true,
      "inputs": [
        {
          "name": "_code",
          "type": "string"
        },
        {
          "name": "_timestamp",
          "type": "uint256"
        }
      ],
      "name": "generateFlightKey",
      "outputs": [
        {
          "name": "",
          "type": "bytes32"
        }
      ],
      "payable": false,
      "stateMutability": "pure",
      "type": "function"
    },
    {
      "constant": true,
      "inputs": [
        {
          "name": "_insuranceKey",
          "type": "bytes32"
        },
        {
          "name": "_candidate",
          "type": "address"
        }
      ],
      "name": "isBuyer",
      "outputs": [
        {
          "name": "",
          "type": "bool"
        }
      ],
      "payable": false,
      "stateMutability": "view",
      "type": "function"
    },
    {
      "constant": true,
      "inputs": [
        {
          "name": "_testingAddress",
          "type": "address"
        }
      ],
      "name": "isAirlineEntered",
      "outputs": [
        {
          "name": "",
          "type": "bool"
        }
      ],
      "payable": false,
      "stateMutability": "view",
      "type": "function"
    },
    {
      "constant": true,
      "inputs": [
        {
          "name": "_candidate",
          "type": "address"
        }
      ],
      "name": "moreThanHalf",
      "outputs": [
        {
          "name": "",
          "type": "bool"
        }
      ],
      "payable": false,
      "stateMutability": "view",
      "type": "function"
    },
    {
      "constant": true,
      "inputs": [
        {
          "name": "_flightKey",
          "type": "bytes32"
        },
        {
          "name": "_insuranceKey",
          "type": "bytes32"
        }
      ],
      "name": "isFlightHasThisInsuranceKey",
      "outputs": [
        {
          "name": "",
          "type": "bool"
        }
      ],
      "payable": false,
      "stateMutability": "view",
      "type": "function"
    },
    {
      "constant": true,
      "inputs": [
        {
          "name": "_insuranceKey",
          "type": "bytes32"
        }
      ],
      "name": "isExist",
      "outputs": [
        {
          "name": "",
          "type": "bool"
        }
      ],
      "payable": false,
      "stateMutability": "view",
      "type": "function"
    },
    {
      "constant": true,
      "inputs": [
        {
          "name": "_airline",
          "type": "address"
        },
        {
          "name": "_flightKey",
          "type": "bytes32"
        }
      ],
      "name": "isFlightOwner",
      "outputs": [
        {
          "name": "",
          "type": "bool"
        }
      ],
      "payable": false,
      "stateMutability": "view",
      "type": "function"
    },
    {
      "constant": false,
      "inputs": [
        {
          "name": "_airline",
          "type": "address"
        },
        {
          "name": "_fund",
          "type": "uint256"
        }
      ],
      "name": "deductFund",
      "outputs": [],
      "payable": false,
      "stateMutability": "nonpayable",
      "type": "function"
    },
    {
      "constant": true,
      "inputs": [
        {
          "name": "_insuranceKey",
          "type": "bytes32"
        }
      ],
      "name": "queryInsuranceBuyer",
      "outputs": [
        {
          "name": "",
          "type": "address"
        }
      ],
      "payable": false,
      "stateMutability": "view",
      "type": "function"
    },
    {
      "constant": true,
      "inputs": [],
      "name": "getOwner",
      "outputs": [
        {
          "name": "",
          "type": "address"
        }
      ],
      "payable": false,
      "stateMutability": "view",
      "type": "function"
    },
    {
      "constant": true,
      "inputs": [
        {
          "name": "_candidate",
          "type": "address"
        }
      ],
      "name": "isAirlineFulfill",
      "outputs": [
        {
          "name": "",
          "type": "bool"
        }
      ],
      "payable": false,
      "stateMutability": "view",
      "type": "function"
    },
    {
      "constant": false,
      "inputs": [
        {
          "name": "_name",
          "type": "string"
        },
        {
          "name": "_airline",
          "type": "address"
        }
      ],
      "name": "addAirline",
      "outputs": [],
      "payable": false,
      "stateMutability": "nonpayable",
      "type": "function"
    },
    {
      "constant": true,
      "inputs": [
        {
          "name": "_airline",
          "type": "address"
        }
      ],
      "name": "isAirlineHasEnoughFund",
      "outputs": [
        {
          "name": "",
          "type": "bool"
        }
      ],
      "payable": false,
      "stateMutability": "view",
      "type": "function"
    },
    {
      "constant": true,
      "inputs": [
        {
          "name": "_flightID",
          "type": "bytes32"
        }
      ],
      "name": "getInsuranceKeysList",
      "outputs": [
        {
          "name": "",
          "type": "bytes32[]"
        }
      ],
      "payable": false,
      "stateMutability": "view",
      "type": "function"
    },
    {
      "constant": true,
      "inputs": [
        {
          "name": "_insuranceKey",
          "type": "bytes32"
        }
      ],
      "name": "isActivated",
      "outputs": [
        {
          "name": "",
          "type": "bool"
        }
      ],
      "payable": false,
      "stateMutability": "view",
      "type": "function"
    },
    {
      "constant": true,
      "inputs": [
        {
          "name": "_airline",
          "type": "address"
        }
      ],
      "name": "queryFund",
      "outputs": [
        {
          "name": "",
          "type": "uint256"
        }
      ],
      "payable": false,
      "stateMutability": "view",
      "type": "function"
    },
    {
      "constant": true,
      "inputs": [],
      "name": "isOperational",
      "outputs": [
        {
          "name": "",
          "type": "bool"
        }
      ],
      "payable": false,
      "stateMutability": "view",
      "type": "function"
    },
    {
      "constant": false,
      "inputs": [
        {
          "name": "_airline",
          "type": "address"
        },
        {
          "name": "_fund",
          "type": "uint256"
        }
      ],
      "name": "addFund",
      "outputs": [],
      "payable": false,
      "stateMutability": "nonpayable",
      "type": "function"
    },
    {
      "constant": true,
      "inputs": [
        {
          "name": "_testingAddress",
          "type": "address"
        }
      ],
      "name": "isAirlineExist",
      "outputs": [
        {
          "name": "",
          "type": "bool"
        }
      ],
      "payable": false,
      "stateMutability": "view",
      "type": "function"
    },
    {
      "constant": true,
      "inputs": [
        {
          "name": "_flightID",
          "type": "bytes32"
        }
      ],
      "name": "queryFlightInfo",
      "outputs": [
        {
          "name": "flightKey",
          "type": "bytes32"
        },
        {
          "name": "code",
          "type": "string"
        },
        {
          "name": "airline",
          "type": "address"
        },
        {
          "name": "timestamp",
          "type": "uint256"
        },
        {
          "name": "status",
          "type": "uint8"
        }
      ],
      "payable": false,
      "stateMutability": "view",
      "type": "function"
    },
    {
      "constant": true,
      "inputs": [
        {
          "name": "_airline",
          "type": "address"
        }
      ],
      "name": "queryAirline",
      "outputs": [
        {
          "name": "name",
          "type": "string"
        },
        {
          "name": "status",
          "type": "uint8"
        },
        {
          "name": "votesCount",
          "type": "uint256"
        },
        {
          "name": "funds",
          "type": "uint256"
        }
      ],
      "payable": false,
      "stateMutability": "view",
      "type": "function"
    },
    {
      "constant": false,
      "inputs": [
        {
          "name": "_insuranceKey",
          "type": "bytes32"
        }
      ],
      "name": "creditInsurance",
      "outputs": [
        {
          "name": "credits",
          "type": "uint256"
        }
      ],
      "payable": false,
      "stateMutability": "nonpayable",
      "type": "function"
    },
    {
      "constant": true,
      "inputs": [
        {
          "name": "_testingAddress",
          "type": "address"
        }
      ],
      "name": "isAirlineFunded",
      "outputs": [
        {
          "name": "",
          "type": "bool"
        }
      ],
      "payable": false,
      "stateMutability": "view",
      "type": "function"
    },
    {
      "constant": true,
      "inputs": [
        {
          "name": "_insuranceKey",
          "type": "bytes32"
        }
      ],
      "name": "queryInsuranceFee",
      "outputs": [
        {
          "name": "",
          "type": "uint256"
        }
      ],
      "payable": false,
      "stateMutability": "view",
      "type": "function"
    },
    {
      "constant": true,
      "inputs": [
        {
          "name": "_insuranceKey",
          "type": "bytes32"
        }
      ],
      "name": "isCredited",
      "outputs": [
        {
          "name": "",
          "type": "bool"
        }
      ],
      "payable": false,
      "stateMutability": "view",
      "type": "function"
    },
    {
      "constant": true,
      "inputs": [
        {
          "name": "_flightID",
          "type": "bytes32"
        }
      ],
      "name": "isFlightLateAirline",
      "outputs": [
        {
          "name": "",
          "type": "bool"
        }
      ],
      "payable": false,
      "stateMutability": "view",
      "type": "function"
    },
    {
      "anonymous": false,
      "inputs": [
        {
          "indexed": false,
          "name": "flightCode",
          "type": "string"
        },
        {
          "indexed": false,
          "name": "deparTimestamp",
          "type": "uint256"
        },
        {
          "indexed": false,
          "name": "airline",
          "type": "address"
        },
        {
          "indexed": false,
          "name": "flightKey",
          "type": "bytes32"
        }
      ],
      "name": "FlightAdded",
      "type": "event"
    },
    {
      "anonymous": false,
      "inputs": [
        {
          "indexed": false,
          "name": "flightCode",
          "type": "string"
        },
        {
          "indexed": false,
          "name": "deparTimestamp",
          "type": "uint256"
        },
        {
          "indexed": false,
          "name": "airline",
          "type": "address"
        },
        {
          "indexed": false,
          "name": "flightKey",
          "type": "bytes32"
        },
        {
          "indexed": false,
          "name": "state",
          "type": "uint8"
        }
      ],
      "name": "FlightArrival",
      "type": "event"
    },
    {
      "anonymous": false,
      "inputs": [
        {
          "indexed": false,
          "name": "flightKey",
          "type": "bytes32"
        },
        {
          "indexed": false,
          "name": "insuranceKey",
          "type": "bytes32"
        },
        {
          "indexed": false,
          "name": "buyer",
          "type": "address"
        },
        {
          "indexed": false,
          "name": "fee",
          "type": "uint256"
        }
      ],
      "name": "BuyInsurance",
      "type": "event"
    },
    {
      "anonymous": false,
      "inputs": [
        {
          "indexed": false,
          "name": "flightKey",
          "type": "bytes32"
        },
        {
          "indexed": false,
          "name": "insuranceKey",
          "type": "bytes32"
        },
        {
          "indexed": false,
          "name": "buyer",
          "type": "address"
        },
        {
          "indexed": false,
          "name": "credits",
          "type": "uint256"
        }
      ],
      "name": "CreditInsurance",
      "type": "event"
    },
    {
      "anonymous": false,
      "inputs": [
        {
          "indexed": false,
          "name": "name",
          "type": "string"
        },
        {
          "indexed": false,
          "name": "airline",
          "type": "address"
        }
      ],
      "name": "AirlineEntered",
      "type": "event"
    },
    {
      "anonymous": false,
      "inputs": [
        {
          "indexed": false,
          "name": "name",
          "type": "string"
        },
        {
          "indexed": false,
          "name": "airline",
          "type": "address"
        }
      ],
      "name": "AirlinePendingVote",
      "type": "event"
    },
    {
      "anonymous": false,
      "inputs": [
        {
          "indexed": false,
          "name": "candidate",
          "type": "address"
        },
        {
          "indexed": false,
          "name": "voter",
          "type": "address"
        },
        {
          "indexed": false,
          "name": "votes",
          "type": "uint256"
        }
      ],
      "name": "AirlineVoted",
      "type": "event"
    },
    {
      "anonymous": false,
      "inputs": [
        {
          "indexed": false,
          "name": "name",
          "type": "string"
        },
        {
          "indexed": false,
          "name": "airline",
          "type": "address"
        }
      ],
      "name": "AirlineRegistered",
      "type": "event"
    },
    {
      "anonymous": false,
      "inputs": [
        {
          "indexed": false,
          "name": "name",
          "type": "string"
        },
        {
          "indexed": false,
          "name": "airline",
          "type": "address"
        },
        {
          "indexed": false,
          "name": "fund",
          "type": "uint256"
        }
      ],
      "name": "AirlineFunded",
      "type": "event"
    },
    {
      "constant": false,
      "inputs": [
        {
          "name": "_name",
          "type": "string"
        },
        {
          "name": "_airline",
          "type": "address"
        }
      ],
      "name": "registerAirline",
      "outputs": [],
      "payable": false,
      "stateMutability": "nonpayable",
      "type": "function"
    },
    {
      "constant": false,
      "inputs": [
        {
          "name": "_candidate",
          "type": "address"
        },
        {
          "name": "_voter",
          "type": "address"
        }
      ],
      "name": "vote",
      "outputs": [],
      "payable": false,
      "stateMutability": "nonpayable",
      "type": "function"
    },
    {
      "constant": false,
      "inputs": [
        {
          "name": "_code",
          "type": "string"
        },
        {
          "name": "_timestamp",
          "type": "uint256"
        },
        {
          "name": "_airline",
          "type": "address"
        }
      ],
      "name": "registerFlight",
      "outputs": [],
      "payable": false,
      "stateMutability": "nonpayable",
      "type": "function"
    },
    {
      "constant": false,
      "inputs": [
        {
          "name": "_buyer",
          "type": "address"
        },
        {
          "name": "_flightKey",
          "type": "bytes32"
        },
        {
          "name": "_airline",
          "type": "address"
        },
        {
          "name": "_fee",
          "type": "uint256"
        }
      ],
      "name": "registerInsurance",
      "outputs": [],
      "payable": false,
      "stateMutability": "nonpayable",
      "type": "function"
    },
    {
      "constant": false,
      "inputs": [
        {
          "name": "flightKey",
          "type": "bytes32"
        }
      ],
      "name": "setFlightOnTime",
      "outputs": [],
      "payable": false,
      "stateMutability": "nonpayable",
      "type": "function"
    },
    {
      "constant": false,
      "inputs": [
        {
          "name": "flightKey",
          "type": "bytes32"
        }
      ],
      "name": "setFlightLateAirline",
      "outputs": [],
      "payable": false,
      "stateMutability": "nonpayable",
      "type": "function"
    },
    {
      "constant": false,
      "inputs": [
        {
          "name": "flightKey",
          "type": "bytes32"
        }
      ],
      "name": "setFlightLateNotAirline",
      "outputs": [],
      "payable": false,
      "stateMutability": "nonpayable",
      "type": "function"
    },
    {
      "constant": false,
      "inputs": [
        {
          "name": "insuranceKey",
          "type": "bytes32"
        }
      ],
      "name": "setInsuranceExpired",
      "outputs": [],
      "payable": false,
      "stateMutability": "nonpayable",
      "type": "function"
    },
    {
      "constant": false,
      "inputs": [
        {
          "name": "insuranceKey",
          "type": "bytes32"
        }
      ],
      "name": "setInsuranceCredited",
      "outputs": [],
      "payable": false,
      "stateMutability": "nonpayable",
      "type": "function"
    },
    {
      "constant": false,
      "inputs": [
        {
          "name": "insuranceKey",
          "type": "bytes32"
        }
      ],
      "name": "setInsuranceWithdrawn",
      "outputs": [],
      "payable": false,
      "stateMutability": "nonpayable",
      "type": "function"
    },
    {
      "constant": false,
      "inputs": [
        {
          "name": "flightKey",
          "type": "bytes32"
        }
      ],
      "name": "creditInsurees",
      "outputs": [],
      "payable": false,
      "stateMutability": "nonpayable",
      "type": "function"
    }
  ],
  "bytecode": "0x60806040526001600660146101000a81548160ff02191690831515021790555033600660006101000a81548173ffffffffffffffffffffffffffffffffffffffff021916908373ffffffffffffffffffffffffffffffffffffffff160217905550615cce8061006f6000396000f3fe608060405234801561001057600080fd5b506004361061038e5760003560e01c80636f1fa7a8116101de578063c77eb5a21161010f578063e7e4ff71116100ad578063f53b6d651161007c578063f53b6d651461173b578063f8813dfb14611797578063fb933ebd146117d9578063fc00b2861461181f5761038e565b8063e7e4ff71146114ee578063e9e2ea95146115eb578063ee06ce2b146116cb578063f2c6d0b21461170d5761038e565b8063cd905dff116100e9578063cd905dff146113f4578063d512c06114611416578063d709f2a114611464578063df00f5ea146114925761038e565b8063c77eb5a214611340578063c9e4b0d31461136e578063cc2f6eba146113c65761038e565b806389c6c14e1161017c578063aed6862b11610156578063aed6862b14611140578063b39248101461121b578063b3e70c3114611277578063ba87af80146112fa5761038e565b806389c6c14e1461108857806392a0b6eb146110b65780639348916f146111125761038e565b8063849365a1116101b8578063849365a114610f1c57806388e4fe3f14610f8257806389199e3714610fd0578063893d20e81461103e5761038e565b80636f1fa7a814610e2a5780637508ec2014610e86578063762fee1814610ed65761038e565b806355b2bb0f116102c35780635bcd59ae11610261578063637a66df11610230578063637a66df14610baa57806363f045a514610c8357806365c152f714610ce95780636f0fec4b14610dce5761038e565b80635bcd59ae14610aaa5780635caea9cb14610ac85780635dade69914610b205780635e913b2e14610b665761038e565b806358ac36a31161029d57806358ac36a31461093157806359d14b41146109775780635a1c1e70146109d35780635aa0c5bb14610a4b5761038e565b806355b2bb0f1461088f57806355f2bb24146108ad57806356f4fa1e1461090f5761038e565b80631afa74e5116103305780633d0277431161030a5780633d0277431461071257806343ba1e3c146107dd57806345e2748d1461081f5780634652cb901461084d5761038e565b80631afa74e51461060c578063242f83e81461067057806334198f22146106b65761038e565b8063110466ed1161036c578063110466ed1461050257806313a155ea146105325780631558ac861461057657806319dd27b5146105945761038e565b8063010c5c97146103935780630e2c4129146103ef5780630f08f655146104ca575b600080fd5b6103d5600480360360208110156103a957600080fd5b81019080803573ffffffffffffffffffffffffffffffffffffffff169060200190929190505050611865565b604051808215151515815260200191505060405180910390f35b6104c86004803603604081101561040557600080fd5b810190808035906020019064010000000081111561042257600080fd5b82018360208201111561043457600080fd5b8035906020019184600183028401116401000000008311171561045657600080fd5b91908080601f016020809104026020016040519081016040528093929190818152602001838380828437600081840152601f19601f820116905080830192505050505050509192919290803573ffffffffffffffffffffffffffffffffffffffff1690602001909291905050506118d7565b005b610500600480360360408110156104e057600080fd5b8101908080359060200190929190803590602001909291905050506119e6565b005b6105306004803603602081101561051857600080fd5b81019080803515159060200190929190505050611ba3565b005b6105746004803603602081101561054857600080fd5b81019080803573ffffffffffffffffffffffffffffffffffffffff169060200190929190505050611c83565b005b61057e611dfe565b6040518082815260200191505060405180910390f35b61060a600480360360808110156105aa57600080fd5b81019080803573ffffffffffffffffffffffffffffffffffffffff16906020019092919080359060200190929190803573ffffffffffffffffffffffffffffffffffffffff16906020019092919080359060200190929190505050611e0b565b005b61066e6004803603604081101561062257600080fd5b81019080803573ffffffffffffffffffffffffffffffffffffffff169060200190929190803573ffffffffffffffffffffffffffffffffffffffff169060200190929190505050611ef3565b005b61069c6004803603602081101561068657600080fd5b8101908080359060200190929190505050611fa5565b604051808215151515815260200191505060405180910390f35b6106f8600480360360208110156106cc57600080fd5b81019080803573ffffffffffffffffffffffffffffffffffffffff169060200190929190505050611fd2565b604051808215151515815260200191505060405180910390f35b61073e6004803603602081101561072857600080fd5b8101908080359060200190929190505050611ff4565b604051808773ffffffffffffffffffffffffffffffffffffffff1673ffffffffffffffffffffffffffffffffffffffff1681526020018681526020018573ffffffffffffffffffffffffffffffffffffffff1673ffffffffffffffffffffffffffffffffffffffff1681526020018481526020018381526020018260038111156107c457fe5b60ff168152602001965050505050505060405180910390f35b610809600480360360208110156107f357600080fd5b81019080803590602001909291905050506120e9565b6040518082815260200191505060405180910390f35b61084b6004803603602081101561083557600080fd5b8101908080359060200190929190505050612189565b005b6108796004803603602081101561086357600080fd5b8101908080359060200190929190505050612239565b6040518082815260200191505060405180910390f35b610897612268565b6040518082815260200191505060405180910390f35b6108f9600480360360408110156108c357600080fd5b81019080803573ffffffffffffffffffffffffffffffffffffffff16906020019092919080359060200190929190505050612274565b6040518082815260200191505060405180910390f35b6109176122dc565b604051808215151515815260200191505060405180910390f35b61095d6004803603602081101561094757600080fd5b81019080803590602001909291905050506122ec565b604051808215151515815260200191505060405180910390f35b6109b96004803603602081101561098d57600080fd5b81019080803573ffffffffffffffffffffffffffffffffffffffff169060200190929190505050612331565b604051808215151515815260200191505060405180910390f35b610a49600480360360808110156109e957600080fd5b81019080803573ffffffffffffffffffffffffffffffffffffffff16906020019092919080359060200190929190803573ffffffffffffffffffffffffffffffffffffffff16906020019092919080359060200190929190505050612387565b005b610a5361264f565b6040518080602001828103825283818151815260200191508051906020019060200280838360005b83811015610a96578082015181840152602081019050610a7b565b505050509050019250505060405180910390f35b610ab26126a7565b6040518082815260200191505060405180910390f35b610b0a60048036036020811015610ade57600080fd5b81019080803573ffffffffffffffffffffffffffffffffffffffff1690602001909291905050506126b3565b6040518082815260200191505060405180910390f35b610b4c60048036036020811015610b3657600080fd5b8101908080359060200190929190505050612702565b604051808215151515815260200191505060405180910390f35b610ba860048036036020811015610b7c57600080fd5b81019080803573ffffffffffffffffffffffffffffffffffffffff169060200190929190505050612717565b005b610c6d60048036036040811015610bc057600080fd5b8101908080359060200190640100000000811115610bdd57600080fd5b820183602082011115610bef57600080fd5b80359060200191846001830284011164010000000083111715610c1157600080fd5b91908080601f016020809104026020016040519081016040528093929190818152602001838380828437600081840152601f19601f820116905080830192505050505050509192919290803590602001909291905050506127e7565b6040518082815260200191505060405180910390f35b610ccf60048036036040811015610c9957600080fd5b8101908080359060200190929190803573ffffffffffffffffffffffffffffffffffffffff16906020019092919050505061286b565b604051808215151515815260200191505060405180910390f35b610dcc60048036036060811015610cff57600080fd5b8101908080359060200190640100000000811115610d1c57600080fd5b820183602082011115610d2e57600080fd5b80359060200191846001830284011164010000000083111715610d5057600080fd5b91908080601f016020809104026020016040519081016040528093929190818152602001838380828437600081840152601f19601f82011690508083019250505050505050919291929080359060200190929190803573ffffffffffffffffffffffffffffffffffffffff1690602001909291905050506128da565b005b610e1060048036036020811015610de457600080fd5b81019080803573ffffffffffffffffffffffffffffffffffffffff169060200190929190505050612ac8565b604051808215151515815260200191505060405180910390f35b610e6c60048036036020811015610e4057600080fd5b81019080803573ffffffffffffffffffffffffffffffffffffffff169060200190929190505050612b39565b604051808215151515815260200191505060405180910390f35b610ebc60048036036040811015610e9c57600080fd5b810190808035906020019092919080359060200190929190505050612b9c565b604051808215151515815260200191505060405180910390f35b610f0260048036036020811015610eec57600080fd5b8101908080359060200190929190505050612c58565b604051808215151515815260200191505060405180910390f35b610f6860048036036040811015610f3257600080fd5b81019080803573ffffffffffffffffffffffffffffffffffffffff16906020019092919080359060200190929190505050612c85565b604051808215151515815260200191505060405180910390f35b610fce60048036036040811015610f9857600080fd5b81019080803573ffffffffffffffffffffffffffffffffffffffff16906020019092919080359060200190929190505050612d71565b005b610ffc60048036036020811015610fe657600080fd5b8101908080359060200190929190505050612f3c565b604051808273ffffffffffffffffffffffffffffffffffffffff1673ffffffffffffffffffffffffffffffffffffffff16815260200191505060405180910390f35b611046612ff7565b604051808273ffffffffffffffffffffffffffffffffffffffff1673ffffffffffffffffffffffffffffffffffffffff16815260200191505060405180910390f35b6110b46004803603602081101561109e57600080fd5b8101908080359060200190929190505050613021565b005b6110f8600480360360208110156110cc57600080fd5b81019080803573ffffffffffffffffffffffffffffffffffffffff1690602001909291905050506130d1565b604051808215151515815260200191505060405180910390f35b61113e6004803603602081101561112857600080fd5b8101908080359060200190929190505050613103565b005b6112196004803603604081101561115657600080fd5b810190808035906020019064010000000081111561117357600080fd5b82018360208201111561118557600080fd5b803590602001918460018302840111640100000000831117156111a757600080fd5b91908080601f016020809104026020016040519081016040528093929190818152602001838380828437600081840152601f19601f820116905080830192505050505050509192919290803573ffffffffffffffffffffffffffffffffffffffff1690602001909291905050506131b3565b005b61125d6004803603602081101561123157600080fd5b81019080803573ffffffffffffffffffffffffffffffffffffffff16906020019092919050505061355c565b604051808215151515815260200191505060405180910390f35b6112a36004803603602081101561128d57600080fd5b81019080803590602001909291905050506135b2565b6040518080602001828103825283818151815260200191508051906020019060200280838360005b838110156112e65780820151818401526020810190506112cb565b505050509050019250505060405180910390f35b6113266004803603602081101561131057600080fd5b810190808035906020019092919050505061369d565b604051808215151515815260200191505060405180910390f35b61136c6004803603602081101561135657600080fd5b81019080803590602001909291905050506136e2565b005b6113b06004803603602081101561138457600080fd5b81019080803573ffffffffffffffffffffffffffffffffffffffff169060200190929190505050613792565b6040518082815260200191505060405180910390f35b6113f2600480360360208110156113dc57600080fd5b810190808035906020019092919050505061385b565b005b6113fc6139b3565b604051808215151515815260200191505060405180910390f35b6114626004803603604081101561142c57600080fd5b81019080803573ffffffffffffffffffffffffffffffffffffffff169060200190929190803590602001909291905050506139ca565b005b6114906004803603602081101561147a57600080fd5b8101908080359060200190929190505050613b12565b005b6114d4600480360360208110156114a857600080fd5b81019080803573ffffffffffffffffffffffffffffffffffffffff169060200190929190505050613bc2565b604051808215151515815260200191505060405180910390f35b61151a6004803603602081101561150457600080fd5b8101908080359060200190929190505050613c1b565b60405180868152602001806020018573ffffffffffffffffffffffffffffffffffffffff1673ffffffffffffffffffffffffffffffffffffffff16815260200184815260200183600381111561156c57fe5b60ff168152602001828103825286818151815260200191508051906020019080838360005b838110156115ac578082015181840152602081019050611591565b50505050905090810190601f1680156115d95780820380516001836020036101000a031916815260200191505b50965050505050505060405180910390f35b61162d6004803603602081101561160157600080fd5b81019080803573ffffffffffffffffffffffffffffffffffffffff169060200190929190505050613d59565b604051808060200185600281111561164157fe5b60ff168152602001848152602001838152602001828103825286818151815260200191508051906020019080838360005b8381101561168d578082015181840152602081019050611672565b50505050905090810190601f1680156116ba5780820380516001836020036101000a031916815260200191505b509550505050505060405180910390f35b6116f7600480360360208110156116e157600080fd5b8101908080359060200190929190505050613f23565b6040518082815260200191505060405180910390f35b6117396004803603602081101561172357600080fd5b8101908080359060200190929190505050613fd5565b005b61177d6004803603602081101561175157600080fd5b81019080803573ffffffffffffffffffffffffffffffffffffffff169060200190929190505050614085565b604051808215151515815260200191505060405180910390f35b6117c3600480360360208110156117ad57600080fd5b81019080803590602001909291905050506140f6565b6040518082815260200191505060405180910390f35b611805600480360360208110156117ef57600080fd5b8101908080359060200190929190505050614191565b604051808215151515815260200191505060405180910390f35b61184b6004803603602081101561183557600080fd5b81019080803590602001909291905050506141d7565b604051808215151515815260200191505060405180910390f35b60006001600281111561187457fe5b600160008473ffffffffffffffffffffffffffffffffffffffff1673ffffffffffffffffffffffffffffffffffffffff16815260200190815260200160002060010160009054906101000a900460ff1660028111156118cf57fe5b149050919050565b6118df6139b3565b611934576040517f08c379a0000000000000000000000000000000000000000000000000000000008152600401808060200182810382526025815260200180615bb16025913960400191505060405180910390fd5b33600760008273ffffffffffffffffffffffffffffffffffffffff1673ffffffffffffffffffffffffffffffffffffffff16815260200190815260200160002060009054906101000a900460ff166119d7576040517f08c379a0000000000000000000000000000000000000000000000000000000008152600401808060200182810382526030815260200180615abb6030913960400191505060405180910390fd5b6119e183836131b3565b505050565b6119ef82611fa5565b611a61576040517f08c379a00000000000000000000000000000000000000000000000000000000081526004018080602001828103825260198152602001807f54686520666c6967687420646f6573206e6f742065786973740000000000000081525060200191505060405180910390fd5b611a6a826122ec565b611abf576040517f08c379a0000000000000000000000000000000000000000000000000000000008152600401808060200182810382526027815260200180615a706027913960400191505060405180910390fd5b611ac98282612b9c565b15611b1f576040517f08c379a0000000000000000000000000000000000000000000000000000000008152600401808060200182810382526028815260200180615b566028913960400191505060405180910390fd5b600160046000848152602001908152602001600020600401600083815260200190815260200160002060006101000a81548160ff021916908315150217905550600460008381526020019081526020016000206003018190806001815401808255809150509060018203906000526020600020016000909192909190915055505050565b600660009054906101000a900473ffffffffffffffffffffffffffffffffffffffff1673ffffffffffffffffffffffffffffffffffffffff163373ffffffffffffffffffffffffffffffffffffffff1614611c66576040517f08c379a000000000000000000000000000000000000000000000000000000000815260040180806020018281038252601c8152602001807f43616c6c6572206973206e6f7420636f6e7472616374206f776e65720000000081525060200191505060405180910390fd5b80600660146101000a81548160ff02191690831515021790555050565b611c8b6139b3565b611ce0576040517f08c379a0000000000000000000000000000000000000000000000000000000008152600401808060200182810382526025815260200180615bb16025913960400191505060405180910390fd5b600660009054906101000a900473ffffffffffffffffffffffffffffffffffffffff1673ffffffffffffffffffffffffffffffffffffffff163373ffffffffffffffffffffffffffffffffffffffff1614611da3576040517f08c379a000000000000000000000000000000000000000000000000000000000815260040180806020018281038252601c8152602001807f43616c6c6572206973206e6f7420636f6e7472616374206f776e65720000000081525060200191505060405180910390fd5b6001600760008373ffffffffffffffffffffffffffffffffffffffff1673ffffffffffffffffffffffffffffffffffffffff16815260200190815260200160002060006101000a81548160ff02191690831515021790555050565b6000600280549050905090565b611e136139b3565b611e68576040517f08c379a0000000000000000000000000000000000000000000000000000000008152600401808060200182810382526025815260200180615bb16025913960400191505060405180910390fd5b82611e72816122ec565b611ec7576040517f08c379a0000000000000000000000000000000000000000000000000000000008152600401808060200182810382526023815260200180615b336023913960400191505060405180910390fd5b611ed385858585612387565b6000611edf8686612274565b9050611eeb85826119e6565b505050505050565b33600760008273ffffffffffffffffffffffffffffffffffffffff1673ffffffffffffffffffffffffffffffffffffffff16815260200190815260200160002060009054906101000a900460ff16611f96576040517f08c379a0000000000000000000000000000000000000000000000000000000008152600401808060200182810382526030815260200180615abb6030913960400191505060405180910390fd5b611fa0838361421d565b505050565b60006004600083815260200190815260200160002060050160019054906101000a900460ff169050919050565b6000611fdd82611865565b80611fed5750611fec82614085565b5b9050919050565b6000806000806000806003600088815260200190815260200160002060000160009054906101000a900473ffffffffffffffffffffffffffffffffffffffff169550600360008881526020019081526020016000206001015494506003600088815260200190815260200160002060020160009054906101000a900473ffffffffffffffffffffffffffffffffffffffff16935060036000888152602001908152602001600020600301549250600360008881526020019081526020016000206004015491506003600088815260200190815260200160002060050160009054906101000a900460ff16905091939550919395565b6000816120f581611fa5565b612167576040517f08c379a00000000000000000000000000000000000000000000000000000000081526004018080602001828103825260158152602001807f466c6967687420646f6573206e6f74206578697374000000000000000000000081525060200191505060405180910390fd5b6004600084815260200190815260200160002060030180549050915050919050565b33600760008273ffffffffffffffffffffffffffffffffffffffff1673ffffffffffffffffffffffffffffffffffffffff16815260200190815260200160002060009054906101000a900460ff1661222c576040517f08c379a0000000000000000000000000000000000000000000000000000000008152600401808060200182810382526030815260200180615abb6030913960400191505060405180910390fd5b612235826144fc565b5050565b600061226161225260028461472e90919063ffffffff16565b836147bd90919063ffffffff16565b9050919050565b678ac7230489e8000081565b60008282604051602001808373ffffffffffffffffffffffffffffffffffffffff1673ffffffffffffffffffffffffffffffffffffffff1660601b81526014018281526020019250505060405160208183030381529060405280519060200120905092915050565b6000600460028054905010905090565b60008060038111156122fa57fe5b6004600084815260200190815260200160002060050160009054906101000a900460ff16600381111561232957fe5b149050919050565b6000600760008373ffffffffffffffffffffffffffffffffffffffff1673ffffffffffffffffffffffffffffffffffffffff16815260200190815260200160002060009054906101000a900460ff169050919050565b8061239181612702565b6123e6576040517f08c379a0000000000000000000000000000000000000000000000000000000008152600401808060200182810382526027815260200180615bfb6027913960400191505060405180910390fd5b60006123f28686612274565b90506123fc615731565b86816000019073ffffffffffffffffffffffffffffffffffffffff16908173ffffffffffffffffffffffffffffffffffffffff16815250508581602001818152505084816040019073ffffffffffffffffffffffffffffffffffffffff16908173ffffffffffffffffffffffffffffffffffffffff168152505083816060018181525050600081608001818152505060008160a00190600381111561249d57fe5b908160038111156124aa57fe5b8152505060018160c0019015159081151581525050806003600084815260200190815260200160002060008201518160000160006101000a81548173ffffffffffffffffffffffffffffffffffffffff021916908373ffffffffffffffffffffffffffffffffffffffff1602179055506020820151816001015560408201518160020160006101000a81548173ffffffffffffffffffffffffffffffffffffffff021916908373ffffffffffffffffffffffffffffffffffffffff160217905550606082015181600301556080820151816004015560a08201518160050160006101000a81548160ff021916908360038111156125a357fe5b021790555060c08201518160050160016101000a81548160ff0219169083151502179055509050507f9ab1ae65e296b9d32fa2d25d59c5ae030359d318f228e0513a4089f70fcdc61386838987604051808581526020018481526020018373ffffffffffffffffffffffffffffffffffffffff1673ffffffffffffffffffffffffffffffffffffffff16815260200182815260200194505050505060405180910390a150505050505050565b6060600580548060200260200160405190810160405280929190818152602001828054801561269d57602002820191906000526020600020905b815481526020019060010190808311612689575b5050505050905090565b60008080549050905090565b6000600160008373ffffffffffffffffffffffffffffffffffffffff1673ffffffffffffffffffffffffffffffffffffffff168152602001908152602001600020600201805490509050919050565b6000670de0b6b3a76400008211159050919050565b61272081612ac8565b612775576040517f08c379a0000000000000000000000000000000000000000000000000000000008152600401808060200182810382526023815260200180615c5f6023913960400191505060405180910390fd5b60028190806001815401808255809150509060018203906000526020600020016000909192909190916101000a81548173ffffffffffffffffffffffffffffffffffffffff021916908373ffffffffffffffffffffffffffffffffffffffff160217905550506127e481614845565b50565b600082826040516020018083805190602001908083835b6020831061282157805182526020820191506020810190506020830392506127fe565b6001836020036101000a0380198251168184511680821785525050505050509050018281526020019250505060405160208183030381529060405280519060200120905092915050565b60008173ffffffffffffffffffffffffffffffffffffffff166003600085815260200190815260200160002060000160009054906101000a900473ffffffffffffffffffffffffffffffffffffffff1673ffffffffffffffffffffffffffffffffffffffff1614905092915050565b6128e26139b3565b612937576040517f08c379a0000000000000000000000000000000000000000000000000000000008152600401808060200182810382526025815260200180615bb16025913960400191505060405180910390fd5b8061294181614085565b6129b3576040517f08c379a00000000000000000000000000000000000000000000000000000000081526004018080602001828103825260208152602001807f4169726c696e65206d75737420626520696e2066756e6465642073746174757381525060200191505060405180910390fd5b816129bd8161355c565b612a12576040517f08c379a0000000000000000000000000000000000000000000000000000000008152600401808060200182810382526033815260200180615b7e6033913960400191505060405180910390fd5b33600760008273ffffffffffffffffffffffffffffffffffffffff1673ffffffffffffffffffffffffffffffffffffffff16815260200190815260200160002060009054906101000a900460ff16612ab5576040517f08c379a0000000000000000000000000000000000000000000000000000000008152600401808060200182810382526030815260200180615abb6030913960400191505060405180910390fd5b612ac0868686614abb565b505050505050565b6000806002811115612ad657fe5b600160008473ffffffffffffffffffffffffffffffffffffffff1673ffffffffffffffffffffffffffffffffffffffff16815260200190815260200160002060010160009054906101000a900460ff166002811115612b3157fe5b149050919050565b600060016002808054905081612b4b57fe5b0401600160008473ffffffffffffffffffffffffffffffffffffffff1673ffffffffffffffffffffffffffffffffffffffff1681526020019081526020016000206002018054905010159050919050565b600082612ba881611fa5565b612c1a576040517f08c379a00000000000000000000000000000000000000000000000000000000081526004018080602001828103825260158152602001807f466c6967687420646f6573206e6f74206578697374000000000000000000000081525060200191505060405180910390fd5b60046000858152602001908152602001600020600401600084815260200190815260200160002060009054906101000a900460ff1691505092915050565b60006003600083815260200190815260200160002060050160019054906101000a900460ff169050919050565b600081612c9181611fa5565b612d03576040517f08c379a00000000000000000000000000000000000000000000000000000000081526004018080602001828103825260158152602001807f466c6967687420646f6573206e6f74206578697374000000000000000000000081525060200191505060405180910390fd5b8373ffffffffffffffffffffffffffffffffffffffff166004600085815260200190815260200160002060020160009054906101000a900473ffffffffffffffffffffffffffffffffffffffff1673ffffffffffffffffffffffffffffffffffffffff161491505092915050565b81612d7b81611fd2565b612dd0576040517f08c379a000000000000000000000000000000000000000000000000000000000815260040180806020018281038252603d815260200180615c22603d913960400191505060405180910390fd5b82612dda81613bc2565b612e4c576040517f08c379a00000000000000000000000000000000000000000000000000000000081526004018080602001828103825260168152602001807f4164647265737320646f6573206e6f742065786973740000000000000000000081525060200191505060405180910390fd5b600160008573ffffffffffffffffffffffffffffffffffffffff1673ffffffffffffffffffffffffffffffffffffffff168152602001908152602001600020600301548310612ee6576040517f08c379a0000000000000000000000000000000000000000000000000000000008152600401808060200182810382526027815260200180615aeb6027913960400191505060405180910390fd5b82600160008673ffffffffffffffffffffffffffffffffffffffff1673ffffffffffffffffffffffffffffffffffffffff1681526020019081526020016000206003016000828254039250508190555050505050565b6000612f4782612c58565b612fb9576040517f08c379a00000000000000000000000000000000000000000000000000000000081526004018080602001828103825260178152602001807f496e737572616e636520646f65736e277420657869737400000000000000000081525060200191505060405180910390fd5b6003600083815260200190815260200160002060000160009054906101000a900473ffffffffffffffffffffffffffffffffffffffff169050919050565b6000600660009054906101000a900473ffffffffffffffffffffffffffffffffffffffff16905090565b33600760008273ffffffffffffffffffffffffffffffffffffffff1673ffffffffffffffffffffffffffffffffffffffff16815260200190815260200160002060009054906101000a900460ff166130c4576040517f08c379a0000000000000000000000000000000000000000000000000000000008152600401808060200182810382526030815260200180615abb6030913960400191505060405180910390fd5b6130cd82614db9565b5050565b60006130db6122dc565b806130eb57506130ea82612b39565b5b156130f957600190506130fe565b600090505b919050565b33600760008273ffffffffffffffffffffffffffffffffffffffff1673ffffffffffffffffffffffffffffffffffffffff16815260200190815260200160002060009054906101000a900460ff166131a6576040517f08c379a0000000000000000000000000000000000000000000000000000000008152600401808060200182810382526030815260200180615abb6030913960400191505060405180910390fd5b6131af82614e53565b5050565b806131bd81613bc2565b15613213576040517f08c379a0000000000000000000000000000000000000000000000000000000008152600401808060200182810382526028815260200180615a246028913960400191505060405180910390fd5b61321b6157aa565b83816000018190525060008160200190600281111561323657fe5b9081600281111561324357fe5b815250506000816060018181525050600181608001901515908115158152505080600160008573ffffffffffffffffffffffffffffffffffffffff1673ffffffffffffffffffffffffffffffffffffffff16815260200190815260200160002060008201518160000190805190602001906132bf9291906157e6565b5060208201518160010160006101000a81548160ff021916908360028111156132e457fe5b02179055506040820151816002019080519060200190613305929190615866565b506060820151816003015560808201518160040160006101000a81548160ff02191690831515021790555090505060008390806001815401808255809150509060018203906000526020600020016000909192909190916101000a81548173ffffffffffffffffffffffffffffffffffffffff021916908373ffffffffffffffffffffffffffffffffffffffff160217905550507ff3100ff45bd551846ae092da6f82697190f72f24573165d1b06858cda4194d47848460405180806020018373ffffffffffffffffffffffffffffffffffffffff1673ffffffffffffffffffffffffffffffffffffffff168152602001828103825284818151815260200191508051906020019080838360005b8381101561342e578082015181840152602081019050613413565b50505050905090810190601f16801561345b5780820380516001836020036101000a031916815260200191505b50935050505060405180910390a1613472836130d1565b156134855761348083612717565b613556565b7f0dd0455f85bdf4c39bcd8911401aa00834ab66fbbee80ff3189bca70fa94c60d848460405180806020018373ffffffffffffffffffffffffffffffffffffffff1673ffffffffffffffffffffffffffffffffffffffff168152602001828103825284818151815260200191508051906020019080838360005b8381101561351a5780820151818401526020810190506134ff565b50505050905090810190601f1680156135475780820380516001836020036101000a031916815260200191505b50935050505060405180910390a15b50505050565b6000678ac7230489e80000600160008473ffffffffffffffffffffffffffffffffffffffff1673ffffffffffffffffffffffffffffffffffffffff16815260200190815260200160002060030154119050919050565b6060816135be81611fa5565b613630576040517f08c379a00000000000000000000000000000000000000000000000000000000081526004018080602001828103825260158152602001807f466c6967687420646f6573206e6f74206578697374000000000000000000000081525060200191505060405180910390fd5b6004600084815260200190815260200160002060030180548060200260200160405190810160405280929190818152602001828054801561369057602002820191906000526020600020905b81548152602001906001019080831161367c575b5050505050915050919050565b60008060038111156136ab57fe5b6003600084815260200190815260200160002060050160009054906101000a900460ff1660038111156136da57fe5b149050919050565b33600760008273ffffffffffffffffffffffffffffffffffffffff1673ffffffffffffffffffffffffffffffffffffffff16815260200190815260200160002060009054906101000a900460ff16613785576040517f08c379a0000000000000000000000000000000000000000000000000000000008152600401808060200182810382526030815260200180615abb6030913960400191505060405180910390fd5b61378e82614eee565b5050565b60008161379e81614085565b613810576040517f08c379a00000000000000000000000000000000000000000000000000000000081526004018080602001828103825260208152602001807f4169726c696e65206d75737420626520696e2066756e6465642073746174757381525060200191505060405180910390fd5b600160008473ffffffffffffffffffffffffffffffffffffffff1673ffffffffffffffffffffffffffffffffffffffff16815260200190815260200160002060030154915050919050565b6138636139b3565b6138b8576040517f08c379a0000000000000000000000000000000000000000000000000000000008152600401808060200182810382526025815260200180615bb16025913960400191505060405180910390fd5b806138c2816141d7565b5033600760008273ffffffffffffffffffffffffffffffffffffffff1673ffffffffffffffffffffffffffffffffffffffff16815260200190815260200160002060009054906101000a900460ff16613966576040517f08c379a0000000000000000000000000000000000000000000000000000000008152600401808060200182810382526030815260200180615abb6030913960400191505060405180910390fd5b6060613971846135b2565b905060008090505b81518110156139ac5761399e82828151811061399157fe5b6020026020010151613f23565b508080600101915050613979565b5050505050565b6000600660149054906101000a900460ff16905090565b816139d481611fd2565b613a29576040517f08c379a000000000000000000000000000000000000000000000000000000000815260040180806020018281038252603d815260200180615c22603d913960400191505060405180910390fd5b82613a3381613bc2565b613aa5576040517f08c379a00000000000000000000000000000000000000000000000000000000081526004018080602001828103825260168152602001807f4164647265737320646f6573206e6f742065786973740000000000000000000081525060200191505060405180910390fd5b613aae84614085565b613abc57613abb84615120565b5b82600160008673ffffffffffffffffffffffffffffffffffffffff1673ffffffffffffffffffffffffffffffffffffffff1681526020019081526020016000206003016000828254019250508190555050505050565b33600760008273ffffffffffffffffffffffffffffffffffffffff1673ffffffffffffffffffffffffffffffffffffffff16815260200190815260200160002060009054906101000a900460ff16613bb5576040517f08c379a0000000000000000000000000000000000000000000000000000000008152600401808060200182810382526030815260200180615abb6030913960400191505060405180910390fd5b613bbe826153e7565b5050565b6000600160008373ffffffffffffffffffffffffffffffffffffffff1673ffffffffffffffffffffffffffffffffffffffff16815260200190815260200160002060040160009054906101000a900460ff169050919050565b600060606000806000600460008781526020019081526020016000206000018054600181600116156101000203166002900480601f016020809104026020016040519081016040528092919081815260200182805460018160011615610100020316600290048015613cce5780601f10613ca357610100808354040283529160200191613cce565b820191906000526020600020905b815481529060010190602001808311613cb157829003601f168201915b505050505093506004600087815260200190815260200160002060020160009054906101000a900473ffffffffffffffffffffffffffffffffffffffff169250600460008781526020019081526020016000206001015491506004600087815260200190815260200160002060050160009054906101000a900460ff16905085945091939590929450565b60606000806000600160008673ffffffffffffffffffffffffffffffffffffffff1673ffffffffffffffffffffffffffffffffffffffff1681526020019081526020016000206000018054600181600116156101000203166002900480601f016020809104026020016040519081016040528092919081815260200182805460018160011615610100020316600290048015613e365780601f10613e0b57610100808354040283529160200191613e36565b820191906000526020600020905b815481529060010190602001808311613e1957829003601f168201915b50505050509350600160008673ffffffffffffffffffffffffffffffffffffffff1673ffffffffffffffffffffffffffffffffffffffff16815260200190815260200160002060010160009054906101000a900460ff169250600160008673ffffffffffffffffffffffffffffffffffffffff1673ffffffffffffffffffffffffffffffffffffffff168152602001908152602001600020600201805490509150600160008673ffffffffffffffffffffffffffffffffffffffff1673ffffffffffffffffffffffffffffffffffffffff1681526020019081526020016000206003015490509193509193565b600081613f2f8161369d565b613f84576040517f08c379a0000000000000000000000000000000000000000000000000000000008152600401808060200182810382526025815260200180615bd66025913960400191505060405180910390fd5b600060036000858152602001908152602001600020600301549050613fa881612239565b9250826003600086815260200190815260200160002060040181905550613fce84613b12565b5050919050565b33600760008273ffffffffffffffffffffffffffffffffffffffff1673ffffffffffffffffffffffffffffffffffffffff16815260200190815260200160002060009054906101000a900460ff16614078576040517f08c379a0000000000000000000000000000000000000000000000000000000008152600401808060200182810382526030815260200180615abb6030913960400191505060405180910390fd5b61408182615482565b5050565b600060028081111561409357fe5b600160008473ffffffffffffffffffffffffffffffffffffffff1673ffffffffffffffffffffffffffffffffffffffff16815260200190815260200160002060010160009054906101000a900460ff1660028111156140ee57fe5b149050919050565b600061410182612c58565b614173576040517f08c379a00000000000000000000000000000000000000000000000000000000081526004018080602001828103825260178152602001807f496e737572616e636520646f65736e277420657869737400000000000000000081525060200191505060405180910390fd5b60036000838152602001908152602001600020600301549050919050565b6000600260038111156141a057fe5b6003600084815260200190815260200160002060050160009054906101000a900460ff1660038111156141cf57fe5b149050919050565b6000600260038111156141e657fe5b6004600084815260200190815260200160002060050160009054906101000a900460ff16600381111561421557fe5b149050919050565b8061422781611865565b61427c576040517f08c379a0000000000000000000000000000000000000000000000000000000008152600401808060200182810382526024815260200180615a976024913960400191505060405180910390fd5b61428583613bc2565b6142f7576040517f08c379a00000000000000000000000000000000000000000000000000000000081526004018080602001828103825260168152602001807f4169726c696e6520646f6573206e6f742065786973740000000000000000000081525060200191505060405180910390fd5b61430083612ac8565b614355576040517f08c379a0000000000000000000000000000000000000000000000000000000008152600401808060200182810382526021815260200180615c826021913960400191505060405180910390fd5b600160008473ffffffffffffffffffffffffffffffffffffffff1673ffffffffffffffffffffffffffffffffffffffff1681526020019081526020016000206002018290806001815401808255809150509060018203906000526020600020016000909192909190916101000a81548173ffffffffffffffffffffffffffffffffffffffff021916908373ffffffffffffffffffffffffffffffffffffffff16021790555050614404836130d1565b156144135761441283612717565b5b7ff7c50f9eb2df776ff843af719b51fe3587613ead8477a913a6418c893f85ebd98383600160008773ffffffffffffffffffffffffffffffffffffffff1673ffffffffffffffffffffffffffffffffffffffff16815260200190815260200160002060020180549050604051808473ffffffffffffffffffffffffffffffffffffffff1673ffffffffffffffffffffffffffffffffffffffff1681526020018373ffffffffffffffffffffffffffffffffffffffff1673ffffffffffffffffffffffffffffffffffffffff168152602001828152602001935050505060405180910390a1505050565b80614506816122ec565b61455b576040517f08c379a0000000000000000000000000000000000000000000000000000000008152600401808060200182810382526023815260200180615b336023913960400191505060405180910390fd5b60026004600084815260200190815260200160002060050160006101000a81548160ff0219169083600381111561458e57fe5b02179055507f46692d6d97cca5f30535d5452b425e85c40c7f0ef908efef4ab92b4d44e4f4776004600084815260200190815260200160002060000160046000858152602001908152602001600020600101546004600086815260200190815260200160002060020160009054906101000a900473ffffffffffffffffffffffffffffffffffffffff16856004600088815260200190815260200160002060050160009054906101000a900460ff1660405180806020018681526020018573ffffffffffffffffffffffffffffffffffffffff1673ffffffffffffffffffffffffffffffffffffffff16815260200184815260200183600381111561468f57fe5b60ff1681526020018281038252878181546001816001161561010002031660029004815260200191508054600181600116156101000203166002900480156147185780601f106146ed57610100808354040283529160200191614718565b820191906000526020600020905b8154815290600101906020018083116146fb57829003601f168201915b5050965050505050505060405180910390a15050565b60008082116147a5576040517f08c379a000000000000000000000000000000000000000000000000000000000815260040180806020018281038252601a8152602001807f536166654d6174683a206469766973696f6e206279207a65726f00000000000081525060200191505060405180910390fd5b60008284816147b057fe5b0490508091505092915050565b60008082840190508381101561483b576040517f08c379a000000000000000000000000000000000000000000000000000000000815260040180806020018281038252601b8152602001807f536166654d6174683a206164646974696f6e206f766572666c6f77000000000081525060200191505060405180910390fd5b8091505092915050565b8061484f81612ac8565b6148a4576040517f08c379a0000000000000000000000000000000000000000000000000000000008152600401808060200182810382526021815260200180615c826021913960400191505060405180910390fd5b60018060008473ffffffffffffffffffffffffffffffffffffffff1673ffffffffffffffffffffffffffffffffffffffff16815260200190815260200160002060010160006101000a81548160ff0219169083600281111561490257fe5b02179055506060600160008473ffffffffffffffffffffffffffffffffffffffff1673ffffffffffffffffffffffffffffffffffffffff1681526020019081526020016000206000018054600181600116156101000203166002900480601f0160208091040260200160405190810160405280929190818152602001828054600181600116156101000203166002900480156149df5780601f106149b4576101008083540402835291602001916149df565b820191906000526020600020905b8154815290600101906020018083116149c257829003601f168201915b505050505090507f4389233d1d7e817e3a41447176300b89c596c24ed4d58896d501ddb378abe2c4818460405180806020018373ffffffffffffffffffffffffffffffffffffffff1673ffffffffffffffffffffffffffffffffffffffff168152602001828103825284818151815260200191508051906020019080838360005b83811015614a7b578082015181840152602081019050614a60565b50505050905090810190601f168015614aa85780820380516001836020036101000a031916815260200191505b50935050505060405180910390a1505050565b6000614ac784846127e7565b9050614ad281611fa5565b15614b28576040517f08c379a0000000000000000000000000000000000000000000000000000000008152600401808060200182810382526021815260200180615b126021913960400191505060405180910390fd5b6060614b326158f0565b85816000018190525083816040019073ffffffffffffffffffffffffffffffffffffffff16908173ffffffffffffffffffffffffffffffffffffffff168152505084816020018181525050600081608001906003811115614b8f57fe5b90816003811115614b9c57fe5b8152505060018160a001901515908115158152505081816060018190525080600460008581526020019081526020016000206000820151816000019080519060200190614bea9291906157e6565b506020820151816001015560408201518160020160006101000a81548173ffffffffffffffffffffffffffffffffffffffff021916908373ffffffffffffffffffffffffffffffffffffffff1602179055506060820151816003019080519060200190614c58929190615949565b5060808201518160050160006101000a81548160ff02191690836003811115614c7d57fe5b021790555060a08201518160050160016101000a81548160ff02191690831515021790555090505060058390806001815401808255809150509060018203906000526020600020016000909192909190915055507f59261113d397865c7b2b317452691277210d64b6f75272d723f504a8c13250fe8686868660405180806020018581526020018473ffffffffffffffffffffffffffffffffffffffff1673ffffffffffffffffffffffffffffffffffffffff168152602001838152602001828103825286818151815260200191508051906020019080838360005b83811015614d74578082015181840152602081019050614d59565b50505050905090810190601f168015614da15780820380516001836020036101000a031916815260200191505b509550505050505060405180910390a1505050505050565b80614dc381614191565b614e18576040517f08c379a0000000000000000000000000000000000000000000000000000000008152600401808060200182810382526024815260200180615a4c6024913960400191505060405180910390fd5b600380600084815260200190815260200160002060050160006101000a81548160ff02191690836003811115614e4a57fe5b02179055505050565b80614e5d8161369d565b614eb2576040517f08c379a0000000000000000000000000000000000000000000000000000000008152600401808060200182810382526025815260200180615bd66025913960400191505060405180910390fd5b60016003600084815260200190815260200160002060050160006101000a81548160ff02191690836003811115614ee557fe5b02179055505050565b80614ef8816122ec565b614f4d576040517f08c379a0000000000000000000000000000000000000000000000000000000008152600401808060200182810382526023815260200180615b336023913960400191505060405180910390fd5b60036004600084815260200190815260200160002060050160006101000a81548160ff02191690836003811115614f8057fe5b02179055507f46692d6d97cca5f30535d5452b425e85c40c7f0ef908efef4ab92b4d44e4f4776004600084815260200190815260200160002060000160046000858152602001908152602001600020600101546004600086815260200190815260200160002060020160009054906101000a900473ffffffffffffffffffffffffffffffffffffffff16856004600088815260200190815260200160002060050160009054906101000a900460ff1660405180806020018681526020018573ffffffffffffffffffffffffffffffffffffffff1673ffffffffffffffffffffffffffffffffffffffff16815260200184815260200183600381111561508157fe5b60ff16815260200182810382528781815460018160011615610100020316600290048152602001915080546001816001161561010002031660029004801561510a5780601f106150df5761010080835404028352916020019161510a565b820191906000526020600020905b8154815290600101906020018083116150ed57829003601f168201915b5050965050505050505060405180910390a15050565b8061512a81611865565b61517f576040517f08c379a0000000000000000000000000000000000000000000000000000000008152600401808060200182810382526024815260200180615a976024913960400191505060405180910390fd5b6002600160008473ffffffffffffffffffffffffffffffffffffffff1673ffffffffffffffffffffffffffffffffffffffff16815260200190815260200160002060010160006101000a81548160ff021916908360028111156151de57fe5b02179055506060600160008473ffffffffffffffffffffffffffffffffffffffff1673ffffffffffffffffffffffffffffffffffffffff1681526020019081526020016000206000018054600181600116156101000203166002900480601f0160208091040260200160405190810160405280929190818152602001828054600181600116156101000203166002900480156152bb5780601f10615290576101008083540402835291602001916152bb565b820191906000526020600020905b81548152906001019060200180831161529e57829003601f168201915b505050505090506000600160008573ffffffffffffffffffffffffffffffffffffffff1673ffffffffffffffffffffffffffffffffffffffff1681526020019081526020016000206003015490507f53b7c1b088635937d93a99c488cc77c6d286057c245c779959f41c8b64fc74a282858360405180806020018473ffffffffffffffffffffffffffffffffffffffff1673ffffffffffffffffffffffffffffffffffffffff168152602001838152602001828103825285818151815260200191508051906020019080838360005b838110156153a557808201518184015260208101905061538a565b50505050905090810190601f1680156153d25780820380516001836020036101000a031916815260200191505b5094505050505060405180910390a150505050565b806153f18161369d565b615446576040517f08c379a0000000000000000000000000000000000000000000000000000000008152600401808060200182810382526025815260200180615bd66025913960400191505060405180910390fd5b60026003600084815260200190815260200160002060050160006101000a81548160ff0219169083600381111561547957fe5b02179055505050565b8061548c816122ec565b6154e1576040517f08c379a0000000000000000000000000000000000000000000000000000000008152600401808060200182810382526023815260200180615b336023913960400191505060405180910390fd5b816154eb81611fa5565b61555d576040517f08c379a00000000000000000000000000000000000000000000000000000000081526004018080602001828103825260158152602001807f466c6967687420646f6573206e6f74206578697374000000000000000000000081525060200191505060405180910390fd5b60016004600085815260200190815260200160002060050160006101000a81548160ff0219169083600381111561559057fe5b02179055507f46692d6d97cca5f30535d5452b425e85c40c7f0ef908efef4ab92b4d44e4f4776004600085815260200190815260200160002060000160046000868152602001908152602001600020600101546004600087815260200190815260200160002060020160009054906101000a900473ffffffffffffffffffffffffffffffffffffffff16866004600089815260200190815260200160002060050160009054906101000a900460ff1660405180806020018681526020018573ffffffffffffffffffffffffffffffffffffffff1673ffffffffffffffffffffffffffffffffffffffff16815260200184815260200183600381111561569157fe5b60ff16815260200182810382528781815460018160011615610100020316600290048152602001915080546001816001161561010002031660029004801561571a5780601f106156ef5761010080835404028352916020019161571a565b820191906000526020600020905b8154815290600101906020018083116156fd57829003601f168201915b5050965050505050505060405180910390a1505050565b6040518060e00160405280600073ffffffffffffffffffffffffffffffffffffffff16815260200160008019168152602001600073ffffffffffffffffffffffffffffffffffffffff16815260200160008152602001600081526020016000600381111561579b57fe5b81526020016000151581525090565b6040518060a0016040528060608152602001600060028111156157c957fe5b815260200160608152602001600081526020016000151581525090565b828054600181600116156101000203166002900490600052602060002090601f016020900481019282601f1061582757805160ff1916838001178555615855565b82800160010185558215615855579182015b82811115615854578251825591602001919060010190615839565b5b5090506158629190615996565b5090565b8280548282559060005260206000209081019282156158df579160200282015b828111156158de5782518260006101000a81548173ffffffffffffffffffffffffffffffffffffffff021916908373ffffffffffffffffffffffffffffffffffffffff16021790555091602001919060010190615886565b5b5090506158ec91906159bb565b5090565b6040518060c001604052806060815260200160008152602001600073ffffffffffffffffffffffffffffffffffffffff168152602001606081526020016000600381111561593a57fe5b81526020016000151581525090565b828054828255906000526020600020908101928215615985579160200282015b82811115615984578251825591602001919060010190615969565b5b50905061599291906159fe565b5090565b6159b891905b808211156159b457600081600090555060010161599c565b5090565b90565b6159fb91905b808211156159f757600081816101000a81549073ffffffffffffffffffffffffffffffffffffffff0219169055506001016159c1565b5090565b90565b615a2091905b80821115615a1c576000816000905550600101615a04565b5090565b9056fe41646472657373206861732072656769737465726564206173204169726c696e65206265666f7265496e737572616e6365206d75737420626520696e2043726564697465642073746174757354686520666c69676874206d75737420626520696e2072656769737465726564207374617475734169726c696e65206d75737420626520696e2072656769737465726564207374617475734f6e6c7920617574686f72697a65642063616c6c65727320636f756c642063616c6c20746869732066756e6374696f6e4169726c696e6527732066756e64206973206e6f7420656e6f75676820746f20706179206e6f77466c6967687420686173206265656e2072656769737465726564206265666f7265466c69676874206d75737420626520696e20526567697374657265642073746174757354686520666c696768742068617320616c726561647920676f742074686520696e737572616e63654169726c696e6527732066756e64206973206c657373207468616e204d494e49554d2066756e6420726571756972656d656e74436f6e74726163742069732063757272656e746c79206e6f74206f7065726174696f6e616c496e737572616e6365206d75737420626520696e2041637469766174656420737461747573496e737572616e636520466565206d757374206265206c657373207468616e20312065746865724169726c696e65206d7573742065697468657220626520696e2072656769737465726564206f722066756e6465642073746174757320746f2066756e6443616e646964617465206d75737420626520696e20656e7465726564207374617475734169726c696e65206d75737420626520696e20656e746572656420737461747573a165627a7a72305820452becf0e5421325eb3fa04c8b5056798a5b8bf425b91fcf83d32e07ea34ba5a0029",
  "source": "pragma solidity ^0.5.8;\r\n\r\nimport \"../node_modules/openzeppelin-solidity/contracts/math/SafeMath.sol\";\r\n\r\nimport \"./AirlineData.sol\";\r\nimport \"./InsuranceData.sol\";\r\nimport \"./FlightData.sol\";\r\nimport \"./Authorizable.sol\";\r\n\r\ncontract FlightSuretyData is AirlineData, InsuranceData, FlightData, Authorizable{\r\n    using SafeMath for uint256;\r\n\r\n    function registerAirline(string memory _name, address _airline) public requireIsOperational requireAuthorizedCaller(msg.sender){\r\n        addAirline(_name, _airline);\r\n    }\r\n\r\n    function vote(address _candidate, address _voter) public requireAuthorizedCaller(msg.sender){\r\n        super.vote(_candidate, _voter);\r\n    }\r\n\r\n    function registerFlight(string memory _code, uint256 _timestamp, address _airline) public \r\n    requireIsOperational requireAirlineFunded(_airline) requireAirlinesHasEnoughFund(_airline) requireAuthorizedCaller(msg.sender){\r\n        addFlight(_code, _timestamp, _airline);\r\n    }\r\n\r\n    function registerInsurance(address _buyer, bytes32 _flightKey, address _airline, uint256 _fee) public\r\n    requireIsOperational requireFlightRegistered(_flightKey){\r\n        addInsurance(_buyer, _flightKey, _airline, _fee);\r\n        bytes32 _insuranceKey = generateInsuranceKey(_buyer, _flightKey);\r\n        addInsuranceKey(_flightKey, _insuranceKey);\r\n    }\r\n\r\n    function setFlightOnTime(bytes32 flightKey) public requireAuthorizedCaller(msg.sender){\r\n        super.setFlightOnTime(flightKey);\r\n    }\r\n\r\n    function setFlightLateAirline(bytes32 flightKey) public requireAuthorizedCaller(msg.sender){\r\n        super.setFlightLateAirline(flightKey);\r\n    }\r\n\r\n     function setFlightLateNotAirline(bytes32 flightKey) public requireAuthorizedCaller(msg.sender){\r\n        super.setFlightLateNotAirline(flightKey);\r\n    }\r\n\r\n    function setInsuranceExpired(bytes32 insuranceKey) public requireAuthorizedCaller(msg.sender){\r\n        super.setInsuranceExpired(insuranceKey);\r\n    }\r\n\r\n    function setInsuranceCredited(bytes32 insuranceKey) public requireAuthorizedCaller(msg.sender){\r\n        super.setInsuranceCredited(insuranceKey);\r\n    }\r\n\r\n    function setInsuranceWithdrawn(bytes32 insuranceKey) public requireAuthorizedCaller(msg.sender){\r\n        super.setInsuranceWithdrawn(insuranceKey);\r\n    }\r\n\r\n    function creditInsurees(bytes32 flightKey) public requireIsOperational requireFlightLateAirline(flightKey) requireAuthorizedCaller(msg.sender){\r\n        bytes32[] memory insuranceKeysList = getInsuranceKeysList(flightKey);\r\n        for(uint256 i=0; i<insuranceKeysList.length; i++){\r\n            creditInsurance(insuranceKeysList[i]);\r\n        }\r\n    }\r\n}",
  "sourcePath": "C:/Users/andrewchan88/Documents/Coding/udacity/Blockchain/PartB/homework/project7_es_rm/contracts/FlightSuretyData.sol",
  "compiler": {
    "name": "solc",
    "version": "0.5.8+commit.23d335f2.Emscripten.clang"
  },
  "schemaVersion": "3.0.13",
  "updatedAt": "2019-10-12T07:44:58.384Z",
  "devdoc": {
    "methods": {
      "isOperational()": {
        "details": "Modifier that requires the \"operational\" boolean variable to be \"true\"\r     This is used on all state changing functions to pause the contract in \r     the event there is an issue that needs to be fixed\r"
      }
    }
  },
  "userdoc": {
    "methods": {
      "addAirline(string,address)": {
        "notice": "functions for handling airline register and vote\r"
      },
      "addInsurance(address,bytes32,address,uint256)": {
        "notice": "function for adding and crediting insurance\r"
      },
      "isAirlineExist(address)": {
        "notice": "Functions for checking condition of Airline & modifiers\r"
      },
      "isExist(bytes32)": {
        "notice": "Functions for conditions checking and modifiers\r"
      },
      "isFlightExist(bytes32)": {
        "notice": "functions for checking flight condition and modifiers\r"
      },
      "queryFlightInfo(bytes32)": {
        "notice": "functions for querying flights status\r"
      },
      "queryFund(address)": {
        "notice": "functions for query airline data\r"
      },
      "queryInsuranceInfo(bytes32)": {
        "notice": "functions for querying insurance info\r"
      }
    }
  }
}