{
  "contractName": "FlightData",
  "abi": [
    {
      "anonymous": false,
      "inputs": [
        {
          "indexed": false,
          "name": "flightCode",
          "type": "string"
        },
        {
          "indexed": false,
          "name": "deparTimestamp",
          "type": "uint256"
        },
        {
          "indexed": false,
          "name": "airline",
          "type": "address"
        }
      ],
      "name": "FlightAdded",
      "type": "event"
    },
    {
      "anonymous": false,
      "inputs": [
        {
          "indexed": false,
          "name": "flightCode",
          "type": "string"
        },
        {
          "indexed": false,
          "name": "deparTimestamp",
          "type": "uint256"
        },
        {
          "indexed": false,
          "name": "airline",
          "type": "address"
        },
        {
          "indexed": false,
          "name": "state",
          "type": "uint8"
        }
      ],
      "name": "FlightArrival",
      "type": "event"
    },
    {
      "constant": true,
      "inputs": [
        {
          "name": "_code",
          "type": "string"
        },
        {
          "name": "_timestamp",
          "type": "uint256"
        }
      ],
      "name": "generateFlightKey",
      "outputs": [
        {
          "name": "",
          "type": "bytes32"
        }
      ],
      "payable": false,
      "stateMutability": "pure",
      "type": "function"
    },
    {
      "constant": true,
      "inputs": [
        {
          "name": "_id",
          "type": "bytes32"
        }
      ],
      "name": "isFlightExist",
      "outputs": [
        {
          "name": "",
          "type": "bool"
        }
      ],
      "payable": false,
      "stateMutability": "view",
      "type": "function"
    },
    {
      "constant": true,
      "inputs": [
        {
          "name": "_id",
          "type": "bytes32"
        }
      ],
      "name": "isFlightRegistered",
      "outputs": [
        {
          "name": "",
          "type": "bool"
        }
      ],
      "payable": false,
      "stateMutability": "view",
      "type": "function"
    },
    {
      "constant": true,
      "inputs": [
        {
          "name": "_flightKey",
          "type": "bytes32"
        },
        {
          "name": "_insuranceKey",
          "type": "bytes32"
        }
      ],
      "name": "isFlightHasThisInsuranceKey",
      "outputs": [
        {
          "name": "",
          "type": "bool"
        }
      ],
      "payable": false,
      "stateMutability": "view",
      "type": "function"
    },
    {
      "constant": true,
      "inputs": [
        {
          "name": "_airline",
          "type": "address"
        },
        {
          "name": "_flightKey",
          "type": "bytes32"
        }
      ],
      "name": "isFlightOwner",
      "outputs": [
        {
          "name": "",
          "type": "bool"
        }
      ],
      "payable": false,
      "stateMutability": "view",
      "type": "function"
    },
    {
      "constant": true,
      "inputs": [
        {
          "name": "_flightID",
          "type": "bytes32"
        }
      ],
      "name": "isFlightLateAirline",
      "outputs": [
        {
          "name": "",
          "type": "bool"
        }
      ],
      "payable": false,
      "stateMutability": "view",
      "type": "function"
    },
    {
      "constant": false,
      "inputs": [
        {
          "name": "_flightKey",
          "type": "bytes32"
        },
        {
          "name": "_insuranceKey",
          "type": "bytes32"
        }
      ],
      "name": "addInsuranceKey",
      "outputs": [],
      "payable": false,
      "stateMutability": "nonpayable",
      "type": "function"
    },
    {
      "constant": false,
      "inputs": [
        {
          "name": "_flightID",
          "type": "bytes32"
        }
      ],
      "name": "setFlightOnTime",
      "outputs": [],
      "payable": false,
      "stateMutability": "nonpayable",
      "type": "function"
    },
    {
      "constant": false,
      "inputs": [
        {
          "name": "_flightID",
          "type": "bytes32"
        }
      ],
      "name": "setFlightLateAirline",
      "outputs": [],
      "payable": false,
      "stateMutability": "nonpayable",
      "type": "function"
    },
    {
      "constant": false,
      "inputs": [
        {
          "name": "_flightID",
          "type": "bytes32"
        }
      ],
      "name": "setFlightLateNotAirline",
      "outputs": [],
      "payable": false,
      "stateMutability": "nonpayable",
      "type": "function"
    },
    {
      "constant": true,
      "inputs": [
        {
          "name": "_flightID",
          "type": "bytes32"
        }
      ],
      "name": "queryFlightInfo",
      "outputs": [
        {
          "name": "code",
          "type": "string"
        },
        {
          "name": "airline",
          "type": "address"
        },
        {
          "name": "timestamp",
          "type": "uint256"
        },
        {
          "name": "status",
          "type": "uint8"
        }
      ],
      "payable": false,
      "stateMutability": "view",
      "type": "function"
    },
    {
      "constant": true,
      "inputs": [
        {
          "name": "_flightID",
          "type": "bytes32"
        }
      ],
      "name": "getInsuranceKeysList",
      "outputs": [
        {
          "name": "",
          "type": "bytes32[]"
        }
      ],
      "payable": false,
      "stateMutability": "view",
      "type": "function"
    },
    {
      "constant": true,
      "inputs": [
        {
          "name": "_flightID",
          "type": "bytes32"
        }
      ],
      "name": "getNumberOfInsurance",
      "outputs": [
        {
          "name": "",
          "type": "uint256"
        }
      ],
      "payable": false,
      "stateMutability": "view",
      "type": "function"
    }
  ],
  "bytecode": "0x608060405234801561001057600080fd5b50610ff1806100206000396000f3fe608060405234801561001057600080fd5b50600436106100cf5760003560e01c80637508ec201161008c578063c77eb5a211610066578063c77eb5a21461041a578063e7e4ff7114610448578063f2c6d0b21461053e578063fc00b2861461056c576100cf565b80637508ec20146102e1578063849365a114610331578063b3e70c3114610397576100cf565b80630f08f655146100d4578063242f83e81461010c57806343ba1e3c1461015257806345e2748d1461019457806358ac36a3146101c2578063637a66df14610208575b600080fd5b61010a600480360360408110156100ea57600080fd5b8101908080359060200190929190803590602001909291905050506105b2565b005b6101386004803603602081101561012257600080fd5b810190808035906020019092919050505061076d565b604051808215151515815260200191505060405180910390f35b61017e6004803603602081101561016857600080fd5b8101908080359060200190929190505050610799565b6040518082815260200191505060405180910390f35b6101c0600480360360208110156101aa57600080fd5b8101908080359060200190929190505050610838565b005b6101ee600480360360208110156101d857600080fd5b81019080803590602001909291905050506108d2565b604051808215151515815260200191505060405180910390f35b6102cb6004803603604081101561021e57600080fd5b810190808035906020019064010000000081111561023b57600080fd5b82018360208201111561024d57600080fd5b8035906020019184600183028401116401000000008311171561026f57600080fd5b91908080601f016020809104026020016040519081016040528093929190818152602001838380828437600081840152601f19601f82011690508083019250505050505050919291929080359060200190929190505050610916565b6040518082815260200191505060405180910390f35b610317600480360360408110156102f757600080fd5b81019080803590602001909291908035906020019092919050505061099a565b604051808215151515815260200191505060405180910390f35b61037d6004803603604081101561034757600080fd5b81019080803573ffffffffffffffffffffffffffffffffffffffff16906020019092919080359060200190929190505050610a55565b604051808215151515815260200191505060405180910390f35b6103c3600480360360208110156103ad57600080fd5b8101908080359060200190929190505050610b40565b6040518080602001828103825283818151815260200191508051906020019060200280838360005b838110156104065780820151818401526020810190506103eb565b505050509050019250505060405180910390f35b6104466004803603602081101561043057600080fd5b8101908080359060200190929190505050610c2a565b005b6104746004803603602081101561045e57600080fd5b8101908080359060200190929190505050610cc4565b60405180806020018573ffffffffffffffffffffffffffffffffffffffff1673ffffffffffffffffffffffffffffffffffffffff1681526020018481526020018360038111156104c057fe5b60ff168152602001828103825286818151815260200191508051906020019080838360005b838110156105005780820151818401526020810190506104e5565b50505050905090810190601f16801561052d5780820380516001836020036101000a031916815260200191505b509550505050505060405180910390f35b61056a6004803603602081101561055457600080fd5b8101908080359060200190929190505050610df7565b005b6105986004803603602081101561058257600080fd5b8101908080359060200190929190505050610f0e565b604051808215151515815260200191505060405180910390f35b6105bb8261076d565b61062d576040517f08c379a00000000000000000000000000000000000000000000000000000000081526004018080602001828103825260198152602001807f54686520666c6967687420646f6573206e6f742065786973740000000000000081525060200191505060405180910390fd5b610636826108d2565b61068b576040517f08c379a0000000000000000000000000000000000000000000000000000000008152600401808060200182810382526027815260200180610f546027913960400191505060405180910390fd5b610695828261099a565b156106eb576040517f08c379a0000000000000000000000000000000000000000000000000000000008152600401808060200182810382526028815260200180610f9e6028913960400191505060405180910390fd5b6001600080848152602001908152602001600020600401600083815260200190815260200160002060006101000a81548160ff0219169083151502179055506000808381526020019081526020016000206003018190806001815401808255809150509060018203906000526020600020016000909192909190915055505050565b600080600083815260200190815260200160002060050160019054906101000a900460ff169050919050565b6000816107a58161076d565b610817576040517f08c379a00000000000000000000000000000000000000000000000000000000081526004018080602001828103825260158152602001807f466c6967687420646f6573206e6f74206578697374000000000000000000000081525060200191505060405180910390fd5b60008084815260200190815260200160002060030180549050915050919050565b80610842816108d2565b610897576040517f08c379a0000000000000000000000000000000000000000000000000000000008152600401808060200182810382526023815260200180610f7b6023913960400191505060405180910390fd5b600260008084815260200190815260200160002060050160006101000a81548160ff021916908360038111156108c957fe5b02179055505050565b60008060038111156108e057fe5b60008084815260200190815260200160002060050160009054906101000a900460ff16600381111561090e57fe5b149050919050565b600082826040516020018083805190602001908083835b60208310610950578051825260208201915060208101905060208303925061092d565b6001836020036101000a0380198251168184511680821785525050505050509050018281526020019250505060405160208183030381529060405280519060200120905092915050565b6000826109a68161076d565b610a18576040517f08c379a00000000000000000000000000000000000000000000000000000000081526004018080602001828103825260158152602001807f466c6967687420646f6573206e6f74206578697374000000000000000000000081525060200191505060405180910390fd5b600080858152602001908152602001600020600401600084815260200190815260200160002060009054906101000a900460ff1691505092915050565b600081610a618161076d565b610ad3576040517f08c379a00000000000000000000000000000000000000000000000000000000081526004018080602001828103825260158152602001807f466c6967687420646f6573206e6f74206578697374000000000000000000000081525060200191505060405180910390fd5b8373ffffffffffffffffffffffffffffffffffffffff1660008085815260200190815260200160002060020160009054906101000a900473ffffffffffffffffffffffffffffffffffffffff1673ffffffffffffffffffffffffffffffffffffffff161491505092915050565b606081610b4c8161076d565b610bbe576040517f08c379a00000000000000000000000000000000000000000000000000000000081526004018080602001828103825260158152602001807f466c6967687420646f6573206e6f74206578697374000000000000000000000081525060200191505060405180910390fd5b600080848152602001908152602001600020600301805480602002602001604051908101604052809291908181526020018280548015610c1d57602002820191906000526020600020905b815481526020019060010190808311610c09575b5050505050915050919050565b80610c34816108d2565b610c89576040517f08c379a0000000000000000000000000000000000000000000000000000000008152600401808060200182810382526023815260200180610f7b6023913960400191505060405180910390fd5b600360008084815260200190815260200160002060050160006101000a81548160ff02191690836003811115610cbb57fe5b02179055505050565b606060008060008060008681526020019081526020016000206000018054600181600116156101000203166002900480601f016020809104026020016040519081016040528092919081815260200182805460018160011615610100020316600290048015610d745780601f10610d4957610100808354040283529160200191610d74565b820191906000526020600020905b815481529060010190602001808311610d5757829003601f168201915b5050505050935060008086815260200190815260200160002060020160009054906101000a900473ffffffffffffffffffffffffffffffffffffffff16925060008086815260200190815260200160002060010154915060008086815260200190815260200160002060050160009054906101000a900460ff1690509193509193565b80610e01816108d2565b610e56576040517f08c379a0000000000000000000000000000000000000000000000000000000008152600401808060200182810382526023815260200180610f7b6023913960400191505060405180910390fd5b81610e608161076d565b610ed2576040517f08c379a00000000000000000000000000000000000000000000000000000000081526004018080602001828103825260158152602001807f466c6967687420646f6573206e6f74206578697374000000000000000000000081525060200191505060405180910390fd5b600160008085815260200190815260200160002060050160006101000a81548160ff02191690836003811115610f0457fe5b0217905550505050565b600060026003811115610f1d57fe5b60008084815260200190815260200160002060050160009054906101000a900460ff166003811115610f4b57fe5b14905091905056fe54686520666c69676874206d75737420626520696e207265676973746572656420737461747573466c69676874206d75737420626520696e20526567697374657265642073746174757354686520666c696768742068617320616c726561647920676f742074686520696e737572616e6365a165627a7a72305820da2aee1739de22b556c330f110b52cf6e9d24ef55c826372121307869c92061c0029",
  "source": "pragma solidity ^0.5.8;\r\n\r\nimport \"../node_modules/openzeppelin-solidity/contracts/math/SafeMath.sol\";\r\n\r\ncontract FlightData{\r\n    using SafeMath for uint256;\r\n    uint256 constant MIN_FUND = 10 ether;\r\n\r\n    struct Flight{\r\n        string code;\r\n        uint256 timestamp;\r\n        address airline;\r\n        bytes32[] insuranceKeysList;\r\n        mapping(bytes32=>bool) insuranceKeys;\r\n        FlightStatus status;\r\n        bool isExist;\r\n    }\r\n    enum FlightStatus{Registered, OnTime, LateAirline, LateNotAirline}\r\n    mapping(bytes32=>Flight) flights;//code+departureTimestamp is the key\r\n\r\n    event FlightAdded(string flightCode, uint256 deparTimestamp, address airline);\r\n    //event InsuranceAdded(string flightCode, uint256 deparTimestamp, address airline, bytes32 insuranceKey);\r\n    event FlightArrival(string flightCode, uint256 deparTimestamp, address airline, FlightStatus state);\r\n    \r\n    // the key for extracting flight data\r\n    function generateFlightKey(string memory _code, uint256 _timestamp) public pure returns (bytes32){\r\n        return keccak256(abi.encodePacked(_code, _timestamp));\r\n    }\r\n    /**\r\n    functions for checking flight condition and modifiers\r\n     */\r\n    function isFlightExist(bytes32 _id) public view returns (bool){\r\n        return flights[_id].isExist;\r\n    }\r\n\r\n    modifier requireFlightExist(bytes32 _id) {\r\n        require(isFlightExist(_id), \"Flight does not exist\");\r\n        _;\r\n    }\r\n\r\n    modifier requireFlightNotExist(bytes32 _id){\r\n        require(isFlightExist(_id), \"Flight must not register\");\r\n        _;\r\n    }\r\n\r\n    function isFlightRegistered(bytes32 _id) public view returns (bool){\r\n        return flights[_id].status == FlightStatus.Registered;\r\n    }\r\n\r\n    modifier requireFlightRegistered(bytes32 _id) {\r\n        require(isFlightRegistered(_id), \"Flight must be in Registered status\");\r\n        _;\r\n    }\r\n\r\n    function isFlightHasThisInsuranceKey(bytes32 _flightKey,bytes32 _insuranceKey) public view requireFlightExist(_flightKey) returns(bool){\r\n        return flights[_flightKey].insuranceKeys[_insuranceKey];\r\n    }\r\n    \r\n\r\n   function isFlightOwner(address _airline, bytes32 _flightKey) public view requireFlightExist(_flightKey) returns(bool){\r\n       return flights[_flightKey].airline == _airline;\r\n   }\r\n   \r\n   modifier requireFlightOwner(address _airline, bytes32 _flightKey){\r\n       require(isFlightOwner(_airline,_flightKey), \"Airline must be owner of flight\");\r\n       _;\r\n   }\r\n\r\n   function isFlightLateAirline(bytes32 _flightID) public view returns(bool){\r\n       return flights[_flightID].status == FlightStatus.LateAirline;\r\n   }\r\n\r\n   modifier requireFlightLateAirline(bytes32 _flightID){\r\n       isFlightLateAirline(_flightID);\r\n       _;\r\n   }\r\n\r\n    /**\r\n    functions for adding flight and appening insurance keys to flight\r\n     */\r\n    \r\n    function addFlight(string memory _code, uint256 _timestamp, address _airline) internal{\r\n        bytes32 flightKey = generateFlightKey(_code, _timestamp);\r\n        require(!isFlightExist(flightKey), \"Flight has been registered before\");\r\n        bytes32[] memory emptyList;\r\n        Flight memory flight;\r\n        flight.code = _code;\r\n        flight.airline = _airline;\r\n        flight.timestamp = _timestamp;\r\n        flight.status = FlightStatus.Registered;\r\n        flight.isExist = true;\r\n        flight.insuranceKeysList = emptyList;\r\n        flights[flightKey] = flight;\r\n    }\r\n    \r\n    function addInsuranceKey(bytes32 _flightKey,bytes32 _insuranceKey) public {\r\n        require(isFlightExist(_flightKey), \"The flight does not exist\");\r\n        require(isFlightRegistered(_flightKey), \"The flight must be in registered status\");\r\n        require(!isFlightHasThisInsuranceKey(_flightKey, _insuranceKey), \"The flight has already got the insurance\");\r\n        flights[_flightKey].insuranceKeys[_insuranceKey] = true;\r\n        flights[_flightKey].insuranceKeysList.push(_insuranceKey);\r\n    }\r\n\r\n    /**\r\n    functions for setting flight status\r\n     */\r\n    function setFlightOnTime(bytes32 _flightID) public requireFlightRegistered(_flightID) requireFlightExist(_flightID){\r\n       flights[_flightID].status = FlightStatus.OnTime;\r\n   }\r\n\r\n   function setFlightLateAirline(bytes32 _flightID) public requireFlightRegistered(_flightID){\r\n       flights[_flightID].status = FlightStatus.LateAirline;\r\n   }\r\n\r\n   function setFlightLateNotAirline(bytes32 _flightID) public requireFlightRegistered(_flightID){\r\n       flights[_flightID].status = FlightStatus.LateNotAirline;\r\n   }\r\n\r\n   /**\r\n   functions for querying flights status\r\n    */\r\n    \r\n   \r\n   function queryFlightInfo(bytes32 _flightID) public view returns( string memory code, address airline, uint256 timestamp, FlightStatus status){\r\n       code = flights[_flightID].code;\r\n       airline = flights[_flightID].airline;\r\n       timestamp = flights[_flightID].timestamp;\r\n       status = flights[_flightID].status;\r\n   }\r\n   \r\n   function getInsuranceKeysList(bytes32 _flightID) public view requireFlightExist(_flightID) returns(bytes32[] memory){\r\n       return flights[_flightID].insuranceKeysList;\r\n   }\r\n\r\n   function getNumberOfInsurance(bytes32 _flightID) public view requireFlightExist(_flightID) returns(uint256){\r\n       return flights[_flightID].insuranceKeysList.length;\r\n   }\r\n}",
  "sourcePath": "C:\\Users\\andrewchan88\\Documents\\Coding\\udacity\\Blockchain\\PartB\\homework\\project7_es_rm\\contracts\\FlightData.sol",
  "compiler": {
    "name": "solc",
    "version": "0.5.8+commit.23d335f2.Emscripten.clang"
  },
  "schemaVersion": "3.0.13",
  "updatedAt": "2019-10-01T04:55:09.513Z",
  "devdoc": {
    "methods": {}
  },
  "userdoc": {
    "methods": {
      "isFlightExist(bytes32)": {
        "notice": "functions for checking flight condition and modifiers\r"
      },
      "queryFlightInfo(bytes32)": {
        "notice": "functions for querying flights status\r"
      },
      "setFlightOnTime(bytes32)": {
        "notice": "functions for setting flight status\r"
      }
    }
  }
}