{
  "contractName": "FlightSuretyApp",
  "abi": [
    {
      "constant": false,
      "inputs": [
        {
          "name": "mode",
          "type": "bool"
        }
      ],
      "name": "setOperatingStatus",
      "outputs": [],
      "payable": false,
      "stateMutability": "nonpayable",
      "type": "function"
    },
    {
      "constant": false,
      "inputs": [],
      "name": "registerOracle",
      "outputs": [],
      "payable": true,
      "stateMutability": "payable",
      "type": "function"
    },
    {
      "constant": true,
      "inputs": [
        {
          "name": "oracleAddress",
          "type": "address"
        }
      ],
      "name": "queryOracle",
      "outputs": [
        {
          "name": "isRegistered",
          "type": "bool"
        },
        {
          "name": "indexes",
          "type": "uint8[3]"
        }
      ],
      "payable": false,
      "stateMutability": "view",
      "type": "function"
    },
    {
      "constant": true,
      "inputs": [],
      "name": "getMyIndexes",
      "outputs": [
        {
          "name": "",
          "type": "uint8[3]"
        }
      ],
      "payable": false,
      "stateMutability": "view",
      "type": "function"
    },
    {
      "constant": true,
      "inputs": [],
      "name": "REGISTRATION_FEE",
      "outputs": [
        {
          "name": "",
          "type": "uint256"
        }
      ],
      "payable": false,
      "stateMutability": "view",
      "type": "function"
    },
    {
      "constant": true,
      "inputs": [],
      "name": "getOwner",
      "outputs": [
        {
          "name": "",
          "type": "address"
        }
      ],
      "payable": false,
      "stateMutability": "view",
      "type": "function"
    },
    {
      "constant": true,
      "inputs": [],
      "name": "getAllResponseKeys",
      "outputs": [
        {
          "name": "",
          "type": "bytes32[]"
        }
      ],
      "payable": false,
      "stateMutability": "view",
      "type": "function"
    },
    {
      "constant": true,
      "inputs": [
        {
          "name": "responseKey",
          "type": "bytes32"
        }
      ],
      "name": "isResponseExist",
      "outputs": [
        {
          "name": "",
          "type": "bool"
        }
      ],
      "payable": false,
      "stateMutability": "view",
      "type": "function"
    },
    {
      "constant": true,
      "inputs": [
        {
          "name": "responseKey",
          "type": "bytes32"
        }
      ],
      "name": "isResponseOpen",
      "outputs": [
        {
          "name": "",
          "type": "bool"
        }
      ],
      "payable": false,
      "stateMutability": "view",
      "type": "function"
    },
    {
      "constant": true,
      "inputs": [],
      "name": "isOperational",
      "outputs": [
        {
          "name": "",
          "type": "bool"
        }
      ],
      "payable": false,
      "stateMutability": "view",
      "type": "function"
    },
    {
      "constant": true,
      "inputs": [
        {
          "name": "_fetchKey",
          "type": "bytes32"
        }
      ],
      "name": "queryResponseInfo",
      "outputs": [
        {
          "name": "requester",
          "type": "address"
        },
        {
          "name": "isOpen",
          "type": "bool"
        },
        {
          "name": "responsedOracles",
          "type": "address[]"
        },
        {
          "name": "statusCode",
          "type": "uint8"
        }
      ],
      "payable": false,
      "stateMutability": "view",
      "type": "function"
    },
    {
      "inputs": [
        {
          "name": "dataContractAddress",
          "type": "address"
        }
      ],
      "payable": false,
      "stateMutability": "nonpayable",
      "type": "constructor"
    },
    {
      "anonymous": false,
      "inputs": [
        {
          "indexed": false,
          "name": "airline",
          "type": "address"
        },
        {
          "indexed": false,
          "name": "flight",
          "type": "string"
        },
        {
          "indexed": false,
          "name": "timestamp",
          "type": "uint256"
        },
        {
          "indexed": false,
          "name": "status",
          "type": "uint8"
        }
      ],
      "name": "FlightStatusInfo",
      "type": "event"
    },
    {
      "anonymous": false,
      "inputs": [
        {
          "indexed": false,
          "name": "airline",
          "type": "address"
        },
        {
          "indexed": false,
          "name": "flight",
          "type": "string"
        },
        {
          "indexed": false,
          "name": "timestamp",
          "type": "uint256"
        },
        {
          "indexed": false,
          "name": "status",
          "type": "uint8"
        }
      ],
      "name": "OracleReport",
      "type": "event"
    },
    {
      "anonymous": false,
      "inputs": [
        {
          "indexed": false,
          "name": "index",
          "type": "uint8"
        },
        {
          "indexed": false,
          "name": "airline",
          "type": "address"
        },
        {
          "indexed": false,
          "name": "flight",
          "type": "string"
        },
        {
          "indexed": false,
          "name": "timestamp",
          "type": "uint256"
        }
      ],
      "name": "OracleRequest",
      "type": "event"
    },
    {
      "constant": false,
      "inputs": [
        {
          "name": "_name",
          "type": "string"
        }
      ],
      "name": "registerAirline",
      "outputs": [],
      "payable": false,
      "stateMutability": "nonpayable",
      "type": "function"
    },
    {
      "constant": false,
      "inputs": [
        {
          "name": "_candidate",
          "type": "address"
        }
      ],
      "name": "airlineVote",
      "outputs": [],
      "payable": false,
      "stateMutability": "nonpayable",
      "type": "function"
    },
    {
      "constant": false,
      "inputs": [],
      "name": "airlineFund",
      "outputs": [],
      "payable": true,
      "stateMutability": "payable",
      "type": "function"
    },
    {
      "constant": false,
      "inputs": [
        {
          "name": "_code",
          "type": "string"
        },
        {
          "name": "_timestamp",
          "type": "uint256"
        }
      ],
      "name": "registerFlight",
      "outputs": [],
      "payable": false,
      "stateMutability": "nonpayable",
      "type": "function"
    },
    {
      "constant": false,
      "inputs": [
        {
          "name": "_code",
          "type": "string"
        },
        {
          "name": "_timestamp",
          "type": "uint256"
        }
      ],
      "name": "generateFlightKey",
      "outputs": [
        {
          "name": "",
          "type": "bytes32"
        }
      ],
      "payable": false,
      "stateMutability": "nonpayable",
      "type": "function"
    },
    {
      "constant": false,
      "inputs": [
        {
          "name": "_flightKey",
          "type": "bytes32"
        },
        {
          "name": "_contractTimestamp",
          "type": "uint256"
        },
        {
          "name": "_airline",
          "type": "address"
        }
      ],
      "name": "passenagerBuyInsurance",
      "outputs": [],
      "payable": true,
      "stateMutability": "payable",
      "type": "function"
    },
    {
      "constant": false,
      "inputs": [
        {
          "name": "_buyer",
          "type": "address"
        },
        {
          "name": "_flightKey",
          "type": "bytes32"
        },
        {
          "name": "_contractTimestamp",
          "type": "uint256"
        }
      ],
      "name": "generateInsuranceKey",
      "outputs": [
        {
          "name": "",
          "type": "bytes32"
        }
      ],
      "payable": false,
      "stateMutability": "nonpayable",
      "type": "function"
    },
    {
      "constant": false,
      "inputs": [
        {
          "name": "_insuranceKey",
          "type": "bytes32"
        }
      ],
      "name": "creditInsurance",
      "outputs": [],
      "payable": false,
      "stateMutability": "nonpayable",
      "type": "function"
    },
    {
      "constant": false,
      "inputs": [
        {
          "name": "_flightKey",
          "type": "bytes32"
        }
      ],
      "name": "creditAllInsurances",
      "outputs": [],
      "payable": false,
      "stateMutability": "nonpayable",
      "type": "function"
    },
    {
      "constant": false,
      "inputs": [],
      "name": "passenagerWithdrawCredits",
      "outputs": [],
      "payable": true,
      "stateMutability": "payable",
      "type": "function"
    },
    {
      "constant": false,
      "inputs": [
        {
          "name": "flightKey",
          "type": "bytes32"
        }
      ],
      "name": "proceedFlightNoCreditCase",
      "outputs": [],
      "payable": false,
      "stateMutability": "nonpayable",
      "type": "function"
    },
    {
      "constant": true,
      "inputs": [
        {
          "name": "randomIndex",
          "type": "uint8"
        },
        {
          "name": "airline",
          "type": "address"
        },
        {
          "name": "flight",
          "type": "string"
        },
        {
          "name": "timestamp",
          "type": "uint256"
        }
      ],
      "name": "generateResponseKey",
      "outputs": [
        {
          "name": "",
          "type": "bytes32"
        }
      ],
      "payable": false,
      "stateMutability": "pure",
      "type": "function"
    },
    {
      "constant": false,
      "inputs": [
        {
          "name": "airline",
          "type": "address"
        },
        {
          "name": "flightCode",
          "type": "string"
        },
        {
          "name": "flightTimestamp",
          "type": "uint256"
        }
      ],
      "name": "fetchFlightStatus",
      "outputs": [],
      "payable": false,
      "stateMutability": "nonpayable",
      "type": "function"
    },
    {
      "constant": true,
      "inputs": [
        {
          "name": "index",
          "type": "uint8"
        },
        {
          "name": "requester",
          "type": "address"
        }
      ],
      "name": "checkAllIndexes",
      "outputs": [
        {
          "name": "",
          "type": "bool"
        }
      ],
      "payable": false,
      "stateMutability": "view",
      "type": "function"
    },
    {
      "constant": false,
      "inputs": [
        {
          "name": "fetchIndex",
          "type": "uint8"
        },
        {
          "name": "airline",
          "type": "address"
        },
        {
          "name": "flight",
          "type": "string"
        },
        {
          "name": "timestamp",
          "type": "uint256"
        },
        {
          "name": "statusCode",
          "type": "uint8"
        }
      ],
      "name": "submitOracleResponse",
      "outputs": [],
      "payable": false,
      "stateMutability": "nonpayable",
      "type": "function"
    },
    {
      "constant": false,
      "inputs": [
        {
          "name": "flight",
          "type": "string"
        },
        {
          "name": "timestamp",
          "type": "uint256"
        },
        {
          "name": "statusCode",
          "type": "uint8"
        }
      ],
      "name": "processFlightStatus",
      "outputs": [],
      "payable": false,
      "stateMutability": "nonpayable",
      "type": "function"
    },
    {
      "constant": true,
      "inputs": [],
      "name": "queryContractBalance",
      "outputs": [
        {
          "name": "",
          "type": "uint256"
        }
      ],
      "payable": false,
      "stateMutability": "view",
      "type": "function"
    },
    {
      "constant": false,
      "inputs": [
        {
          "name": "flightKey",
          "type": "bytes32"
        }
      ],
      "name": "setFlightOnTime",
      "outputs": [],
      "payable": false,
      "stateMutability": "nonpayable",
      "type": "function"
    },
    {
      "constant": false,
      "inputs": [
        {
          "name": "flightKey",
          "type": "bytes32"
        }
      ],
      "name": "setFlightLateAirline",
      "outputs": [],
      "payable": false,
      "stateMutability": "nonpayable",
      "type": "function"
    },
    {
      "constant": false,
      "inputs": [
        {
          "name": "flightKey",
          "type": "bytes32"
        }
      ],
      "name": "setFlightLateNotAirline",
      "outputs": [],
      "payable": false,
      "stateMutability": "nonpayable",
      "type": "function"
    }
  ],
  "bytecode": "0x608060405260008060006101000a81548160ff021916908360ff1602179055506001600460146101000a81548160ff02191690831515021790555034801561004657600080fd5b506040516020806137b88339810180604052602081101561006657600080fd5b810190808051906020019092919050505033600460006101000a81548173ffffffffffffffffffffffffffffffffffffffff021916908373ffffffffffffffffffffffffffffffffffffffff16021790555080600560006101000a81548173ffffffffffffffffffffffffffffffffffffffff021916908373ffffffffffffffffffffffffffffffffffffffff16021790555033600660006101000a81548173ffffffffffffffffffffffffffffffffffffffff021916908373ffffffffffffffffffffffffffffffffffffffff1602179055505061366e8061014a6000396000f3fe6080604052600436106101d85760003560e01c8063893d20e811610102578063cca8427f11610095578063ee06ce2b11610064578063ee06ce2b14610db3578063ef488b9314610dee578063f2c6d0b214610e29578063f83f11c014610e64576101d8565b8063cca8427f14610be0578063cce7127b14610c33578063cd905dff14610ca9578063cecf6b6c14610cd8576101d8565b8063c10f2700116100d1578063c10f270014610967578063c17c3b2814610a73578063c77eb5a214610b52578063cc75f25d14610b8d576101d8565b8063893d20e8146107da5780639b7cb28f14610831578063b58c31be1461089d578063bead056a14610916576101d8565b80635f1cc0e61161017a57806364b4f7511161014957806364b4f7511461071257806374dde5521461073d57806375e0e52c146107955780637bcfd884146107d0576101d8565b80635f1cc0e6146104bc5780635f746a851461050f578063620e7eda14610519578063637a66df1461062c576101d8565b8063339d2590116101b6578063339d25901461030d578063382fee6d1461031757806339cfc995146103af57806345e2748d14610481576101d8565b806301465590146101dd578063110466ed146102085780632520521014610245575b600080fd5b3480156101e957600080fd5b506101f2610f56565b6040518082815260200191505060405180910390f35b34801561021457600080fd5b506102436004803603602081101561022b57600080fd5b81019080803515159060200190929190505050610f75565b005b34801561025157600080fd5b5061030b6004803603602081101561026857600080fd5b810190808035906020019064010000000081111561028557600080fd5b82018360208201111561029757600080fd5b803590602001918460018302840111640100000000831117156102b957600080fd5b91908080601f016020809104026020016040519081016040528093929190818152602001838380828437600081840152601f19601f820116905080830192505050505050509192919290505050611055565b005b61031561117e565b005b34801561032357600080fd5b506103666004803603602081101561033a57600080fd5b81019080803573ffffffffffffffffffffffffffffffffffffffff1690602001909291905050506112a4565b604051808315151515815260200182600360200280838360005b8381101561039b578082015181840152602081019050610380565b505050509050019250505060405180910390f35b3480156103bb57600080fd5b5061047f600480360360408110156103d257600080fd5b81019080803590602001906401000000008111156103ef57600080fd5b82018360208201111561040157600080fd5b8035906020019184600183028401116401000000008311171561042357600080fd5b91908080601f016020809104026020016040519081016040528093929190818152602001838380828437600081840152601f19601f820116905080830192505050505050509192919290803590602001909291905050506113ab565b005b34801561048d57600080fd5b506104ba600480360360208110156104a457600080fd5b81019080803590602001909291905050506114dd565b005b3480156104c857600080fd5b506104d161156d565b6040518082600360200280838360005b838110156104fc5780820151818401526020810190506104e1565b5050505090500191505060405180910390f35b6105176116e0565b005b34801561052557600080fd5b506106166004803603608081101561053c57600080fd5b81019080803560ff169060200190929190803573ffffffffffffffffffffffffffffffffffffffff1690602001909291908035906020019064010000000081111561058657600080fd5b82018360208201111561059857600080fd5b803590602001918460018302840111640100000000831117156105ba57600080fd5b91908080601f016020809104026020016040519081016040528093929190818152602001838380828437600081840152601f19601f820116905080830192505050505050509192919290803590602001909291905050506117a3565b6040518082815260200191505060405180910390f35b34801561063857600080fd5b506106fc6004803603604081101561064f57600080fd5b810190808035906020019064010000000081111561066c57600080fd5b82018360208201111561067e57600080fd5b803590602001918460018302840111640100000000831117156106a057600080fd5b91908080601f016020809104026020016040519081016040528093929190818152602001838380828437600081840152601f19601f82011690508083019250505050505050919291929080359060200190929190505050611871565b6040518082815260200191505060405180910390f35b34801561071e57600080fd5b50610727611998565b6040518082815260200191505060405180910390f35b6107936004803603606081101561075357600080fd5b810190808035906020019092919080359060200190929190803573ffffffffffffffffffffffffffffffffffffffff1690602001909291905050506119a4565b005b3480156107a157600080fd5b506107ce600480360360208110156107b857600080fd5b8101908080359060200190929190505050611aae565b005b6107d8611bf5565b005b3480156107e657600080fd5b506107ef611e37565b604051808273ffffffffffffffffffffffffffffffffffffffff1673ffffffffffffffffffffffffffffffffffffffff16815260200191505060405180910390f35b34801561083d57600080fd5b50610846611e61565b6040518080602001828103825283818151815260200191508051906020019060200280838360005b8381101561088957808201518184015260208101905061086e565b505050509050019250505060405180910390f35b3480156108a957600080fd5b50610900600480360360608110156108c057600080fd5b81019080803573ffffffffffffffffffffffffffffffffffffffff1690602001909291908035906020019092919080359060200190929190505050611eb9565b6040518082815260200191505060405180910390f35b34801561092257600080fd5b506109656004803603602081101561093957600080fd5b81019080803573ffffffffffffffffffffffffffffffffffffffff169060200190929190505050611fb0565b005b34801561097357600080fd5b50610a71600480360360a081101561098a57600080fd5b81019080803560ff169060200190929190803573ffffffffffffffffffffffffffffffffffffffff169060200190929190803590602001906401000000008111156109d457600080fd5b8201836020820111156109e657600080fd5b80359060200191846001830284011164010000000083111715610a0857600080fd5b91908080601f016020809104026020016040519081016040528093929190818152602001838380828437600081840152601f19601f82011690508083019250505050505050919291929080359060200190929190803560ff1690602001909291905050506120a0565b005b348015610a7f57600080fd5b50610b5060048036036060811015610a9657600080fd5b8101908080359060200190640100000000811115610ab357600080fd5b820183602082011115610ac557600080fd5b80359060200191846001830284011164010000000083111715610ae757600080fd5b91908080601f016020809104026020016040519081016040528093929190818152602001838380828437600081840152601f19601f82011690508083019250505050505050919291929080359060200190929190803560ff1690602001909291905050506124af565b005b348015610b5e57600080fd5b50610b8b60048036036020811015610b7557600080fd5b8101908080359060200190929190505050612699565b005b348015610b9957600080fd5b50610bc660048036036020811015610bb057600080fd5b8101908080359060200190929190505050612729565b604051808215151515815260200191505060405180910390f35b348015610bec57600080fd5b50610c1960048036036020811015610c0357600080fd5b8101908080359060200190929190505050612756565b604051808215151515815260200191505060405180910390f35b348015610c3f57600080fd5b50610c8f60048036036040811015610c5657600080fd5b81019080803560ff169060200190929190803573ffffffffffffffffffffffffffffffffffffffff169060200190929190505050612783565b604051808215151515815260200191505060405180910390f35b348015610cb557600080fd5b50610cbe6128df565b604051808215151515815260200191505060405180910390f35b348015610ce457600080fd5b50610d1160048036036020811015610cfb57600080fd5b81019080803590602001909291905050506128f6565b604051808573ffffffffffffffffffffffffffffffffffffffff1673ffffffffffffffffffffffffffffffffffffffff16815260200184151515158152602001806020018360ff1660ff168152602001828103825284818151815260200191508051906020019060200280838360005b83811015610d9c578082015181840152602081019050610d81565b505050509050019550505050505060405180910390f35b348015610dbf57600080fd5b50610dec60048036036020811015610dd657600080fd5b8101908080359060200190929190505050612a26565b005b348015610dfa57600080fd5b50610e2760048036036020811015610e1157600080fd5b8101908080359060200190929190505050612ada565b005b348015610e3557600080fd5b50610e6260048036036020811015610e4c57600080fd5b8101908080359060200190929190505050612ca5565b005b348015610e7057600080fd5b50610f5460048036036060811015610e8757600080fd5b81019080803573ffffffffffffffffffffffffffffffffffffffff16906020019092919080359060200190640100000000811115610ec457600080fd5b820183602082011115610ed657600080fd5b80359060200191846001830284011164010000000083111715610ef857600080fd5b91908080601f016020809104026020016040519081016040528093929190818152602001838380828437600081840152601f19601f82011690508083019250505050505050919291929080359060200190929190505050612d35565b005b60003073ffffffffffffffffffffffffffffffffffffffff1631905090565b600460009054906101000a900473ffffffffffffffffffffffffffffffffffffffff1673ffffffffffffffffffffffffffffffffffffffff163373ffffffffffffffffffffffffffffffffffffffff1614611038576040517f08c379a000000000000000000000000000000000000000000000000000000000815260040180806020018281038252601c8152602001807f43616c6c6572206973206e6f7420636f6e7472616374206f776e65720000000081525060200191505060405180910390fd5b80600460146101000a81548160ff02191690831515021790555050565b600560009054906101000a900473ffffffffffffffffffffffffffffffffffffffff1673ffffffffffffffffffffffffffffffffffffffff16630e2c412982336040518363ffffffff1660e01b815260040180806020018373ffffffffffffffffffffffffffffffffffffffff1673ffffffffffffffffffffffffffffffffffffffff168152602001828103825284818151815260200191508051906020019080838360005b838110156111165780820151818401526020810190506110fb565b50505050905090810190601f1680156111435780820380516001836020036101000a031916815260200191505b509350505050600060405180830381600087803b15801561116357600080fd5b505af1158015611177573d6000803e3d6000fd5b5050505050565b670de0b6b3a76400003410156111fc576040517f08c379a000000000000000000000000000000000000000000000000000000000815260040180806020018281038252601c8152602001807f526567697374726174696f6e206665652069732072657175697265640000000081525060200191505060405180910390fd5b6112046133a0565b61120d33612ed2565b9050604051806040016040528060011515815260200182815250600160003373ffffffffffffffffffffffffffffffffffffffff1673ffffffffffffffffffffffffffffffffffffffff16815260200190815260200160002060008201518160000160006101000a81548160ff02191690831515021790555060208201518160010190600361129d9291906133c2565b5090505050565b60006112ae6133a0565b600160008473ffffffffffffffffffffffffffffffffffffffff1673ffffffffffffffffffffffffffffffffffffffff16815260200190815260200160002060000160009054906101000a900460ff169150600160008473ffffffffffffffffffffffffffffffffffffffff1673ffffffffffffffffffffffffffffffffffffffff16815260200190815260200160002060010160038060200260405190810160405280929190826003801561139f576020028201916000905b82829054906101000a900460ff1660ff16815260200190600101906020826000010492830192600103820291508084116113685790505b50505050509050915091565b600560009054906101000a900473ffffffffffffffffffffffffffffffffffffffff1673ffffffffffffffffffffffffffffffffffffffff166365c152f78383336040518463ffffffff1660e01b815260040180806020018481526020018373ffffffffffffffffffffffffffffffffffffffff1673ffffffffffffffffffffffffffffffffffffffff168152602001828103825285818151815260200191508051906020019080838360005b83811015611473578082015181840152602081019050611458565b50505050905090810190601f1680156114a05780820380516001836020036101000a031916815260200191505b50945050505050600060405180830381600087803b1580156114c157600080fd5b505af11580156114d5573d6000803e3d6000fd5b505050505050565b600560009054906101000a900473ffffffffffffffffffffffffffffffffffffffff1673ffffffffffffffffffffffffffffffffffffffff166345e2748d826040518263ffffffff1660e01b815260040180828152602001915050600060405180830381600087803b15801561155257600080fd5b505af1158015611566573d6000803e3d6000fd5b5050505050565b6115756133a0565b600160003373ffffffffffffffffffffffffffffffffffffffff1673ffffffffffffffffffffffffffffffffffffffff16815260200190815260200160002060000160009054906101000a900460ff16611637576040517f08c379a000000000000000000000000000000000000000000000000000000000815260040180806020018281038252601b8152602001807f4e6f74207265676973746572656420617320616e206f7261636c65000000000081525060200191505060405180910390fd5b600160003373ffffffffffffffffffffffffffffffffffffffff1673ffffffffffffffffffffffffffffffffffffffff1681526020019081526020016000206001016003806020026040519081016040528092919082600380156116d6576020028201916000905b82829054906101000a900460ff1660ff168152602001906001019060208260000104928301926001038202915080841161169f5790505b5050505050905090565b600560009054906101000a900473ffffffffffffffffffffffffffffffffffffffff1673ffffffffffffffffffffffffffffffffffffffff1663d512c06133346040518363ffffffff1660e01b8152600401808373ffffffffffffffffffffffffffffffffffffffff1673ffffffffffffffffffffffffffffffffffffffff16815260200182815260200192505050600060405180830381600087803b15801561178957600080fd5b505af115801561179d573d6000803e3d6000fd5b50505050565b600084848484604051602001808560ff1660ff1660f81b81526001018473ffffffffffffffffffffffffffffffffffffffff1673ffffffffffffffffffffffffffffffffffffffff1660601b815260140183805190602001908083835b602083106118235780518252602082019150602081019050602083039250611800565b6001836020036101000a038019825116818451168082178552505050505050905001828152602001945050505050604051602081830303815290604052805190602001209050949350505050565b6000600560009054906101000a900473ffffffffffffffffffffffffffffffffffffffff1673ffffffffffffffffffffffffffffffffffffffff1663637a66df84846040518363ffffffff1660e01b81526004018080602001838152602001828103825284818151815260200191508051906020019080838360005b838110156119085780820151818401526020810190506118ed565b50505050905090810190601f1680156119355780820380516001836020036101000a031916815260200191505b509350505050602060405180830381600087803b15801561195557600080fd5b505af1158015611969573d6000803e3d6000fd5b505050506040513d602081101561197f57600080fd5b8101908080519060200190929190505050905092915050565b670de0b6b3a764000081565b600560009054906101000a900473ffffffffffffffffffffffffffffffffffffffff1673ffffffffffffffffffffffffffffffffffffffff16631dd7a3f633858585346040518663ffffffff1660e01b8152600401808673ffffffffffffffffffffffffffffffffffffffff1673ffffffffffffffffffffffffffffffffffffffff1681526020018581526020018481526020018373ffffffffffffffffffffffffffffffffffffffff1673ffffffffffffffffffffffffffffffffffffffff16815260200182815260200195505050505050600060405180830381600087803b158015611a9157600080fd5b505af1158015611aa5573d6000803e3d6000fd5b50505050505050565b6060600560009054906101000a900473ffffffffffffffffffffffffffffffffffffffff1673ffffffffffffffffffffffffffffffffffffffff1663b3e70c31836040518263ffffffff1660e01b815260040180828152602001915050600060405180830381600087803b158015611b2557600080fd5b505af1158015611b39573d6000803e3d6000fd5b505050506040513d6000823e3d601f19601f820116820180604052506020811015611b6357600080fd5b810190808051640100000000811115611b7b57600080fd5b82810190506020810184811115611b9157600080fd5b8151856020820283011164010000000082111715611bae57600080fd5b5050929190505050905060008090505b8151811015611bf057611be3828281518110611bd657fe5b6020026020010151612a26565b8080600101915050611bbe565b505050565b6000600560009054906101000a900473ffffffffffffffffffffffffffffffffffffffff1673ffffffffffffffffffffffffffffffffffffffff16633d43020b336040518263ffffffff1660e01b8152600401808273ffffffffffffffffffffffffffffffffffffffff1673ffffffffffffffffffffffffffffffffffffffff168152602001915050602060405180830381600087803b158015611c9857600080fd5b505af1158015611cac573d6000803e3d6000fd5b505050506040513d6020811015611cc257600080fd5b8101908080519060200190929190505050905080611cde610f56565b11611d34576040517f08c379a00000000000000000000000000000000000000000000000000000000081526004018080602001828103825260218152602001806135a66021913960400191505060405180910390fd5b600560009054906101000a900473ffffffffffffffffffffffffffffffffffffffff1673ffffffffffffffffffffffffffffffffffffffff16630d829250336040518263ffffffff1660e01b8152600401808273ffffffffffffffffffffffffffffffffffffffff1673ffffffffffffffffffffffffffffffffffffffff168152602001915050600060405180830381600087803b158015611dd557600080fd5b505af1158015611de9573d6000803e3d6000fd5b505050503373ffffffffffffffffffffffffffffffffffffffff166108fc829081150290604051600060405180830381858888f19350505050158015611e33573d6000803e3d6000fd5b5050565b6000600460009054906101000a900473ffffffffffffffffffffffffffffffffffffffff16905090565b60606003805480602002602001604051908101604052809291908181526020018280548015611eaf57602002820191906000526020600020905b815481526020019060010190808311611e9b575b5050505050905090565b6000600560009054906101000a900473ffffffffffffffffffffffffffffffffffffffff1673ffffffffffffffffffffffffffffffffffffffff1663b58c31be8585856040518463ffffffff1660e01b8152600401808473ffffffffffffffffffffffffffffffffffffffff1673ffffffffffffffffffffffffffffffffffffffff1681526020018381526020018281526020019350505050602060405180830381600087803b158015611f6c57600080fd5b505af1158015611f80573d6000803e3d6000fd5b505050506040513d6020811015611f9657600080fd5b810190808051906020019092919050505090509392505050565b600560009054906101000a900473ffffffffffffffffffffffffffffffffffffffff1673ffffffffffffffffffffffffffffffffffffffff16631afa74e582336040518363ffffffff1660e01b8152600401808373ffffffffffffffffffffffffffffffffffffffff1673ffffffffffffffffffffffffffffffffffffffff1681526020018273ffffffffffffffffffffffffffffffffffffffff1673ffffffffffffffffffffffffffffffffffffffff16815260200192505050600060405180830381600087803b15801561208557600080fd5b505af1158015612099573d6000803e3d6000fd5b5050505050565b6120a86128df565b6120fd576040517f08c379a00000000000000000000000000000000000000000000000000000000081526004018080602001828103825260258152602001806135c76025913960400191505060405180910390fd5b84336121098282612783565b61215e576040517f08c379a00000000000000000000000000000000000000000000000000000000081526004018080602001828103825260238152602001806136206023913960400191505060405180910390fd5b600061216c888888886117a3565b90506002600082815260200190815260200160002060040160009054906101000a900460ff166121e7576040517f08c379a00000000000000000000000000000000000000000000000000000000081526004018080602001828103825260348152602001806135ec6034913960400191505060405180910390fd5b6002600082815260200190815260200160002060010160008560ff1660ff1681526020019081526020016000203390806001815401808255809150509060018203906000526020600020016000909192909190916101000a81548173ffffffffffffffffffffffffffffffffffffffff021916908373ffffffffffffffffffffffffffffffffffffffff160217905550507f43c853095c2752648493c88b4baac4d580d2594ffb00c6f1d4242d844514f78387878787604051808573ffffffffffffffffffffffffffffffffffffffff1673ffffffffffffffffffffffffffffffffffffffff168152602001806020018481526020018360ff1660ff168152602001828103825285818151815260200191508051906020019080838360005b83811015612321578082015181840152602081019050612306565b50505050905090810190601f16801561234e5780820380516001836020036101000a031916815260200191505b509550505050505060405180910390a160036002600083815260200190815260200160002060010160008660ff1660ff16815260200190815260200160002080549050101580156123a457506123a381612756565b5b156124a5576123b3818561305e565b7fe23f5229de535c091e3b7bec2665f5d698192d3b31393066e8987b7a05076b6c87878787604051808573ffffffffffffffffffffffffffffffffffffffff1673ffffffffffffffffffffffffffffffffffffffff168152602001806020018481526020018360ff1660ff168152602001828103825285818151815260200191508051906020019080838360005b8381101561245c578082015181840152602081019050612441565b50505050905090810190601f1680156124895780820380516001836020036101000a031916815260200191505b509550505050505060405180910390a16124a48686866124af565b5b5050505050505050565b6124b76128df565b61250c576040517f08c379a00000000000000000000000000000000000000000000000000000000081526004018080602001828103825260258152602001806135c76025913960400191505060405180910390fd5b6000600560009054906101000a900473ffffffffffffffffffffffffffffffffffffffff1673ffffffffffffffffffffffffffffffffffffffff1663637a66df85856040518363ffffffff1660e01b81526004018080602001838152602001828103825284818151815260200191508051906020019080838360005b838110156125a3578082015181840152602081019050612588565b50505050905090810190601f1680156125d05780820380516001836020036101000a031916815260200191505b509350505050602060405180830381600087803b1580156125f057600080fd5b505af1158015612604573d6000803e3d6000fd5b505050506040513d602081101561261a57600080fd5b81019080805190602001909291905050509050600060ff168260ff161461269357601460ff168260ff16141561266157612653816114dd565b61265c81611aae565b612692565b61266a81612ada565b600a60ff168260ff1614156126875761268281612ca5565b612691565b61269081612699565b5b5b5b50505050565b600560009054906101000a900473ffffffffffffffffffffffffffffffffffffffff1673ffffffffffffffffffffffffffffffffffffffff1663c77eb5a2826040518263ffffffff1660e01b815260040180828152602001915050600060405180830381600087803b15801561270e57600080fd5b505af1158015612722573d6000803e3d6000fd5b5050505050565b60006002600083815260200190815260200160002060040160009054906101000a900460ff169050919050565b60006002600083815260200190815260200160002060000160149054906101000a900460ff169050919050565b60008260ff16600160008473ffffffffffffffffffffffffffffffffffffffff1673ffffffffffffffffffffffffffffffffffffffff1681526020019081526020016000206001016000600381106127d757fe5b602091828204019190069054906101000a900460ff1660ff16148061286457508260ff16600160008473ffffffffffffffffffffffffffffffffffffffff1673ffffffffffffffffffffffffffffffffffffffff16815260200190815260200160002060010160016003811061284957fe5b602091828204019190069054906101000a900460ff1660ff16145b806128d757508260ff16600160008473ffffffffffffffffffffffffffffffffffffffff1673ffffffffffffffffffffffffffffffffffffffff1681526020019081526020016000206001016002600381106128bc57fe5b602091828204019190069054906101000a900460ff1660ff16145b905092915050565b6000600460149054906101000a900460ff16905090565b600080606060006002600086815260200190815260200160002060000160009054906101000a900473ffffffffffffffffffffffffffffffffffffffff1693506002600086815260200190815260200160002060000160149054906101000a900460ff169250600260008681526020019081526020016000206003018054806020026020016040519081016040528092919081815260200182805480156129f257602002820191906000526020600020905b8160009054906101000a900473ffffffffffffffffffffffffffffffffffffffff1673ffffffffffffffffffffffffffffffffffffffff16815260200190600101908083116129a8575b505050505091506002600086815260200190815260200160002060040160019054906101000a900460ff1690509193509193565b600560009054906101000a900473ffffffffffffffffffffffffffffffffffffffff1673ffffffffffffffffffffffffffffffffffffffff1663ee06ce2b826040518263ffffffff1660e01b815260040180828152602001915050602060405180830381600087803b158015612a9b57600080fd5b505af1158015612aaf573d6000803e3d6000fd5b505050506040513d6020811015612ac557600080fd5b81019080805190602001909291905050505050565b6060600560009054906101000a900473ffffffffffffffffffffffffffffffffffffffff1673ffffffffffffffffffffffffffffffffffffffff1663b3e70c31836040518263ffffffff1660e01b815260040180828152602001915050600060405180830381600087803b158015612b5157600080fd5b505af1158015612b65573d6000803e3d6000fd5b505050506040513d6000823e3d601f19601f820116820180604052506020811015612b8f57600080fd5b810190808051640100000000811115612ba757600080fd5b82810190506020810184811115612bbd57600080fd5b8151856020820283011164010000000082111715612bda57600080fd5b5050929190505050905060008090505b8151811015612ca057600560009054906101000a900473ffffffffffffffffffffffffffffffffffffffff1673ffffffffffffffffffffffffffffffffffffffff16639348916f838381518110612c3d57fe5b60200260200101516040518263ffffffff1660e01b815260040180828152602001915050600060405180830381600087803b158015612c7b57600080fd5b505af1158015612c8f573d6000803e3d6000fd5b505050508080600101915050612bea565b505050565b600560009054906101000a900473ffffffffffffffffffffffffffffffffffffffff1673ffffffffffffffffffffffffffffffffffffffff1663f2c6d0b2826040518263ffffffff1660e01b815260040180828152602001915050600060405180830381600087803b158015612d1a57600080fd5b505af1158015612d2e573d6000803e3d6000fd5b5050505050565b612d3d6128df565b612d92576040517f08c379a00000000000000000000000000000000000000000000000000000000081526004018080602001828103825260258152602001806135c76025913960400191505060405180910390fd5b6000612d9d336130f4565b90506000612dad828686866117a3565b90506003819080600181540180825580915050906001820390600052602060002001600090919290919091505550612de581336131e1565b7f3ed01f2c3fc24c6b329d931e35b03e390d23497d22b3f90e15b600343e93df1182868686604051808560ff1660ff1681526020018473ffffffffffffffffffffffffffffffffffffffff1673ffffffffffffffffffffffffffffffffffffffff16815260200180602001838152602001828103825284818151815260200191508051906020019080838360005b83811015612e8e578082015181840152602081019050612e73565b50505050905090810190601f168015612ebb5780820380516001836020036101000a031916815260200191505b509550505050505060405180910390a15050505050565b612eda6133a0565b612ee26133a0565b612eeb836130f4565b81600060038110612ef857fe5b602002019060ff16908160ff168152505080600060038110612f1657fe5b602002015181600160038110612f2857fe5b602002019060ff16908160ff16815250505b80600060038110612f4757fe5b602002015160ff1681600160038110612f5c57fe5b602002015160ff161415612f9657612f73836130f4565b81600160038110612f8057fe5b602002019060ff16908160ff1681525050612f3a565b80600160038110612fa357fe5b602002015181600260038110612fb557fe5b602002019060ff16908160ff16815250505b80600060038110612fd457fe5b602002015160ff1681600260038110612fe957fe5b602002015160ff16148061302457508060016003811061300557fe5b602002015160ff168160026003811061301a57fe5b602002015160ff16145b1561305557613032836130f4565b8160026003811061303f57fe5b602002019060ff16908160ff1681525050612fc7565b80915050919050565b60016002600084815260200190815260200160002060000160146101000a81548160ff0219169083151502179055156130f05760006002600084815260200190815260200160002060000160146101000a81548160ff021916908315150217905550806002600084815260200190815260200160002060040160016101000a81548160ff021916908360ff1602179055505b5050565b600080600a905060008160ff1660008081819054906101000a900460ff168092919060010191906101000a81548160ff021916908360ff16021790555060ff1643034085604051602001808381526020018273ffffffffffffffffffffffffffffffffffffffff1673ffffffffffffffffffffffffffffffffffffffff1660601b8152601401925050506040516020818303038152906040528051906020012060001c8161319e57fe5b06905060fa6000809054906101000a900460ff1660ff1611156131d75760008060006101000a81548160ff021916908360ff1602179055505b8092505050919050565b6131ea82612729565b1561325d576040517f08c379a000000000000000000000000000000000000000000000000000000000815260040180806020018281038252601b8152602001807f526573706f6e7365496e666f2063726561746564206265666f7265000000000081525060200191505060405180910390fd5b61326561345c565b81816000019073ffffffffffffffffffffffffffffffffffffffff16908173ffffffffffffffffffffffffffffffffffffffff168152505060018160200190151590811515815250506001816060019015159081151581525050806002600085815260200190815260200160002060008201518160000160006101000a81548173ffffffffffffffffffffffffffffffffffffffff021916908373ffffffffffffffffffffffffffffffffffffffff16021790555060208201518160000160146101000a81548160ff02191690831515021790555060408201518160030190805190602001906133569291906134a8565b5060608201518160040160006101000a81548160ff02191690831515021790555060808201518160040160016101000a81548160ff021916908360ff160217905550905050505050565b6040518060600160405280600390602082028038833980820191505090505090565b826003601f0160209004810192821561344b5791602002820160005b8382111561341c57835183826101000a81548160ff021916908360ff16021790555092602001926001016020816000010492830192600103026133de565b80156134495782816101000a81549060ff021916905560010160208160000104928301926001030261341c565b505b5090506134589190613532565b5090565b6040518060a00160405280600073ffffffffffffffffffffffffffffffffffffffff16815260200160001515815260200160608152602001600015158152602001600060ff1681525090565b828054828255906000526020600020908101928215613521579160200282015b828111156135205782518260006101000a81548173ffffffffffffffffffffffffffffffffffffffff021916908373ffffffffffffffffffffffffffffffffffffffff160217905550916020019190600101906134c8565b5b50905061352e9190613562565b5090565b61355f91905b8082111561355b57600081816101000a81549060ff021916905550600101613538565b5090565b90565b6135a291905b8082111561359e57600081816101000a81549073ffffffffffffffffffffffffffffffffffffffff021916905550600101613568565b5090565b9056fe4170706c69636174696f6e2773206574686572206973206e6f7420656e6f756768436f6e74726163742069732063757272656e746c79206e6f74206f7065726174696f6e616c47656e65726174656420726573706f6e7365206b657920646f6573206e6f74206d61746368206f7261636c652072657175657374496e64657820646f6573206e6f74206d61746368206f7261636c652072657175657374a165627a7a72305820e7b0163a07db90185ec1575bb05ecc49e99536b0af0a424977d0104be934fbe70029",
  "source": "pragma solidity ^0.5.8;\r\nimport \"./OracleManagement.sol\";\r\nimport \"./Operational.sol\";\r\n\r\nimport \"../node_modules/openzeppelin-solidity/contracts/math/SafeMath.sol\";\r\n\r\ncontract FlightSuretyApp is OracleManagement, Operational{\r\n    using SafeMath for uint256;\r\n    FlightSuretyDataInterface flightSuretyData;\r\n    address private contractOwner;\r\n    \r\n    uint8 private constant STATUS_CODE_UNKNOWN = 0;\r\n    uint8 private constant STATUS_CODE_ON_TIME = 10;\r\n    uint8 private constant STATUS_CODE_LATE_AIRLINE = 20;\r\n    uint8 private constant STATUS_CODE_LATE_WEATHER = 30;\r\n    uint8 private constant STATUS_CODE_LATE_TECHNICAL = 40;\r\n    uint8 private constant STATUS_CODE_LATE_OTHER = 50;\r\n\r\n    event FlightStatusInfo(address airline, string flight, uint256 timestamp, uint8 status);\r\n\r\n    constructor(address dataContractAddress) public{\r\n        flightSuretyData = FlightSuretyDataInterface(dataContractAddress);\r\n        contractOwner = msg.sender;\r\n    }\r\n    \r\n\r\n    function registerAirline(string memory _name) public{\r\n        flightSuretyData.registerAirline(_name, msg.sender);\r\n    }\r\n\r\n    function airlineVote(address _candidate) public{\r\n        flightSuretyData.vote(_candidate, msg.sender);\r\n    }\r\n\r\n    function airlineFund() public payable{\r\n        flightSuretyData.addFund(msg.sender, msg.value);\r\n    }\r\n\r\n    //function registerFlight(string memory _code, uint256 _timestamp) public view returns(address){\r\n    function registerFlight(string memory _code, uint256 _timestamp) public{\r\n        flightSuretyData.registerFlight(_code, _timestamp, msg.sender);\r\n        //return msg.sender;\r\n    }\r\n\r\n    function generateFlightKey(string memory _code, uint256 _timestamp) public returns(bytes32){\r\n        return flightSuretyData.generateFlightKey(_code, _timestamp);\r\n    }\r\n\r\n    function passenagerBuyInsurance(bytes32 _flightKey, uint256 _contractTimestamp, address _airline) public payable{\r\n        flightSuretyData.registerInsurance(msg.sender, _flightKey, _contractTimestamp, _airline, msg.value);\r\n        //registerInsurance(address _buyer, bytes32 _flightKey, uint256 _contractTimestamp, address _airline, uint256 _fee) external\r\n    }\r\n\r\n    //address _buyer, bytes32 _flightKey, uint256 _contractTimestamp\r\n    function generateInsuranceKey(address _buyer, bytes32 _flightKey, uint256 _contractTimestamp) public returns(bytes32){\r\n        return flightSuretyData.generateInsuranceKey(_buyer, _flightKey, _contractTimestamp);\r\n    }\r\n\r\n    function creditInsurance(bytes32 _insuranceKey) public{\r\n        flightSuretyData.creditInsurance(_insuranceKey);\r\n    }\r\n\r\n    function creditAllInsurances(bytes32 _flightKey) public{\r\n        bytes32[] memory _insurancesKeys = flightSuretyData.getInsuranceKeysList(_flightKey);\r\n        for(uint256 i=0; i<_insurancesKeys.length; i++){\r\n            creditInsurance(_insurancesKeys[i]);\r\n        }\r\n    }\r\n\r\n    function passenagerWithdrawCredits() public payable{\r\n        uint256 credits = flightSuretyData.queryBuyerCredit(msg.sender);\r\n        require(queryContractBalance()>credits, \"Application's ether is not enough\");\r\n        flightSuretyData.deductCredits(msg.sender);\r\n        msg.sender.transfer(credits);\r\n    }\r\n\r\n    function proceedFlightNoCreditCase(bytes32 flightKey) public{\r\n        bytes32[] memory _insurancesKeys = flightSuretyData.getInsuranceKeysList(flightKey);\r\n        for(uint256 i=0; i<_insurancesKeys.length; i++){\r\n            //flightSuretyData.setInsuranceWithdrawn(_insurancesKeys[i]);\r\n            flightSuretyData.setInsuranceExpired(_insurancesKeys[i]);\r\n        }\r\n    }\r\n\r\n    /**\r\n    * Handling oracles\r\n    */\r\n    function generateResponseKey(uint8 randomIndex, address airline, string memory flight,uint256 timestamp) public pure returns(bytes32){\r\n        return  keccak256(abi.encodePacked(randomIndex, airline, flight, timestamp));\r\n    }\r\n\r\n    function fetchFlightStatus(address airline, string memory flightCode, uint256 flightTimestamp) public requireIsOperational{\r\n        uint8 fetchIndex = getRandomIndex(msg.sender);\r\n        bytes32 reponseKey = generateResponseKey(fetchIndex, airline, flightCode, flightTimestamp);\r\n        allResponseKeys.push(reponseKey);\r\n        createResponseInfo(reponseKey, msg.sender);\r\n\r\n        emit OracleRequest(fetchIndex, airline, flightCode, flightTimestamp);\r\n    }\r\n\r\n    function checkAllIndexes(uint8 index, address requester) public view returns(bool){\r\n        return ((oracles[requester].indexes[0] == index) || (oracles[requester].indexes[1] == index) || (oracles[requester].indexes[2] == index));\r\n    }\r\n\r\n    modifier requireCorrectIndexes(uint8 index, address oracle){\r\n        require(checkAllIndexes(index, oracle), \"Index does not match oracle request\");\r\n        _;\r\n    }\r\n\r\n\r\n    // Called by oracle when a response is available to an outstanding request\r\n    // For the response to be accepted, there must be a pending request that is open\r\n    // and matches one of the three Indexes randomly assigned to the oracle at the\r\n    // time of registration (i.e. uninvited oracles are not welcome)\r\n    function submitOracleResponse(uint8 fetchIndex, address airline, string memory  flight, uint256 timestamp, uint8 statusCode) public requireIsOperational requireCorrectIndexes(fetchIndex, msg.sender){\r\n        //require(((oracles[msg.sender].indexes[0] == index) || (oracles[msg.sender].indexes[1] == index) || (oracles[msg.sender].indexes[2] == index)), \"Index does not match oracle request\");\r\n\r\n        //bytes32 key = keccak256(abi.encodePacked(index, airline, flight, timestamp)); \r\n        bytes32 key = generateResponseKey(fetchIndex, airline, flight, timestamp);\r\n        require(oracleResponses[key].isExist, \"Generated response key does not match oracle request\");\r\n\r\n        oracleResponses[key].responses[statusCode].push(msg.sender);\r\n\r\n        // Information isn't considered verified until at least MIN_RESPONSES\r\n        // oracles respond with the *** same *** information\r\n        emit OracleReport(airline, flight, timestamp, statusCode);\r\n        if ((oracleResponses[key].responses[statusCode].length >= MIN_RESPONSES)&&(isResponseOpen(key))) {\r\n            setResponseClose(key, statusCode);\r\n            emit FlightStatusInfo(airline, flight, timestamp, statusCode);\r\n\r\n            // Handle flight status as appropriate\r\n            processFlightStatus(flight, timestamp, statusCode);\r\n        }\r\n    }\r\n\r\n    /**\r\n    * @dev Called after oracle has updated flight status\r\n    *\r\n    */  \r\n    function processFlightStatus(string memory flight, uint256 timestamp, uint8 statusCode) public requireIsOperational{\r\n        //if (statusCode == STATUS_CODE_LATE_AIRLINE) creditInsurees(flight)\r\n        bytes32 flightKey = flightSuretyData.generateFlightKey(flight, timestamp);\r\n        if (statusCode != STATUS_CODE_UNKNOWN) {\r\n            if (statusCode == STATUS_CODE_LATE_AIRLINE){\r\n                setFlightLateAirline(flightKey);\r\n                creditAllInsurances(flightKey);\r\n            } else {\r\n                proceedFlightNoCreditCase(flightKey);\r\n                if (statusCode == STATUS_CODE_ON_TIME) {\r\n                    setFlightOnTime(flightKey);\r\n                } else {\r\n                    setFlightLateNotAirline(flightKey);\r\n                }\r\n            }\r\n        }\r\n    }\r\n\r\n    function queryContractBalance() public view returns(uint256){\r\n        return address(this).balance;\r\n    }\r\n\r\n    function setFlightOnTime(bytes32 flightKey) public{\r\n        flightSuretyData.setFlightOnTime(flightKey);\r\n    }\r\n\r\n    function setFlightLateAirline(bytes32 flightKey) public{\r\n        flightSuretyData.setFlightLateAirline(flightKey);\r\n    }\r\n\r\n    function setFlightLateNotAirline(bytes32 flightKey) public{\r\n        flightSuretyData.setFlightLateNotAirline(flightKey);\r\n    }\r\n}\r\n\r\ncontract FlightSuretyDataInterface{\r\n    function registerAirline(string calldata _name, address _airline) external;\r\n    function vote(address _candidate, address _voter) external;\r\n    function couldFund(address _candidate) external returns(bool);\r\n    function addFund(address _airline, uint256 _fund) external;\r\n    function registerFlight(string calldata _code, uint256 _timestamp, address _airline) external;\r\n    function registerInsurance(address _buyer, bytes32 _flightKey, uint256 _contractTimestamp, address _airline, uint256 _fee) external;\r\n    function creditInsurance(bytes32 _insuranceKey) external returns(uint256);\r\n    function deductInsurance(bytes32 _insuranceKey, address _airline) external returns(uint256);\r\n    function queryInsuranceBuyer(bytes32 _insuranceKey) external returns(address);\r\n    function generateFlightKey(string calldata flightCode, uint256 timestamp) external returns(bytes32);\r\n    function generateInsuranceKey(address _buyer, bytes32 _flightKey, uint256 _contractTimestamp) external returns(bytes32);\r\n    function getInsuranceKeysList(bytes32 flightKey) external returns(bytes32[] memory);\r\n    function setInsuranceWithdrawn(bytes32 insuranceKey) external;\r\n    function setInsuranceExpired(bytes32 insuranceKey) external;\r\n    function queryBuyerCredit(address _buyer) external returns(uint256);\r\n    function deductCredits(address _buyer) external;\r\n    function setFlightOnTime(bytes32 _flightID) external;\r\n    function setFlightLateAirline(bytes32 _flightID) external;\r\n    function setFlightLateNotAirline(bytes32 _flightID) external; \r\n}",
  "sourcePath": "C:/Users/andrewchan88/Documents/Coding/udacity/Blockchain/PartB/homework/project7_es_rm/contracts/FlightSuretyApp.sol",
  "compiler": {
    "name": "solc",
    "version": "0.5.8+commit.23d335f2.Emscripten.clang"
  },
  "schemaVersion": "3.0.13",
  "updatedAt": "2019-10-01T04:55:13.322Z",
  "devdoc": {
    "methods": {
      "isOperational()": {
        "details": "Modifier that requires the \"operational\" boolean variable to be \"true\"\r     This is used on all state changing functions to pause the contract in \r     the event there is an issue that needs to be fixed\r"
      },
      "processFlightStatus(string,uint256,uint8)": {
        "details": "Called after oracle has updated flight status\r     "
      }
    }
  },
  "userdoc": {
    "methods": {
      "generateResponseKey(uint8,address,string,uint256)": {
        "notice": "Handling oracles\r"
      }
    }
  }
}