{
  "contractName": "FlightData",
  "abi": [
    {
      "anonymous": false,
      "inputs": [
        {
          "indexed": false,
          "name": "flightCode",
          "type": "string"
        },
        {
          "indexed": false,
          "name": "deparTimestamp",
          "type": "uint256"
        },
        {
          "indexed": false,
          "name": "airline",
          "type": "address"
        },
        {
          "indexed": false,
          "name": "flightKey",
          "type": "bytes32"
        }
      ],
      "name": "FlightAdded",
      "type": "event"
    },
    {
      "anonymous": false,
      "inputs": [
        {
          "indexed": false,
          "name": "flightCode",
          "type": "string"
        },
        {
          "indexed": false,
          "name": "deparTimestamp",
          "type": "uint256"
        },
        {
          "indexed": false,
          "name": "airline",
          "type": "address"
        },
        {
          "indexed": false,
          "name": "flightKey",
          "type": "bytes32"
        },
        {
          "indexed": false,
          "name": "state",
          "type": "uint8"
        }
      ],
      "name": "FlightArrival",
      "type": "event"
    },
    {
      "constant": true,
      "inputs": [
        {
          "name": "_code",
          "type": "string"
        },
        {
          "name": "_timestamp",
          "type": "uint256"
        }
      ],
      "name": "generateFlightKey",
      "outputs": [
        {
          "name": "",
          "type": "bytes32"
        }
      ],
      "payable": false,
      "stateMutability": "pure",
      "type": "function"
    },
    {
      "constant": true,
      "inputs": [
        {
          "name": "_id",
          "type": "bytes32"
        }
      ],
      "name": "isFlightExist",
      "outputs": [
        {
          "name": "",
          "type": "bool"
        }
      ],
      "payable": false,
      "stateMutability": "view",
      "type": "function"
    },
    {
      "constant": true,
      "inputs": [
        {
          "name": "_id",
          "type": "bytes32"
        }
      ],
      "name": "isFlightRegistered",
      "outputs": [
        {
          "name": "",
          "type": "bool"
        }
      ],
      "payable": false,
      "stateMutability": "view",
      "type": "function"
    },
    {
      "constant": true,
      "inputs": [
        {
          "name": "_flightKey",
          "type": "bytes32"
        },
        {
          "name": "_insuranceKey",
          "type": "bytes32"
        }
      ],
      "name": "isFlightHasThisInsuranceKey",
      "outputs": [
        {
          "name": "",
          "type": "bool"
        }
      ],
      "payable": false,
      "stateMutability": "view",
      "type": "function"
    },
    {
      "constant": true,
      "inputs": [
        {
          "name": "_airline",
          "type": "address"
        },
        {
          "name": "_flightKey",
          "type": "bytes32"
        }
      ],
      "name": "isFlightOwner",
      "outputs": [
        {
          "name": "",
          "type": "bool"
        }
      ],
      "payable": false,
      "stateMutability": "view",
      "type": "function"
    },
    {
      "constant": true,
      "inputs": [
        {
          "name": "_flightID",
          "type": "bytes32"
        }
      ],
      "name": "isFlightLateAirline",
      "outputs": [
        {
          "name": "",
          "type": "bool"
        }
      ],
      "payable": false,
      "stateMutability": "view",
      "type": "function"
    },
    {
      "constant": false,
      "inputs": [
        {
          "name": "_flightKey",
          "type": "bytes32"
        },
        {
          "name": "_insuranceKey",
          "type": "bytes32"
        }
      ],
      "name": "addInsuranceKey",
      "outputs": [],
      "payable": false,
      "stateMutability": "nonpayable",
      "type": "function"
    },
    {
      "constant": false,
      "inputs": [
        {
          "name": "_flightID",
          "type": "bytes32"
        }
      ],
      "name": "setFlightOnTime",
      "outputs": [],
      "payable": false,
      "stateMutability": "nonpayable",
      "type": "function"
    },
    {
      "constant": false,
      "inputs": [
        {
          "name": "_flightID",
          "type": "bytes32"
        }
      ],
      "name": "setFlightLateAirline",
      "outputs": [],
      "payable": false,
      "stateMutability": "nonpayable",
      "type": "function"
    },
    {
      "constant": false,
      "inputs": [
        {
          "name": "_flightID",
          "type": "bytes32"
        }
      ],
      "name": "setFlightLateNotAirline",
      "outputs": [],
      "payable": false,
      "stateMutability": "nonpayable",
      "type": "function"
    },
    {
      "constant": true,
      "inputs": [
        {
          "name": "_flightID",
          "type": "bytes32"
        }
      ],
      "name": "queryFlightInfo",
      "outputs": [
        {
          "name": "flightKey",
          "type": "bytes32"
        },
        {
          "name": "code",
          "type": "string"
        },
        {
          "name": "airline",
          "type": "address"
        },
        {
          "name": "timestamp",
          "type": "uint256"
        },
        {
          "name": "status",
          "type": "uint8"
        }
      ],
      "payable": false,
      "stateMutability": "view",
      "type": "function"
    },
    {
      "constant": true,
      "inputs": [
        {
          "name": "_flightID",
          "type": "bytes32"
        }
      ],
      "name": "getInsuranceKeysList",
      "outputs": [
        {
          "name": "",
          "type": "bytes32[]"
        }
      ],
      "payable": false,
      "stateMutability": "view",
      "type": "function"
    },
    {
      "constant": true,
      "inputs": [],
      "name": "getAllFlightKeys",
      "outputs": [
        {
          "name": "",
          "type": "bytes32[]"
        }
      ],
      "payable": false,
      "stateMutability": "view",
      "type": "function"
    },
    {
      "constant": true,
      "inputs": [
        {
          "name": "_flightID",
          "type": "bytes32"
        }
      ],
      "name": "getNumberOfInsurance",
      "outputs": [
        {
          "name": "",
          "type": "uint256"
        }
      ],
      "payable": false,
      "stateMutability": "view",
      "type": "function"
    }
  ],
  "bytecode": "0x608060405234801561001057600080fd5b5061158a806100206000396000f3fe608060405234801561001057600080fd5b50600436106100ea5760003560e01c80637508ec201161008c578063c77eb5a211610066578063c77eb5a214610494578063e7e4ff71146104c2578063f2c6d0b2146105bf578063fc00b286146105ed576100ea565b80637508ec201461035b578063849365a1146103ab578063b3e70c3114610411576100ea565b806345e2748d116100c857806345e2748d146101af57806358ac36a3146101dd5780635aa0c5bb14610223578063637a66df14610282576100ea565b80630f08f655146100ef578063242f83e81461012757806343ba1e3c1461016d575b600080fd5b6101256004803603604081101561010557600080fd5b810190808035906020019092919080359060200190929190505050610633565b005b6101536004803603602081101561013d57600080fd5b81019080803590602001909291905050506107ee565b604051808215151515815260200191505060405180910390f35b6101996004803603602081101561018357600080fd5b810190808035906020019092919050505061081a565b6040518082815260200191505060405180910390f35b6101db600480360360208110156101c557600080fd5b81019080803590602001909291905050506108b9565b005b610209600480360360208110156101f357600080fd5b8101908080359060200190929190505050610ae6565b604051808215151515815260200191505060405180910390f35b61022b610b2a565b6040518080602001828103825283818151815260200191508051906020019060200280838360005b8381101561026e578082015181840152602081019050610253565b505050509050019250505060405180910390f35b6103456004803603604081101561029857600080fd5b81019080803590602001906401000000008111156102b557600080fd5b8201836020820111156102c757600080fd5b803590602001918460018302840111640100000000831117156102e957600080fd5b91908080601f016020809104026020016040519081016040528093929190818152602001838380828437600081840152601f19601f82011690508083019250505050505050919291929080359060200190929190505050610b82565b6040518082815260200191505060405180910390f35b6103916004803603604081101561037157600080fd5b810190808035906020019092919080359060200190929190505050610c06565b604051808215151515815260200191505060405180910390f35b6103f7600480360360408110156103c157600080fd5b81019080803573ffffffffffffffffffffffffffffffffffffffff16906020019092919080359060200190929190505050610cc1565b604051808215151515815260200191505060405180910390f35b61043d6004803603602081101561042757600080fd5b8101908080359060200190929190505050610dac565b6040518080602001828103825283818151815260200191508051906020019060200280838360005b83811015610480578082015181840152602081019050610465565b505050509050019250505060405180910390f35b6104c0600480360360208110156104aa57600080fd5b8101908080359060200190929190505050610e96565b005b6104ee600480360360208110156104d857600080fd5b81019080803590602001909291905050506110c3565b60405180868152602001806020018573ffffffffffffffffffffffffffffffffffffffff1673ffffffffffffffffffffffffffffffffffffffff16815260200184815260200183600381111561054057fe5b60ff168152602001828103825286818151815260200191508051906020019080838360005b83811015610580578082015181840152602081019050610565565b50505050905090810190601f1680156105ad5780820380516001836020036101000a031916815260200191505b50965050505050505060405180910390f35b6105eb600480360360208110156105d557600080fd5b81019080803590602001909291905050506111fd565b005b6106196004803603602081101561060357600080fd5b81019080803590602001909291905050506114a7565b604051808215151515815260200191505060405180910390f35b61063c826107ee565b6106ae576040517f08c379a00000000000000000000000000000000000000000000000000000000081526004018080602001828103825260198152602001807f54686520666c6967687420646f6573206e6f742065786973740000000000000081525060200191505060405180910390fd5b6106b782610ae6565b61070c576040517f08c379a00000000000000000000000000000000000000000000000000000000081526004018080602001828103825260278152602001806114ed6027913960400191505060405180910390fd5b6107168282610c06565b1561076c576040517f08c379a00000000000000000000000000000000000000000000000000000000081526004018080602001828103825260288152602001806115376028913960400191505060405180910390fd5b6001600080848152602001908152602001600020600401600083815260200190815260200160002060006101000a81548160ff0219169083151502179055506000808381526020019081526020016000206003018190806001815401808255809150509060018203906000526020600020016000909192909190915055505050565b600080600083815260200190815260200160002060050160019054906101000a900460ff169050919050565b600081610826816107ee565b610898576040517f08c379a00000000000000000000000000000000000000000000000000000000081526004018080602001828103825260158152602001807f466c6967687420646f6573206e6f74206578697374000000000000000000000081525060200191505060405180910390fd5b60008084815260200190815260200160002060030180549050915050919050565b806108c381610ae6565b610918576040517f08c379a00000000000000000000000000000000000000000000000000000000081526004018080602001828103825260238152602001806115146023913960400191505060405180910390fd5b600260008084815260200190815260200160002060050160006101000a81548160ff0219169083600381111561094a57fe5b02179055507f46692d6d97cca5f30535d5452b425e85c40c7f0ef908efef4ab92b4d44e4f4776000808481526020019081526020016000206000016000808581526020019081526020016000206001015460008086815260200190815260200160002060020160009054906101000a900473ffffffffffffffffffffffffffffffffffffffff168560008088815260200190815260200160002060050160009054906101000a900460ff1660405180806020018681526020018573ffffffffffffffffffffffffffffffffffffffff1673ffffffffffffffffffffffffffffffffffffffff168152602001848152602001836003811115610a4757fe5b60ff168152602001828103825287818154600181600116156101000203166002900481526020019150805460018160011615610100020316600290048015610ad05780601f10610aa557610100808354040283529160200191610ad0565b820191906000526020600020905b815481529060010190602001808311610ab357829003601f168201915b5050965050505050505060405180910390a15050565b6000806003811115610af457fe5b60008084815260200190815260200160002060050160009054906101000a900460ff166003811115610b2257fe5b149050919050565b60606001805480602002602001604051908101604052809291908181526020018280548015610b7857602002820191906000526020600020905b815481526020019060010190808311610b64575b5050505050905090565b600082826040516020018083805190602001908083835b60208310610bbc5780518252602082019150602081019050602083039250610b99565b6001836020036101000a0380198251168184511680821785525050505050509050018281526020019250505060405160208183030381529060405280519060200120905092915050565b600082610c12816107ee565b610c84576040517f08c379a00000000000000000000000000000000000000000000000000000000081526004018080602001828103825260158152602001807f466c6967687420646f6573206e6f74206578697374000000000000000000000081525060200191505060405180910390fd5b600080858152602001908152602001600020600401600084815260200190815260200160002060009054906101000a900460ff1691505092915050565b600081610ccd816107ee565b610d3f576040517f08c379a00000000000000000000000000000000000000000000000000000000081526004018080602001828103825260158152602001807f466c6967687420646f6573206e6f74206578697374000000000000000000000081525060200191505060405180910390fd5b8373ffffffffffffffffffffffffffffffffffffffff1660008085815260200190815260200160002060020160009054906101000a900473ffffffffffffffffffffffffffffffffffffffff1673ffffffffffffffffffffffffffffffffffffffff161491505092915050565b606081610db8816107ee565b610e2a576040517f08c379a00000000000000000000000000000000000000000000000000000000081526004018080602001828103825260158152602001807f466c6967687420646f6573206e6f74206578697374000000000000000000000081525060200191505060405180910390fd5b600080848152602001908152602001600020600301805480602002602001604051908101604052809291908181526020018280548015610e8957602002820191906000526020600020905b815481526020019060010190808311610e75575b5050505050915050919050565b80610ea081610ae6565b610ef5576040517f08c379a00000000000000000000000000000000000000000000000000000000081526004018080602001828103825260238152602001806115146023913960400191505060405180910390fd5b600360008084815260200190815260200160002060050160006101000a81548160ff02191690836003811115610f2757fe5b02179055507f46692d6d97cca5f30535d5452b425e85c40c7f0ef908efef4ab92b4d44e4f4776000808481526020019081526020016000206000016000808581526020019081526020016000206001015460008086815260200190815260200160002060020160009054906101000a900473ffffffffffffffffffffffffffffffffffffffff168560008088815260200190815260200160002060050160009054906101000a900460ff1660405180806020018681526020018573ffffffffffffffffffffffffffffffffffffffff1673ffffffffffffffffffffffffffffffffffffffff16815260200184815260200183600381111561102457fe5b60ff1681526020018281038252878181546001816001161561010002031660029004815260200191508054600181600116156101000203166002900480156110ad5780601f10611082576101008083540402835291602001916110ad565b820191906000526020600020905b81548152906001019060200180831161109057829003601f168201915b5050965050505050505060405180910390a15050565b6000606060008060008060008781526020019081526020016000206000018054600181600116156101000203166002900480601f0160208091040260200160405190810160405280929190818152602001828054600181600116156101000203166002900480156111755780601f1061114a57610100808354040283529160200191611175565b820191906000526020600020905b81548152906001019060200180831161115857829003601f168201915b5050505050935060008087815260200190815260200160002060020160009054906101000a900473ffffffffffffffffffffffffffffffffffffffff16925060008087815260200190815260200160002060010154915060008087815260200190815260200160002060050160009054906101000a900460ff16905085945091939590929450565b8061120781610ae6565b61125c576040517f08c379a00000000000000000000000000000000000000000000000000000000081526004018080602001828103825260238152602001806115146023913960400191505060405180910390fd5b81611266816107ee565b6112d8576040517f08c379a00000000000000000000000000000000000000000000000000000000081526004018080602001828103825260158152602001807f466c6967687420646f6573206e6f74206578697374000000000000000000000081525060200191505060405180910390fd5b600160008085815260200190815260200160002060050160006101000a81548160ff0219169083600381111561130a57fe5b02179055507f46692d6d97cca5f30535d5452b425e85c40c7f0ef908efef4ab92b4d44e4f4776000808581526020019081526020016000206000016000808681526020019081526020016000206001015460008087815260200190815260200160002060020160009054906101000a900473ffffffffffffffffffffffffffffffffffffffff168660008089815260200190815260200160002060050160009054906101000a900460ff1660405180806020018681526020018573ffffffffffffffffffffffffffffffffffffffff1673ffffffffffffffffffffffffffffffffffffffff16815260200184815260200183600381111561140757fe5b60ff1681526020018281038252878181546001816001161561010002031660029004815260200191508054600181600116156101000203166002900480156114905780601f1061146557610100808354040283529160200191611490565b820191906000526020600020905b81548152906001019060200180831161147357829003601f168201915b5050965050505050505060405180910390a1505050565b6000600260038111156114b657fe5b60008084815260200190815260200160002060050160009054906101000a900460ff1660038111156114e457fe5b14905091905056fe54686520666c69676874206d75737420626520696e207265676973746572656420737461747573466c69676874206d75737420626520696e20526567697374657265642073746174757354686520666c696768742068617320616c726561647920676f742074686520696e737572616e6365a165627a7a723058208bb8384dd624460a9dc1bd34abc32736824eb5dfa117f0c45bca0a3e2dd80f750029",
  "source": "pragma solidity ^0.5.8;\r\n\r\nimport \"../node_modules/openzeppelin-solidity/contracts/math/SafeMath.sol\";\r\n\r\ncontract FlightData{\r\n    using SafeMath for uint256;\r\n    uint256 constant MIN_FUND = 10 ether;\r\n\r\n    struct Flight{\r\n        string code;\r\n        uint256 timestamp;\r\n        address airline;\r\n        bytes32[] insuranceKeysList;\r\n        mapping(bytes32=>bool) insuranceKeys;\r\n        FlightStatus status;\r\n        bool isExist;\r\n    }\r\n    enum FlightStatus{Registered, OnTime, LateAirline, LateNotAirline}\r\n    mapping(bytes32=>Flight) flights;//code+departureTimestamp is the key\r\n    bytes32[] allFlightKeys;\r\n\r\n    event FlightAdded(string flightCode, uint256 deparTimestamp, address airline, bytes32 flightKey);\r\n    //event InsuranceAdded(string flightCode, uint256 deparTimestamp, address airline, bytes32 insuranceKey);\r\n    event FlightArrival(string flightCode, uint256 deparTimestamp, address airline, bytes32 flightKey, FlightStatus state);\r\n    \r\n    // the key for extracting flight data\r\n    function generateFlightKey(string memory _code, uint256 _timestamp) public pure returns (bytes32){\r\n        return keccak256(abi.encodePacked(_code, _timestamp));\r\n    }\r\n    /**\r\n    functions for checking flight condition and modifiers\r\n     */\r\n    function isFlightExist(bytes32 _id) public view returns (bool){\r\n        return flights[_id].isExist;\r\n    }\r\n\r\n    modifier requireFlightExist(bytes32 _id) {\r\n        require(isFlightExist(_id), \"Flight does not exist\");\r\n        _;\r\n    }\r\n\r\n    modifier requireFlightNotExist(bytes32 _id){\r\n        require(isFlightExist(_id), \"Flight must not register\");\r\n        _;\r\n    }\r\n\r\n    function isFlightRegistered(bytes32 _id) public view returns (bool){\r\n        return flights[_id].status == FlightStatus.Registered;\r\n    }\r\n\r\n    modifier requireFlightRegistered(bytes32 _id) {\r\n        require(isFlightRegistered(_id), \"Flight must be in Registered status\");\r\n        _;\r\n    }\r\n\r\n    function isFlightHasThisInsuranceKey(bytes32 _flightKey,bytes32 _insuranceKey) public view requireFlightExist(_flightKey) returns(bool){\r\n        return flights[_flightKey].insuranceKeys[_insuranceKey];\r\n    }\r\n    \r\n\r\n   function isFlightOwner(address _airline, bytes32 _flightKey) public view requireFlightExist(_flightKey) returns(bool){\r\n       return flights[_flightKey].airline == _airline;\r\n   }\r\n   \r\n   modifier requireFlightOwner(address _airline, bytes32 _flightKey){\r\n       require(isFlightOwner(_airline,_flightKey), \"Airline must be owner of flight\");\r\n       _;\r\n   }\r\n\r\n   function isFlightLateAirline(bytes32 _flightID) public view returns(bool){\r\n       return flights[_flightID].status == FlightStatus.LateAirline;\r\n   }\r\n\r\n   modifier requireFlightLateAirline(bytes32 _flightID){\r\n       isFlightLateAirline(_flightID);\r\n       _;\r\n   }\r\n\r\n    /**\r\n    functions for adding flight and appening insurance keys to flight\r\n     */\r\n    \r\n    function addFlight(string memory _code, uint256 _timestamp, address _airline) internal{\r\n        bytes32 flightKey = generateFlightKey(_code, _timestamp);\r\n        require(!isFlightExist(flightKey), \"Flight has been registered before\");\r\n        bytes32[] memory emptyList;\r\n        Flight memory flight;\r\n        flight.code = _code;\r\n        flight.airline = _airline;\r\n        flight.timestamp = _timestamp;\r\n        flight.status = FlightStatus.Registered;\r\n        flight.isExist = true;\r\n        flight.insuranceKeysList = emptyList;\r\n        flights[flightKey] = flight;\r\n        allFlightKeys.push(flightKey);\r\n        emit FlightAdded(_code, _timestamp, _airline, flightKey);\r\n    }\r\n    \r\n    function addInsuranceKey(bytes32 _flightKey,bytes32 _insuranceKey) public {\r\n        require(isFlightExist(_flightKey), \"The flight does not exist\");\r\n        require(isFlightRegistered(_flightKey), \"The flight must be in registered status\");\r\n        require(!isFlightHasThisInsuranceKey(_flightKey, _insuranceKey), \"The flight has already got the insurance\");\r\n        flights[_flightKey].insuranceKeys[_insuranceKey] = true;\r\n        flights[_flightKey].insuranceKeysList.push(_insuranceKey);\r\n    }\r\n\r\n    /**\r\n    functions for setting flight status\r\n     */\r\n    function setFlightOnTime(bytes32 _flightID) public requireFlightRegistered(_flightID) requireFlightExist(_flightID){\r\n       flights[_flightID].status = FlightStatus.OnTime;\r\n       emit FlightArrival(flights[_flightID].code,\r\n        flights[_flightID].timestamp,\r\n        flights[_flightID].airline,\r\n        _flightID,flights[_flightID].status);\r\n   }\r\n\r\n   function setFlightLateAirline(bytes32 _flightID) public requireFlightRegistered(_flightID){\r\n       flights[_flightID].status = FlightStatus.LateAirline;\r\n       emit FlightArrival(flights[_flightID].code,\r\n        flights[_flightID].timestamp,\r\n        flights[_flightID].airline,\r\n        _flightID,flights[_flightID].status);\r\n   }\r\n\r\n   function setFlightLateNotAirline(bytes32 _flightID) public requireFlightRegistered(_flightID){\r\n       flights[_flightID].status = FlightStatus.LateNotAirline;\r\n       emit FlightArrival(flights[_flightID].code,\r\n        flights[_flightID].timestamp,\r\n        flights[_flightID].airline,\r\n        _flightID,flights[_flightID].status);\r\n   }\r\n\r\n   /**\r\n   functions for querying flights status\r\n    */\r\n    \r\n   \r\n   function queryFlightInfo(bytes32 _flightID) public view \r\n   returns(bytes32 flightKey, string memory code, address airline, uint256 timestamp, FlightStatus status){\r\n       code = flights[_flightID].code;\r\n       airline = flights[_flightID].airline;\r\n       timestamp = flights[_flightID].timestamp;\r\n       status = flights[_flightID].status;\r\n       flightKey = _flightID;\r\n   }\r\n   \r\n   function getInsuranceKeysList(bytes32 _flightID) public view requireFlightExist(_flightID) returns(bytes32[] memory){\r\n       return flights[_flightID].insuranceKeysList;\r\n   }\r\n\r\n    function getAllFlightKeys() public view returns(bytes32[] memory){\r\n        return allFlightKeys;\r\n    }\r\n\r\n   function getNumberOfInsurance(bytes32 _flightID) public view requireFlightExist(_flightID) returns(uint256){\r\n       return flights[_flightID].insuranceKeysList.length;\r\n   }\r\n}",
  "sourcePath": "C:\\Users\\andrewchan88\\Documents\\Coding\\udacity\\Blockchain\\PartB\\homework\\project7_es_rm\\contracts\\FlightData.sol",
  "compiler": {
    "name": "solc",
    "version": "0.5.8+commit.23d335f2.Emscripten.clang"
  },
  "schemaVersion": "3.0.13",
  "updatedAt": "2019-10-12T07:44:54.821Z",
  "devdoc": {
    "methods": {}
  },
  "userdoc": {
    "methods": {
      "isFlightExist(bytes32)": {
        "notice": "functions for checking flight condition and modifiers\r"
      },
      "queryFlightInfo(bytes32)": {
        "notice": "functions for querying flights status\r"
      },
      "setFlightOnTime(bytes32)": {
        "notice": "functions for setting flight status\r"
      }
    }
  }
}