{
  "contractName": "FlightSuretyData",
  "abi": [
    {
      "constant": true,
      "inputs": [
        {
          "name": "_testingAddress",
          "type": "address"
        }
      ],
      "name": "isAirlineRegistered",
      "outputs": [
        {
          "name": "",
          "type": "bool"
        }
      ],
      "payable": false,
      "stateMutability": "view",
      "type": "function"
    },
    {
      "constant": false,
      "inputs": [
        {
          "name": "_buyer",
          "type": "address"
        }
      ],
      "name": "deductCredits",
      "outputs": [],
      "payable": false,
      "stateMutability": "nonpayable",
      "type": "function"
    },
    {
      "constant": false,
      "inputs": [
        {
          "name": "_flightKey",
          "type": "bytes32"
        },
        {
          "name": "_insuranceKey",
          "type": "bytes32"
        }
      ],
      "name": "addInsuranceKey",
      "outputs": [],
      "payable": false,
      "stateMutability": "nonpayable",
      "type": "function"
    },
    {
      "constant": false,
      "inputs": [
        {
          "name": "mode",
          "type": "bool"
        }
      ],
      "name": "setOperatingStatus",
      "outputs": [],
      "payable": false,
      "stateMutability": "nonpayable",
      "type": "function"
    },
    {
      "constant": false,
      "inputs": [
        {
          "name": "_candidate",
          "type": "address"
        }
      ],
      "name": "addAuthorizedCaller",
      "outputs": [],
      "payable": false,
      "stateMutability": "nonpayable",
      "type": "function"
    },
    {
      "constant": true,
      "inputs": [],
      "name": "queryRegisteredAirlinesCount",
      "outputs": [
        {
          "name": "",
          "type": "uint256"
        }
      ],
      "payable": false,
      "stateMutability": "view",
      "type": "function"
    },
    {
      "constant": true,
      "inputs": [
        {
          "name": "_id",
          "type": "bytes32"
        }
      ],
      "name": "isFlightExist",
      "outputs": [
        {
          "name": "",
          "type": "bool"
        }
      ],
      "payable": false,
      "stateMutability": "view",
      "type": "function"
    },
    {
      "constant": true,
      "inputs": [
        {
          "name": "_testingAddress",
          "type": "address"
        }
      ],
      "name": "couldFund",
      "outputs": [
        {
          "name": "",
          "type": "bool"
        }
      ],
      "payable": false,
      "stateMutability": "view",
      "type": "function"
    },
    {
      "constant": true,
      "inputs": [
        {
          "name": "_insuranceKey",
          "type": "bytes32"
        }
      ],
      "name": "queryInsuranceInfo",
      "outputs": [
        {
          "name": "buyer",
          "type": "address"
        },
        {
          "name": "flightKey",
          "type": "bytes32"
        },
        {
          "name": "airline",
          "type": "address"
        },
        {
          "name": "fee",
          "type": "uint256"
        },
        {
          "name": "credits",
          "type": "uint256"
        },
        {
          "name": "contractTimestamp",
          "type": "uint256"
        },
        {
          "name": "insuranceStatus",
          "type": "uint8"
        }
      ],
      "payable": false,
      "stateMutability": "view",
      "type": "function"
    },
    {
      "constant": true,
      "inputs": [
        {
          "name": "_buyer",
          "type": "address"
        }
      ],
      "name": "queryBuyerCredit",
      "outputs": [
        {
          "name": "",
          "type": "uint256"
        }
      ],
      "payable": false,
      "stateMutability": "view",
      "type": "function"
    },
    {
      "constant": true,
      "inputs": [
        {
          "name": "_flightID",
          "type": "bytes32"
        }
      ],
      "name": "getNumberOfInsurance",
      "outputs": [
        {
          "name": "",
          "type": "uint256"
        }
      ],
      "payable": false,
      "stateMutability": "view",
      "type": "function"
    },
    {
      "constant": true,
      "inputs": [],
      "name": "MIN_FUND",
      "outputs": [
        {
          "name": "",
          "type": "uint256"
        }
      ],
      "payable": false,
      "stateMutability": "view",
      "type": "function"
    },
    {
      "constant": true,
      "inputs": [],
      "name": "isFewAirlines",
      "outputs": [
        {
          "name": "",
          "type": "bool"
        }
      ],
      "payable": false,
      "stateMutability": "view",
      "type": "function"
    },
    {
      "constant": true,
      "inputs": [
        {
          "name": "_id",
          "type": "bytes32"
        }
      ],
      "name": "isFlightRegistered",
      "outputs": [
        {
          "name": "",
          "type": "bool"
        }
      ],
      "payable": false,
      "stateMutability": "view",
      "type": "function"
    },
    {
      "constant": true,
      "inputs": [
        {
          "name": "_candidate",
          "type": "address"
        }
      ],
      "name": "isAuthorizedCaller",
      "outputs": [
        {
          "name": "",
          "type": "bool"
        }
      ],
      "payable": false,
      "stateMutability": "view",
      "type": "function"
    },
    {
      "constant": true,
      "inputs": [],
      "name": "getAllFlightKeys",
      "outputs": [
        {
          "name": "",
          "type": "bytes32[]"
        }
      ],
      "payable": false,
      "stateMutability": "view",
      "type": "function"
    },
    {
      "constant": true,
      "inputs": [],
      "name": "queryAirlinesCount",
      "outputs": [
        {
          "name": "",
          "type": "uint256"
        }
      ],
      "payable": false,
      "stateMutability": "view",
      "type": "function"
    },
    {
      "constant": true,
      "inputs": [
        {
          "name": "_candidate",
          "type": "address"
        }
      ],
      "name": "checkVotes",
      "outputs": [
        {
          "name": "",
          "type": "uint256"
        }
      ],
      "payable": false,
      "stateMutability": "view",
      "type": "function"
    },
    {
      "constant": false,
      "inputs": [
        {
          "name": "_candidate",
          "type": "address"
        }
      ],
      "name": "addToRegisteredAirlines",
      "outputs": [],
      "payable": false,
      "stateMutability": "nonpayable",
      "type": "function"
    },
    {
      "constant": true,
      "inputs": [
        {
          "name": "_code",
          "type": "string"
        },
        {
          "name": "_timestamp",
          "type": "uint256"
        }
      ],
      "name": "generateFlightKey",
      "outputs": [
        {
          "name": "",
          "type": "bytes32"
        }
      ],
      "payable": false,
      "stateMutability": "pure",
      "type": "function"
    },
    {
      "constant": true,
      "inputs": [
        {
          "name": "_insuranceKey",
          "type": "bytes32"
        },
        {
          "name": "_candidate",
          "type": "address"
        }
      ],
      "name": "isBuyer",
      "outputs": [
        {
          "name": "",
          "type": "bool"
        }
      ],
      "payable": false,
      "stateMutability": "view",
      "type": "function"
    },
    {
      "constant": true,
      "inputs": [
        {
          "name": "_insuranceKey",
          "type": "bytes32"
        },
        {
          "name": "_candidate",
          "type": "address"
        }
      ],
      "name": "isAirline",
      "outputs": [
        {
          "name": "",
          "type": "bool"
        }
      ],
      "payable": false,
      "stateMutability": "view",
      "type": "function"
    },
    {
      "constant": true,
      "inputs": [
        {
          "name": "_testingAddress",
          "type": "address"
        }
      ],
      "name": "isAirlineEntered",
      "outputs": [
        {
          "name": "",
          "type": "bool"
        }
      ],
      "payable": false,
      "stateMutability": "view",
      "type": "function"
    },
    {
      "constant": true,
      "inputs": [
        {
          "name": "_candidate",
          "type": "address"
        }
      ],
      "name": "moreThanHalf",
      "outputs": [
        {
          "name": "",
          "type": "bool"
        }
      ],
      "payable": false,
      "stateMutability": "view",
      "type": "function"
    },
    {
      "constant": true,
      "inputs": [
        {
          "name": "_flightKey",
          "type": "bytes32"
        },
        {
          "name": "_insuranceKey",
          "type": "bytes32"
        }
      ],
      "name": "isFlightHasThisInsuranceKey",
      "outputs": [
        {
          "name": "",
          "type": "bool"
        }
      ],
      "payable": false,
      "stateMutability": "view",
      "type": "function"
    },
    {
      "constant": true,
      "inputs": [
        {
          "name": "_insuranceKey",
          "type": "bytes32"
        }
      ],
      "name": "isExist",
      "outputs": [
        {
          "name": "",
          "type": "bool"
        }
      ],
      "payable": false,
      "stateMutability": "view",
      "type": "function"
    },
    {
      "constant": true,
      "inputs": [
        {
          "name": "_airline",
          "type": "address"
        },
        {
          "name": "_flightKey",
          "type": "bytes32"
        }
      ],
      "name": "isFlightOwner",
      "outputs": [
        {
          "name": "",
          "type": "bool"
        }
      ],
      "payable": false,
      "stateMutability": "view",
      "type": "function"
    },
    {
      "constant": false,
      "inputs": [
        {
          "name": "_airline",
          "type": "address"
        },
        {
          "name": "_fund",
          "type": "uint256"
        }
      ],
      "name": "deductFund",
      "outputs": [],
      "payable": false,
      "stateMutability": "nonpayable",
      "type": "function"
    },
    {
      "constant": true,
      "inputs": [
        {
          "name": "_insuranceKey",
          "type": "bytes32"
        }
      ],
      "name": "queryInsuranceBuyer",
      "outputs": [
        {
          "name": "",
          "type": "address"
        }
      ],
      "payable": false,
      "stateMutability": "view",
      "type": "function"
    },
    {
      "constant": true,
      "inputs": [],
      "name": "getOwner",
      "outputs": [
        {
          "name": "",
          "type": "address"
        }
      ],
      "payable": false,
      "stateMutability": "view",
      "type": "function"
    },
    {
      "constant": true,
      "inputs": [
        {
          "name": "_candidate",
          "type": "address"
        }
      ],
      "name": "isAirlineFulfill",
      "outputs": [
        {
          "name": "",
          "type": "bool"
        }
      ],
      "payable": false,
      "stateMutability": "view",
      "type": "function"
    },
    {
      "constant": false,
      "inputs": [
        {
          "name": "_name",
          "type": "string"
        },
        {
          "name": "_airline",
          "type": "address"
        }
      ],
      "name": "addAirline",
      "outputs": [],
      "payable": false,
      "stateMutability": "nonpayable",
      "type": "function"
    },
    {
      "constant": true,
      "inputs": [
        {
          "name": "_airline",
          "type": "address"
        }
      ],
      "name": "isAirlineHasEnoughFund",
      "outputs": [
        {
          "name": "",
          "type": "bool"
        }
      ],
      "payable": false,
      "stateMutability": "view",
      "type": "function"
    },
    {
      "constant": true,
      "inputs": [
        {
          "name": "_flightID",
          "type": "bytes32"
        }
      ],
      "name": "getInsuranceKeysList",
      "outputs": [
        {
          "name": "",
          "type": "bytes32[]"
        }
      ],
      "payable": false,
      "stateMutability": "view",
      "type": "function"
    },
    {
      "constant": true,
      "inputs": [
        {
          "name": "_buyer",
          "type": "address"
        },
        {
          "name": "_flightKey",
          "type": "bytes32"
        },
        {
          "name": "_contractTimestamp",
          "type": "uint256"
        }
      ],
      "name": "generateInsuranceKey",
      "outputs": [
        {
          "name": "",
          "type": "bytes32"
        }
      ],
      "payable": false,
      "stateMutability": "pure",
      "type": "function"
    },
    {
      "constant": true,
      "inputs": [
        {
          "name": "_buyer",
          "type": "address"
        }
      ],
      "name": "isBuyerExist",
      "outputs": [
        {
          "name": "",
          "type": "bool"
        }
      ],
      "payable": false,
      "stateMutability": "view",
      "type": "function"
    },
    {
      "constant": true,
      "inputs": [
        {
          "name": "_insuranceKey",
          "type": "bytes32"
        }
      ],
      "name": "isActivated",
      "outputs": [
        {
          "name": "",
          "type": "bool"
        }
      ],
      "payable": false,
      "stateMutability": "view",
      "type": "function"
    },
    {
      "constant": true,
      "inputs": [
        {
          "name": "_airline",
          "type": "address"
        }
      ],
      "name": "queryFund",
      "outputs": [
        {
          "name": "",
          "type": "uint256"
        }
      ],
      "payable": false,
      "stateMutability": "view",
      "type": "function"
    },
    {
      "constant": true,
      "inputs": [],
      "name": "isOperational",
      "outputs": [
        {
          "name": "",
          "type": "bool"
        }
      ],
      "payable": false,
      "stateMutability": "view",
      "type": "function"
    },
    {
      "constant": false,
      "inputs": [
        {
          "name": "_buyer",
          "type": "address"
        },
        {
          "name": "_flightKey",
          "type": "bytes32"
        },
        {
          "name": "_contractTimestamp",
          "type": "uint256"
        },
        {
          "name": "_airline",
          "type": "address"
        },
        {
          "name": "_fee",
          "type": "uint256"
        }
      ],
      "name": "addInsurance",
      "outputs": [],
      "payable": false,
      "stateMutability": "nonpayable",
      "type": "function"
    },
    {
      "constant": false,
      "inputs": [
        {
          "name": "_airline",
          "type": "address"
        },
        {
          "name": "_fund",
          "type": "uint256"
        }
      ],
      "name": "addFund",
      "outputs": [],
      "payable": false,
      "stateMutability": "nonpayable",
      "type": "function"
    },
    {
      "constant": true,
      "inputs": [
        {
          "name": "_testingAddress",
          "type": "address"
        }
      ],
      "name": "isAirlineExist",
      "outputs": [
        {
          "name": "",
          "type": "bool"
        }
      ],
      "payable": false,
      "stateMutability": "view",
      "type": "function"
    },
    {
      "constant": true,
      "inputs": [
        {
          "name": "_flightID",
          "type": "bytes32"
        }
      ],
      "name": "queryFlightInfo",
      "outputs": [
        {
          "name": "code",
          "type": "string"
        },
        {
          "name": "airline",
          "type": "address"
        },
        {
          "name": "timestamp",
          "type": "uint256"
        },
        {
          "name": "status",
          "type": "uint8"
        }
      ],
      "payable": false,
      "stateMutability": "view",
      "type": "function"
    },
    {
      "constant": true,
      "inputs": [
        {
          "name": "_airline",
          "type": "address"
        }
      ],
      "name": "queryAirline",
      "outputs": [
        {
          "name": "name",
          "type": "string"
        },
        {
          "name": "status",
          "type": "uint8"
        },
        {
          "name": "votesCount",
          "type": "uint256"
        },
        {
          "name": "funds",
          "type": "uint256"
        }
      ],
      "payable": false,
      "stateMutability": "view",
      "type": "function"
    },
    {
      "constant": false,
      "inputs": [
        {
          "name": "_insuranceKey",
          "type": "bytes32"
        }
      ],
      "name": "creditInsurance",
      "outputs": [
        {
          "name": "credits",
          "type": "uint256"
        }
      ],
      "payable": false,
      "stateMutability": "nonpayable",
      "type": "function"
    },
    {
      "constant": true,
      "inputs": [
        {
          "name": "_testingAddress",
          "type": "address"
        }
      ],
      "name": "isAirlineFunded",
      "outputs": [
        {
          "name": "",
          "type": "bool"
        }
      ],
      "payable": false,
      "stateMutability": "view",
      "type": "function"
    },
    {
      "constant": true,
      "inputs": [
        {
          "name": "_insuranceKey",
          "type": "bytes32"
        }
      ],
      "name": "isCredited",
      "outputs": [
        {
          "name": "",
          "type": "bool"
        }
      ],
      "payable": false,
      "stateMutability": "view",
      "type": "function"
    },
    {
      "constant": true,
      "inputs": [
        {
          "name": "_flightID",
          "type": "bytes32"
        }
      ],
      "name": "isFlightLateAirline",
      "outputs": [
        {
          "name": "",
          "type": "bool"
        }
      ],
      "payable": false,
      "stateMutability": "view",
      "type": "function"
    },
    {
      "anonymous": false,
      "inputs": [
        {
          "indexed": false,
          "name": "flightCode",
          "type": "string"
        },
        {
          "indexed": false,
          "name": "deparTimestamp",
          "type": "uint256"
        },
        {
          "indexed": false,
          "name": "airline",
          "type": "address"
        },
        {
          "indexed": false,
          "name": "flightKey",
          "type": "bytes32"
        }
      ],
      "name": "FlightAdded",
      "type": "event"
    },
    {
      "anonymous": false,
      "inputs": [
        {
          "indexed": false,
          "name": "flightCode",
          "type": "string"
        },
        {
          "indexed": false,
          "name": "deparTimestamp",
          "type": "uint256"
        },
        {
          "indexed": false,
          "name": "airline",
          "type": "address"
        },
        {
          "indexed": false,
          "name": "flightKey",
          "type": "bytes32"
        },
        {
          "indexed": false,
          "name": "state",
          "type": "uint8"
        }
      ],
      "name": "FlightArrival",
      "type": "event"
    },
    {
      "anonymous": false,
      "inputs": [
        {
          "indexed": false,
          "name": "flightKey",
          "type": "bytes32"
        },
        {
          "indexed": false,
          "name": "insuranceKey",
          "type": "bytes32"
        },
        {
          "indexed": false,
          "name": "buyer",
          "type": "address"
        },
        {
          "indexed": false,
          "name": "fee",
          "type": "uint256"
        }
      ],
      "name": "BuyInsurance",
      "type": "event"
    },
    {
      "anonymous": false,
      "inputs": [
        {
          "indexed": false,
          "name": "flightKey",
          "type": "bytes32"
        },
        {
          "indexed": false,
          "name": "insuranceKey",
          "type": "bytes32"
        },
        {
          "indexed": false,
          "name": "buyer",
          "type": "address"
        },
        {
          "indexed": false,
          "name": "credits",
          "type": "uint256"
        }
      ],
      "name": "CreditInsurance",
      "type": "event"
    },
    {
      "anonymous": false,
      "inputs": [
        {
          "indexed": false,
          "name": "name",
          "type": "string"
        },
        {
          "indexed": false,
          "name": "airline",
          "type": "address"
        }
      ],
      "name": "AirlineEntered",
      "type": "event"
    },
    {
      "anonymous": false,
      "inputs": [
        {
          "indexed": false,
          "name": "name",
          "type": "string"
        },
        {
          "indexed": false,
          "name": "airline",
          "type": "address"
        }
      ],
      "name": "AirlinePendingVote",
      "type": "event"
    },
    {
      "anonymous": false,
      "inputs": [
        {
          "indexed": false,
          "name": "candidate",
          "type": "address"
        },
        {
          "indexed": false,
          "name": "voter",
          "type": "address"
        },
        {
          "indexed": false,
          "name": "votes",
          "type": "uint256"
        }
      ],
      "name": "AirlineVoted",
      "type": "event"
    },
    {
      "anonymous": false,
      "inputs": [
        {
          "indexed": false,
          "name": "name",
          "type": "string"
        },
        {
          "indexed": false,
          "name": "airline",
          "type": "address"
        }
      ],
      "name": "AirlineRegistered",
      "type": "event"
    },
    {
      "anonymous": false,
      "inputs": [
        {
          "indexed": false,
          "name": "name",
          "type": "string"
        },
        {
          "indexed": false,
          "name": "airline",
          "type": "address"
        },
        {
          "indexed": false,
          "name": "fund",
          "type": "uint256"
        }
      ],
      "name": "AirlineFunded",
      "type": "event"
    },
    {
      "constant": false,
      "inputs": [
        {
          "name": "_name",
          "type": "string"
        },
        {
          "name": "_airline",
          "type": "address"
        }
      ],
      "name": "registerAirline",
      "outputs": [],
      "payable": false,
      "stateMutability": "nonpayable",
      "type": "function"
    },
    {
      "constant": false,
      "inputs": [
        {
          "name": "_candidate",
          "type": "address"
        },
        {
          "name": "_voter",
          "type": "address"
        }
      ],
      "name": "vote",
      "outputs": [],
      "payable": false,
      "stateMutability": "nonpayable",
      "type": "function"
    },
    {
      "constant": false,
      "inputs": [
        {
          "name": "_code",
          "type": "string"
        },
        {
          "name": "_timestamp",
          "type": "uint256"
        },
        {
          "name": "_airline",
          "type": "address"
        }
      ],
      "name": "registerFlight",
      "outputs": [],
      "payable": false,
      "stateMutability": "nonpayable",
      "type": "function"
    },
    {
      "constant": false,
      "inputs": [
        {
          "name": "_buyer",
          "type": "address"
        },
        {
          "name": "_flightKey",
          "type": "bytes32"
        },
        {
          "name": "_contractTimestamp",
          "type": "uint256"
        },
        {
          "name": "_airline",
          "type": "address"
        },
        {
          "name": "_fee",
          "type": "uint256"
        }
      ],
      "name": "registerInsurance",
      "outputs": [],
      "payable": false,
      "stateMutability": "nonpayable",
      "type": "function"
    },
    {
      "constant": false,
      "inputs": [
        {
          "name": "flightKey",
          "type": "bytes32"
        }
      ],
      "name": "setFlightOnTime",
      "outputs": [],
      "payable": false,
      "stateMutability": "nonpayable",
      "type": "function"
    },
    {
      "constant": false,
      "inputs": [
        {
          "name": "flightKey",
          "type": "bytes32"
        }
      ],
      "name": "setFlightLateAirline",
      "outputs": [],
      "payable": false,
      "stateMutability": "nonpayable",
      "type": "function"
    },
    {
      "constant": false,
      "inputs": [
        {
          "name": "flightKey",
          "type": "bytes32"
        }
      ],
      "name": "setFlightLateNotAirline",
      "outputs": [],
      "payable": false,
      "stateMutability": "nonpayable",
      "type": "function"
    },
    {
      "constant": false,
      "inputs": [
        {
          "name": "insuranceKey",
          "type": "bytes32"
        }
      ],
      "name": "setInsuranceExpired",
      "outputs": [],
      "payable": false,
      "stateMutability": "nonpayable",
      "type": "function"
    },
    {
      "constant": false,
      "inputs": [
        {
          "name": "insuranceKey",
          "type": "bytes32"
        }
      ],
      "name": "setInsuranceCredited",
      "outputs": [],
      "payable": false,
      "stateMutability": "nonpayable",
      "type": "function"
    },
    {
      "constant": false,
      "inputs": [
        {
          "name": "insuranceKey",
          "type": "bytes32"
        }
      ],
      "name": "setInsuranceWithdrawn",
      "outputs": [],
      "payable": false,
      "stateMutability": "nonpayable",
      "type": "function"
    },
    {
      "constant": false,
      "inputs": [
        {
          "name": "flightKey",
          "type": "bytes32"
        }
      ],
      "name": "creditInsurees",
      "outputs": [],
      "payable": false,
      "stateMutability": "nonpayable",
      "type": "function"
    }
  ],
  "bytecode": "0x60806040526001600760146101000a81548160ff02191690831515021790555033600760006101000a81548173ffffffffffffffffffffffffffffffffffffffff021916908373ffffffffffffffffffffffffffffffffffffffff160217905550615f838061006f6000396000f3fe608060405234801561001057600080fd5b50600436106103995760003560e01c80637508ec20116101e9578063c77eb5a21161010f578063df00f5ea116100ad578063f2c6d0b21161007c578063f2c6d0b21461180c578063f53b6d651461183a578063fb933ebd14611896578063fc00b286146118dc57610399565b8063df00f5ea14611598578063e7e4ff71146115f4578063e9e2ea95146116ea578063ee06ce2b146117ca57610399565b8063cd905dff116100e9578063cd905dff14611478578063d0d6c8e11461149a578063d512c0611461151c578063d709f2a11461156a57610399565b8063c77eb5a2146113c4578063c9e4b0d3146113f2578063cc2f6eba1461144a57610399565b806392a0b6eb11610187578063b3e70c3111610156578063b3e70c3114611233578063b58c31be146112b6578063b884907314611322578063ba87af801461137e57610399565b806392a0b6eb146110725780639348916f146110ce578063aed6862b146110fc578063b3924810146111d757610399565b806388e4fe3f116101c357806388e4fe3f14610f3e57806389199e3714610f8c578063893d20e814610ffa57806389c6c14e1461104457610399565b80637508ec2014610e42578063762fee1814610e92578063849365a114610ed857610399565b806345e2748d116102ce5780635caea9cb1161026c57806365c152f71161023b57806365c152f714610c3f5780636db6f11214610d245780636f0fec4b14610d8a5780636f1fa7a814610de657610399565b80635caea9cb14610a645780635e913b2e14610abc578063637a66df14610b0057806363f045a514610bd957610399565b806358ac36a3116102a857806358ac36a31461094557806359d14b411461098b5780635aa0c5bb146109e75780635bcd59ae14610a4657610399565b806345e2748d146108d757806355b2bb0f1461090557806356f4fa1e1461092357610399565b80631afa74e51161033b57806334198f221161031557806334198f221461070f5780633d0277431461076b5780633d43020b1461083d57806343ba1e3c1461089557610399565b80631afa74e5146105e35780631dd7a3f614610647578063242f83e8146106c957610399565b80630f08f655116103775780630f08f65514610519578063110466ed1461055157806313a155ea146105815780631558ac86146105c557610399565b8063010c5c971461039e5780630d829250146103fa5780630e2c41291461043e575b600080fd5b6103e0600480360360208110156103b457600080fd5b81019080803573ffffffffffffffffffffffffffffffffffffffff169060200190929190505050611922565b604051808215151515815260200191505060405180910390f35b61043c6004803603602081101561041057600080fd5b81019080803573ffffffffffffffffffffffffffffffffffffffff169060200190929190505050611994565b005b6105176004803603604081101561045457600080fd5b810190808035906020019064010000000081111561047157600080fd5b82018360208201111561048357600080fd5b803590602001918460018302840111640100000000831117156104a557600080fd5b91908080601f016020809104026020016040519081016040528093929190818152602001838380828437600081840152601f19601f820116905080830192505050505050509192919290803573ffffffffffffffffffffffffffffffffffffffff169060200190929190505050611a5c565b005b61054f6004803603604081101561052f57600080fd5b810190808035906020019092919080359060200190929190505050611b6b565b005b61057f6004803603602081101561056757600080fd5b81019080803515159060200190929190505050611d28565b005b6105c36004803603602081101561059757600080fd5b81019080803573ffffffffffffffffffffffffffffffffffffffff169060200190929190505050611e08565b005b6105cd611f83565b6040518082815260200191505060405180910390f35b610645600480360360408110156105f957600080fd5b81019080803573ffffffffffffffffffffffffffffffffffffffff169060200190929190803573ffffffffffffffffffffffffffffffffffffffff169060200190929190505050611f90565b005b6106c7600480360360a081101561065d57600080fd5b81019080803573ffffffffffffffffffffffffffffffffffffffff1690602001909291908035906020019092919080359060200190929190803573ffffffffffffffffffffffffffffffffffffffff16906020019092919080359060200190929190505050612042565b005b6106f5600480360360208110156106df57600080fd5b810190808035906020019092919050505061212d565b604051808215151515815260200191505060405180910390f35b6107516004803603602081101561072557600080fd5b81019080803573ffffffffffffffffffffffffffffffffffffffff16906020019092919050505061215a565b604051808215151515815260200191505060405180910390f35b6107976004803603602081101561078157600080fd5b810190808035906020019092919050505061217c565b604051808873ffffffffffffffffffffffffffffffffffffffff1673ffffffffffffffffffffffffffffffffffffffff1681526020018781526020018673ffffffffffffffffffffffffffffffffffffffff1673ffffffffffffffffffffffffffffffffffffffff16815260200185815260200184815260200183815260200182600381111561082357fe5b60ff16815260200197505050505050505060405180910390f35b61087f6004803603602081101561085357600080fd5b81019080803573ffffffffffffffffffffffffffffffffffffffff16906020019092919050505061228e565b6040518082815260200191505060405180910390f35b6108c1600480360360208110156108ab57600080fd5b81019080803590602001909291905050506122da565b6040518082815260200191505060405180910390f35b610903600480360360208110156108ed57600080fd5b810190808035906020019092919050505061237a565b005b61090d61242a565b6040518082815260200191505060405180910390f35b61092b612436565b604051808215151515815260200191505060405180910390f35b6109716004803603602081101561095b57600080fd5b8101908080359060200190929190505050612446565b604051808215151515815260200191505060405180910390f35b6109cd600480360360208110156109a157600080fd5b81019080803573ffffffffffffffffffffffffffffffffffffffff16906020019092919050505061248b565b604051808215151515815260200191505060405180910390f35b6109ef6124e1565b6040518080602001828103825283818151815260200191508051906020019060200280838360005b83811015610a32578082015181840152602081019050610a17565b505050509050019250505060405180910390f35b610a4e612539565b6040518082815260200191505060405180910390f35b610aa660048036036020811015610a7a57600080fd5b81019080803573ffffffffffffffffffffffffffffffffffffffff169060200190929190505050612545565b6040518082815260200191505060405180910390f35b610afe60048036036020811015610ad257600080fd5b81019080803573ffffffffffffffffffffffffffffffffffffffff169060200190929190505050612594565b005b610bc360048036036040811015610b1657600080fd5b8101908080359060200190640100000000811115610b3357600080fd5b820183602082011115610b4557600080fd5b80359060200191846001830284011164010000000083111715610b6757600080fd5b91908080601f016020809104026020016040519081016040528093929190818152602001838380828437600081840152601f19601f82011690508083019250505050505050919291929080359060200190929190505050612664565b6040518082815260200191505060405180910390f35b610c2560048036036040811015610bef57600080fd5b8101908080359060200190929190803573ffffffffffffffffffffffffffffffffffffffff1690602001909291905050506126e8565b604051808215151515815260200191505060405180910390f35b610d2260048036036060811015610c5557600080fd5b8101908080359060200190640100000000811115610c7257600080fd5b820183602082011115610c8457600080fd5b80359060200191846001830284011164010000000083111715610ca657600080fd5b91908080601f016020809104026020016040519081016040528093929190818152602001838380828437600081840152601f19601f82011690508083019250505050505050919291929080359060200190929190803573ffffffffffffffffffffffffffffffffffffffff169060200190929190505050612757565b005b610d7060048036036040811015610d3a57600080fd5b8101908080359060200190929190803573ffffffffffffffffffffffffffffffffffffffff169060200190929190505050612945565b604051808215151515815260200191505060405180910390f35b610dcc60048036036020811015610da057600080fd5b81019080803573ffffffffffffffffffffffffffffffffffffffff1690602001909291905050506129b4565b604051808215151515815260200191505060405180910390f35b610e2860048036036020811015610dfc57600080fd5b81019080803573ffffffffffffffffffffffffffffffffffffffff169060200190929190505050612a25565b604051808215151515815260200191505060405180910390f35b610e7860048036036040811015610e5857600080fd5b810190808035906020019092919080359060200190929190505050612a88565b604051808215151515815260200191505060405180910390f35b610ebe60048036036020811015610ea857600080fd5b8101908080359060200190929190505050612b44565b604051808215151515815260200191505060405180910390f35b610f2460048036036040811015610eee57600080fd5b81019080803573ffffffffffffffffffffffffffffffffffffffff16906020019092919080359060200190929190505050612b71565b604051808215151515815260200191505060405180910390f35b610f8a60048036036040811015610f5457600080fd5b81019080803573ffffffffffffffffffffffffffffffffffffffff16906020019092919080359060200190929190505050612c5d565b005b610fb860048036036020811015610fa257600080fd5b8101908080359060200190929190505050612e28565b604051808273ffffffffffffffffffffffffffffffffffffffff1673ffffffffffffffffffffffffffffffffffffffff16815260200191505060405180910390f35b611002612ee3565b604051808273ffffffffffffffffffffffffffffffffffffffff1673ffffffffffffffffffffffffffffffffffffffff16815260200191505060405180910390f35b6110706004803603602081101561105a57600080fd5b8101908080359060200190929190505050612f0d565b005b6110b46004803603602081101561108857600080fd5b81019080803573ffffffffffffffffffffffffffffffffffffffff169060200190929190505050612fbd565b604051808215151515815260200191505060405180910390f35b6110fa600480360360208110156110e457600080fd5b8101908080359060200190929190505050612fef565b005b6111d56004803603604081101561111257600080fd5b810190808035906020019064010000000081111561112f57600080fd5b82018360208201111561114157600080fd5b8035906020019184600183028401116401000000008311171561116357600080fd5b91908080601f016020809104026020016040519081016040528093929190818152602001838380828437600081840152601f19601f820116905080830192505050505050509192919290803573ffffffffffffffffffffffffffffffffffffffff16906020019092919050505061309f565b005b611219600480360360208110156111ed57600080fd5b81019080803573ffffffffffffffffffffffffffffffffffffffff169060200190929190505050613448565b604051808215151515815260200191505060405180910390f35b61125f6004803603602081101561124957600080fd5b810190808035906020019092919050505061349e565b6040518080602001828103825283818151815260200191508051906020019060200280838360005b838110156112a2578082015181840152602081019050611287565b505050509050019250505060405180910390f35b61130c600480360360608110156112cc57600080fd5b81019080803573ffffffffffffffffffffffffffffffffffffffff1690602001909291908035906020019092919080359060200190929190505050613589565b6040518082815260200191505060405180910390f35b6113646004803603602081101561133857600080fd5b81019080803573ffffffffffffffffffffffffffffffffffffffff1690602001909291905050506135fa565b604051808215151515815260200191505060405180910390f35b6113aa6004803603602081101561139457600080fd5b8101908080359060200190929190505050613653565b604051808215151515815260200191505060405180910390f35b6113f0600480360360208110156113da57600080fd5b8101908080359060200190929190505050613698565b005b6114346004803603602081101561140857600080fd5b81019080803573ffffffffffffffffffffffffffffffffffffffff169060200190929190505050613748565b6040518082815260200191505060405180910390f35b6114766004803603602081101561146057600080fd5b8101908080359060200190929190505050613811565b005b611480613969565b604051808215151515815260200191505060405180910390f35b61151a600480360360a08110156114b057600080fd5b81019080803573ffffffffffffffffffffffffffffffffffffffff1690602001909291908035906020019092919080359060200190929190803573ffffffffffffffffffffffffffffffffffffffff16906020019092919080359060200190929190505050613980565b005b6115686004803603604081101561153257600080fd5b81019080803573ffffffffffffffffffffffffffffffffffffffff16906020019092919080359060200190929190505050613c91565b005b6115966004803603602081101561158057600080fd5b8101908080359060200190929190505050613dd9565b005b6115da600480360360208110156115ae57600080fd5b81019080803573ffffffffffffffffffffffffffffffffffffffff169060200190929190505050613e89565b604051808215151515815260200191505060405180910390f35b6116206004803603602081101561160a57600080fd5b8101908080359060200190929190505050613ee2565b60405180806020018573ffffffffffffffffffffffffffffffffffffffff1673ffffffffffffffffffffffffffffffffffffffff16815260200184815260200183600381111561166c57fe5b60ff168152602001828103825286818151815260200191508051906020019080838360005b838110156116ac578082015181840152602081019050611691565b50505050905090810190601f1680156116d95780820380516001836020036101000a031916815260200191505b509550505050505060405180910390f35b61172c6004803603602081101561170057600080fd5b81019080803573ffffffffffffffffffffffffffffffffffffffff169060200190929190505050614019565b604051808060200185600281111561174057fe5b60ff168152602001848152602001838152602001828103825286818151815260200191508051906020019080838360005b8381101561178c578082015181840152602081019050611771565b50505050905090810190601f1680156117b95780820380516001836020036101000a031916815260200191505b509550505050505060405180910390f35b6117f6600480360360208110156117e057600080fd5b81019080803590602001909291905050506141e3565b6040518082815260200191505060405180910390f35b6118386004803603602081101561182257600080fd5b8101908080359060200190929190505050614344565b005b61187c6004803603602081101561185057600080fd5b81019080803573ffffffffffffffffffffffffffffffffffffffff1690602001909291905050506143f4565b604051808215151515815260200191505060405180910390f35b6118c2600480360360208110156118ac57600080fd5b8101908080359060200190929190505050614465565b604051808215151515815260200191505060405180910390f35b611908600480360360208110156118f257600080fd5b81019080803590602001909291905050506144ab565b604051808215151515815260200191505060405180910390f35b60006001600281111561193157fe5b600160008473ffffffffffffffffffffffffffffffffffffffff1673ffffffffffffffffffffffffffffffffffffffff16815260200190815260200160002060010160009054906101000a900460ff16600281111561198c57fe5b149050919050565b8061199e816135fa565b611a10576040517f08c379a00000000000000000000000000000000000000000000000000000000081526004018080602001828103825260138152602001807f427579657220646f65736e27742065786973740000000000000000000000000081525060200191505060405180910390fd5b6000600460008473ffffffffffffffffffffffffffffffffffffffff1673ffffffffffffffffffffffffffffffffffffffff168152602001908152602001600020600001819055505050565b611a64613969565b611ab9576040517f08c379a0000000000000000000000000000000000000000000000000000000008152600401808060200182810382526025815260200180615e8d6025913960400191505060405180910390fd5b33600860008273ffffffffffffffffffffffffffffffffffffffff1673ffffffffffffffffffffffffffffffffffffffff16815260200190815260200160002060009054906101000a900460ff16611b5c576040517f08c379a0000000000000000000000000000000000000000000000000000000008152600401808060200182810382526030815260200180615d976030913960400191505060405180910390fd5b611b66838361309f565b505050565b611b748261212d565b611be6576040517f08c379a00000000000000000000000000000000000000000000000000000000081526004018080602001828103825260198152602001807f54686520666c6967687420646f6573206e6f742065786973740000000000000081525060200191505060405180910390fd5b611bef82612446565b611c44576040517f08c379a0000000000000000000000000000000000000000000000000000000008152600401808060200182810382526027815260200180615d4c6027913960400191505060405180910390fd5b611c4e8282612a88565b15611ca4576040517f08c379a0000000000000000000000000000000000000000000000000000000008152600401808060200182810382526028815260200180615e326028913960400191505060405180910390fd5b600160056000848152602001908152602001600020600401600083815260200190815260200160002060006101000a81548160ff021916908315150217905550600560008381526020019081526020016000206003018190806001815401808255809150509060018203906000526020600020016000909192909190915055505050565b600760009054906101000a900473ffffffffffffffffffffffffffffffffffffffff1673ffffffffffffffffffffffffffffffffffffffff163373ffffffffffffffffffffffffffffffffffffffff1614611deb576040517f08c379a000000000000000000000000000000000000000000000000000000000815260040180806020018281038252601c8152602001807f43616c6c6572206973206e6f7420636f6e7472616374206f776e65720000000081525060200191505060405180910390fd5b80600760146101000a81548160ff02191690831515021790555050565b611e10613969565b611e65576040517f08c379a0000000000000000000000000000000000000000000000000000000008152600401808060200182810382526025815260200180615e8d6025913960400191505060405180910390fd5b600760009054906101000a900473ffffffffffffffffffffffffffffffffffffffff1673ffffffffffffffffffffffffffffffffffffffff163373ffffffffffffffffffffffffffffffffffffffff1614611f28576040517f08c379a000000000000000000000000000000000000000000000000000000000815260040180806020018281038252601c8152602001807f43616c6c6572206973206e6f7420636f6e7472616374206f776e65720000000081525060200191505060405180910390fd5b6001600860008373ffffffffffffffffffffffffffffffffffffffff1673ffffffffffffffffffffffffffffffffffffffff16815260200190815260200160002060006101000a81548160ff02191690831515021790555050565b6000600280549050905090565b33600860008273ffffffffffffffffffffffffffffffffffffffff1673ffffffffffffffffffffffffffffffffffffffff16815260200190815260200160002060009054906101000a900460ff16612033576040517f08c379a0000000000000000000000000000000000000000000000000000000008152600401808060200182810382526030815260200180615d976030913960400191505060405180910390fd5b61203d83836144f1565b505050565b61204a613969565b61209f576040517f08c379a0000000000000000000000000000000000000000000000000000000008152600401808060200182810382526025815260200180615e8d6025913960400191505060405180910390fd5b836120a981612446565b6120fe576040517f08c379a0000000000000000000000000000000000000000000000000000000008152600401808060200182810382526023815260200180615e0f6023913960400191505060405180910390fd5b61210b8686868686613980565b6000612118878787613589565b90506121248682611b6b565b50505050505050565b60006005600083815260200190815260200160002060050160019054906101000a900460ff169050919050565b600061216582611922565b806121755750612174826143f4565b5b9050919050565b60008060008060008060006003600089815260200190815260200160002060000160009054906101000a900473ffffffffffffffffffffffffffffffffffffffff169650600360008981526020019081526020016000206001015495506003600089815260200190815260200160002060020160009054906101000a900473ffffffffffffffffffffffffffffffffffffffff1694506003600089815260200190815260200160002060030154935060036000898152602001908152602001600020600401549250600360008981526020019081526020016000206005015491506003600089815260200190815260200160002060060160009054906101000a900460ff169050919395979092949650565b6000600460008373ffffffffffffffffffffffffffffffffffffffff1673ffffffffffffffffffffffffffffffffffffffff168152602001908152602001600020600001549050919050565b6000816122e68161212d565b612358576040517f08c379a00000000000000000000000000000000000000000000000000000000081526004018080602001828103825260158152602001807f466c6967687420646f6573206e6f74206578697374000000000000000000000081525060200191505060405180910390fd5b6005600084815260200190815260200160002060030180549050915050919050565b33600860008273ffffffffffffffffffffffffffffffffffffffff1673ffffffffffffffffffffffffffffffffffffffff16815260200190815260200160002060009054906101000a900460ff1661241d576040517f08c379a0000000000000000000000000000000000000000000000000000000008152600401808060200182810382526030815260200180615d976030913960400191505060405180910390fd5b612426826147d0565b5050565b678ac7230489e8000081565b6000600460028054905010905090565b600080600381111561245457fe5b6005600084815260200190815260200160002060050160009054906101000a900460ff16600381111561248357fe5b149050919050565b6000600860008373ffffffffffffffffffffffffffffffffffffffff1673ffffffffffffffffffffffffffffffffffffffff16815260200190815260200160002060009054906101000a900460ff169050919050565b6060600680548060200260200160405190810160405280929190818152602001828054801561252f57602002820191906000526020600020905b81548152602001906001019080831161251b575b5050505050905090565b60008080549050905090565b6000600160008373ffffffffffffffffffffffffffffffffffffffff1673ffffffffffffffffffffffffffffffffffffffff168152602001908152602001600020600201805490509050919050565b61259d816129b4565b6125f2576040517f08c379a0000000000000000000000000000000000000000000000000000000008152600401808060200182810382526023815260200180615f146023913960400191505060405180910390fd5b60028190806001815401808255809150509060018203906000526020600020016000909192909190916101000a81548173ffffffffffffffffffffffffffffffffffffffff021916908373ffffffffffffffffffffffffffffffffffffffff1602179055505061266181614a02565b50565b600082826040516020018083805190602001908083835b6020831061269e578051825260208201915060208101905060208303925061267b565b6001836020036101000a0380198251168184511680821785525050505050509050018281526020019250505060405160208183030381529060405280519060200120905092915050565b60008173ffffffffffffffffffffffffffffffffffffffff166003600085815260200190815260200160002060000160009054906101000a900473ffffffffffffffffffffffffffffffffffffffff1673ffffffffffffffffffffffffffffffffffffffff1614905092915050565b61275f613969565b6127b4576040517f08c379a0000000000000000000000000000000000000000000000000000000008152600401808060200182810382526025815260200180615e8d6025913960400191505060405180910390fd5b806127be816143f4565b612830576040517f08c379a00000000000000000000000000000000000000000000000000000000081526004018080602001828103825260208152602001807f4169726c696e65206d75737420626520696e2066756e6465642073746174757381525060200191505060405180910390fd5b8161283a81613448565b61288f576040517f08c379a0000000000000000000000000000000000000000000000000000000008152600401808060200182810382526033815260200180615e5a6033913960400191505060405180910390fd5b33600860008273ffffffffffffffffffffffffffffffffffffffff1673ffffffffffffffffffffffffffffffffffffffff16815260200190815260200160002060009054906101000a900460ff16612932576040517f08c379a0000000000000000000000000000000000000000000000000000000008152600401808060200182810382526030815260200180615d976030913960400191505060405180910390fd5b61293d868686614c78565b505050505050565b60008173ffffffffffffffffffffffffffffffffffffffff166003600085815260200190815260200160002060020160009054906101000a900473ffffffffffffffffffffffffffffffffffffffff1673ffffffffffffffffffffffffffffffffffffffff1614905092915050565b60008060028111156129c257fe5b600160008473ffffffffffffffffffffffffffffffffffffffff1673ffffffffffffffffffffffffffffffffffffffff16815260200190815260200160002060010160009054906101000a900460ff166002811115612a1d57fe5b149050919050565b600060016002808054905081612a3757fe5b0401600160008473ffffffffffffffffffffffffffffffffffffffff1673ffffffffffffffffffffffffffffffffffffffff1681526020019081526020016000206002018054905010159050919050565b600082612a948161212d565b612b06576040517f08c379a00000000000000000000000000000000000000000000000000000000081526004018080602001828103825260158152602001807f466c6967687420646f6573206e6f74206578697374000000000000000000000081525060200191505060405180910390fd5b60056000858152602001908152602001600020600401600084815260200190815260200160002060009054906101000a900460ff1691505092915050565b60006003600083815260200190815260200160002060060160019054906101000a900460ff169050919050565b600081612b7d8161212d565b612bef576040517f08c379a00000000000000000000000000000000000000000000000000000000081526004018080602001828103825260158152602001807f466c6967687420646f6573206e6f74206578697374000000000000000000000081525060200191505060405180910390fd5b8373ffffffffffffffffffffffffffffffffffffffff166005600085815260200190815260200160002060020160009054906101000a900473ffffffffffffffffffffffffffffffffffffffff1673ffffffffffffffffffffffffffffffffffffffff161491505092915050565b81612c678161215a565b612cbc576040517f08c379a000000000000000000000000000000000000000000000000000000000815260040180806020018281038252603d815260200180615ed7603d913960400191505060405180910390fd5b82612cc681613e89565b612d38576040517f08c379a00000000000000000000000000000000000000000000000000000000081526004018080602001828103825260168152602001807f4164647265737320646f6573206e6f742065786973740000000000000000000081525060200191505060405180910390fd5b600160008573ffffffffffffffffffffffffffffffffffffffff1673ffffffffffffffffffffffffffffffffffffffff168152602001908152602001600020600301548310612dd2576040517f08c379a0000000000000000000000000000000000000000000000000000000008152600401808060200182810382526027815260200180615dc76027913960400191505060405180910390fd5b82600160008673ffffffffffffffffffffffffffffffffffffffff1673ffffffffffffffffffffffffffffffffffffffff1681526020019081526020016000206003016000828254039250508190555050505050565b6000612e3382612b44565b612ea5576040517f08c379a00000000000000000000000000000000000000000000000000000000081526004018080602001828103825260178152602001807f496e737572616e636520646f65736e277420657869737400000000000000000081525060200191505060405180910390fd5b6003600083815260200190815260200160002060000160009054906101000a900473ffffffffffffffffffffffffffffffffffffffff169050919050565b6000600760009054906101000a900473ffffffffffffffffffffffffffffffffffffffff16905090565b33600860008273ffffffffffffffffffffffffffffffffffffffff1673ffffffffffffffffffffffffffffffffffffffff16815260200190815260200160002060009054906101000a900460ff16612fb0576040517f08c379a0000000000000000000000000000000000000000000000000000000008152600401808060200182810382526030815260200180615d976030913960400191505060405180910390fd5b612fb982614f76565b5050565b6000612fc7612436565b80612fd75750612fd682612a25565b5b15612fe55760019050612fea565b600090505b919050565b33600860008273ffffffffffffffffffffffffffffffffffffffff1673ffffffffffffffffffffffffffffffffffffffff16815260200190815260200160002060009054906101000a900460ff16613092576040517f08c379a0000000000000000000000000000000000000000000000000000000008152600401808060200182810382526030815260200180615d976030913960400191505060405180910390fd5b61309b82615010565b5050565b806130a981613e89565b156130ff576040517f08c379a0000000000000000000000000000000000000000000000000000000008152600401808060200182810382526028815260200180615d006028913960400191505060405180910390fd5b613107615a05565b83816000018190525060008160200190600281111561312257fe5b9081600281111561312f57fe5b815250506000816060018181525050600181608001901515908115158152505080600160008573ffffffffffffffffffffffffffffffffffffffff1673ffffffffffffffffffffffffffffffffffffffff16815260200190815260200160002060008201518160000190805190602001906131ab929190615a41565b5060208201518160010160006101000a81548160ff021916908360028111156131d057fe5b021790555060408201518160020190805190602001906131f1929190615ac1565b506060820151816003015560808201518160040160006101000a81548160ff02191690831515021790555090505060008390806001815401808255809150509060018203906000526020600020016000909192909190916101000a81548173ffffffffffffffffffffffffffffffffffffffff021916908373ffffffffffffffffffffffffffffffffffffffff160217905550507ff3100ff45bd551846ae092da6f82697190f72f24573165d1b06858cda4194d47848460405180806020018373ffffffffffffffffffffffffffffffffffffffff1673ffffffffffffffffffffffffffffffffffffffff168152602001828103825284818151815260200191508051906020019080838360005b8381101561331a5780820151818401526020810190506132ff565b50505050905090810190601f1680156133475780820380516001836020036101000a031916815260200191505b50935050505060405180910390a161335e83612fbd565b156133715761336c83612594565b613442565b7f0dd0455f85bdf4c39bcd8911401aa00834ab66fbbee80ff3189bca70fa94c60d848460405180806020018373ffffffffffffffffffffffffffffffffffffffff1673ffffffffffffffffffffffffffffffffffffffff168152602001828103825284818151815260200191508051906020019080838360005b838110156134065780820151818401526020810190506133eb565b50505050905090810190601f1680156134335780820380516001836020036101000a031916815260200191505b50935050505060405180910390a15b50505050565b6000678ac7230489e80000600160008473ffffffffffffffffffffffffffffffffffffffff1673ffffffffffffffffffffffffffffffffffffffff16815260200190815260200160002060030154119050919050565b6060816134aa8161212d565b61351c576040517f08c379a00000000000000000000000000000000000000000000000000000000081526004018080602001828103825260158152602001807f466c6967687420646f6573206e6f74206578697374000000000000000000000081525060200191505060405180910390fd5b6005600084815260200190815260200160002060030180548060200260200160405190810160405280929190818152602001828054801561357c57602002820191906000526020600020905b815481526020019060010190808311613568575b5050505050915050919050565b6000838383604051602001808473ffffffffffffffffffffffffffffffffffffffff1673ffffffffffffffffffffffffffffffffffffffff1660601b815260140183815260200182815260200193505050506040516020818303038152906040528051906020012090509392505050565b6000600460008373ffffffffffffffffffffffffffffffffffffffff1673ffffffffffffffffffffffffffffffffffffffff16815260200190815260200160002060010160009054906101000a900460ff169050919050565b600080600381111561366157fe5b6003600084815260200190815260200160002060060160009054906101000a900460ff16600381111561369057fe5b149050919050565b33600860008273ffffffffffffffffffffffffffffffffffffffff1673ffffffffffffffffffffffffffffffffffffffff16815260200190815260200160002060009054906101000a900460ff1661373b576040517f08c379a0000000000000000000000000000000000000000000000000000000008152600401808060200182810382526030815260200180615d976030913960400191505060405180910390fd5b613744826150ab565b5050565b600081613754816143f4565b6137c6576040517f08c379a00000000000000000000000000000000000000000000000000000000081526004018080602001828103825260208152602001807f4169726c696e65206d75737420626520696e2066756e6465642073746174757381525060200191505060405180910390fd5b600160008473ffffffffffffffffffffffffffffffffffffffff1673ffffffffffffffffffffffffffffffffffffffff16815260200190815260200160002060030154915050919050565b613819613969565b61386e576040517f08c379a0000000000000000000000000000000000000000000000000000000008152600401808060200182810382526025815260200180615e8d6025913960400191505060405180910390fd5b80613878816144ab565b5033600860008273ffffffffffffffffffffffffffffffffffffffff1673ffffffffffffffffffffffffffffffffffffffff16815260200190815260200160002060009054906101000a900460ff1661391c576040517f08c379a0000000000000000000000000000000000000000000000000000000008152600401808060200182810382526030815260200180615d976030913960400191505060405180910390fd5b60606139278461349e565b905060008090505b81518110156139625761395482828151811061394757fe5b60200260200101516141e3565b50808060010191505061392f565b5050505050565b6000600760149054906101000a900460ff16905090565b600061398d868686613589565b9050613997615b4b565b86816000019073ffffffffffffffffffffffffffffffffffffffff16908173ffffffffffffffffffffffffffffffffffffffff16815250508581602001818152505083816040019073ffffffffffffffffffffffffffffffffffffffff16908173ffffffffffffffffffffffffffffffffffffffff1681525050828160600181815250506000816080018181525050848160a001818152505060008160c001906003811115613a4257fe5b90816003811115613a4f57fe5b8152505060018160e0019015159081151581525050806003600084815260200190815260200160002060008201518160000160006101000a81548173ffffffffffffffffffffffffffffffffffffffff021916908373ffffffffffffffffffffffffffffffffffffffff1602179055506020820151816001015560408201518160020160006101000a81548173ffffffffffffffffffffffffffffffffffffffff021916908373ffffffffffffffffffffffffffffffffffffffff160217905550606082015181600301556080820151816004015560a0820151816005015560c08201518160060160006101000a81548160ff02191690836003811115613b5257fe5b021790555060e08201518160060160016101000a81548160ff021916908315150217905550905050613b83876135fa565b613c0d5760405180604001604052806000815260200160011515815250600460008973ffffffffffffffffffffffffffffffffffffffff1673ffffffffffffffffffffffffffffffffffffffff1681526020019081526020016000206000820151816000015560208201518160010160006101000a81548160ff0219169083151502179055509050505b7f9ab1ae65e296b9d32fa2d25d59c5ae030359d318f228e0513a4089f70fcdc61386838986604051808581526020018481526020018373ffffffffffffffffffffffffffffffffffffffff1673ffffffffffffffffffffffffffffffffffffffff16815260200182815260200194505050505060405180910390a150505050505050565b81613c9b8161215a565b613cf0576040517f08c379a000000000000000000000000000000000000000000000000000000000815260040180806020018281038252603d815260200180615ed7603d913960400191505060405180910390fd5b82613cfa81613e89565b613d6c576040517f08c379a00000000000000000000000000000000000000000000000000000000081526004018080602001828103825260168152602001807f4164647265737320646f6573206e6f742065786973740000000000000000000081525060200191505060405180910390fd5b613d75846143f4565b613d8357613d82846152dd565b5b82600160008673ffffffffffffffffffffffffffffffffffffffff1673ffffffffffffffffffffffffffffffffffffffff1681526020019081526020016000206003016000828254019250508190555050505050565b33600860008273ffffffffffffffffffffffffffffffffffffffff1673ffffffffffffffffffffffffffffffffffffffff16815260200190815260200160002060009054906101000a900460ff16613e7c576040517f08c379a0000000000000000000000000000000000000000000000000000000008152600401808060200182810382526030815260200180615d976030913960400191505060405180910390fd5b613e85826155a4565b5050565b6000600160008373ffffffffffffffffffffffffffffffffffffffff1673ffffffffffffffffffffffffffffffffffffffff16815260200190815260200160002060040160009054906101000a900460ff169050919050565b60606000806000600560008681526020019081526020016000206000018054600181600116156101000203166002900480601f016020809104026020016040519081016040528092919081815260200182805460018160011615610100020316600290048015613f935780601f10613f6857610100808354040283529160200191613f93565b820191906000526020600020905b815481529060010190602001808311613f7657829003601f168201915b505050505093506005600086815260200190815260200160002060020160009054906101000a900473ffffffffffffffffffffffffffffffffffffffff169250600560008681526020019081526020016000206001015491506005600086815260200190815260200160002060050160009054906101000a900460ff1690509193509193565b60606000806000600160008673ffffffffffffffffffffffffffffffffffffffff1673ffffffffffffffffffffffffffffffffffffffff1681526020019081526020016000206000018054600181600116156101000203166002900480601f0160208091040260200160405190810160405280929190818152602001828054600181600116156101000203166002900480156140f65780601f106140cb576101008083540402835291602001916140f6565b820191906000526020600020905b8154815290600101906020018083116140d957829003601f168201915b50505050509350600160008673ffffffffffffffffffffffffffffffffffffffff1673ffffffffffffffffffffffffffffffffffffffff16815260200190815260200160002060010160009054906101000a900460ff169250600160008673ffffffffffffffffffffffffffffffffffffffff1673ffffffffffffffffffffffffffffffffffffffff168152602001908152602001600020600201805490509150600160008673ffffffffffffffffffffffffffffffffffffffff1673ffffffffffffffffffffffffffffffffffffffff1681526020019081526020016000206003015490509193509193565b6000816141ef81613653565b614244576040517f08c379a0000000000000000000000000000000000000000000000000000000008152600401808060200182810382526025815260200180615eb26025913960400191505060405180910390fd5b60006003600085815260200190815260200160002060030154905060006003600086815260200190815260200160002060000160009054906101000a900473ffffffffffffffffffffffffffffffffffffffff16905060006142b060028461563f90919063ffffffff16565b90506142c581846156ce90919063ffffffff16565b945084600360008881526020019081526020016000206004018190555084600460008473ffffffffffffffffffffffffffffffffffffffff1673ffffffffffffffffffffffffffffffffffffffff1681526020019081526020016000206000016000828254019250508190555061433b86613dd9565b50505050919050565b33600860008273ffffffffffffffffffffffffffffffffffffffff1673ffffffffffffffffffffffffffffffffffffffff16815260200190815260200160002060009054906101000a900460ff166143e7576040517f08c379a0000000000000000000000000000000000000000000000000000000008152600401808060200182810382526030815260200180615d976030913960400191505060405180910390fd5b6143f082615756565b5050565b600060028081111561440257fe5b600160008473ffffffffffffffffffffffffffffffffffffffff1673ffffffffffffffffffffffffffffffffffffffff16815260200190815260200160002060010160009054906101000a900460ff16600281111561445d57fe5b149050919050565b60006002600381111561447457fe5b6003600084815260200190815260200160002060060160009054906101000a900460ff1660038111156144a357fe5b149050919050565b6000600260038111156144ba57fe5b6005600084815260200190815260200160002060050160009054906101000a900460ff1660038111156144e957fe5b149050919050565b806144fb81611922565b614550576040517f08c379a0000000000000000000000000000000000000000000000000000000008152600401808060200182810382526024815260200180615d736024913960400191505060405180910390fd5b61455983613e89565b6145cb576040517f08c379a00000000000000000000000000000000000000000000000000000000081526004018080602001828103825260168152602001807f4169726c696e6520646f6573206e6f742065786973740000000000000000000081525060200191505060405180910390fd5b6145d4836129b4565b614629576040517f08c379a0000000000000000000000000000000000000000000000000000000008152600401808060200182810382526021815260200180615f376021913960400191505060405180910390fd5b600160008473ffffffffffffffffffffffffffffffffffffffff1673ffffffffffffffffffffffffffffffffffffffff1681526020019081526020016000206002018290806001815401808255809150509060018203906000526020600020016000909192909190916101000a81548173ffffffffffffffffffffffffffffffffffffffff021916908373ffffffffffffffffffffffffffffffffffffffff160217905550506146d883612fbd565b156146e7576146e683612594565b5b7ff7c50f9eb2df776ff843af719b51fe3587613ead8477a913a6418c893f85ebd98383600160008773ffffffffffffffffffffffffffffffffffffffff1673ffffffffffffffffffffffffffffffffffffffff16815260200190815260200160002060020180549050604051808473ffffffffffffffffffffffffffffffffffffffff1673ffffffffffffffffffffffffffffffffffffffff1681526020018373ffffffffffffffffffffffffffffffffffffffff1673ffffffffffffffffffffffffffffffffffffffff168152602001828152602001935050505060405180910390a1505050565b806147da81612446565b61482f576040517f08c379a0000000000000000000000000000000000000000000000000000000008152600401808060200182810382526023815260200180615e0f6023913960400191505060405180910390fd5b60026005600084815260200190815260200160002060050160006101000a81548160ff0219169083600381111561486257fe5b02179055507f46692d6d97cca5f30535d5452b425e85c40c7f0ef908efef4ab92b4d44e4f4776005600084815260200190815260200160002060000160056000858152602001908152602001600020600101546005600086815260200190815260200160002060020160009054906101000a900473ffffffffffffffffffffffffffffffffffffffff16856005600088815260200190815260200160002060050160009054906101000a900460ff1660405180806020018681526020018573ffffffffffffffffffffffffffffffffffffffff1673ffffffffffffffffffffffffffffffffffffffff16815260200184815260200183600381111561496357fe5b60ff1681526020018281038252878181546001816001161561010002031660029004815260200191508054600181600116156101000203166002900480156149ec5780601f106149c1576101008083540402835291602001916149ec565b820191906000526020600020905b8154815290600101906020018083116149cf57829003601f168201915b5050965050505050505060405180910390a15050565b80614a0c816129b4565b614a61576040517f08c379a0000000000000000000000000000000000000000000000000000000008152600401808060200182810382526021815260200180615f376021913960400191505060405180910390fd5b60018060008473ffffffffffffffffffffffffffffffffffffffff1673ffffffffffffffffffffffffffffffffffffffff16815260200190815260200160002060010160006101000a81548160ff02191690836002811115614abf57fe5b02179055506060600160008473ffffffffffffffffffffffffffffffffffffffff1673ffffffffffffffffffffffffffffffffffffffff1681526020019081526020016000206000018054600181600116156101000203166002900480601f016020809104026020016040519081016040528092919081815260200182805460018160011615610100020316600290048015614b9c5780601f10614b7157610100808354040283529160200191614b9c565b820191906000526020600020905b815481529060010190602001808311614b7f57829003601f168201915b505050505090507f4389233d1d7e817e3a41447176300b89c596c24ed4d58896d501ddb378abe2c4818460405180806020018373ffffffffffffffffffffffffffffffffffffffff1673ffffffffffffffffffffffffffffffffffffffff168152602001828103825284818151815260200191508051906020019080838360005b83811015614c38578082015181840152602081019050614c1d565b50505050905090810190601f168015614c655780820380516001836020036101000a031916815260200191505b50935050505060405180910390a1505050565b6000614c848484612664565b9050614c8f8161212d565b15614ce5576040517f08c379a0000000000000000000000000000000000000000000000000000000008152600401808060200182810382526021815260200180615dee6021913960400191505060405180910390fd5b6060614cef615bcc565b85816000018190525083816040019073ffffffffffffffffffffffffffffffffffffffff16908173ffffffffffffffffffffffffffffffffffffffff168152505084816020018181525050600081608001906003811115614d4c57fe5b90816003811115614d5957fe5b8152505060018160a001901515908115158152505081816060018190525080600560008581526020019081526020016000206000820151816000019080519060200190614da7929190615a41565b506020820151816001015560408201518160020160006101000a81548173ffffffffffffffffffffffffffffffffffffffff021916908373ffffffffffffffffffffffffffffffffffffffff1602179055506060820151816003019080519060200190614e15929190615c25565b5060808201518160050160006101000a81548160ff02191690836003811115614e3a57fe5b021790555060a08201518160050160016101000a81548160ff02191690831515021790555090505060068390806001815401808255809150509060018203906000526020600020016000909192909190915055507f59261113d397865c7b2b317452691277210d64b6f75272d723f504a8c13250fe8686868660405180806020018581526020018473ffffffffffffffffffffffffffffffffffffffff1673ffffffffffffffffffffffffffffffffffffffff168152602001838152602001828103825286818151815260200191508051906020019080838360005b83811015614f31578082015181840152602081019050614f16565b50505050905090810190601f168015614f5e5780820380516001836020036101000a031916815260200191505b509550505050505060405180910390a1505050505050565b80614f8081614465565b614fd5576040517f08c379a0000000000000000000000000000000000000000000000000000000008152600401808060200182810382526024815260200180615d286024913960400191505060405180910390fd5b600380600084815260200190815260200160002060060160006101000a81548160ff0219169083600381111561500757fe5b02179055505050565b8061501a81613653565b61506f576040517f08c379a0000000000000000000000000000000000000000000000000000000008152600401808060200182810382526025815260200180615eb26025913960400191505060405180910390fd5b60016003600084815260200190815260200160002060060160006101000a81548160ff021916908360038111156150a257fe5b02179055505050565b806150b581612446565b61510a576040517f08c379a0000000000000000000000000000000000000000000000000000000008152600401808060200182810382526023815260200180615e0f6023913960400191505060405180910390fd5b60036005600084815260200190815260200160002060050160006101000a81548160ff0219169083600381111561513d57fe5b02179055507f46692d6d97cca5f30535d5452b425e85c40c7f0ef908efef4ab92b4d44e4f4776005600084815260200190815260200160002060000160056000858152602001908152602001600020600101546005600086815260200190815260200160002060020160009054906101000a900473ffffffffffffffffffffffffffffffffffffffff16856005600088815260200190815260200160002060050160009054906101000a900460ff1660405180806020018681526020018573ffffffffffffffffffffffffffffffffffffffff1673ffffffffffffffffffffffffffffffffffffffff16815260200184815260200183600381111561523e57fe5b60ff1681526020018281038252878181546001816001161561010002031660029004815260200191508054600181600116156101000203166002900480156152c75780601f1061529c576101008083540402835291602001916152c7565b820191906000526020600020905b8154815290600101906020018083116152aa57829003601f168201915b5050965050505050505060405180910390a15050565b806152e781611922565b61533c576040517f08c379a0000000000000000000000000000000000000000000000000000000008152600401808060200182810382526024815260200180615d736024913960400191505060405180910390fd5b6002600160008473ffffffffffffffffffffffffffffffffffffffff1673ffffffffffffffffffffffffffffffffffffffff16815260200190815260200160002060010160006101000a81548160ff0219169083600281111561539b57fe5b02179055506060600160008473ffffffffffffffffffffffffffffffffffffffff1673ffffffffffffffffffffffffffffffffffffffff1681526020019081526020016000206000018054600181600116156101000203166002900480601f0160208091040260200160405190810160405280929190818152602001828054600181600116156101000203166002900480156154785780601f1061544d57610100808354040283529160200191615478565b820191906000526020600020905b81548152906001019060200180831161545b57829003601f168201915b505050505090506000600160008573ffffffffffffffffffffffffffffffffffffffff1673ffffffffffffffffffffffffffffffffffffffff1681526020019081526020016000206003015490507f53b7c1b088635937d93a99c488cc77c6d286057c245c779959f41c8b64fc74a282858360405180806020018473ffffffffffffffffffffffffffffffffffffffff1673ffffffffffffffffffffffffffffffffffffffff168152602001838152602001828103825285818151815260200191508051906020019080838360005b83811015615562578082015181840152602081019050615547565b50505050905090810190601f16801561558f5780820380516001836020036101000a031916815260200191505b5094505050505060405180910390a150505050565b806155ae81613653565b615603576040517f08c379a0000000000000000000000000000000000000000000000000000000008152600401808060200182810382526025815260200180615eb26025913960400191505060405180910390fd5b60026003600084815260200190815260200160002060060160006101000a81548160ff0219169083600381111561563657fe5b02179055505050565b60008082116156b6576040517f08c379a000000000000000000000000000000000000000000000000000000000815260040180806020018281038252601a8152602001807f536166654d6174683a206469766973696f6e206279207a65726f00000000000081525060200191505060405180910390fd5b60008284816156c157fe5b0490508091505092915050565b60008082840190508381101561574c576040517f08c379a000000000000000000000000000000000000000000000000000000000815260040180806020018281038252601b8152602001807f536166654d6174683a206164646974696f6e206f766572666c6f77000000000081525060200191505060405180910390fd5b8091505092915050565b8061576081612446565b6157b5576040517f08c379a0000000000000000000000000000000000000000000000000000000008152600401808060200182810382526023815260200180615e0f6023913960400191505060405180910390fd5b816157bf8161212d565b615831576040517f08c379a00000000000000000000000000000000000000000000000000000000081526004018080602001828103825260158152602001807f466c6967687420646f6573206e6f74206578697374000000000000000000000081525060200191505060405180910390fd5b60016005600085815260200190815260200160002060050160006101000a81548160ff0219169083600381111561586457fe5b02179055507f46692d6d97cca5f30535d5452b425e85c40c7f0ef908efef4ab92b4d44e4f4776005600085815260200190815260200160002060000160056000868152602001908152602001600020600101546005600087815260200190815260200160002060020160009054906101000a900473ffffffffffffffffffffffffffffffffffffffff16866005600089815260200190815260200160002060050160009054906101000a900460ff1660405180806020018681526020018573ffffffffffffffffffffffffffffffffffffffff1673ffffffffffffffffffffffffffffffffffffffff16815260200184815260200183600381111561596557fe5b60ff1681526020018281038252878181546001816001161561010002031660029004815260200191508054600181600116156101000203166002900480156159ee5780601f106159c3576101008083540402835291602001916159ee565b820191906000526020600020905b8154815290600101906020018083116159d157829003601f168201915b5050965050505050505060405180910390a1505050565b6040518060a001604052806060815260200160006002811115615a2457fe5b815260200160608152602001600081526020016000151581525090565b828054600181600116156101000203166002900490600052602060002090601f016020900481019282601f10615a8257805160ff1916838001178555615ab0565b82800160010185558215615ab0579182015b82811115615aaf578251825591602001919060010190615a94565b5b509050615abd9190615c72565b5090565b828054828255906000526020600020908101928215615b3a579160200282015b82811115615b395782518260006101000a81548173ffffffffffffffffffffffffffffffffffffffff021916908373ffffffffffffffffffffffffffffffffffffffff16021790555091602001919060010190615ae1565b5b509050615b479190615c97565b5090565b604051806101000160405280600073ffffffffffffffffffffffffffffffffffffffff16815260200160008019168152602001600073ffffffffffffffffffffffffffffffffffffffff16815260200160008152602001600081526020016000815260200160006003811115615bbd57fe5b81526020016000151581525090565b6040518060c001604052806060815260200160008152602001600073ffffffffffffffffffffffffffffffffffffffff1681526020016060815260200160006003811115615c1657fe5b81526020016000151581525090565b828054828255906000526020600020908101928215615c61579160200282015b82811115615c60578251825591602001919060010190615c45565b5b509050615c6e9190615cda565b5090565b615c9491905b80821115615c90576000816000905550600101615c78565b5090565b90565b615cd791905b80821115615cd357600081816101000a81549073ffffffffffffffffffffffffffffffffffffffff021916905550600101615c9d565b5090565b90565b615cfc91905b80821115615cf8576000816000905550600101615ce0565b5090565b9056fe41646472657373206861732072656769737465726564206173204169726c696e65206265666f7265496e737572616e6365206d75737420626520696e2043726564697465642073746174757354686520666c69676874206d75737420626520696e2072656769737465726564207374617475734169726c696e65206d75737420626520696e2072656769737465726564207374617475734f6e6c7920617574686f72697a65642063616c6c65727320636f756c642063616c6c20746869732066756e6374696f6e4169726c696e6527732066756e64206973206e6f7420656e6f75676820746f20706179206e6f77466c6967687420686173206265656e2072656769737465726564206265666f7265466c69676874206d75737420626520696e20526567697374657265642073746174757354686520666c696768742068617320616c726561647920676f742074686520696e737572616e63654169726c696e6527732066756e64206973206c657373207468616e204d494e49554d2066756e6420726571756972656d656e74436f6e74726163742069732063757272656e746c79206e6f74206f7065726174696f6e616c496e737572616e6365206d75737420626520696e20416374697661746564207374617475734169726c696e65206d7573742065697468657220626520696e2072656769737465726564206f722066756e6465642073746174757320746f2066756e6443616e646964617465206d75737420626520696e20656e7465726564207374617475734169726c696e65206d75737420626520696e20656e746572656420737461747573a165627a7a72305820b3bae463a8fc4a6bf7e37d0b01bae24fbae82d0c673089b8389fb5f2d6e3166b0029",
  "source": "pragma solidity ^0.5.8;\r\n\r\nimport \"../node_modules/openzeppelin-solidity/contracts/math/SafeMath.sol\";\r\n\r\nimport \"./AirlineData.sol\";\r\nimport \"./InsuranceData.sol\";\r\nimport \"./FlightData.sol\";\r\nimport \"./Authorizable.sol\";\r\n\r\ncontract FlightSuretyData is AirlineData, InsuranceData, FlightData, Authorizable{\r\n    using SafeMath for uint256;\r\n\r\n    function registerAirline(string memory _name, address _airline) public requireIsOperational requireAuthorizedCaller(msg.sender){\r\n        addAirline(_name, _airline);\r\n    }\r\n\r\n    function vote(address _candidate, address _voter) public requireAuthorizedCaller(msg.sender){\r\n        super.vote(_candidate, _voter);\r\n    }\r\n\r\n    function registerFlight(string memory _code, uint256 _timestamp, address _airline) public \r\n    requireIsOperational requireAirlineFunded(_airline) requireAirlinesHasEnoughFund(_airline) requireAuthorizedCaller(msg.sender){\r\n        addFlight(_code, _timestamp, _airline);\r\n    }\r\n\r\n    function registerInsurance(address _buyer, bytes32 _flightKey, uint256 _contractTimestamp, address _airline, uint256 _fee) public\r\n    requireIsOperational requireFlightRegistered(_flightKey){\r\n        addInsurance(_buyer, _flightKey, _contractTimestamp, _airline, _fee);\r\n        bytes32 _insuranceKey = generateInsuranceKey(_buyer, _flightKey, _contractTimestamp);\r\n        addInsuranceKey(_flightKey, _insuranceKey);\r\n    }\r\n\r\n    function setFlightOnTime(bytes32 flightKey) public requireAuthorizedCaller(msg.sender){\r\n        super.setFlightOnTime(flightKey);\r\n    }\r\n\r\n    function setFlightLateAirline(bytes32 flightKey) public requireAuthorizedCaller(msg.sender){\r\n        super.setFlightLateAirline(flightKey);\r\n    }\r\n\r\n     function setFlightLateNotAirline(bytes32 flightKey) public requireAuthorizedCaller(msg.sender){\r\n        super.setFlightLateNotAirline(flightKey);\r\n    }\r\n\r\n    function setInsuranceExpired(bytes32 insuranceKey) public requireAuthorizedCaller(msg.sender){\r\n        super.setInsuranceExpired(insuranceKey);\r\n    }\r\n\r\n    function setInsuranceCredited(bytes32 insuranceKey) public requireAuthorizedCaller(msg.sender){\r\n        super.setInsuranceCredited(insuranceKey);\r\n    }\r\n\r\n    function setInsuranceWithdrawn(bytes32 insuranceKey) public requireAuthorizedCaller(msg.sender){\r\n        super.setInsuranceWithdrawn(insuranceKey);\r\n    }\r\n\r\n    function creditInsurees(bytes32 flightKey) public requireIsOperational requireFlightLateAirline(flightKey) requireAuthorizedCaller(msg.sender){\r\n        bytes32[] memory insuranceKeysList = getInsuranceKeysList(flightKey);\r\n        for(uint256 i=0; i<insuranceKeysList.length; i++){\r\n            creditInsurance(insuranceKeysList[i]);\r\n        }\r\n    }\r\n}",
  "sourcePath": "C:/Users/andrewchan88/Documents/Coding/udacity/Blockchain/PartB/homework/project7_es_rm/contracts/FlightSuretyData.sol",
  "compiler": {
    "name": "solc",
    "version": "0.5.8+commit.23d335f2.Emscripten.clang"
  },
  "schemaVersion": "3.0.13",
  "updatedAt": "2019-10-07T03:56:35.680Z",
  "devdoc": {
    "methods": {
      "isOperational()": {
        "details": "Modifier that requires the \"operational\" boolean variable to be \"true\"\r     This is used on all state changing functions to pause the contract in \r     the event there is an issue that needs to be fixed\r"
      }
    }
  },
  "userdoc": {
    "methods": {
      "addAirline(string,address)": {
        "notice": "functions for handling airline register and vote\r"
      },
      "addInsurance(address,bytes32,uint256,address,uint256)": {
        "notice": "function for adding and crediting insurance\r"
      },
      "isAirlineExist(address)": {
        "notice": "Functions for checking condition of Airline & modifiers\r"
      },
      "isExist(bytes32)": {
        "notice": "Functions for conditions checking and modifiers\r"
      },
      "isFlightExist(bytes32)": {
        "notice": "functions for checking flight condition and modifiers\r"
      },
      "queryBuyerCredit(address)": {
        "notice": "functions for querying insurance info\r"
      },
      "queryFlightInfo(bytes32)": {
        "notice": "functions for querying flights status\r"
      },
      "queryFund(address)": {
        "notice": "functions for query airline data\r"
      }
    }
  }
}