{
  "contractName": "FlightSuretyData",
  "abi": [
    {
      "constant": true,
      "inputs": [
        {
          "name": "_testingAddress",
          "type": "address"
        }
      ],
      "name": "isAirlineRegistered",
      "outputs": [
        {
          "name": "",
          "type": "bool"
        }
      ],
      "payable": false,
      "stateMutability": "view",
      "type": "function"
    },
    {
      "constant": false,
      "inputs": [
        {
          "name": "_buyer",
          "type": "address"
        }
      ],
      "name": "deductCredits",
      "outputs": [],
      "payable": false,
      "stateMutability": "nonpayable",
      "type": "function"
    },
    {
      "constant": false,
      "inputs": [
        {
          "name": "_flightKey",
          "type": "bytes32"
        },
        {
          "name": "_insuranceKey",
          "type": "bytes32"
        }
      ],
      "name": "addInsuranceKey",
      "outputs": [],
      "payable": false,
      "stateMutability": "nonpayable",
      "type": "function"
    },
    {
      "constant": false,
      "inputs": [
        {
          "name": "mode",
          "type": "bool"
        }
      ],
      "name": "setOperatingStatus",
      "outputs": [],
      "payable": false,
      "stateMutability": "nonpayable",
      "type": "function"
    },
    {
      "constant": false,
      "inputs": [
        {
          "name": "_candidate",
          "type": "address"
        }
      ],
      "name": "addAuthorizedCaller",
      "outputs": [],
      "payable": false,
      "stateMutability": "nonpayable",
      "type": "function"
    },
    {
      "constant": true,
      "inputs": [],
      "name": "queryRegisteredAirlinesCount",
      "outputs": [
        {
          "name": "",
          "type": "uint256"
        }
      ],
      "payable": false,
      "stateMutability": "view",
      "type": "function"
    },
    {
      "constant": true,
      "inputs": [
        {
          "name": "_id",
          "type": "bytes32"
        }
      ],
      "name": "isFlightExist",
      "outputs": [
        {
          "name": "",
          "type": "bool"
        }
      ],
      "payable": false,
      "stateMutability": "view",
      "type": "function"
    },
    {
      "constant": true,
      "inputs": [
        {
          "name": "_testingAddress",
          "type": "address"
        }
      ],
      "name": "couldFund",
      "outputs": [
        {
          "name": "",
          "type": "bool"
        }
      ],
      "payable": false,
      "stateMutability": "view",
      "type": "function"
    },
    {
      "constant": true,
      "inputs": [
        {
          "name": "_insuranceKey",
          "type": "bytes32"
        }
      ],
      "name": "queryInsuranceInfo",
      "outputs": [
        {
          "name": "buyer",
          "type": "address"
        },
        {
          "name": "flightKey",
          "type": "bytes32"
        },
        {
          "name": "airline",
          "type": "address"
        },
        {
          "name": "fee",
          "type": "uint256"
        },
        {
          "name": "credits",
          "type": "uint256"
        },
        {
          "name": "contractTimestamp",
          "type": "uint256"
        },
        {
          "name": "insuranceStatus",
          "type": "uint8"
        }
      ],
      "payable": false,
      "stateMutability": "view",
      "type": "function"
    },
    {
      "constant": true,
      "inputs": [
        {
          "name": "_buyer",
          "type": "address"
        }
      ],
      "name": "queryBuyerCredit",
      "outputs": [
        {
          "name": "",
          "type": "uint256"
        }
      ],
      "payable": false,
      "stateMutability": "view",
      "type": "function"
    },
    {
      "constant": true,
      "inputs": [
        {
          "name": "_flightID",
          "type": "bytes32"
        }
      ],
      "name": "getNumberOfInsurance",
      "outputs": [
        {
          "name": "",
          "type": "uint256"
        }
      ],
      "payable": false,
      "stateMutability": "view",
      "type": "function"
    },
    {
      "constant": true,
      "inputs": [
        {
          "name": "fee",
          "type": "uint256"
        }
      ],
      "name": "calculateCredits",
      "outputs": [
        {
          "name": "credits",
          "type": "uint256"
        }
      ],
      "payable": false,
      "stateMutability": "pure",
      "type": "function"
    },
    {
      "constant": true,
      "inputs": [],
      "name": "MIN_FUND",
      "outputs": [
        {
          "name": "",
          "type": "uint256"
        }
      ],
      "payable": false,
      "stateMutability": "view",
      "type": "function"
    },
    {
      "constant": true,
      "inputs": [],
      "name": "isFewAirlines",
      "outputs": [
        {
          "name": "",
          "type": "bool"
        }
      ],
      "payable": false,
      "stateMutability": "view",
      "type": "function"
    },
    {
      "constant": true,
      "inputs": [
        {
          "name": "_id",
          "type": "bytes32"
        }
      ],
      "name": "isFlightRegistered",
      "outputs": [
        {
          "name": "",
          "type": "bool"
        }
      ],
      "payable": false,
      "stateMutability": "view",
      "type": "function"
    },
    {
      "constant": true,
      "inputs": [
        {
          "name": "_candidate",
          "type": "address"
        }
      ],
      "name": "isAuthorizedCaller",
      "outputs": [
        {
          "name": "",
          "type": "bool"
        }
      ],
      "payable": false,
      "stateMutability": "view",
      "type": "function"
    },
    {
      "constant": true,
      "inputs": [],
      "name": "getAllFlightKeys",
      "outputs": [
        {
          "name": "",
          "type": "bytes32[]"
        }
      ],
      "payable": false,
      "stateMutability": "view",
      "type": "function"
    },
    {
      "constant": true,
      "inputs": [],
      "name": "queryAirlinesCount",
      "outputs": [
        {
          "name": "",
          "type": "uint256"
        }
      ],
      "payable": false,
      "stateMutability": "view",
      "type": "function"
    },
    {
      "constant": true,
      "inputs": [
        {
          "name": "_candidate",
          "type": "address"
        }
      ],
      "name": "checkVotes",
      "outputs": [
        {
          "name": "",
          "type": "uint256"
        }
      ],
      "payable": false,
      "stateMutability": "view",
      "type": "function"
    },
    {
      "constant": true,
      "inputs": [
        {
          "name": "fee",
          "type": "uint256"
        }
      ],
      "name": "isLessThanMax",
      "outputs": [
        {
          "name": "",
          "type": "bool"
        }
      ],
      "payable": false,
      "stateMutability": "pure",
      "type": "function"
    },
    {
      "constant": false,
      "inputs": [
        {
          "name": "_candidate",
          "type": "address"
        }
      ],
      "name": "addToRegisteredAirlines",
      "outputs": [],
      "payable": false,
      "stateMutability": "nonpayable",
      "type": "function"
    },
    {
      "constant": true,
      "inputs": [
        {
          "name": "_code",
          "type": "string"
        },
        {
          "name": "_timestamp",
          "type": "uint256"
        }
      ],
      "name": "generateFlightKey",
      "outputs": [
        {
          "name": "",
          "type": "bytes32"
        }
      ],
      "payable": false,
      "stateMutability": "pure",
      "type": "function"
    },
    {
      "constant": true,
      "inputs": [
        {
          "name": "_insuranceKey",
          "type": "bytes32"
        },
        {
          "name": "_candidate",
          "type": "address"
        }
      ],
      "name": "isBuyer",
      "outputs": [
        {
          "name": "",
          "type": "bool"
        }
      ],
      "payable": false,
      "stateMutability": "view",
      "type": "function"
    },
    {
      "constant": true,
      "inputs": [
        {
          "name": "_testingAddress",
          "type": "address"
        }
      ],
      "name": "isAirlineEntered",
      "outputs": [
        {
          "name": "",
          "type": "bool"
        }
      ],
      "payable": false,
      "stateMutability": "view",
      "type": "function"
    },
    {
      "constant": true,
      "inputs": [
        {
          "name": "_candidate",
          "type": "address"
        }
      ],
      "name": "moreThanHalf",
      "outputs": [
        {
          "name": "",
          "type": "bool"
        }
      ],
      "payable": false,
      "stateMutability": "view",
      "type": "function"
    },
    {
      "constant": true,
      "inputs": [
        {
          "name": "_flightKey",
          "type": "bytes32"
        },
        {
          "name": "_insuranceKey",
          "type": "bytes32"
        }
      ],
      "name": "isFlightHasThisInsuranceKey",
      "outputs": [
        {
          "name": "",
          "type": "bool"
        }
      ],
      "payable": false,
      "stateMutability": "view",
      "type": "function"
    },
    {
      "constant": true,
      "inputs": [
        {
          "name": "_insuranceKey",
          "type": "bytes32"
        }
      ],
      "name": "isExist",
      "outputs": [
        {
          "name": "",
          "type": "bool"
        }
      ],
      "payable": false,
      "stateMutability": "view",
      "type": "function"
    },
    {
      "constant": true,
      "inputs": [
        {
          "name": "_airline",
          "type": "address"
        },
        {
          "name": "_flightKey",
          "type": "bytes32"
        }
      ],
      "name": "isFlightOwner",
      "outputs": [
        {
          "name": "",
          "type": "bool"
        }
      ],
      "payable": false,
      "stateMutability": "view",
      "type": "function"
    },
    {
      "constant": false,
      "inputs": [
        {
          "name": "_airline",
          "type": "address"
        },
        {
          "name": "_fund",
          "type": "uint256"
        }
      ],
      "name": "deductFund",
      "outputs": [],
      "payable": false,
      "stateMutability": "nonpayable",
      "type": "function"
    },
    {
      "constant": true,
      "inputs": [
        {
          "name": "_insuranceKey",
          "type": "bytes32"
        }
      ],
      "name": "queryInsuranceBuyer",
      "outputs": [
        {
          "name": "",
          "type": "address"
        }
      ],
      "payable": false,
      "stateMutability": "view",
      "type": "function"
    },
    {
      "constant": true,
      "inputs": [],
      "name": "getOwner",
      "outputs": [
        {
          "name": "",
          "type": "address"
        }
      ],
      "payable": false,
      "stateMutability": "view",
      "type": "function"
    },
    {
      "constant": true,
      "inputs": [
        {
          "name": "_candidate",
          "type": "address"
        }
      ],
      "name": "isAirlineFulfill",
      "outputs": [
        {
          "name": "",
          "type": "bool"
        }
      ],
      "payable": false,
      "stateMutability": "view",
      "type": "function"
    },
    {
      "constant": false,
      "inputs": [
        {
          "name": "_name",
          "type": "string"
        },
        {
          "name": "_airline",
          "type": "address"
        }
      ],
      "name": "addAirline",
      "outputs": [],
      "payable": false,
      "stateMutability": "nonpayable",
      "type": "function"
    },
    {
      "constant": true,
      "inputs": [
        {
          "name": "_airline",
          "type": "address"
        }
      ],
      "name": "isAirlineHasEnoughFund",
      "outputs": [
        {
          "name": "",
          "type": "bool"
        }
      ],
      "payable": false,
      "stateMutability": "view",
      "type": "function"
    },
    {
      "constant": true,
      "inputs": [
        {
          "name": "_flightID",
          "type": "bytes32"
        }
      ],
      "name": "getInsuranceKeysList",
      "outputs": [
        {
          "name": "",
          "type": "bytes32[]"
        }
      ],
      "payable": false,
      "stateMutability": "view",
      "type": "function"
    },
    {
      "constant": true,
      "inputs": [
        {
          "name": "_buyer",
          "type": "address"
        },
        {
          "name": "_flightKey",
          "type": "bytes32"
        },
        {
          "name": "_contractTimestamp",
          "type": "uint256"
        }
      ],
      "name": "generateInsuranceKey",
      "outputs": [
        {
          "name": "",
          "type": "bytes32"
        }
      ],
      "payable": false,
      "stateMutability": "pure",
      "type": "function"
    },
    {
      "constant": true,
      "inputs": [
        {
          "name": "_buyer",
          "type": "address"
        }
      ],
      "name": "isBuyerExist",
      "outputs": [
        {
          "name": "",
          "type": "bool"
        }
      ],
      "payable": false,
      "stateMutability": "view",
      "type": "function"
    },
    {
      "constant": true,
      "inputs": [
        {
          "name": "_insuranceKey",
          "type": "bytes32"
        }
      ],
      "name": "isActivated",
      "outputs": [
        {
          "name": "",
          "type": "bool"
        }
      ],
      "payable": false,
      "stateMutability": "view",
      "type": "function"
    },
    {
      "constant": true,
      "inputs": [
        {
          "name": "_airline",
          "type": "address"
        }
      ],
      "name": "queryFund",
      "outputs": [
        {
          "name": "",
          "type": "uint256"
        }
      ],
      "payable": false,
      "stateMutability": "view",
      "type": "function"
    },
    {
      "constant": true,
      "inputs": [],
      "name": "isOperational",
      "outputs": [
        {
          "name": "",
          "type": "bool"
        }
      ],
      "payable": false,
      "stateMutability": "view",
      "type": "function"
    },
    {
      "constant": false,
      "inputs": [
        {
          "name": "_buyer",
          "type": "address"
        },
        {
          "name": "_flightKey",
          "type": "bytes32"
        },
        {
          "name": "_contractTimestamp",
          "type": "uint256"
        },
        {
          "name": "_airline",
          "type": "address"
        },
        {
          "name": "_fee",
          "type": "uint256"
        }
      ],
      "name": "addInsurance",
      "outputs": [],
      "payable": false,
      "stateMutability": "nonpayable",
      "type": "function"
    },
    {
      "constant": false,
      "inputs": [
        {
          "name": "_airline",
          "type": "address"
        },
        {
          "name": "_fund",
          "type": "uint256"
        }
      ],
      "name": "addFund",
      "outputs": [],
      "payable": false,
      "stateMutability": "nonpayable",
      "type": "function"
    },
    {
      "constant": true,
      "inputs": [
        {
          "name": "_testingAddress",
          "type": "address"
        }
      ],
      "name": "isAirlineExist",
      "outputs": [
        {
          "name": "",
          "type": "bool"
        }
      ],
      "payable": false,
      "stateMutability": "view",
      "type": "function"
    },
    {
      "constant": true,
      "inputs": [
        {
          "name": "_flightID",
          "type": "bytes32"
        }
      ],
      "name": "queryFlightInfo",
      "outputs": [
        {
          "name": "flightKey",
          "type": "bytes32"
        },
        {
          "name": "code",
          "type": "string"
        },
        {
          "name": "airline",
          "type": "address"
        },
        {
          "name": "timestamp",
          "type": "uint256"
        },
        {
          "name": "status",
          "type": "uint8"
        }
      ],
      "payable": false,
      "stateMutability": "view",
      "type": "function"
    },
    {
      "constant": true,
      "inputs": [
        {
          "name": "_airline",
          "type": "address"
        }
      ],
      "name": "queryAirline",
      "outputs": [
        {
          "name": "name",
          "type": "string"
        },
        {
          "name": "status",
          "type": "uint8"
        },
        {
          "name": "votesCount",
          "type": "uint256"
        },
        {
          "name": "funds",
          "type": "uint256"
        }
      ],
      "payable": false,
      "stateMutability": "view",
      "type": "function"
    },
    {
      "constant": false,
      "inputs": [
        {
          "name": "_insuranceKey",
          "type": "bytes32"
        }
      ],
      "name": "creditInsurance",
      "outputs": [
        {
          "name": "credits",
          "type": "uint256"
        }
      ],
      "payable": false,
      "stateMutability": "nonpayable",
      "type": "function"
    },
    {
      "constant": true,
      "inputs": [
        {
          "name": "_testingAddress",
          "type": "address"
        }
      ],
      "name": "isAirlineFunded",
      "outputs": [
        {
          "name": "",
          "type": "bool"
        }
      ],
      "payable": false,
      "stateMutability": "view",
      "type": "function"
    },
    {
      "constant": true,
      "inputs": [
        {
          "name": "_insuranceKey",
          "type": "bytes32"
        }
      ],
      "name": "isCredited",
      "outputs": [
        {
          "name": "",
          "type": "bool"
        }
      ],
      "payable": false,
      "stateMutability": "view",
      "type": "function"
    },
    {
      "constant": true,
      "inputs": [
        {
          "name": "_flightID",
          "type": "bytes32"
        }
      ],
      "name": "isFlightLateAirline",
      "outputs": [
        {
          "name": "",
          "type": "bool"
        }
      ],
      "payable": false,
      "stateMutability": "view",
      "type": "function"
    },
    {
      "anonymous": false,
      "inputs": [
        {
          "indexed": false,
          "name": "flightCode",
          "type": "string"
        },
        {
          "indexed": false,
          "name": "deparTimestamp",
          "type": "uint256"
        },
        {
          "indexed": false,
          "name": "airline",
          "type": "address"
        },
        {
          "indexed": false,
          "name": "flightKey",
          "type": "bytes32"
        }
      ],
      "name": "FlightAdded",
      "type": "event"
    },
    {
      "anonymous": false,
      "inputs": [
        {
          "indexed": false,
          "name": "flightCode",
          "type": "string"
        },
        {
          "indexed": false,
          "name": "deparTimestamp",
          "type": "uint256"
        },
        {
          "indexed": false,
          "name": "airline",
          "type": "address"
        },
        {
          "indexed": false,
          "name": "flightKey",
          "type": "bytes32"
        },
        {
          "indexed": false,
          "name": "state",
          "type": "uint8"
        }
      ],
      "name": "FlightArrival",
      "type": "event"
    },
    {
      "anonymous": false,
      "inputs": [
        {
          "indexed": false,
          "name": "flightKey",
          "type": "bytes32"
        },
        {
          "indexed": false,
          "name": "insuranceKey",
          "type": "bytes32"
        },
        {
          "indexed": false,
          "name": "buyer",
          "type": "address"
        },
        {
          "indexed": false,
          "name": "fee",
          "type": "uint256"
        }
      ],
      "name": "BuyInsurance",
      "type": "event"
    },
    {
      "anonymous": false,
      "inputs": [
        {
          "indexed": false,
          "name": "flightKey",
          "type": "bytes32"
        },
        {
          "indexed": false,
          "name": "insuranceKey",
          "type": "bytes32"
        },
        {
          "indexed": false,
          "name": "buyer",
          "type": "address"
        },
        {
          "indexed": false,
          "name": "credits",
          "type": "uint256"
        }
      ],
      "name": "CreditInsurance",
      "type": "event"
    },
    {
      "anonymous": false,
      "inputs": [
        {
          "indexed": false,
          "name": "name",
          "type": "string"
        },
        {
          "indexed": false,
          "name": "airline",
          "type": "address"
        }
      ],
      "name": "AirlineEntered",
      "type": "event"
    },
    {
      "anonymous": false,
      "inputs": [
        {
          "indexed": false,
          "name": "name",
          "type": "string"
        },
        {
          "indexed": false,
          "name": "airline",
          "type": "address"
        }
      ],
      "name": "AirlinePendingVote",
      "type": "event"
    },
    {
      "anonymous": false,
      "inputs": [
        {
          "indexed": false,
          "name": "candidate",
          "type": "address"
        },
        {
          "indexed": false,
          "name": "voter",
          "type": "address"
        },
        {
          "indexed": false,
          "name": "votes",
          "type": "uint256"
        }
      ],
      "name": "AirlineVoted",
      "type": "event"
    },
    {
      "anonymous": false,
      "inputs": [
        {
          "indexed": false,
          "name": "name",
          "type": "string"
        },
        {
          "indexed": false,
          "name": "airline",
          "type": "address"
        }
      ],
      "name": "AirlineRegistered",
      "type": "event"
    },
    {
      "anonymous": false,
      "inputs": [
        {
          "indexed": false,
          "name": "name",
          "type": "string"
        },
        {
          "indexed": false,
          "name": "airline",
          "type": "address"
        },
        {
          "indexed": false,
          "name": "fund",
          "type": "uint256"
        }
      ],
      "name": "AirlineFunded",
      "type": "event"
    },
    {
      "constant": false,
      "inputs": [
        {
          "name": "_name",
          "type": "string"
        },
        {
          "name": "_airline",
          "type": "address"
        }
      ],
      "name": "registerAirline",
      "outputs": [],
      "payable": false,
      "stateMutability": "nonpayable",
      "type": "function"
    },
    {
      "constant": false,
      "inputs": [
        {
          "name": "_candidate",
          "type": "address"
        },
        {
          "name": "_voter",
          "type": "address"
        }
      ],
      "name": "vote",
      "outputs": [],
      "payable": false,
      "stateMutability": "nonpayable",
      "type": "function"
    },
    {
      "constant": false,
      "inputs": [
        {
          "name": "_code",
          "type": "string"
        },
        {
          "name": "_timestamp",
          "type": "uint256"
        },
        {
          "name": "_airline",
          "type": "address"
        }
      ],
      "name": "registerFlight",
      "outputs": [],
      "payable": false,
      "stateMutability": "nonpayable",
      "type": "function"
    },
    {
      "constant": false,
      "inputs": [
        {
          "name": "_buyer",
          "type": "address"
        },
        {
          "name": "_flightKey",
          "type": "bytes32"
        },
        {
          "name": "_contractTimestamp",
          "type": "uint256"
        },
        {
          "name": "_airline",
          "type": "address"
        },
        {
          "name": "_fee",
          "type": "uint256"
        }
      ],
      "name": "registerInsurance",
      "outputs": [],
      "payable": false,
      "stateMutability": "nonpayable",
      "type": "function"
    },
    {
      "constant": false,
      "inputs": [
        {
          "name": "flightKey",
          "type": "bytes32"
        }
      ],
      "name": "setFlightOnTime",
      "outputs": [],
      "payable": false,
      "stateMutability": "nonpayable",
      "type": "function"
    },
    {
      "constant": false,
      "inputs": [
        {
          "name": "flightKey",
          "type": "bytes32"
        }
      ],
      "name": "setFlightLateAirline",
      "outputs": [],
      "payable": false,
      "stateMutability": "nonpayable",
      "type": "function"
    },
    {
      "constant": false,
      "inputs": [
        {
          "name": "flightKey",
          "type": "bytes32"
        }
      ],
      "name": "setFlightLateNotAirline",
      "outputs": [],
      "payable": false,
      "stateMutability": "nonpayable",
      "type": "function"
    },
    {
      "constant": false,
      "inputs": [
        {
          "name": "insuranceKey",
          "type": "bytes32"
        }
      ],
      "name": "setInsuranceExpired",
      "outputs": [],
      "payable": false,
      "stateMutability": "nonpayable",
      "type": "function"
    },
    {
      "constant": false,
      "inputs": [
        {
          "name": "insuranceKey",
          "type": "bytes32"
        }
      ],
      "name": "setInsuranceCredited",
      "outputs": [],
      "payable": false,
      "stateMutability": "nonpayable",
      "type": "function"
    },
    {
      "constant": false,
      "inputs": [
        {
          "name": "insuranceKey",
          "type": "bytes32"
        }
      ],
      "name": "setInsuranceWithdrawn",
      "outputs": [],
      "payable": false,
      "stateMutability": "nonpayable",
      "type": "function"
    },
    {
      "constant": false,
      "inputs": [
        {
          "name": "flightKey",
          "type": "bytes32"
        }
      ],
      "name": "creditInsurees",
      "outputs": [],
      "payable": false,
      "stateMutability": "nonpayable",
      "type": "function"
    }
  ],
  "bytecode": "0x60806040526001600760146101000a81548160ff02191690831515021790555033600760006101000a81548173ffffffffffffffffffffffffffffffffffffffff021916908373ffffffffffffffffffffffffffffffffffffffff160217905550615ff78061006f6000396000f3fe608060405234801561001057600080fd5b50600436106103a45760003560e01c80637508ec20116101e9578063c77eb5a21161010f578063df00f5ea116100ad578063f2c6d0b21161007c578063f2c6d0b214611840578063f53b6d651461186e578063fb933ebd146118ca578063fc00b28614611910576103a4565b8063df00f5ea146115c5578063e7e4ff7114611621578063e9e2ea951461171e578063ee06ce2b146117fe576103a4565b8063cd905dff116100e9578063cd905dff146114a5578063d0d6c8e1146114c7578063d512c06114611549578063d709f2a114611597576103a4565b8063c77eb5a2146113f1578063c9e4b0d31461141f578063cc2f6eba14611477576103a4565b806392a0b6eb11610187578063b3e70c3111610156578063b3e70c3114611260578063b58c31be146112e3578063b88490731461134f578063ba87af80146113ab576103a4565b806392a0b6eb1461109f5780639348916f146110fb578063aed6862b14611129578063b392481014611204576103a4565b806388e4fe3f116101c357806388e4fe3f14610f6b57806389199e3714610fb9578063893d20e81461102757806389c6c14e14611071576103a4565b80637508ec2014610e6f578063762fee1814610ebf578063849365a114610f05576103a4565b80634652cb90116102ce5780635caea9cb1161026c57806363f045a51161023b57806363f045a514610c6c57806365c152f714610cd25780636f0fec4b14610db75780636f1fa7a814610e13576103a4565b80635caea9cb14610ab15780635dade69914610b095780635e913b2e14610b4f578063637a66df14610b93576103a4565b806358ac36a3116102a857806358ac36a31461099257806359d14b41146109d85780635aa0c5bb14610a345780635bcd59ae14610a93576103a4565b80634652cb901461091057806355b2bb0f1461095257806356f4fa1e14610970576103a4565b80631afa74e5116103465780633d027743116103155780633d027743146107765780633d43020b1461084857806343ba1e3c146108a057806345e2748d146108e2576103a4565b80631afa74e5146105ee5780631dd7a3f614610652578063242f83e8146106d457806334198f221461071a576103a4565b80630f08f655116103825780630f08f65514610524578063110466ed1461055c57806313a155ea1461058c5780631558ac86146105d0576103a4565b8063010c5c97146103a95780630d829250146104055780630e2c412914610449575b600080fd5b6103eb600480360360208110156103bf57600080fd5b81019080803573ffffffffffffffffffffffffffffffffffffffff169060200190929190505050611956565b604051808215151515815260200191505060405180910390f35b6104476004803603602081101561041b57600080fd5b81019080803573ffffffffffffffffffffffffffffffffffffffff1690602001909291905050506119c8565b005b6105226004803603604081101561045f57600080fd5b810190808035906020019064010000000081111561047c57600080fd5b82018360208201111561048e57600080fd5b803590602001918460018302840111640100000000831117156104b057600080fd5b91908080601f016020809104026020016040519081016040528093929190818152602001838380828437600081840152601f19601f820116905080830192505050505050509192919290803573ffffffffffffffffffffffffffffffffffffffff169060200190929190505050611a90565b005b61055a6004803603604081101561053a57600080fd5b810190808035906020019092919080359060200190929190505050611b9f565b005b61058a6004803603602081101561057257600080fd5b81019080803515159060200190929190505050611d5c565b005b6105ce600480360360208110156105a257600080fd5b81019080803573ffffffffffffffffffffffffffffffffffffffff169060200190929190505050611e3c565b005b6105d8611fb7565b6040518082815260200191505060405180910390f35b6106506004803603604081101561060457600080fd5b81019080803573ffffffffffffffffffffffffffffffffffffffff169060200190929190803573ffffffffffffffffffffffffffffffffffffffff169060200190929190505050611fc4565b005b6106d2600480360360a081101561066857600080fd5b81019080803573ffffffffffffffffffffffffffffffffffffffff1690602001909291908035906020019092919080359060200190929190803573ffffffffffffffffffffffffffffffffffffffff16906020019092919080359060200190929190505050612076565b005b610700600480360360208110156106ea57600080fd5b8101908080359060200190929190505050612161565b604051808215151515815260200191505060405180910390f35b61075c6004803603602081101561073057600080fd5b81019080803573ffffffffffffffffffffffffffffffffffffffff16906020019092919050505061218e565b604051808215151515815260200191505060405180910390f35b6107a26004803603602081101561078c57600080fd5b81019080803590602001909291905050506121b0565b604051808873ffffffffffffffffffffffffffffffffffffffff1673ffffffffffffffffffffffffffffffffffffffff1681526020018781526020018673ffffffffffffffffffffffffffffffffffffffff1673ffffffffffffffffffffffffffffffffffffffff16815260200185815260200184815260200183815260200182600381111561082e57fe5b60ff16815260200197505050505050505060405180910390f35b61088a6004803603602081101561085e57600080fd5b81019080803573ffffffffffffffffffffffffffffffffffffffff1690602001909291905050506122c2565b6040518082815260200191505060405180910390f35b6108cc600480360360208110156108b657600080fd5b810190808035906020019092919050505061230e565b6040518082815260200191505060405180910390f35b61090e600480360360208110156108f857600080fd5b81019080803590602001909291905050506123ae565b005b61093c6004803603602081101561092657600080fd5b810190808035906020019092919050505061245e565b6040518082815260200191505060405180910390f35b61095a61248d565b6040518082815260200191505060405180910390f35b610978612499565b604051808215151515815260200191505060405180910390f35b6109be600480360360208110156109a857600080fd5b81019080803590602001909291905050506124a9565b604051808215151515815260200191505060405180910390f35b610a1a600480360360208110156109ee57600080fd5b81019080803573ffffffffffffffffffffffffffffffffffffffff1690602001909291905050506124ee565b604051808215151515815260200191505060405180910390f35b610a3c612544565b6040518080602001828103825283818151815260200191508051906020019060200280838360005b83811015610a7f578082015181840152602081019050610a64565b505050509050019250505060405180910390f35b610a9b61259c565b6040518082815260200191505060405180910390f35b610af360048036036020811015610ac757600080fd5b81019080803573ffffffffffffffffffffffffffffffffffffffff1690602001909291905050506125a8565b6040518082815260200191505060405180910390f35b610b3560048036036020811015610b1f57600080fd5b81019080803590602001909291905050506125f7565b604051808215151515815260200191505060405180910390f35b610b9160048036036020811015610b6557600080fd5b81019080803573ffffffffffffffffffffffffffffffffffffffff16906020019092919050505061260c565b005b610c5660048036036040811015610ba957600080fd5b8101908080359060200190640100000000811115610bc657600080fd5b820183602082011115610bd857600080fd5b80359060200191846001830284011164010000000083111715610bfa57600080fd5b91908080601f016020809104026020016040519081016040528093929190818152602001838380828437600081840152601f19601f820116905080830192505050505050509192919290803590602001909291905050506126dc565b6040518082815260200191505060405180910390f35b610cb860048036036040811015610c8257600080fd5b8101908080359060200190929190803573ffffffffffffffffffffffffffffffffffffffff169060200190929190505050612760565b604051808215151515815260200191505060405180910390f35b610db560048036036060811015610ce857600080fd5b8101908080359060200190640100000000811115610d0557600080fd5b820183602082011115610d1757600080fd5b80359060200191846001830284011164010000000083111715610d3957600080fd5b91908080601f016020809104026020016040519081016040528093929190818152602001838380828437600081840152601f19601f82011690508083019250505050505050919291929080359060200190929190803573ffffffffffffffffffffffffffffffffffffffff1690602001909291905050506127cf565b005b610df960048036036020811015610dcd57600080fd5b81019080803573ffffffffffffffffffffffffffffffffffffffff1690602001909291905050506129bd565b604051808215151515815260200191505060405180910390f35b610e5560048036036020811015610e2957600080fd5b81019080803573ffffffffffffffffffffffffffffffffffffffff169060200190929190505050612a2e565b604051808215151515815260200191505060405180910390f35b610ea560048036036040811015610e8557600080fd5b810190808035906020019092919080359060200190929190505050612a91565b604051808215151515815260200191505060405180910390f35b610eeb60048036036020811015610ed557600080fd5b8101908080359060200190929190505050612b4d565b604051808215151515815260200191505060405180910390f35b610f5160048036036040811015610f1b57600080fd5b81019080803573ffffffffffffffffffffffffffffffffffffffff16906020019092919080359060200190929190505050612b7a565b604051808215151515815260200191505060405180910390f35b610fb760048036036040811015610f8157600080fd5b81019080803573ffffffffffffffffffffffffffffffffffffffff16906020019092919080359060200190929190505050612c66565b005b610fe560048036036020811015610fcf57600080fd5b8101908080359060200190929190505050612e31565b604051808273ffffffffffffffffffffffffffffffffffffffff1673ffffffffffffffffffffffffffffffffffffffff16815260200191505060405180910390f35b61102f612eec565b604051808273ffffffffffffffffffffffffffffffffffffffff1673ffffffffffffffffffffffffffffffffffffffff16815260200191505060405180910390f35b61109d6004803603602081101561108757600080fd5b8101908080359060200190929190505050612f16565b005b6110e1600480360360208110156110b557600080fd5b81019080803573ffffffffffffffffffffffffffffffffffffffff169060200190929190505050612fc6565b604051808215151515815260200191505060405180910390f35b6111276004803603602081101561111157600080fd5b8101908080359060200190929190505050612ff8565b005b6112026004803603604081101561113f57600080fd5b810190808035906020019064010000000081111561115c57600080fd5b82018360208201111561116e57600080fd5b8035906020019184600183028401116401000000008311171561119057600080fd5b91908080601f016020809104026020016040519081016040528093929190818152602001838380828437600081840152601f19601f820116905080830192505050505050509192919290803573ffffffffffffffffffffffffffffffffffffffff1690602001909291905050506130a8565b005b6112466004803603602081101561121a57600080fd5b81019080803573ffffffffffffffffffffffffffffffffffffffff169060200190929190505050613451565b604051808215151515815260200191505060405180910390f35b61128c6004803603602081101561127657600080fd5b81019080803590602001909291905050506134a7565b6040518080602001828103825283818151815260200191508051906020019060200280838360005b838110156112cf5780820151818401526020810190506112b4565b505050509050019250505060405180910390f35b611339600480360360608110156112f957600080fd5b81019080803573ffffffffffffffffffffffffffffffffffffffff1690602001909291908035906020019092919080359060200190929190505050613592565b6040518082815260200191505060405180910390f35b6113916004803603602081101561136557600080fd5b81019080803573ffffffffffffffffffffffffffffffffffffffff169060200190929190505050613603565b604051808215151515815260200191505060405180910390f35b6113d7600480360360208110156113c157600080fd5b810190808035906020019092919050505061365c565b604051808215151515815260200191505060405180910390f35b61141d6004803603602081101561140757600080fd5b81019080803590602001909291905050506136a1565b005b6114616004803603602081101561143557600080fd5b81019080803573ffffffffffffffffffffffffffffffffffffffff169060200190929190505050613751565b6040518082815260200191505060405180910390f35b6114a36004803603602081101561148d57600080fd5b810190808035906020019092919050505061381a565b005b6114ad613972565b604051808215151515815260200191505060405180910390f35b611547600480360360a08110156114dd57600080fd5b81019080803573ffffffffffffffffffffffffffffffffffffffff1690602001909291908035906020019092919080359060200190929190803573ffffffffffffffffffffffffffffffffffffffff16906020019092919080359060200190929190505050613989565b005b6115956004803603604081101561155f57600080fd5b81019080803573ffffffffffffffffffffffffffffffffffffffff16906020019092919080359060200190929190505050613cfa565b005b6115c3600480360360208110156115ad57600080fd5b8101908080359060200190929190505050613e42565b005b611607600480360360208110156115db57600080fd5b81019080803573ffffffffffffffffffffffffffffffffffffffff169060200190929190505050613ef2565b604051808215151515815260200191505060405180910390f35b61164d6004803603602081101561163757600080fd5b8101908080359060200190929190505050613f4b565b60405180868152602001806020018573ffffffffffffffffffffffffffffffffffffffff1673ffffffffffffffffffffffffffffffffffffffff16815260200184815260200183600381111561169f57fe5b60ff168152602001828103825286818151815260200191508051906020019080838360005b838110156116df5780820151818401526020810190506116c4565b50505050905090810190601f16801561170c5780820380516001836020036101000a031916815260200191505b50965050505050505060405180910390f35b6117606004803603602081101561173457600080fd5b81019080803573ffffffffffffffffffffffffffffffffffffffff169060200190929190505050614089565b604051808060200185600281111561177457fe5b60ff168152602001848152602001838152602001828103825286818151815260200191508051906020019080838360005b838110156117c05780820151818401526020810190506117a5565b50505050905090810190601f1680156117ed5780820380516001836020036101000a031916815260200191505b509550505050505060405180910390f35b61182a6004803603602081101561181457600080fd5b8101908080359060200190929190505050614253565b6040518082815260200191505060405180910390f35b61186c6004803603602081101561185657600080fd5b8101908080359060200190929190505050614391565b005b6118b06004803603602081101561188457600080fd5b81019080803573ffffffffffffffffffffffffffffffffffffffff169060200190929190505050614441565b604051808215151515815260200191505060405180910390f35b6118f6600480360360208110156118e057600080fd5b81019080803590602001909291905050506144b2565b604051808215151515815260200191505060405180910390f35b61193c6004803603602081101561192657600080fd5b81019080803590602001909291905050506144f8565b604051808215151515815260200191505060405180910390f35b60006001600281111561196557fe5b600160008473ffffffffffffffffffffffffffffffffffffffff1673ffffffffffffffffffffffffffffffffffffffff16815260200190815260200160002060010160009054906101000a900460ff1660028111156119c057fe5b149050919050565b806119d281613603565b611a44576040517f08c379a00000000000000000000000000000000000000000000000000000000081526004018080602001828103825260138152602001807f427579657220646f65736e27742065786973740000000000000000000000000081525060200191505060405180910390fd5b6000600460008473ffffffffffffffffffffffffffffffffffffffff1673ffffffffffffffffffffffffffffffffffffffff168152602001908152602001600020600001819055505050565b611a98613972565b611aed576040517f08c379a0000000000000000000000000000000000000000000000000000000008152600401808060200182810382526025815260200180615eda6025913960400191505060405180910390fd5b33600860008273ffffffffffffffffffffffffffffffffffffffff1673ffffffffffffffffffffffffffffffffffffffff16815260200190815260200160002060009054906101000a900460ff16611b90576040517f08c379a0000000000000000000000000000000000000000000000000000000008152600401808060200182810382526030815260200180615de46030913960400191505060405180910390fd5b611b9a83836130a8565b505050565b611ba882612161565b611c1a576040517f08c379a00000000000000000000000000000000000000000000000000000000081526004018080602001828103825260198152602001807f54686520666c6967687420646f6573206e6f742065786973740000000000000081525060200191505060405180910390fd5b611c23826124a9565b611c78576040517f08c379a0000000000000000000000000000000000000000000000000000000008152600401808060200182810382526027815260200180615d996027913960400191505060405180910390fd5b611c828282612a91565b15611cd8576040517f08c379a0000000000000000000000000000000000000000000000000000000008152600401808060200182810382526028815260200180615e7f6028913960400191505060405180910390fd5b600160056000848152602001908152602001600020600401600083815260200190815260200160002060006101000a81548160ff021916908315150217905550600560008381526020019081526020016000206003018190806001815401808255809150509060018203906000526020600020016000909192909190915055505050565b600760009054906101000a900473ffffffffffffffffffffffffffffffffffffffff1673ffffffffffffffffffffffffffffffffffffffff163373ffffffffffffffffffffffffffffffffffffffff1614611e1f576040517f08c379a000000000000000000000000000000000000000000000000000000000815260040180806020018281038252601c8152602001807f43616c6c6572206973206e6f7420636f6e7472616374206f776e65720000000081525060200191505060405180910390fd5b80600760146101000a81548160ff02191690831515021790555050565b611e44613972565b611e99576040517f08c379a0000000000000000000000000000000000000000000000000000000008152600401808060200182810382526025815260200180615eda6025913960400191505060405180910390fd5b600760009054906101000a900473ffffffffffffffffffffffffffffffffffffffff1673ffffffffffffffffffffffffffffffffffffffff163373ffffffffffffffffffffffffffffffffffffffff1614611f5c576040517f08c379a000000000000000000000000000000000000000000000000000000000815260040180806020018281038252601c8152602001807f43616c6c6572206973206e6f7420636f6e7472616374206f776e65720000000081525060200191505060405180910390fd5b6001600860008373ffffffffffffffffffffffffffffffffffffffff1673ffffffffffffffffffffffffffffffffffffffff16815260200190815260200160002060006101000a81548160ff02191690831515021790555050565b6000600280549050905090565b33600860008273ffffffffffffffffffffffffffffffffffffffff1673ffffffffffffffffffffffffffffffffffffffff16815260200190815260200160002060009054906101000a900460ff16612067576040517f08c379a0000000000000000000000000000000000000000000000000000000008152600401808060200182810382526030815260200180615de46030913960400191505060405180910390fd5b612071838361453e565b505050565b61207e613972565b6120d3576040517f08c379a0000000000000000000000000000000000000000000000000000000008152600401808060200182810382526025815260200180615eda6025913960400191505060405180910390fd5b836120dd816124a9565b612132576040517f08c379a0000000000000000000000000000000000000000000000000000000008152600401808060200182810382526023815260200180615e5c6023913960400191505060405180910390fd5b61213f8686868686613989565b600061214c878787613592565b90506121588682611b9f565b50505050505050565b60006005600083815260200190815260200160002060050160019054906101000a900460ff169050919050565b600061219982611956565b806121a957506121a882614441565b5b9050919050565b60008060008060008060006003600089815260200190815260200160002060000160009054906101000a900473ffffffffffffffffffffffffffffffffffffffff169650600360008981526020019081526020016000206001015495506003600089815260200190815260200160002060020160009054906101000a900473ffffffffffffffffffffffffffffffffffffffff1694506003600089815260200190815260200160002060030154935060036000898152602001908152602001600020600401549250600360008981526020019081526020016000206005015491506003600089815260200190815260200160002060060160009054906101000a900460ff169050919395979092949650565b6000600460008373ffffffffffffffffffffffffffffffffffffffff1673ffffffffffffffffffffffffffffffffffffffff168152602001908152602001600020600001549050919050565b60008161231a81612161565b61238c576040517f08c379a00000000000000000000000000000000000000000000000000000000081526004018080602001828103825260158152602001807f466c6967687420646f6573206e6f74206578697374000000000000000000000081525060200191505060405180910390fd5b6005600084815260200190815260200160002060030180549050915050919050565b33600860008273ffffffffffffffffffffffffffffffffffffffff1673ffffffffffffffffffffffffffffffffffffffff16815260200190815260200160002060009054906101000a900460ff16612451576040517f08c379a0000000000000000000000000000000000000000000000000000000008152600401808060200182810382526030815260200180615de46030913960400191505060405180910390fd5b61245a8261481d565b5050565b6000612486612477600284614a4f90919063ffffffff16565b83614ade90919063ffffffff16565b9050919050565b678ac7230489e8000081565b6000600460028054905010905090565b60008060038111156124b757fe5b6005600084815260200190815260200160002060050160009054906101000a900460ff1660038111156124e657fe5b149050919050565b6000600860008373ffffffffffffffffffffffffffffffffffffffff1673ffffffffffffffffffffffffffffffffffffffff16815260200190815260200160002060009054906101000a900460ff169050919050565b6060600680548060200260200160405190810160405280929190818152602001828054801561259257602002820191906000526020600020905b81548152602001906001019080831161257e575b5050505050905090565b60008080549050905090565b6000600160008373ffffffffffffffffffffffffffffffffffffffff1673ffffffffffffffffffffffffffffffffffffffff168152602001908152602001600020600201805490509050919050565b6000670de0b6b3a76400008211159050919050565b612615816129bd565b61266a576040517f08c379a0000000000000000000000000000000000000000000000000000000008152600401808060200182810382526023815260200180615f886023913960400191505060405180910390fd5b60028190806001815401808255809150509060018203906000526020600020016000909192909190916101000a81548173ffffffffffffffffffffffffffffffffffffffff021916908373ffffffffffffffffffffffffffffffffffffffff160217905550506126d981614b66565b50565b600082826040516020018083805190602001908083835b6020831061271657805182526020820191506020810190506020830392506126f3565b6001836020036101000a0380198251168184511680821785525050505050509050018281526020019250505060405160208183030381529060405280519060200120905092915050565b60008173ffffffffffffffffffffffffffffffffffffffff166003600085815260200190815260200160002060000160009054906101000a900473ffffffffffffffffffffffffffffffffffffffff1673ffffffffffffffffffffffffffffffffffffffff1614905092915050565b6127d7613972565b61282c576040517f08c379a0000000000000000000000000000000000000000000000000000000008152600401808060200182810382526025815260200180615eda6025913960400191505060405180910390fd5b8061283681614441565b6128a8576040517f08c379a00000000000000000000000000000000000000000000000000000000081526004018080602001828103825260208152602001807f4169726c696e65206d75737420626520696e2066756e6465642073746174757381525060200191505060405180910390fd5b816128b281613451565b612907576040517f08c379a0000000000000000000000000000000000000000000000000000000008152600401808060200182810382526033815260200180615ea76033913960400191505060405180910390fd5b33600860008273ffffffffffffffffffffffffffffffffffffffff1673ffffffffffffffffffffffffffffffffffffffff16815260200190815260200160002060009054906101000a900460ff166129aa576040517f08c379a0000000000000000000000000000000000000000000000000000000008152600401808060200182810382526030815260200180615de46030913960400191505060405180910390fd5b6129b5868686614ddc565b505050505050565b60008060028111156129cb57fe5b600160008473ffffffffffffffffffffffffffffffffffffffff1673ffffffffffffffffffffffffffffffffffffffff16815260200190815260200160002060010160009054906101000a900460ff166002811115612a2657fe5b149050919050565b600060016002808054905081612a4057fe5b0401600160008473ffffffffffffffffffffffffffffffffffffffff1673ffffffffffffffffffffffffffffffffffffffff1681526020019081526020016000206002018054905010159050919050565b600082612a9d81612161565b612b0f576040517f08c379a00000000000000000000000000000000000000000000000000000000081526004018080602001828103825260158152602001807f466c6967687420646f6573206e6f74206578697374000000000000000000000081525060200191505060405180910390fd5b60056000858152602001908152602001600020600401600084815260200190815260200160002060009054906101000a900460ff1691505092915050565b60006003600083815260200190815260200160002060060160019054906101000a900460ff169050919050565b600081612b8681612161565b612bf8576040517f08c379a00000000000000000000000000000000000000000000000000000000081526004018080602001828103825260158152602001807f466c6967687420646f6573206e6f74206578697374000000000000000000000081525060200191505060405180910390fd5b8373ffffffffffffffffffffffffffffffffffffffff166005600085815260200190815260200160002060020160009054906101000a900473ffffffffffffffffffffffffffffffffffffffff1673ffffffffffffffffffffffffffffffffffffffff161491505092915050565b81612c708161218e565b612cc5576040517f08c379a000000000000000000000000000000000000000000000000000000000815260040180806020018281038252603d815260200180615f4b603d913960400191505060405180910390fd5b82612ccf81613ef2565b612d41576040517f08c379a00000000000000000000000000000000000000000000000000000000081526004018080602001828103825260168152602001807f4164647265737320646f6573206e6f742065786973740000000000000000000081525060200191505060405180910390fd5b600160008573ffffffffffffffffffffffffffffffffffffffff1673ffffffffffffffffffffffffffffffffffffffff168152602001908152602001600020600301548310612ddb576040517f08c379a0000000000000000000000000000000000000000000000000000000008152600401808060200182810382526027815260200180615e146027913960400191505060405180910390fd5b82600160008673ffffffffffffffffffffffffffffffffffffffff1673ffffffffffffffffffffffffffffffffffffffff1681526020019081526020016000206003016000828254039250508190555050505050565b6000612e3c82612b4d565b612eae576040517f08c379a00000000000000000000000000000000000000000000000000000000081526004018080602001828103825260178152602001807f496e737572616e636520646f65736e277420657869737400000000000000000081525060200191505060405180910390fd5b6003600083815260200190815260200160002060000160009054906101000a900473ffffffffffffffffffffffffffffffffffffffff169050919050565b6000600760009054906101000a900473ffffffffffffffffffffffffffffffffffffffff16905090565b33600860008273ffffffffffffffffffffffffffffffffffffffff1673ffffffffffffffffffffffffffffffffffffffff16815260200190815260200160002060009054906101000a900460ff16612fb9576040517f08c379a0000000000000000000000000000000000000000000000000000000008152600401808060200182810382526030815260200180615de46030913960400191505060405180910390fd5b612fc2826150da565b5050565b6000612fd0612499565b80612fe05750612fdf82612a2e565b5b15612fee5760019050612ff3565b600090505b919050565b33600860008273ffffffffffffffffffffffffffffffffffffffff1673ffffffffffffffffffffffffffffffffffffffff16815260200190815260200160002060009054906101000a900460ff1661309b576040517f08c379a0000000000000000000000000000000000000000000000000000000008152600401808060200182810382526030815260200180615de46030913960400191505060405180910390fd5b6130a482615174565b5050565b806130b281613ef2565b15613108576040517f08c379a0000000000000000000000000000000000000000000000000000000008152600401808060200182810382526028815260200180615d4d6028913960400191505060405180910390fd5b613110615a52565b83816000018190525060008160200190600281111561312b57fe5b9081600281111561313857fe5b815250506000816060018181525050600181608001901515908115158152505080600160008573ffffffffffffffffffffffffffffffffffffffff1673ffffffffffffffffffffffffffffffffffffffff16815260200190815260200160002060008201518160000190805190602001906131b4929190615a8e565b5060208201518160010160006101000a81548160ff021916908360028111156131d957fe5b021790555060408201518160020190805190602001906131fa929190615b0e565b506060820151816003015560808201518160040160006101000a81548160ff02191690831515021790555090505060008390806001815401808255809150509060018203906000526020600020016000909192909190916101000a81548173ffffffffffffffffffffffffffffffffffffffff021916908373ffffffffffffffffffffffffffffffffffffffff160217905550507ff3100ff45bd551846ae092da6f82697190f72f24573165d1b06858cda4194d47848460405180806020018373ffffffffffffffffffffffffffffffffffffffff1673ffffffffffffffffffffffffffffffffffffffff168152602001828103825284818151815260200191508051906020019080838360005b83811015613323578082015181840152602081019050613308565b50505050905090810190601f1680156133505780820380516001836020036101000a031916815260200191505b50935050505060405180910390a161336783612fc6565b1561337a576133758361260c565b61344b565b7f0dd0455f85bdf4c39bcd8911401aa00834ab66fbbee80ff3189bca70fa94c60d848460405180806020018373ffffffffffffffffffffffffffffffffffffffff1673ffffffffffffffffffffffffffffffffffffffff168152602001828103825284818151815260200191508051906020019080838360005b8381101561340f5780820151818401526020810190506133f4565b50505050905090810190601f16801561343c5780820380516001836020036101000a031916815260200191505b50935050505060405180910390a15b50505050565b6000678ac7230489e80000600160008473ffffffffffffffffffffffffffffffffffffffff1673ffffffffffffffffffffffffffffffffffffffff16815260200190815260200160002060030154119050919050565b6060816134b381612161565b613525576040517f08c379a00000000000000000000000000000000000000000000000000000000081526004018080602001828103825260158152602001807f466c6967687420646f6573206e6f74206578697374000000000000000000000081525060200191505060405180910390fd5b6005600084815260200190815260200160002060030180548060200260200160405190810160405280929190818152602001828054801561358557602002820191906000526020600020905b815481526020019060010190808311613571575b5050505050915050919050565b6000838383604051602001808473ffffffffffffffffffffffffffffffffffffffff1673ffffffffffffffffffffffffffffffffffffffff1660601b815260140183815260200182815260200193505050506040516020818303038152906040528051906020012090509392505050565b6000600460008373ffffffffffffffffffffffffffffffffffffffff1673ffffffffffffffffffffffffffffffffffffffff16815260200190815260200160002060010160009054906101000a900460ff169050919050565b600080600381111561366a57fe5b6003600084815260200190815260200160002060060160009054906101000a900460ff16600381111561369957fe5b149050919050565b33600860008273ffffffffffffffffffffffffffffffffffffffff1673ffffffffffffffffffffffffffffffffffffffff16815260200190815260200160002060009054906101000a900460ff16613744576040517f08c379a0000000000000000000000000000000000000000000000000000000008152600401808060200182810382526030815260200180615de46030913960400191505060405180910390fd5b61374d8261520f565b5050565b60008161375d81614441565b6137cf576040517f08c379a00000000000000000000000000000000000000000000000000000000081526004018080602001828103825260208152602001807f4169726c696e65206d75737420626520696e2066756e6465642073746174757381525060200191505060405180910390fd5b600160008473ffffffffffffffffffffffffffffffffffffffff1673ffffffffffffffffffffffffffffffffffffffff16815260200190815260200160002060030154915050919050565b613822613972565b613877576040517f08c379a0000000000000000000000000000000000000000000000000000000008152600401808060200182810382526025815260200180615eda6025913960400191505060405180910390fd5b80613881816144f8565b5033600860008273ffffffffffffffffffffffffffffffffffffffff1673ffffffffffffffffffffffffffffffffffffffff16815260200190815260200160002060009054906101000a900460ff16613925576040517f08c379a0000000000000000000000000000000000000000000000000000000008152600401808060200182810382526030815260200180615de46030913960400191505060405180910390fd5b6060613930846134a7565b905060008090505b815181101561396b5761395d82828151811061395057fe5b6020026020010151614253565b508080600101915050613938565b5050505050565b6000600760149054906101000a900460ff16905090565b80613993816125f7565b6139e8576040517f08c379a0000000000000000000000000000000000000000000000000000000008152600401808060200182810382526027815260200180615f246027913960400191505060405180910390fd5b60006139f5878787613592565b90506139ff615b98565b87816000019073ffffffffffffffffffffffffffffffffffffffff16908173ffffffffffffffffffffffffffffffffffffffff16815250508681602001818152505084816040019073ffffffffffffffffffffffffffffffffffffffff16908173ffffffffffffffffffffffffffffffffffffffff1681525050838160600181815250506000816080018181525050858160a001818152505060008160c001906003811115613aaa57fe5b90816003811115613ab757fe5b8152505060018160e0019015159081151581525050806003600084815260200190815260200160002060008201518160000160006101000a81548173ffffffffffffffffffffffffffffffffffffffff021916908373ffffffffffffffffffffffffffffffffffffffff1602179055506020820151816001015560408201518160020160006101000a81548173ffffffffffffffffffffffffffffffffffffffff021916908373ffffffffffffffffffffffffffffffffffffffff160217905550606082015181600301556080820151816004015560a0820151816005015560c08201518160060160006101000a81548160ff02191690836003811115613bba57fe5b021790555060e08201518160060160016101000a81548160ff021916908315150217905550905050613beb88613603565b613c755760405180604001604052806000815260200160011515815250600460008a73ffffffffffffffffffffffffffffffffffffffff1673ffffffffffffffffffffffffffffffffffffffff1681526020019081526020016000206000820151816000015560208201518160010160006101000a81548160ff0219169083151502179055509050505b7f9ab1ae65e296b9d32fa2d25d59c5ae030359d318f228e0513a4089f70fcdc61387838a87604051808581526020018481526020018373ffffffffffffffffffffffffffffffffffffffff1673ffffffffffffffffffffffffffffffffffffffff16815260200182815260200194505050505060405180910390a15050505050505050565b81613d048161218e565b613d59576040517f08c379a000000000000000000000000000000000000000000000000000000000815260040180806020018281038252603d815260200180615f4b603d913960400191505060405180910390fd5b82613d6381613ef2565b613dd5576040517f08c379a00000000000000000000000000000000000000000000000000000000081526004018080602001828103825260168152602001807f4164647265737320646f6573206e6f742065786973740000000000000000000081525060200191505060405180910390fd5b613dde84614441565b613dec57613deb84615441565b5b82600160008673ffffffffffffffffffffffffffffffffffffffff1673ffffffffffffffffffffffffffffffffffffffff1681526020019081526020016000206003016000828254019250508190555050505050565b33600860008273ffffffffffffffffffffffffffffffffffffffff1673ffffffffffffffffffffffffffffffffffffffff16815260200190815260200160002060009054906101000a900460ff16613ee5576040517f08c379a0000000000000000000000000000000000000000000000000000000008152600401808060200182810382526030815260200180615de46030913960400191505060405180910390fd5b613eee82615708565b5050565b6000600160008373ffffffffffffffffffffffffffffffffffffffff1673ffffffffffffffffffffffffffffffffffffffff16815260200190815260200160002060040160009054906101000a900460ff169050919050565b600060606000806000600560008781526020019081526020016000206000018054600181600116156101000203166002900480601f016020809104026020016040519081016040528092919081815260200182805460018160011615610100020316600290048015613ffe5780601f10613fd357610100808354040283529160200191613ffe565b820191906000526020600020905b815481529060010190602001808311613fe157829003601f168201915b505050505093506005600087815260200190815260200160002060020160009054906101000a900473ffffffffffffffffffffffffffffffffffffffff169250600560008781526020019081526020016000206001015491506005600087815260200190815260200160002060050160009054906101000a900460ff16905085945091939590929450565b60606000806000600160008673ffffffffffffffffffffffffffffffffffffffff1673ffffffffffffffffffffffffffffffffffffffff1681526020019081526020016000206000018054600181600116156101000203166002900480601f0160208091040260200160405190810160405280929190818152602001828054600181600116156101000203166002900480156141665780601f1061413b57610100808354040283529160200191614166565b820191906000526020600020905b81548152906001019060200180831161414957829003601f168201915b50505050509350600160008673ffffffffffffffffffffffffffffffffffffffff1673ffffffffffffffffffffffffffffffffffffffff16815260200190815260200160002060010160009054906101000a900460ff169250600160008673ffffffffffffffffffffffffffffffffffffffff1673ffffffffffffffffffffffffffffffffffffffff168152602001908152602001600020600201805490509150600160008673ffffffffffffffffffffffffffffffffffffffff1673ffffffffffffffffffffffffffffffffffffffff1681526020019081526020016000206003015490509193509193565b60008161425f8161365c565b6142b4576040517f08c379a0000000000000000000000000000000000000000000000000000000008152600401808060200182810382526025815260200180615eff6025913960400191505060405180910390fd5b60006003600085815260200190815260200160002060030154905060006003600086815260200190815260200160002060000160009054906101000a900473ffffffffffffffffffffffffffffffffffffffff1690506143138261245e565b935083600360008781526020019081526020016000206004018190555083600460008373ffffffffffffffffffffffffffffffffffffffff1673ffffffffffffffffffffffffffffffffffffffff1681526020019081526020016000206000016000828254019250508190555061438985613e42565b505050919050565b33600860008273ffffffffffffffffffffffffffffffffffffffff1673ffffffffffffffffffffffffffffffffffffffff16815260200190815260200160002060009054906101000a900460ff16614434576040517f08c379a0000000000000000000000000000000000000000000000000000000008152600401808060200182810382526030815260200180615de46030913960400191505060405180910390fd5b61443d826157a3565b5050565b600060028081111561444f57fe5b600160008473ffffffffffffffffffffffffffffffffffffffff1673ffffffffffffffffffffffffffffffffffffffff16815260200190815260200160002060010160009054906101000a900460ff1660028111156144aa57fe5b149050919050565b6000600260038111156144c157fe5b6003600084815260200190815260200160002060060160009054906101000a900460ff1660038111156144f057fe5b149050919050565b60006002600381111561450757fe5b6005600084815260200190815260200160002060050160009054906101000a900460ff16600381111561453657fe5b149050919050565b8061454881611956565b61459d576040517f08c379a0000000000000000000000000000000000000000000000000000000008152600401808060200182810382526024815260200180615dc06024913960400191505060405180910390fd5b6145a683613ef2565b614618576040517f08c379a00000000000000000000000000000000000000000000000000000000081526004018080602001828103825260168152602001807f4169726c696e6520646f6573206e6f742065786973740000000000000000000081525060200191505060405180910390fd5b614621836129bd565b614676576040517f08c379a0000000000000000000000000000000000000000000000000000000008152600401808060200182810382526021815260200180615fab6021913960400191505060405180910390fd5b600160008473ffffffffffffffffffffffffffffffffffffffff1673ffffffffffffffffffffffffffffffffffffffff1681526020019081526020016000206002018290806001815401808255809150509060018203906000526020600020016000909192909190916101000a81548173ffffffffffffffffffffffffffffffffffffffff021916908373ffffffffffffffffffffffffffffffffffffffff1602179055505061472583612fc6565b15614734576147338361260c565b5b7ff7c50f9eb2df776ff843af719b51fe3587613ead8477a913a6418c893f85ebd98383600160008773ffffffffffffffffffffffffffffffffffffffff1673ffffffffffffffffffffffffffffffffffffffff16815260200190815260200160002060020180549050604051808473ffffffffffffffffffffffffffffffffffffffff1673ffffffffffffffffffffffffffffffffffffffff1681526020018373ffffffffffffffffffffffffffffffffffffffff1673ffffffffffffffffffffffffffffffffffffffff168152602001828152602001935050505060405180910390a1505050565b80614827816124a9565b61487c576040517f08c379a0000000000000000000000000000000000000000000000000000000008152600401808060200182810382526023815260200180615e5c6023913960400191505060405180910390fd5b60026005600084815260200190815260200160002060050160006101000a81548160ff021916908360038111156148af57fe5b02179055507f46692d6d97cca5f30535d5452b425e85c40c7f0ef908efef4ab92b4d44e4f4776005600084815260200190815260200160002060000160056000858152602001908152602001600020600101546005600086815260200190815260200160002060020160009054906101000a900473ffffffffffffffffffffffffffffffffffffffff16856005600088815260200190815260200160002060050160009054906101000a900460ff1660405180806020018681526020018573ffffffffffffffffffffffffffffffffffffffff1673ffffffffffffffffffffffffffffffffffffffff1681526020018481526020018360038111156149b057fe5b60ff168152602001828103825287818154600181600116156101000203166002900481526020019150805460018160011615610100020316600290048015614a395780601f10614a0e57610100808354040283529160200191614a39565b820191906000526020600020905b815481529060010190602001808311614a1c57829003601f168201915b5050965050505050505060405180910390a15050565b6000808211614ac6576040517f08c379a000000000000000000000000000000000000000000000000000000000815260040180806020018281038252601a8152602001807f536166654d6174683a206469766973696f6e206279207a65726f00000000000081525060200191505060405180910390fd5b6000828481614ad157fe5b0490508091505092915050565b600080828401905083811015614b5c576040517f08c379a000000000000000000000000000000000000000000000000000000000815260040180806020018281038252601b8152602001807f536166654d6174683a206164646974696f6e206f766572666c6f77000000000081525060200191505060405180910390fd5b8091505092915050565b80614b70816129bd565b614bc5576040517f08c379a0000000000000000000000000000000000000000000000000000000008152600401808060200182810382526021815260200180615fab6021913960400191505060405180910390fd5b60018060008473ffffffffffffffffffffffffffffffffffffffff1673ffffffffffffffffffffffffffffffffffffffff16815260200190815260200160002060010160006101000a81548160ff02191690836002811115614c2357fe5b02179055506060600160008473ffffffffffffffffffffffffffffffffffffffff1673ffffffffffffffffffffffffffffffffffffffff1681526020019081526020016000206000018054600181600116156101000203166002900480601f016020809104026020016040519081016040528092919081815260200182805460018160011615610100020316600290048015614d005780601f10614cd557610100808354040283529160200191614d00565b820191906000526020600020905b815481529060010190602001808311614ce357829003601f168201915b505050505090507f4389233d1d7e817e3a41447176300b89c596c24ed4d58896d501ddb378abe2c4818460405180806020018373ffffffffffffffffffffffffffffffffffffffff1673ffffffffffffffffffffffffffffffffffffffff168152602001828103825284818151815260200191508051906020019080838360005b83811015614d9c578082015181840152602081019050614d81565b50505050905090810190601f168015614dc95780820380516001836020036101000a031916815260200191505b50935050505060405180910390a1505050565b6000614de884846126dc565b9050614df381612161565b15614e49576040517f08c379a0000000000000000000000000000000000000000000000000000000008152600401808060200182810382526021815260200180615e3b6021913960400191505060405180910390fd5b6060614e53615c19565b85816000018190525083816040019073ffffffffffffffffffffffffffffffffffffffff16908173ffffffffffffffffffffffffffffffffffffffff168152505084816020018181525050600081608001906003811115614eb057fe5b90816003811115614ebd57fe5b8152505060018160a001901515908115158152505081816060018190525080600560008581526020019081526020016000206000820151816000019080519060200190614f0b929190615a8e565b506020820151816001015560408201518160020160006101000a81548173ffffffffffffffffffffffffffffffffffffffff021916908373ffffffffffffffffffffffffffffffffffffffff1602179055506060820151816003019080519060200190614f79929190615c72565b5060808201518160050160006101000a81548160ff02191690836003811115614f9e57fe5b021790555060a08201518160050160016101000a81548160ff02191690831515021790555090505060068390806001815401808255809150509060018203906000526020600020016000909192909190915055507f59261113d397865c7b2b317452691277210d64b6f75272d723f504a8c13250fe8686868660405180806020018581526020018473ffffffffffffffffffffffffffffffffffffffff1673ffffffffffffffffffffffffffffffffffffffff168152602001838152602001828103825286818151815260200191508051906020019080838360005b8381101561509557808201518184015260208101905061507a565b50505050905090810190601f1680156150c25780820380516001836020036101000a031916815260200191505b509550505050505060405180910390a1505050505050565b806150e4816144b2565b615139576040517f08c379a0000000000000000000000000000000000000000000000000000000008152600401808060200182810382526024815260200180615d756024913960400191505060405180910390fd5b600380600084815260200190815260200160002060060160006101000a81548160ff0219169083600381111561516b57fe5b02179055505050565b8061517e8161365c565b6151d3576040517f08c379a0000000000000000000000000000000000000000000000000000000008152600401808060200182810382526025815260200180615eff6025913960400191505060405180910390fd5b60016003600084815260200190815260200160002060060160006101000a81548160ff0219169083600381111561520657fe5b02179055505050565b80615219816124a9565b61526e576040517f08c379a0000000000000000000000000000000000000000000000000000000008152600401808060200182810382526023815260200180615e5c6023913960400191505060405180910390fd5b60036005600084815260200190815260200160002060050160006101000a81548160ff021916908360038111156152a157fe5b02179055507f46692d6d97cca5f30535d5452b425e85c40c7f0ef908efef4ab92b4d44e4f4776005600084815260200190815260200160002060000160056000858152602001908152602001600020600101546005600086815260200190815260200160002060020160009054906101000a900473ffffffffffffffffffffffffffffffffffffffff16856005600088815260200190815260200160002060050160009054906101000a900460ff1660405180806020018681526020018573ffffffffffffffffffffffffffffffffffffffff1673ffffffffffffffffffffffffffffffffffffffff1681526020018481526020018360038111156153a257fe5b60ff16815260200182810382528781815460018160011615610100020316600290048152602001915080546001816001161561010002031660029004801561542b5780601f106154005761010080835404028352916020019161542b565b820191906000526020600020905b81548152906001019060200180831161540e57829003601f168201915b5050965050505050505060405180910390a15050565b8061544b81611956565b6154a0576040517f08c379a0000000000000000000000000000000000000000000000000000000008152600401808060200182810382526024815260200180615dc06024913960400191505060405180910390fd5b6002600160008473ffffffffffffffffffffffffffffffffffffffff1673ffffffffffffffffffffffffffffffffffffffff16815260200190815260200160002060010160006101000a81548160ff021916908360028111156154ff57fe5b02179055506060600160008473ffffffffffffffffffffffffffffffffffffffff1673ffffffffffffffffffffffffffffffffffffffff1681526020019081526020016000206000018054600181600116156101000203166002900480601f0160208091040260200160405190810160405280929190818152602001828054600181600116156101000203166002900480156155dc5780601f106155b1576101008083540402835291602001916155dc565b820191906000526020600020905b8154815290600101906020018083116155bf57829003601f168201915b505050505090506000600160008573ffffffffffffffffffffffffffffffffffffffff1673ffffffffffffffffffffffffffffffffffffffff1681526020019081526020016000206003015490507f53b7c1b088635937d93a99c488cc77c6d286057c245c779959f41c8b64fc74a282858360405180806020018473ffffffffffffffffffffffffffffffffffffffff1673ffffffffffffffffffffffffffffffffffffffff168152602001838152602001828103825285818151815260200191508051906020019080838360005b838110156156c65780820151818401526020810190506156ab565b50505050905090810190601f1680156156f35780820380516001836020036101000a031916815260200191505b5094505050505060405180910390a150505050565b806157128161365c565b615767576040517f08c379a0000000000000000000000000000000000000000000000000000000008152600401808060200182810382526025815260200180615eff6025913960400191505060405180910390fd5b60026003600084815260200190815260200160002060060160006101000a81548160ff0219169083600381111561579a57fe5b02179055505050565b806157ad816124a9565b615802576040517f08c379a0000000000000000000000000000000000000000000000000000000008152600401808060200182810382526023815260200180615e5c6023913960400191505060405180910390fd5b8161580c81612161565b61587e576040517f08c379a00000000000000000000000000000000000000000000000000000000081526004018080602001828103825260158152602001807f466c6967687420646f6573206e6f74206578697374000000000000000000000081525060200191505060405180910390fd5b60016005600085815260200190815260200160002060050160006101000a81548160ff021916908360038111156158b157fe5b02179055507f46692d6d97cca5f30535d5452b425e85c40c7f0ef908efef4ab92b4d44e4f4776005600085815260200190815260200160002060000160056000868152602001908152602001600020600101546005600087815260200190815260200160002060020160009054906101000a900473ffffffffffffffffffffffffffffffffffffffff16866005600089815260200190815260200160002060050160009054906101000a900460ff1660405180806020018681526020018573ffffffffffffffffffffffffffffffffffffffff1673ffffffffffffffffffffffffffffffffffffffff1681526020018481526020018360038111156159b257fe5b60ff168152602001828103825287818154600181600116156101000203166002900481526020019150805460018160011615610100020316600290048015615a3b5780601f10615a1057610100808354040283529160200191615a3b565b820191906000526020600020905b815481529060010190602001808311615a1e57829003601f168201915b5050965050505050505060405180910390a1505050565b6040518060a001604052806060815260200160006002811115615a7157fe5b815260200160608152602001600081526020016000151581525090565b828054600181600116156101000203166002900490600052602060002090601f016020900481019282601f10615acf57805160ff1916838001178555615afd565b82800160010185558215615afd579182015b82811115615afc578251825591602001919060010190615ae1565b5b509050615b0a9190615cbf565b5090565b828054828255906000526020600020908101928215615b87579160200282015b82811115615b865782518260006101000a81548173ffffffffffffffffffffffffffffffffffffffff021916908373ffffffffffffffffffffffffffffffffffffffff16021790555091602001919060010190615b2e565b5b509050615b949190615ce4565b5090565b604051806101000160405280600073ffffffffffffffffffffffffffffffffffffffff16815260200160008019168152602001600073ffffffffffffffffffffffffffffffffffffffff16815260200160008152602001600081526020016000815260200160006003811115615c0a57fe5b81526020016000151581525090565b6040518060c001604052806060815260200160008152602001600073ffffffffffffffffffffffffffffffffffffffff1681526020016060815260200160006003811115615c6357fe5b81526020016000151581525090565b828054828255906000526020600020908101928215615cae579160200282015b82811115615cad578251825591602001919060010190615c92565b5b509050615cbb9190615d27565b5090565b615ce191905b80821115615cdd576000816000905550600101615cc5565b5090565b90565b615d2491905b80821115615d2057600081816101000a81549073ffffffffffffffffffffffffffffffffffffffff021916905550600101615cea565b5090565b90565b615d4991905b80821115615d45576000816000905550600101615d2d565b5090565b9056fe41646472657373206861732072656769737465726564206173204169726c696e65206265666f7265496e737572616e6365206d75737420626520696e2043726564697465642073746174757354686520666c69676874206d75737420626520696e2072656769737465726564207374617475734169726c696e65206d75737420626520696e2072656769737465726564207374617475734f6e6c7920617574686f72697a65642063616c6c65727320636f756c642063616c6c20746869732066756e6374696f6e4169726c696e6527732066756e64206973206e6f7420656e6f75676820746f20706179206e6f77466c6967687420686173206265656e2072656769737465726564206265666f7265466c69676874206d75737420626520696e20526567697374657265642073746174757354686520666c696768742068617320616c726561647920676f742074686520696e737572616e63654169726c696e6527732066756e64206973206c657373207468616e204d494e49554d2066756e6420726571756972656d656e74436f6e74726163742069732063757272656e746c79206e6f74206f7065726174696f6e616c496e737572616e6365206d75737420626520696e2041637469766174656420737461747573496e737572616e636520466565206d757374206265206c657373207468616e20312065746865724169726c696e65206d7573742065697468657220626520696e2072656769737465726564206f722066756e6465642073746174757320746f2066756e6443616e646964617465206d75737420626520696e20656e7465726564207374617475734169726c696e65206d75737420626520696e20656e746572656420737461747573a165627a7a723058207bf27e9c37babbbc6837d9db8df5473caf7a9ee555a561e45a266d7b57f6215e0029",
  "source": "pragma solidity ^0.5.8;\r\n\r\nimport \"../node_modules/openzeppelin-solidity/contracts/math/SafeMath.sol\";\r\n\r\nimport \"./AirlineData.sol\";\r\nimport \"./InsuranceData.sol\";\r\nimport \"./FlightData.sol\";\r\nimport \"./Authorizable.sol\";\r\n\r\ncontract FlightSuretyData is AirlineData, InsuranceData, FlightData, Authorizable{\r\n    using SafeMath for uint256;\r\n\r\n    function registerAirline(string memory _name, address _airline) public requireIsOperational requireAuthorizedCaller(msg.sender){\r\n        addAirline(_name, _airline);\r\n    }\r\n\r\n    function vote(address _candidate, address _voter) public requireAuthorizedCaller(msg.sender){\r\n        super.vote(_candidate, _voter);\r\n    }\r\n\r\n    function registerFlight(string memory _code, uint256 _timestamp, address _airline) public \r\n    requireIsOperational requireAirlineFunded(_airline) requireAirlinesHasEnoughFund(_airline) requireAuthorizedCaller(msg.sender){\r\n        addFlight(_code, _timestamp, _airline);\r\n    }\r\n\r\n    function registerInsurance(address _buyer, bytes32 _flightKey, uint256 _contractTimestamp, address _airline, uint256 _fee) public\r\n    requireIsOperational requireFlightRegistered(_flightKey){\r\n        addInsurance(_buyer, _flightKey, _contractTimestamp, _airline, _fee);\r\n        bytes32 _insuranceKey = generateInsuranceKey(_buyer, _flightKey, _contractTimestamp);\r\n        addInsuranceKey(_flightKey, _insuranceKey);\r\n    }\r\n\r\n    function setFlightOnTime(bytes32 flightKey) public requireAuthorizedCaller(msg.sender){\r\n        super.setFlightOnTime(flightKey);\r\n    }\r\n\r\n    function setFlightLateAirline(bytes32 flightKey) public requireAuthorizedCaller(msg.sender){\r\n        super.setFlightLateAirline(flightKey);\r\n    }\r\n\r\n     function setFlightLateNotAirline(bytes32 flightKey) public requireAuthorizedCaller(msg.sender){\r\n        super.setFlightLateNotAirline(flightKey);\r\n    }\r\n\r\n    function setInsuranceExpired(bytes32 insuranceKey) public requireAuthorizedCaller(msg.sender){\r\n        super.setInsuranceExpired(insuranceKey);\r\n    }\r\n\r\n    function setInsuranceCredited(bytes32 insuranceKey) public requireAuthorizedCaller(msg.sender){\r\n        super.setInsuranceCredited(insuranceKey);\r\n    }\r\n\r\n    function setInsuranceWithdrawn(bytes32 insuranceKey) public requireAuthorizedCaller(msg.sender){\r\n        super.setInsuranceWithdrawn(insuranceKey);\r\n    }\r\n\r\n    function creditInsurees(bytes32 flightKey) public requireIsOperational requireFlightLateAirline(flightKey) requireAuthorizedCaller(msg.sender){\r\n        bytes32[] memory insuranceKeysList = getInsuranceKeysList(flightKey);\r\n        for(uint256 i=0; i<insuranceKeysList.length; i++){\r\n            creditInsurance(insuranceKeysList[i]);\r\n        }\r\n    }\r\n}",
  "sourcePath": "C:/Users/andrewchan88/Documents/Coding/udacity/Blockchain/PartB/homework/project7_es_rm/contracts/FlightSuretyData.sol",
  "compiler": {
    "name": "solc",
    "version": "0.5.8+commit.23d335f2.Emscripten.clang"
  },
  "schemaVersion": "3.0.13",
  "updatedAt": "2019-10-10T15:54:44.539Z",
  "devdoc": {
    "methods": {
      "isOperational()": {
        "details": "Modifier that requires the \"operational\" boolean variable to be \"true\"\r     This is used on all state changing functions to pause the contract in \r     the event there is an issue that needs to be fixed\r"
      }
    }
  },
  "userdoc": {
    "methods": {
      "addAirline(string,address)": {
        "notice": "functions for handling airline register and vote\r"
      },
      "addInsurance(address,bytes32,uint256,address,uint256)": {
        "notice": "function for adding and crediting insurance\r"
      },
      "isAirlineExist(address)": {
        "notice": "Functions for checking condition of Airline & modifiers\r"
      },
      "isExist(bytes32)": {
        "notice": "Functions for conditions checking and modifiers\r"
      },
      "isFlightExist(bytes32)": {
        "notice": "functions for checking flight condition and modifiers\r"
      },
      "queryBuyerCredit(address)": {
        "notice": "functions for querying insurance info\r"
      },
      "queryFlightInfo(bytes32)": {
        "notice": "functions for querying flights status\r"
      },
      "queryFund(address)": {
        "notice": "functions for query airline data\r"
      }
    }
  }
}