{
  "contractName": "FlightSuretyApp",
  "abi": [
    {
      "constant": false,
      "inputs": [
        {
          "name": "mode",
          "type": "bool"
        }
      ],
      "name": "setOperatingStatus",
      "outputs": [],
      "payable": false,
      "stateMutability": "nonpayable",
      "type": "function"
    },
    {
      "constant": false,
      "inputs": [],
      "name": "registerOracle",
      "outputs": [],
      "payable": true,
      "stateMutability": "payable",
      "type": "function"
    },
    {
      "constant": true,
      "inputs": [
        {
          "name": "oracleAddress",
          "type": "address"
        }
      ],
      "name": "queryOracle",
      "outputs": [
        {
          "name": "isRegistered",
          "type": "bool"
        },
        {
          "name": "indexes",
          "type": "uint8[3]"
        }
      ],
      "payable": false,
      "stateMutability": "view",
      "type": "function"
    },
    {
      "constant": true,
      "inputs": [],
      "name": "getMyIndexes",
      "outputs": [
        {
          "name": "",
          "type": "uint8[3]"
        }
      ],
      "payable": false,
      "stateMutability": "view",
      "type": "function"
    },
    {
      "constant": true,
      "inputs": [],
      "name": "REGISTRATION_FEE",
      "outputs": [
        {
          "name": "",
          "type": "uint256"
        }
      ],
      "payable": false,
      "stateMutability": "view",
      "type": "function"
    },
    {
      "constant": true,
      "inputs": [],
      "name": "getAllOracles",
      "outputs": [
        {
          "name": "",
          "type": "address[]"
        }
      ],
      "payable": false,
      "stateMutability": "view",
      "type": "function"
    },
    {
      "constant": true,
      "inputs": [],
      "name": "getOwner",
      "outputs": [
        {
          "name": "",
          "type": "address"
        }
      ],
      "payable": false,
      "stateMutability": "view",
      "type": "function"
    },
    {
      "constant": true,
      "inputs": [],
      "name": "getAllResponseKeys",
      "outputs": [
        {
          "name": "",
          "type": "bytes32[]"
        }
      ],
      "payable": false,
      "stateMutability": "view",
      "type": "function"
    },
    {
      "constant": true,
      "inputs": [
        {
          "name": "responseKey",
          "type": "bytes32"
        }
      ],
      "name": "isResponseExist",
      "outputs": [
        {
          "name": "",
          "type": "bool"
        }
      ],
      "payable": false,
      "stateMutability": "view",
      "type": "function"
    },
    {
      "constant": true,
      "inputs": [
        {
          "name": "responseKey",
          "type": "bytes32"
        }
      ],
      "name": "isResponseOpen",
      "outputs": [
        {
          "name": "",
          "type": "bool"
        }
      ],
      "payable": false,
      "stateMutability": "view",
      "type": "function"
    },
    {
      "constant": true,
      "inputs": [],
      "name": "isOperational",
      "outputs": [
        {
          "name": "",
          "type": "bool"
        }
      ],
      "payable": false,
      "stateMutability": "view",
      "type": "function"
    },
    {
      "constant": true,
      "inputs": [
        {
          "name": "_fetchKey",
          "type": "bytes32"
        }
      ],
      "name": "queryResponseInfo",
      "outputs": [
        {
          "name": "requester",
          "type": "address"
        },
        {
          "name": "isOpen",
          "type": "bool"
        },
        {
          "name": "responsedOracles",
          "type": "address[]"
        },
        {
          "name": "statusCode",
          "type": "uint8"
        }
      ],
      "payable": false,
      "stateMutability": "view",
      "type": "function"
    },
    {
      "inputs": [
        {
          "name": "dataContractAddress",
          "type": "address"
        }
      ],
      "payable": false,
      "stateMutability": "nonpayable",
      "type": "constructor"
    },
    {
      "anonymous": false,
      "inputs": [
        {
          "indexed": false,
          "name": "airline",
          "type": "address"
        },
        {
          "indexed": false,
          "name": "flight",
          "type": "string"
        },
        {
          "indexed": false,
          "name": "timestamp",
          "type": "uint256"
        },
        {
          "indexed": false,
          "name": "status",
          "type": "uint8"
        }
      ],
      "name": "FlightStatusInfo",
      "type": "event"
    },
    {
      "anonymous": false,
      "inputs": [
        {
          "indexed": false,
          "name": "oracle",
          "type": "address"
        },
        {
          "indexed": false,
          "name": "indexes",
          "type": "uint8[3]"
        }
      ],
      "name": "OracleRegister",
      "type": "event"
    },
    {
      "anonymous": false,
      "inputs": [
        {
          "indexed": false,
          "name": "airline",
          "type": "address"
        },
        {
          "indexed": false,
          "name": "flight",
          "type": "string"
        },
        {
          "indexed": false,
          "name": "timestamp",
          "type": "uint256"
        },
        {
          "indexed": false,
          "name": "status",
          "type": "uint8"
        }
      ],
      "name": "OracleReport",
      "type": "event"
    },
    {
      "anonymous": false,
      "inputs": [
        {
          "indexed": false,
          "name": "index",
          "type": "uint8"
        },
        {
          "indexed": false,
          "name": "airline",
          "type": "address"
        },
        {
          "indexed": false,
          "name": "flight",
          "type": "string"
        },
        {
          "indexed": false,
          "name": "timestamp",
          "type": "uint256"
        }
      ],
      "name": "OracleRequest",
      "type": "event"
    },
    {
      "constant": false,
      "inputs": [
        {
          "name": "_name",
          "type": "string"
        }
      ],
      "name": "registerAirline",
      "outputs": [],
      "payable": false,
      "stateMutability": "nonpayable",
      "type": "function"
    },
    {
      "constant": false,
      "inputs": [
        {
          "name": "_candidate",
          "type": "address"
        }
      ],
      "name": "airlineVote",
      "outputs": [],
      "payable": false,
      "stateMutability": "nonpayable",
      "type": "function"
    },
    {
      "constant": false,
      "inputs": [],
      "name": "airlineFund",
      "outputs": [],
      "payable": true,
      "stateMutability": "payable",
      "type": "function"
    },
    {
      "constant": false,
      "inputs": [
        {
          "name": "_code",
          "type": "string"
        },
        {
          "name": "_timestamp",
          "type": "uint256"
        }
      ],
      "name": "registerFlight",
      "outputs": [],
      "payable": false,
      "stateMutability": "nonpayable",
      "type": "function"
    },
    {
      "constant": false,
      "inputs": [
        {
          "name": "_code",
          "type": "string"
        },
        {
          "name": "_timestamp",
          "type": "uint256"
        }
      ],
      "name": "generateFlightKey",
      "outputs": [
        {
          "name": "",
          "type": "bytes32"
        }
      ],
      "payable": false,
      "stateMutability": "nonpayable",
      "type": "function"
    },
    {
      "constant": false,
      "inputs": [
        {
          "name": "_flightKey",
          "type": "bytes32"
        },
        {
          "name": "_contractTimestamp",
          "type": "uint256"
        },
        {
          "name": "_airline",
          "type": "address"
        }
      ],
      "name": "passenagerBuyInsurance",
      "outputs": [],
      "payable": true,
      "stateMutability": "payable",
      "type": "function"
    },
    {
      "constant": false,
      "inputs": [
        {
          "name": "_buyer",
          "type": "address"
        },
        {
          "name": "_flightKey",
          "type": "bytes32"
        },
        {
          "name": "_contractTimestamp",
          "type": "uint256"
        }
      ],
      "name": "generateInsuranceKey",
      "outputs": [
        {
          "name": "",
          "type": "bytes32"
        }
      ],
      "payable": false,
      "stateMutability": "nonpayable",
      "type": "function"
    },
    {
      "constant": false,
      "inputs": [
        {
          "name": "_insuranceKey",
          "type": "bytes32"
        }
      ],
      "name": "creditInsurance",
      "outputs": [],
      "payable": false,
      "stateMutability": "nonpayable",
      "type": "function"
    },
    {
      "constant": false,
      "inputs": [
        {
          "name": "_flightKey",
          "type": "bytes32"
        }
      ],
      "name": "creditAllInsurances",
      "outputs": [],
      "payable": false,
      "stateMutability": "nonpayable",
      "type": "function"
    },
    {
      "constant": false,
      "inputs": [],
      "name": "passenagerWithdrawCredits",
      "outputs": [],
      "payable": true,
      "stateMutability": "payable",
      "type": "function"
    },
    {
      "constant": false,
      "inputs": [
        {
          "name": "flightKey",
          "type": "bytes32"
        }
      ],
      "name": "proceedFlightNoCreditCase",
      "outputs": [],
      "payable": false,
      "stateMutability": "nonpayable",
      "type": "function"
    },
    {
      "constant": true,
      "inputs": [
        {
          "name": "randomIndex",
          "type": "uint8"
        },
        {
          "name": "airline",
          "type": "address"
        },
        {
          "name": "flight",
          "type": "string"
        },
        {
          "name": "timestamp",
          "type": "uint256"
        }
      ],
      "name": "generateResponseKey",
      "outputs": [
        {
          "name": "",
          "type": "bytes32"
        }
      ],
      "payable": false,
      "stateMutability": "pure",
      "type": "function"
    },
    {
      "constant": false,
      "inputs": [
        {
          "name": "airline",
          "type": "address"
        },
        {
          "name": "flightCode",
          "type": "string"
        },
        {
          "name": "flightTimestamp",
          "type": "uint256"
        }
      ],
      "name": "fetchFlightStatus",
      "outputs": [],
      "payable": false,
      "stateMutability": "nonpayable",
      "type": "function"
    },
    {
      "constant": true,
      "inputs": [
        {
          "name": "index",
          "type": "uint8"
        },
        {
          "name": "requester",
          "type": "address"
        }
      ],
      "name": "checkAllIndexes",
      "outputs": [
        {
          "name": "",
          "type": "bool"
        }
      ],
      "payable": false,
      "stateMutability": "view",
      "type": "function"
    },
    {
      "constant": false,
      "inputs": [
        {
          "name": "fetchIndex",
          "type": "uint8"
        },
        {
          "name": "airline",
          "type": "address"
        },
        {
          "name": "flight",
          "type": "string"
        },
        {
          "name": "timestamp",
          "type": "uint256"
        },
        {
          "name": "statusCode",
          "type": "uint8"
        }
      ],
      "name": "submitOracleResponse",
      "outputs": [],
      "payable": false,
      "stateMutability": "nonpayable",
      "type": "function"
    },
    {
      "constant": false,
      "inputs": [
        {
          "name": "flight",
          "type": "string"
        },
        {
          "name": "timestamp",
          "type": "uint256"
        },
        {
          "name": "statusCode",
          "type": "uint8"
        }
      ],
      "name": "processFlightStatus",
      "outputs": [],
      "payable": false,
      "stateMutability": "nonpayable",
      "type": "function"
    },
    {
      "constant": true,
      "inputs": [],
      "name": "queryContractBalance",
      "outputs": [
        {
          "name": "",
          "type": "uint256"
        }
      ],
      "payable": false,
      "stateMutability": "view",
      "type": "function"
    },
    {
      "constant": false,
      "inputs": [
        {
          "name": "flightKey",
          "type": "bytes32"
        }
      ],
      "name": "setFlightOnTime",
      "outputs": [],
      "payable": false,
      "stateMutability": "nonpayable",
      "type": "function"
    },
    {
      "constant": false,
      "inputs": [
        {
          "name": "flightKey",
          "type": "bytes32"
        }
      ],
      "name": "setFlightLateAirline",
      "outputs": [],
      "payable": false,
      "stateMutability": "nonpayable",
      "type": "function"
    },
    {
      "constant": false,
      "inputs": [
        {
          "name": "flightKey",
          "type": "bytes32"
        }
      ],
      "name": "setFlightLateNotAirline",
      "outputs": [],
      "payable": false,
      "stateMutability": "nonpayable",
      "type": "function"
    }
  ],
  "bytecode": "0x608060405260008060006101000a81548160ff021916908360ff1602179055506001600560146101000a81548160ff02191690831515021790555034801561004657600080fd5b506040516020806139b58339810180604052602081101561006657600080fd5b810190808051906020019092919050505033600560006101000a81548173ffffffffffffffffffffffffffffffffffffffff021916908373ffffffffffffffffffffffffffffffffffffffff16021790555080600660006101000a81548173ffffffffffffffffffffffffffffffffffffffff021916908373ffffffffffffffffffffffffffffffffffffffff16021790555033600760006101000a81548173ffffffffffffffffffffffffffffffffffffffff021916908373ffffffffffffffffffffffffffffffffffffffff1602179055505061386b8061014a6000396000f3fe6080604052600436106101e35760003560e01c8063893d20e811610102578063cca8427f11610095578063ee06ce2b11610064578063ee06ce2b14610e2a578063ef488b9314610e65578063f2c6d0b214610ea0578063f83f11c014610edb576101e3565b8063cca8427f14610c57578063cce7127b14610caa578063cd905dff14610d20578063cecf6b6c14610d4f576101e3565b8063c10f2700116100d1578063c10f2700146109de578063c17c3b2814610aea578063c77eb5a214610bc9578063cc75f25d14610c04576101e3565b8063893d20e8146108515780639b7cb28f146108a8578063b58c31be14610914578063bead056a1461098d576101e3565b80635f746a851161017a57806365a6bb291161014957806365a6bb291461074857806374dde552146107b457806375e0e52c1461080c5780637bcfd88414610847576101e3565b80635f746a851461051a578063620e7eda14610524578063637a66df1461063757806364b4f7511461071d576101e3565b8063382fee6d116101b6578063382fee6d1461032257806339cfc995146103ba57806345e2748d1461048c5780635f1cc0e6146104c7576101e3565b806301465590146101e8578063110466ed146102135780632520521014610250578063339d259014610318575b600080fd5b3480156101f457600080fd5b506101fd610fcd565b6040518082815260200191505060405180910390f35b34801561021f57600080fd5b5061024e6004803603602081101561023657600080fd5b81019080803515159060200190929190505050610fec565b005b34801561025c57600080fd5b506103166004803603602081101561027357600080fd5b810190808035906020019064010000000081111561029057600080fd5b8201836020820111156102a257600080fd5b803590602001918460018302840111640100000000831117156102c457600080fd5b91908080601f016020809104026020016040519081016040528093929190818152602001838380828437600081840152601f19601f8201169050808301925050505050505091929192905050506110cc565b005b6103206111f5565b005b34801561032e57600080fd5b506103716004803603602081101561034557600080fd5b81019080803573ffffffffffffffffffffffffffffffffffffffff169060200190929190505050611414565b604051808315151515815260200182600360200280838360005b838110156103a657808201518184015260208101905061038b565b505050509050019250505060405180910390f35b3480156103c657600080fd5b5061048a600480360360408110156103dd57600080fd5b81019080803590602001906401000000008111156103fa57600080fd5b82018360208201111561040c57600080fd5b8035906020019184600183028401116401000000008311171561042e57600080fd5b91908080601f016020809104026020016040519081016040528093929190818152602001838380828437600081840152601f19601f8201169050808301925050505050505091929192908035906020019092919050505061151b565b005b34801561049857600080fd5b506104c5600480360360208110156104af57600080fd5b810190808035906020019092919050505061164d565b005b3480156104d357600080fd5b506104dc6116dd565b6040518082600360200280838360005b838110156105075780820151818401526020810190506104ec565b5050505090500191505060405180910390f35b610522611850565b005b34801561053057600080fd5b506106216004803603608081101561054757600080fd5b81019080803560ff169060200190929190803573ffffffffffffffffffffffffffffffffffffffff1690602001909291908035906020019064010000000081111561059157600080fd5b8201836020820111156105a357600080fd5b803590602001918460018302840111640100000000831117156105c557600080fd5b91908080601f016020809104026020016040519081016040528093929190818152602001838380828437600081840152601f19601f82011690508083019250505050505050919291929080359060200190929190505050611913565b6040518082815260200191505060405180910390f35b34801561064357600080fd5b506107076004803603604081101561065a57600080fd5b810190808035906020019064010000000081111561067757600080fd5b82018360208201111561068957600080fd5b803590602001918460018302840111640100000000831117156106ab57600080fd5b91908080601f016020809104026020016040519081016040528093929190818152602001838380828437600081840152601f19601f820116905080830192505050505050509192919290803590602001909291905050506119e1565b6040518082815260200191505060405180910390f35b34801561072957600080fd5b50610732611b08565b6040518082815260200191505060405180910390f35b34801561075457600080fd5b5061075d611b14565b6040518080602001828103825283818151815260200191508051906020019060200280838360005b838110156107a0578082015181840152602081019050610785565b505050509050019250505060405180910390f35b61080a600480360360608110156107ca57600080fd5b810190808035906020019092919080359060200190929190803573ffffffffffffffffffffffffffffffffffffffff169060200190929190505050611ba2565b005b34801561081857600080fd5b506108456004803603602081101561082f57600080fd5b8101908080359060200190929190505050611cac565b005b61084f611df3565b005b34801561085d57600080fd5b50610866612035565b604051808273ffffffffffffffffffffffffffffffffffffffff1673ffffffffffffffffffffffffffffffffffffffff16815260200191505060405180910390f35b3480156108b457600080fd5b506108bd61205f565b6040518080602001828103825283818151815260200191508051906020019060200280838360005b838110156109005780820151818401526020810190506108e5565b505050509050019250505060405180910390f35b34801561092057600080fd5b506109776004803603606081101561093757600080fd5b81019080803573ffffffffffffffffffffffffffffffffffffffff16906020019092919080359060200190929190803590602001909291905050506120b7565b6040518082815260200191505060405180910390f35b34801561099957600080fd5b506109dc600480360360208110156109b057600080fd5b81019080803573ffffffffffffffffffffffffffffffffffffffff1690602001909291905050506121ae565b005b3480156109ea57600080fd5b50610ae8600480360360a0811015610a0157600080fd5b81019080803560ff169060200190929190803573ffffffffffffffffffffffffffffffffffffffff16906020019092919080359060200190640100000000811115610a4b57600080fd5b820183602082011115610a5d57600080fd5b80359060200191846001830284011164010000000083111715610a7f57600080fd5b91908080601f016020809104026020016040519081016040528093929190818152602001838380828437600081840152601f19601f82011690508083019250505050505050919291929080359060200190929190803560ff16906020019092919050505061229e565b005b348015610af657600080fd5b50610bc760048036036060811015610b0d57600080fd5b8101908080359060200190640100000000811115610b2a57600080fd5b820183602082011115610b3c57600080fd5b80359060200191846001830284011164010000000083111715610b5e57600080fd5b91908080601f016020809104026020016040519081016040528093929190818152602001838380828437600081840152601f19601f82011690508083019250505050505050919291929080359060200190929190803560ff1690602001909291905050506126ac565b005b348015610bd557600080fd5b50610c0260048036036020811015610bec57600080fd5b8101908080359060200190929190505050612896565b005b348015610c1057600080fd5b50610c3d60048036036020811015610c2757600080fd5b8101908080359060200190929190505050612926565b604051808215151515815260200191505060405180910390f35b348015610c6357600080fd5b50610c9060048036036020811015610c7a57600080fd5b8101908080359060200190929190505050612953565b604051808215151515815260200191505060405180910390f35b348015610cb657600080fd5b50610d0660048036036040811015610ccd57600080fd5b81019080803560ff169060200190929190803573ffffffffffffffffffffffffffffffffffffffff169060200190929190505050612980565b604051808215151515815260200191505060405180910390f35b348015610d2c57600080fd5b50610d35612adc565b604051808215151515815260200191505060405180910390f35b348015610d5b57600080fd5b50610d8860048036036020811015610d7257600080fd5b8101908080359060200190929190505050612af3565b604051808573ffffffffffffffffffffffffffffffffffffffff1673ffffffffffffffffffffffffffffffffffffffff16815260200184151515158152602001806020018360ff1660ff168152602001828103825284818151815260200191508051906020019060200280838360005b83811015610e13578082015181840152602081019050610df8565b505050509050019550505050505060405180910390f35b348015610e3657600080fd5b50610e6360048036036020811015610e4d57600080fd5b8101908080359060200190929190505050612c23565b005b348015610e7157600080fd5b50610e9e60048036036020811015610e8857600080fd5b8101908080359060200190929190505050612cd7565b005b348015610eac57600080fd5b50610ed960048036036020811015610ec357600080fd5b8101908080359060200190929190505050612ea2565b005b348015610ee757600080fd5b50610fcb60048036036060811015610efe57600080fd5b81019080803573ffffffffffffffffffffffffffffffffffffffff16906020019092919080359060200190640100000000811115610f3b57600080fd5b820183602082011115610f4d57600080fd5b80359060200191846001830284011164010000000083111715610f6f57600080fd5b91908080601f016020809104026020016040519081016040528093929190818152602001838380828437600081840152601f19601f82011690508083019250505050505050919291929080359060200190929190505050612f32565b005b60003073ffffffffffffffffffffffffffffffffffffffff1631905090565b600560009054906101000a900473ffffffffffffffffffffffffffffffffffffffff1673ffffffffffffffffffffffffffffffffffffffff163373ffffffffffffffffffffffffffffffffffffffff16146110af576040517f08c379a000000000000000000000000000000000000000000000000000000000815260040180806020018281038252601c8152602001807f43616c6c6572206973206e6f7420636f6e7472616374206f776e65720000000081525060200191505060405180910390fd5b80600560146101000a81548160ff02191690831515021790555050565b600660009054906101000a900473ffffffffffffffffffffffffffffffffffffffff1673ffffffffffffffffffffffffffffffffffffffff16630e2c412982336040518363ffffffff1660e01b815260040180806020018373ffffffffffffffffffffffffffffffffffffffff1673ffffffffffffffffffffffffffffffffffffffff168152602001828103825284818151815260200191508051906020019080838360005b8381101561118d578082015181840152602081019050611172565b50505050905090810190601f1680156111ba5780820380516001836020036101000a031916815260200191505b509350505050600060405180830381600087803b1580156111da57600080fd5b505af11580156111ee573d6000803e3d6000fd5b5050505050565b670de0b6b3a7640000341015611273576040517f08c379a000000000000000000000000000000000000000000000000000000000815260040180806020018281038252601c8152602001807f526567697374726174696f6e206665652069732072657175697265640000000081525060200191505060405180910390fd5b61127b61359d565b611284336130cf565b9050604051806040016040528060011515815260200182815250600160003373ffffffffffffffffffffffffffffffffffffffff1673ffffffffffffffffffffffffffffffffffffffff16815260200190815260200160002060008201518160000160006101000a81548160ff0219169083151502179055506020820151816001019060036113149291906135bf565b5090505060023390806001815401808255809150509060018203906000526020600020016000909192909190916101000a81548173ffffffffffffffffffffffffffffffffffffffff021916908373ffffffffffffffffffffffffffffffffffffffff160217905550507f2598defb89a76b880830bc3f19a1b6a55144ea08dfec47089a7ae1dc0611a4523382604051808373ffffffffffffffffffffffffffffffffffffffff1673ffffffffffffffffffffffffffffffffffffffff16815260200182600360200280838360005b838110156113fe5780820151818401526020810190506113e3565b505050509050019250505060405180910390a150565b600061141e61359d565b600160008473ffffffffffffffffffffffffffffffffffffffff1673ffffffffffffffffffffffffffffffffffffffff16815260200190815260200160002060000160009054906101000a900460ff169150600160008473ffffffffffffffffffffffffffffffffffffffff1673ffffffffffffffffffffffffffffffffffffffff16815260200190815260200160002060010160038060200260405190810160405280929190826003801561150f576020028201916000905b82829054906101000a900460ff1660ff16815260200190600101906020826000010492830192600103820291508084116114d85790505b50505050509050915091565b600660009054906101000a900473ffffffffffffffffffffffffffffffffffffffff1673ffffffffffffffffffffffffffffffffffffffff166365c152f78383336040518463ffffffff1660e01b815260040180806020018481526020018373ffffffffffffffffffffffffffffffffffffffff1673ffffffffffffffffffffffffffffffffffffffff168152602001828103825285818151815260200191508051906020019080838360005b838110156115e35780820151818401526020810190506115c8565b50505050905090810190601f1680156116105780820380516001836020036101000a031916815260200191505b50945050505050600060405180830381600087803b15801561163157600080fd5b505af1158015611645573d6000803e3d6000fd5b505050505050565b600660009054906101000a900473ffffffffffffffffffffffffffffffffffffffff1673ffffffffffffffffffffffffffffffffffffffff166345e2748d826040518263ffffffff1660e01b815260040180828152602001915050600060405180830381600087803b1580156116c257600080fd5b505af11580156116d6573d6000803e3d6000fd5b5050505050565b6116e561359d565b600160003373ffffffffffffffffffffffffffffffffffffffff1673ffffffffffffffffffffffffffffffffffffffff16815260200190815260200160002060000160009054906101000a900460ff166117a7576040517f08c379a000000000000000000000000000000000000000000000000000000000815260040180806020018281038252601b8152602001807f4e6f74207265676973746572656420617320616e206f7261636c65000000000081525060200191505060405180910390fd5b600160003373ffffffffffffffffffffffffffffffffffffffff1673ffffffffffffffffffffffffffffffffffffffff168152602001908152602001600020600101600380602002604051908101604052809291908260038015611846576020028201916000905b82829054906101000a900460ff1660ff168152602001906001019060208260000104928301926001038202915080841161180f5790505b5050505050905090565b600660009054906101000a900473ffffffffffffffffffffffffffffffffffffffff1673ffffffffffffffffffffffffffffffffffffffff1663d512c06133346040518363ffffffff1660e01b8152600401808373ffffffffffffffffffffffffffffffffffffffff1673ffffffffffffffffffffffffffffffffffffffff16815260200182815260200192505050600060405180830381600087803b1580156118f957600080fd5b505af115801561190d573d6000803e3d6000fd5b50505050565b600084848484604051602001808560ff1660ff1660f81b81526001018473ffffffffffffffffffffffffffffffffffffffff1673ffffffffffffffffffffffffffffffffffffffff1660601b815260140183805190602001908083835b602083106119935780518252602082019150602081019050602083039250611970565b6001836020036101000a038019825116818451168082178552505050505050905001828152602001945050505050604051602081830303815290604052805190602001209050949350505050565b6000600660009054906101000a900473ffffffffffffffffffffffffffffffffffffffff1673ffffffffffffffffffffffffffffffffffffffff1663637a66df84846040518363ffffffff1660e01b81526004018080602001838152602001828103825284818151815260200191508051906020019080838360005b83811015611a78578082015181840152602081019050611a5d565b50505050905090810190601f168015611aa55780820380516001836020036101000a031916815260200191505b509350505050602060405180830381600087803b158015611ac557600080fd5b505af1158015611ad9573d6000803e3d6000fd5b505050506040513d6020811015611aef57600080fd5b8101908080519060200190929190505050905092915050565b670de0b6b3a764000081565b60606002805480602002602001604051908101604052809291908181526020018280548015611b9857602002820191906000526020600020905b8160009054906101000a900473ffffffffffffffffffffffffffffffffffffffff1673ffffffffffffffffffffffffffffffffffffffff1681526020019060010190808311611b4e575b5050505050905090565b600660009054906101000a900473ffffffffffffffffffffffffffffffffffffffff1673ffffffffffffffffffffffffffffffffffffffff16631dd7a3f633858585346040518663ffffffff1660e01b8152600401808673ffffffffffffffffffffffffffffffffffffffff1673ffffffffffffffffffffffffffffffffffffffff1681526020018581526020018481526020018373ffffffffffffffffffffffffffffffffffffffff1673ffffffffffffffffffffffffffffffffffffffff16815260200182815260200195505050505050600060405180830381600087803b158015611c8f57600080fd5b505af1158015611ca3573d6000803e3d6000fd5b50505050505050565b6060600660009054906101000a900473ffffffffffffffffffffffffffffffffffffffff1673ffffffffffffffffffffffffffffffffffffffff1663b3e70c31836040518263ffffffff1660e01b815260040180828152602001915050600060405180830381600087803b158015611d2357600080fd5b505af1158015611d37573d6000803e3d6000fd5b505050506040513d6000823e3d601f19601f820116820180604052506020811015611d6157600080fd5b810190808051640100000000811115611d7957600080fd5b82810190506020810184811115611d8f57600080fd5b8151856020820283011164010000000082111715611dac57600080fd5b5050929190505050905060008090505b8151811015611dee57611de1828281518110611dd457fe5b6020026020010151612c23565b8080600101915050611dbc565b505050565b6000600660009054906101000a900473ffffffffffffffffffffffffffffffffffffffff1673ffffffffffffffffffffffffffffffffffffffff16633d43020b336040518263ffffffff1660e01b8152600401808273ffffffffffffffffffffffffffffffffffffffff1673ffffffffffffffffffffffffffffffffffffffff168152602001915050602060405180830381600087803b158015611e9657600080fd5b505af1158015611eaa573d6000803e3d6000fd5b505050506040513d6020811015611ec057600080fd5b8101908080519060200190929190505050905080611edc610fcd565b11611f32576040517f08c379a00000000000000000000000000000000000000000000000000000000081526004018080602001828103825260218152602001806137a36021913960400191505060405180910390fd5b600660009054906101000a900473ffffffffffffffffffffffffffffffffffffffff1673ffffffffffffffffffffffffffffffffffffffff16630d829250336040518263ffffffff1660e01b8152600401808273ffffffffffffffffffffffffffffffffffffffff1673ffffffffffffffffffffffffffffffffffffffff168152602001915050600060405180830381600087803b158015611fd357600080fd5b505af1158015611fe7573d6000803e3d6000fd5b505050503373ffffffffffffffffffffffffffffffffffffffff166108fc829081150290604051600060405180830381858888f19350505050158015612031573d6000803e3d6000fd5b5050565b6000600560009054906101000a900473ffffffffffffffffffffffffffffffffffffffff16905090565b606060048054806020026020016040519081016040528092919081815260200182805480156120ad57602002820191906000526020600020905b815481526020019060010190808311612099575b5050505050905090565b6000600660009054906101000a900473ffffffffffffffffffffffffffffffffffffffff1673ffffffffffffffffffffffffffffffffffffffff1663b58c31be8585856040518463ffffffff1660e01b8152600401808473ffffffffffffffffffffffffffffffffffffffff1673ffffffffffffffffffffffffffffffffffffffff1681526020018381526020018281526020019350505050602060405180830381600087803b15801561216a57600080fd5b505af115801561217e573d6000803e3d6000fd5b505050506040513d602081101561219457600080fd5b810190808051906020019092919050505090509392505050565b600660009054906101000a900473ffffffffffffffffffffffffffffffffffffffff1673ffffffffffffffffffffffffffffffffffffffff16631afa74e582336040518363ffffffff1660e01b8152600401808373ffffffffffffffffffffffffffffffffffffffff1673ffffffffffffffffffffffffffffffffffffffff1681526020018273ffffffffffffffffffffffffffffffffffffffff1673ffffffffffffffffffffffffffffffffffffffff16815260200192505050600060405180830381600087803b15801561228357600080fd5b505af1158015612297573d6000803e3d6000fd5b5050505050565b6122a6612adc565b6122fb576040517f08c379a00000000000000000000000000000000000000000000000000000000081526004018080602001828103825260258152602001806137c46025913960400191505060405180910390fd5b84336123078282612980565b61235c576040517f08c379a000000000000000000000000000000000000000000000000000000000815260040180806020018281038252602381526020018061381d6023913960400191505060405180910390fd5b600061236a88888888611913565b90506003600082815260200190815260200160002060040160009054906101000a900460ff166123e5576040517f08c379a00000000000000000000000000000000000000000000000000000000081526004018080602001828103825260348152602001806137e96034913960400191505060405180910390fd5b6003600082815260200190815260200160002060010160008560ff1660ff1681526020019081526020016000203390806001815401808255809150509060018203906000526020600020016000909192909190916101000a81548173ffffffffffffffffffffffffffffffffffffffff021916908373ffffffffffffffffffffffffffffffffffffffff160217905550507f43c853095c2752648493c88b4baac4d580d2594ffb00c6f1d4242d844514f78387878787604051808573ffffffffffffffffffffffffffffffffffffffff1673ffffffffffffffffffffffffffffffffffffffff168152602001806020018481526020018360ff1660ff168152602001828103825285818151815260200191508051906020019080838360005b8381101561251f578082015181840152602081019050612504565b50505050905090810190601f16801561254c5780820380516001836020036101000a031916815260200191505b509550505050505060405180910390a1600380600083815260200190815260200160002060010160008660ff1660ff16815260200190815260200160002080549050101580156125a157506125a081612953565b5b156126a2576125b0818561325b565b7fe23f5229de535c091e3b7bec2665f5d698192d3b31393066e8987b7a05076b6c87878787604051808573ffffffffffffffffffffffffffffffffffffffff1673ffffffffffffffffffffffffffffffffffffffff168152602001806020018481526020018360ff1660ff168152602001828103825285818151815260200191508051906020019080838360005b8381101561265957808201518184015260208101905061263e565b50505050905090810190601f1680156126865780820380516001836020036101000a031916815260200191505b509550505050505060405180910390a16126a18686866126ac565b5b5050505050505050565b6126b4612adc565b612709576040517f08c379a00000000000000000000000000000000000000000000000000000000081526004018080602001828103825260258152602001806137c46025913960400191505060405180910390fd5b6000600660009054906101000a900473ffffffffffffffffffffffffffffffffffffffff1673ffffffffffffffffffffffffffffffffffffffff1663637a66df85856040518363ffffffff1660e01b81526004018080602001838152602001828103825284818151815260200191508051906020019080838360005b838110156127a0578082015181840152602081019050612785565b50505050905090810190601f1680156127cd5780820380516001836020036101000a031916815260200191505b509350505050602060405180830381600087803b1580156127ed57600080fd5b505af1158015612801573d6000803e3d6000fd5b505050506040513d602081101561281757600080fd5b81019080805190602001909291905050509050600060ff168260ff161461289057601460ff168260ff16141561285e576128508161164d565b61285981611cac565b61288f565b61286781612cd7565b600a60ff168260ff1614156128845761287f81612ea2565b61288e565b61288d81612896565b5b5b5b50505050565b600660009054906101000a900473ffffffffffffffffffffffffffffffffffffffff1673ffffffffffffffffffffffffffffffffffffffff1663c77eb5a2826040518263ffffffff1660e01b815260040180828152602001915050600060405180830381600087803b15801561290b57600080fd5b505af115801561291f573d6000803e3d6000fd5b5050505050565b60006003600083815260200190815260200160002060040160009054906101000a900460ff169050919050565b60006003600083815260200190815260200160002060000160149054906101000a900460ff169050919050565b60008260ff16600160008473ffffffffffffffffffffffffffffffffffffffff1673ffffffffffffffffffffffffffffffffffffffff1681526020019081526020016000206001016000600381106129d457fe5b602091828204019190069054906101000a900460ff1660ff161480612a6157508260ff16600160008473ffffffffffffffffffffffffffffffffffffffff1673ffffffffffffffffffffffffffffffffffffffff168152602001908152602001600020600101600160038110612a4657fe5b602091828204019190069054906101000a900460ff1660ff16145b80612ad457508260ff16600160008473ffffffffffffffffffffffffffffffffffffffff1673ffffffffffffffffffffffffffffffffffffffff168152602001908152602001600020600101600260038110612ab957fe5b602091828204019190069054906101000a900460ff1660ff16145b905092915050565b6000600560149054906101000a900460ff16905090565b600080606060006003600086815260200190815260200160002060000160009054906101000a900473ffffffffffffffffffffffffffffffffffffffff1693506003600086815260200190815260200160002060000160149054906101000a900460ff16925060036000868152602001908152602001600020600301805480602002602001604051908101604052809291908181526020018280548015612bef57602002820191906000526020600020905b8160009054906101000a900473ffffffffffffffffffffffffffffffffffffffff1673ffffffffffffffffffffffffffffffffffffffff1681526020019060010190808311612ba5575b505050505091506003600086815260200190815260200160002060040160019054906101000a900460ff1690509193509193565b600660009054906101000a900473ffffffffffffffffffffffffffffffffffffffff1673ffffffffffffffffffffffffffffffffffffffff1663ee06ce2b826040518263ffffffff1660e01b815260040180828152602001915050602060405180830381600087803b158015612c9857600080fd5b505af1158015612cac573d6000803e3d6000fd5b505050506040513d6020811015612cc257600080fd5b81019080805190602001909291905050505050565b6060600660009054906101000a900473ffffffffffffffffffffffffffffffffffffffff1673ffffffffffffffffffffffffffffffffffffffff1663b3e70c31836040518263ffffffff1660e01b815260040180828152602001915050600060405180830381600087803b158015612d4e57600080fd5b505af1158015612d62573d6000803e3d6000fd5b505050506040513d6000823e3d601f19601f820116820180604052506020811015612d8c57600080fd5b810190808051640100000000811115612da457600080fd5b82810190506020810184811115612dba57600080fd5b8151856020820283011164010000000082111715612dd757600080fd5b5050929190505050905060008090505b8151811015612e9d57600660009054906101000a900473ffffffffffffffffffffffffffffffffffffffff1673ffffffffffffffffffffffffffffffffffffffff16639348916f838381518110612e3a57fe5b60200260200101516040518263ffffffff1660e01b815260040180828152602001915050600060405180830381600087803b158015612e7857600080fd5b505af1158015612e8c573d6000803e3d6000fd5b505050508080600101915050612de7565b505050565b600660009054906101000a900473ffffffffffffffffffffffffffffffffffffffff1673ffffffffffffffffffffffffffffffffffffffff1663f2c6d0b2826040518263ffffffff1660e01b815260040180828152602001915050600060405180830381600087803b158015612f1757600080fd5b505af1158015612f2b573d6000803e3d6000fd5b5050505050565b612f3a612adc565b612f8f576040517f08c379a00000000000000000000000000000000000000000000000000000000081526004018080602001828103825260258152602001806137c46025913960400191505060405180910390fd5b6000612f9a336132f1565b90506000612faa82868686611913565b90506004819080600181540180825580915050906001820390600052602060002001600090919290919091505550612fe281336133de565b7f3ed01f2c3fc24c6b329d931e35b03e390d23497d22b3f90e15b600343e93df1182868686604051808560ff1660ff1681526020018473ffffffffffffffffffffffffffffffffffffffff1673ffffffffffffffffffffffffffffffffffffffff16815260200180602001838152602001828103825284818151815260200191508051906020019080838360005b8381101561308b578082015181840152602081019050613070565b50505050905090810190601f1680156130b85780820380516001836020036101000a031916815260200191505b509550505050505060405180910390a15050505050565b6130d761359d565b6130df61359d565b6130e8836132f1565b816000600381106130f557fe5b602002019060ff16908160ff16815250508060006003811061311357fe5b60200201518160016003811061312557fe5b602002019060ff16908160ff16815250505b8060006003811061314457fe5b602002015160ff168160016003811061315957fe5b602002015160ff16141561319357613170836132f1565b8160016003811061317d57fe5b602002019060ff16908160ff1681525050613137565b806001600381106131a057fe5b6020020151816002600381106131b257fe5b602002019060ff16908160ff16815250505b806000600381106131d157fe5b602002015160ff16816002600381106131e657fe5b602002015160ff16148061322157508060016003811061320257fe5b602002015160ff168160026003811061321757fe5b602002015160ff16145b156132525761322f836132f1565b8160026003811061323c57fe5b602002019060ff16908160ff16815250506131c4565b80915050919050565b60016003600084815260200190815260200160002060000160146101000a81548160ff0219169083151502179055156132ed5760006003600084815260200190815260200160002060000160146101000a81548160ff021916908315150217905550806003600084815260200190815260200160002060040160016101000a81548160ff021916908360ff1602179055505b5050565b600080600a905060008160ff1660008081819054906101000a900460ff168092919060010191906101000a81548160ff021916908360ff16021790555060ff1643034085604051602001808381526020018273ffffffffffffffffffffffffffffffffffffffff1673ffffffffffffffffffffffffffffffffffffffff1660601b8152601401925050506040516020818303038152906040528051906020012060001c8161339b57fe5b06905060fa6000809054906101000a900460ff1660ff1611156133d45760008060006101000a81548160ff021916908360ff1602179055505b8092505050919050565b6133e782612926565b1561345a576040517f08c379a000000000000000000000000000000000000000000000000000000000815260040180806020018281038252601b8152602001807f526573706f6e7365496e666f2063726561746564206265666f7265000000000081525060200191505060405180910390fd5b613462613659565b81816000019073ffffffffffffffffffffffffffffffffffffffff16908173ffffffffffffffffffffffffffffffffffffffff168152505060018160200190151590811515815250506001816060019015159081151581525050806003600085815260200190815260200160002060008201518160000160006101000a81548173ffffffffffffffffffffffffffffffffffffffff021916908373ffffffffffffffffffffffffffffffffffffffff16021790555060208201518160000160146101000a81548160ff02191690831515021790555060408201518160030190805190602001906135539291906136a5565b5060608201518160040160006101000a81548160ff02191690831515021790555060808201518160040160016101000a81548160ff021916908360ff160217905550905050505050565b6040518060600160405280600390602082028038833980820191505090505090565b826003601f016020900481019282156136485791602002820160005b8382111561361957835183826101000a81548160ff021916908360ff16021790555092602001926001016020816000010492830192600103026135db565b80156136465782816101000a81549060ff0219169055600101602081600001049283019260010302613619565b505b509050613655919061372f565b5090565b6040518060a00160405280600073ffffffffffffffffffffffffffffffffffffffff16815260200160001515815260200160608152602001600015158152602001600060ff1681525090565b82805482825590600052602060002090810192821561371e579160200282015b8281111561371d5782518260006101000a81548173ffffffffffffffffffffffffffffffffffffffff021916908373ffffffffffffffffffffffffffffffffffffffff160217905550916020019190600101906136c5565b5b50905061372b919061375f565b5090565b61375c91905b8082111561375857600081816101000a81549060ff021916905550600101613735565b5090565b90565b61379f91905b8082111561379b57600081816101000a81549073ffffffffffffffffffffffffffffffffffffffff021916905550600101613765565b5090565b9056fe4170706c69636174696f6e2773206574686572206973206e6f7420656e6f756768436f6e74726163742069732063757272656e746c79206e6f74206f7065726174696f6e616c47656e65726174656420726573706f6e7365206b657920646f6573206e6f74206d61746368206f7261636c652072657175657374496e64657820646f6573206e6f74206d61746368206f7261636c652072657175657374a165627a7a7230582063280e6f6fd84cb3fc10f075cc7b1f9cfe212df22a9fd49060dfd3c8d7467f260029",
  "source": "pragma solidity ^0.5.8;\r\nimport \"./OracleManagement.sol\";\r\nimport \"./Operational.sol\";\r\n\r\nimport \"../node_modules/openzeppelin-solidity/contracts/math/SafeMath.sol\";\r\n\r\ncontract FlightSuretyApp is OracleManagement, Operational{\r\n    using SafeMath for uint256;\r\n    FlightSuretyDataInterface flightSuretyData;\r\n    address private contractOwner;\r\n    //address private suretyDataAddress;\r\n    \r\n    uint8 private constant STATUS_CODE_UNKNOWN = 0;\r\n    uint8 private constant STATUS_CODE_ON_TIME = 10;\r\n    uint8 private constant STATUS_CODE_LATE_AIRLINE = 20;\r\n    uint8 private constant STATUS_CODE_LATE_WEATHER = 30;\r\n    uint8 private constant STATUS_CODE_LATE_TECHNICAL = 40;\r\n    uint8 private constant STATUS_CODE_LATE_OTHER = 50;\r\n\r\n    event FlightStatusInfo(address airline, string flight, uint256 timestamp, uint8 status);\r\n\r\n    constructor(address dataContractAddress) public{\r\n        //suretyDataAddress = dataContractAddress;\r\n        flightSuretyData = FlightSuretyDataInterface(dataContractAddress);\r\n        contractOwner = msg.sender;\r\n    }\r\n\r\n/*\r\n    function getDataAddress() public view returns(address){\r\n        return suretyDataAddress;\r\n    }\r\n*/\r\n    \r\n\r\n    function registerAirline(string memory _name) public{\r\n        flightSuretyData.registerAirline(_name, msg.sender);\r\n    }\r\n\r\n    function airlineVote(address _candidate) public{\r\n        flightSuretyData.vote(_candidate, msg.sender);\r\n    }\r\n\r\n    function airlineFund() public payable{\r\n        flightSuretyData.addFund(msg.sender, msg.value);\r\n    }\r\n\r\n    //function registerFlight(string memory _code, uint256 _timestamp) public view returns(address){\r\n    function registerFlight(string memory _code, uint256 _timestamp) public{\r\n        flightSuretyData.registerFlight(_code, _timestamp, msg.sender);\r\n        //return msg.sender;\r\n    }\r\n\r\n    function generateFlightKey(string memory _code, uint256 _timestamp) public returns(bytes32){\r\n        return flightSuretyData.generateFlightKey(_code, _timestamp);\r\n    }\r\n\r\n    function passenagerBuyInsurance(bytes32 _flightKey, uint256 _contractTimestamp, address _airline) public payable{\r\n        flightSuretyData.registerInsurance(msg.sender, _flightKey, _contractTimestamp, _airline, msg.value);\r\n        //registerInsurance(address _buyer, bytes32 _flightKey, uint256 _contractTimestamp, address _airline, uint256 _fee) external\r\n    }\r\n\r\n    //address _buyer, bytes32 _flightKey, uint256 _contractTimestamp\r\n    function generateInsuranceKey(address _buyer, bytes32 _flightKey, uint256 _contractTimestamp) public returns(bytes32){\r\n        return flightSuretyData.generateInsuranceKey(_buyer, _flightKey, _contractTimestamp);\r\n    }\r\n\r\n    function creditInsurance(bytes32 _insuranceKey) public{\r\n        flightSuretyData.creditInsurance(_insuranceKey);\r\n    }\r\n\r\n    function creditAllInsurances(bytes32 _flightKey) public{\r\n        bytes32[] memory _insurancesKeys = flightSuretyData.getInsuranceKeysList(_flightKey);\r\n        for(uint256 i=0; i<_insurancesKeys.length; i++){\r\n            creditInsurance(_insurancesKeys[i]);\r\n        }\r\n    }\r\n\r\n    function passenagerWithdrawCredits() public payable{\r\n        uint256 credits = flightSuretyData.queryBuyerCredit(msg.sender);\r\n        require(queryContractBalance()>credits, \"Application's ether is not enough\");\r\n        flightSuretyData.deductCredits(msg.sender);\r\n        msg.sender.transfer(credits);\r\n    }\r\n\r\n    function proceedFlightNoCreditCase(bytes32 flightKey) public{\r\n        bytes32[] memory _insurancesKeys = flightSuretyData.getInsuranceKeysList(flightKey);\r\n        for(uint256 i=0; i<_insurancesKeys.length; i++){\r\n            //flightSuretyData.setInsuranceWithdrawn(_insurancesKeys[i]);\r\n            flightSuretyData.setInsuranceExpired(_insurancesKeys[i]);\r\n        }\r\n    }\r\n\r\n    /**\r\n    * Handling oracles\r\n    */\r\n    function generateResponseKey(uint8 randomIndex, address airline, string memory flight,uint256 timestamp) public pure returns(bytes32){\r\n        return  keccak256(abi.encodePacked(randomIndex, airline, flight, timestamp));\r\n    }\r\n\r\n    function fetchFlightStatus(address airline, string memory flightCode, uint256 flightTimestamp) public requireIsOperational{\r\n        uint8 fetchIndex = getRandomIndex(msg.sender);\r\n        bytes32 reponseKey = generateResponseKey(fetchIndex, airline, flightCode, flightTimestamp);\r\n        allResponseKeys.push(reponseKey);\r\n        createResponseInfo(reponseKey, msg.sender);\r\n\r\n        emit OracleRequest(fetchIndex, airline, flightCode, flightTimestamp);\r\n    }\r\n\r\n    function checkAllIndexes(uint8 index, address requester) public view returns(bool){\r\n        return ((oracles[requester].indexes[0] == index) || (oracles[requester].indexes[1] == index) || (oracles[requester].indexes[2] == index));\r\n    }\r\n\r\n    modifier requireCorrectIndexes(uint8 index, address oracle){\r\n        require(checkAllIndexes(index, oracle), \"Index does not match oracle request\");\r\n        _;\r\n    }\r\n\r\n\r\n    // Called by oracle when a response is available to an outstanding request\r\n    // For the response to be accepted, there must be a pending request that is open\r\n    // and matches one of the three Indexes randomly assigned to the oracle at the\r\n    // time of registration (i.e. uninvited oracles are not welcome)\r\n    function submitOracleResponse(uint8 fetchIndex, address airline, string memory  flight, uint256 timestamp, uint8 statusCode) public requireIsOperational requireCorrectIndexes(fetchIndex, msg.sender){\r\n        //require(((oracles[msg.sender].indexes[0] == index) || (oracles[msg.sender].indexes[1] == index) || (oracles[msg.sender].indexes[2] == index)), \"Index does not match oracle request\");\r\n\r\n        //bytes32 key = keccak256(abi.encodePacked(index, airline, flight, timestamp)); \r\n        bytes32 key = generateResponseKey(fetchIndex, airline, flight, timestamp);\r\n        require(oracleResponses[key].isExist, \"Generated response key does not match oracle request\");\r\n\r\n        oracleResponses[key].responses[statusCode].push(msg.sender);\r\n\r\n        // Information isn't considered verified until at least MIN_RESPONSES\r\n        // oracles respond with the *** same *** information\r\n        emit OracleReport(airline, flight, timestamp, statusCode);\r\n        if ((oracleResponses[key].responses[statusCode].length >= MIN_RESPONSES)&&(isResponseOpen(key))) {\r\n            setResponseClose(key, statusCode);\r\n            emit FlightStatusInfo(airline, flight, timestamp, statusCode);\r\n\r\n            // Handle flight status as appropriate\r\n            processFlightStatus(flight, timestamp, statusCode);\r\n        }\r\n    }\r\n\r\n    /**\r\n    * @dev Called after oracle has updated flight status\r\n    *\r\n    */  \r\n    function processFlightStatus(string memory flight, uint256 timestamp, uint8 statusCode) public requireIsOperational{\r\n        //if (statusCode == STATUS_CODE_LATE_AIRLINE) creditInsurees(flight)\r\n        bytes32 flightKey = flightSuretyData.generateFlightKey(flight, timestamp);\r\n        if (statusCode != STATUS_CODE_UNKNOWN) {\r\n            if (statusCode == STATUS_CODE_LATE_AIRLINE){\r\n                setFlightLateAirline(flightKey);\r\n                creditAllInsurances(flightKey);\r\n            } else {\r\n                proceedFlightNoCreditCase(flightKey);\r\n                if (statusCode == STATUS_CODE_ON_TIME) {\r\n                    setFlightOnTime(flightKey);\r\n                } else {\r\n                    setFlightLateNotAirline(flightKey);\r\n                }\r\n            }\r\n        }\r\n    }\r\n\r\n    function queryContractBalance() public view returns(uint256){\r\n        return address(this).balance;\r\n    }\r\n\r\n    function setFlightOnTime(bytes32 flightKey) public{\r\n        flightSuretyData.setFlightOnTime(flightKey);\r\n    }\r\n\r\n    function setFlightLateAirline(bytes32 flightKey) public{\r\n        flightSuretyData.setFlightLateAirline(flightKey);\r\n    }\r\n\r\n    function setFlightLateNotAirline(bytes32 flightKey) public{\r\n        flightSuretyData.setFlightLateNotAirline(flightKey);\r\n    }\r\n}\r\n\r\ncontract FlightSuretyDataInterface{\r\n    function registerAirline(string calldata _name, address _airline) external;\r\n    function vote(address _candidate, address _voter) external;\r\n    function couldFund(address _candidate) external returns(bool);\r\n    function addFund(address _airline, uint256 _fund) external;\r\n    function registerFlight(string calldata _code, uint256 _timestamp, address _airline) external;\r\n    function registerInsurance(address _buyer, bytes32 _flightKey, uint256 _contractTimestamp, address _airline, uint256 _fee) external;\r\n    function creditInsurance(bytes32 _insuranceKey) external returns(uint256);\r\n    function deductInsurance(bytes32 _insuranceKey, address _airline) external returns(uint256);\r\n    function queryInsuranceBuyer(bytes32 _insuranceKey) external returns(address);\r\n    function generateFlightKey(string calldata flightCode, uint256 timestamp) external returns(bytes32);\r\n    function generateInsuranceKey(address _buyer, bytes32 _flightKey, uint256 _contractTimestamp) external returns(bytes32);\r\n    function getInsuranceKeysList(bytes32 flightKey) external returns(bytes32[] memory);\r\n    function setInsuranceWithdrawn(bytes32 insuranceKey) external;\r\n    function setInsuranceExpired(bytes32 insuranceKey) external;\r\n    function queryBuyerCredit(address _buyer) external returns(uint256);\r\n    function deductCredits(address _buyer) external;\r\n    function setFlightOnTime(bytes32 _flightID) external;\r\n    function setFlightLateAirline(bytes32 _flightID) external;\r\n    function setFlightLateNotAirline(bytes32 _flightID) external; \r\n}",
  "sourcePath": "C:/Users/andrewchan88/Documents/Coding/udacity/Blockchain/PartB/homework/project7_es_rm/contracts/FlightSuretyApp.sol",
  "compiler": {
    "name": "solc",
    "version": "0.5.8+commit.23d335f2.Emscripten.clang"
  },
  "schemaVersion": "3.0.13",
  "updatedAt": "2019-10-07T03:56:35.793Z",
  "devdoc": {
    "methods": {
      "isOperational()": {
        "details": "Modifier that requires the \"operational\" boolean variable to be \"true\"\r     This is used on all state changing functions to pause the contract in \r     the event there is an issue that needs to be fixed\r"
      },
      "processFlightStatus(string,uint256,uint8)": {
        "details": "Called after oracle has updated flight status\r     "
      }
    }
  },
  "userdoc": {
    "methods": {
      "generateResponseKey(uint8,address,string,uint256)": {
        "notice": "Handling oracles\r"
      }
    }
  }
}