{
  "contractName": "FlightSuretyData",
  "abi": [
    {
      "constant": true,
      "inputs": [
        {
          "name": "_testingAddress",
          "type": "address"
        }
      ],
      "name": "isAirlineRegistered",
      "outputs": [
        {
          "name": "",
          "type": "bool"
        }
      ],
      "payable": false,
      "stateMutability": "view",
      "type": "function"
    },
    {
      "constant": false,
      "inputs": [
        {
          "name": "_buyer",
          "type": "address"
        }
      ],
      "name": "deductCredits",
      "outputs": [],
      "payable": false,
      "stateMutability": "nonpayable",
      "type": "function"
    },
    {
      "constant": false,
      "inputs": [
        {
          "name": "_flightKey",
          "type": "bytes32"
        },
        {
          "name": "_insuranceKey",
          "type": "bytes32"
        }
      ],
      "name": "addInsuranceKey",
      "outputs": [],
      "payable": false,
      "stateMutability": "nonpayable",
      "type": "function"
    },
    {
      "constant": false,
      "inputs": [
        {
          "name": "mode",
          "type": "bool"
        }
      ],
      "name": "setOperatingStatus",
      "outputs": [],
      "payable": false,
      "stateMutability": "nonpayable",
      "type": "function"
    },
    {
      "constant": false,
      "inputs": [
        {
          "name": "_candidate",
          "type": "address"
        }
      ],
      "name": "addAuthorizedCaller",
      "outputs": [],
      "payable": false,
      "stateMutability": "nonpayable",
      "type": "function"
    },
    {
      "constant": true,
      "inputs": [],
      "name": "queryRegisteredAirlinesCount",
      "outputs": [
        {
          "name": "",
          "type": "uint256"
        }
      ],
      "payable": false,
      "stateMutability": "view",
      "type": "function"
    },
    {
      "constant": true,
      "inputs": [
        {
          "name": "_id",
          "type": "bytes32"
        }
      ],
      "name": "isFlightExist",
      "outputs": [
        {
          "name": "",
          "type": "bool"
        }
      ],
      "payable": false,
      "stateMutability": "view",
      "type": "function"
    },
    {
      "constant": true,
      "inputs": [
        {
          "name": "_testingAddress",
          "type": "address"
        }
      ],
      "name": "couldFund",
      "outputs": [
        {
          "name": "",
          "type": "bool"
        }
      ],
      "payable": false,
      "stateMutability": "view",
      "type": "function"
    },
    {
      "constant": true,
      "inputs": [
        {
          "name": "_insuranceKey",
          "type": "bytes32"
        }
      ],
      "name": "queryInsuranceInfo",
      "outputs": [
        {
          "name": "buyer",
          "type": "address"
        },
        {
          "name": "flightKey",
          "type": "bytes32"
        },
        {
          "name": "airline",
          "type": "address"
        },
        {
          "name": "fee",
          "type": "uint256"
        },
        {
          "name": "credits",
          "type": "uint256"
        },
        {
          "name": "contractTimestamp",
          "type": "uint256"
        },
        {
          "name": "insuranceStatus",
          "type": "uint8"
        }
      ],
      "payable": false,
      "stateMutability": "view",
      "type": "function"
    },
    {
      "constant": true,
      "inputs": [
        {
          "name": "_buyer",
          "type": "address"
        }
      ],
      "name": "queryBuyerCredit",
      "outputs": [
        {
          "name": "",
          "type": "uint256"
        }
      ],
      "payable": false,
      "stateMutability": "view",
      "type": "function"
    },
    {
      "constant": true,
      "inputs": [
        {
          "name": "_flightID",
          "type": "bytes32"
        }
      ],
      "name": "getNumberOfInsurance",
      "outputs": [
        {
          "name": "",
          "type": "uint256"
        }
      ],
      "payable": false,
      "stateMutability": "view",
      "type": "function"
    },
    {
      "constant": true,
      "inputs": [],
      "name": "MIN_FUND",
      "outputs": [
        {
          "name": "",
          "type": "uint256"
        }
      ],
      "payable": false,
      "stateMutability": "view",
      "type": "function"
    },
    {
      "constant": true,
      "inputs": [],
      "name": "isFewAirlines",
      "outputs": [
        {
          "name": "",
          "type": "bool"
        }
      ],
      "payable": false,
      "stateMutability": "view",
      "type": "function"
    },
    {
      "constant": true,
      "inputs": [
        {
          "name": "_id",
          "type": "bytes32"
        }
      ],
      "name": "isFlightRegistered",
      "outputs": [
        {
          "name": "",
          "type": "bool"
        }
      ],
      "payable": false,
      "stateMutability": "view",
      "type": "function"
    },
    {
      "constant": true,
      "inputs": [
        {
          "name": "_candidate",
          "type": "address"
        }
      ],
      "name": "isAuthorizedCaller",
      "outputs": [
        {
          "name": "",
          "type": "bool"
        }
      ],
      "payable": false,
      "stateMutability": "view",
      "type": "function"
    },
    {
      "constant": true,
      "inputs": [],
      "name": "getAllFlightKeys",
      "outputs": [
        {
          "name": "",
          "type": "bytes32[]"
        }
      ],
      "payable": false,
      "stateMutability": "view",
      "type": "function"
    },
    {
      "constant": true,
      "inputs": [],
      "name": "queryAirlinesCount",
      "outputs": [
        {
          "name": "",
          "type": "uint256"
        }
      ],
      "payable": false,
      "stateMutability": "view",
      "type": "function"
    },
    {
      "constant": true,
      "inputs": [
        {
          "name": "_candidate",
          "type": "address"
        }
      ],
      "name": "checkVotes",
      "outputs": [
        {
          "name": "",
          "type": "uint256"
        }
      ],
      "payable": false,
      "stateMutability": "view",
      "type": "function"
    },
    {
      "constant": true,
      "inputs": [
        {
          "name": "fee",
          "type": "uint256"
        }
      ],
      "name": "isLessThanMax",
      "outputs": [
        {
          "name": "",
          "type": "bool"
        }
      ],
      "payable": false,
      "stateMutability": "view",
      "type": "function"
    },
    {
      "constant": false,
      "inputs": [
        {
          "name": "_candidate",
          "type": "address"
        }
      ],
      "name": "addToRegisteredAirlines",
      "outputs": [],
      "payable": false,
      "stateMutability": "nonpayable",
      "type": "function"
    },
    {
      "constant": true,
      "inputs": [
        {
          "name": "_code",
          "type": "string"
        },
        {
          "name": "_timestamp",
          "type": "uint256"
        }
      ],
      "name": "generateFlightKey",
      "outputs": [
        {
          "name": "",
          "type": "bytes32"
        }
      ],
      "payable": false,
      "stateMutability": "pure",
      "type": "function"
    },
    {
      "constant": true,
      "inputs": [
        {
          "name": "_insuranceKey",
          "type": "bytes32"
        },
        {
          "name": "_candidate",
          "type": "address"
        }
      ],
      "name": "isBuyer",
      "outputs": [
        {
          "name": "",
          "type": "bool"
        }
      ],
      "payable": false,
      "stateMutability": "view",
      "type": "function"
    },
    {
      "constant": true,
      "inputs": [
        {
          "name": "_testingAddress",
          "type": "address"
        }
      ],
      "name": "isAirlineEntered",
      "outputs": [
        {
          "name": "",
          "type": "bool"
        }
      ],
      "payable": false,
      "stateMutability": "view",
      "type": "function"
    },
    {
      "constant": true,
      "inputs": [
        {
          "name": "_candidate",
          "type": "address"
        }
      ],
      "name": "moreThanHalf",
      "outputs": [
        {
          "name": "",
          "type": "bool"
        }
      ],
      "payable": false,
      "stateMutability": "view",
      "type": "function"
    },
    {
      "constant": true,
      "inputs": [
        {
          "name": "_flightKey",
          "type": "bytes32"
        },
        {
          "name": "_insuranceKey",
          "type": "bytes32"
        }
      ],
      "name": "isFlightHasThisInsuranceKey",
      "outputs": [
        {
          "name": "",
          "type": "bool"
        }
      ],
      "payable": false,
      "stateMutability": "view",
      "type": "function"
    },
    {
      "constant": true,
      "inputs": [
        {
          "name": "_insuranceKey",
          "type": "bytes32"
        }
      ],
      "name": "isExist",
      "outputs": [
        {
          "name": "",
          "type": "bool"
        }
      ],
      "payable": false,
      "stateMutability": "view",
      "type": "function"
    },
    {
      "constant": true,
      "inputs": [
        {
          "name": "_airline",
          "type": "address"
        },
        {
          "name": "_flightKey",
          "type": "bytes32"
        }
      ],
      "name": "isFlightOwner",
      "outputs": [
        {
          "name": "",
          "type": "bool"
        }
      ],
      "payable": false,
      "stateMutability": "view",
      "type": "function"
    },
    {
      "constant": false,
      "inputs": [
        {
          "name": "_airline",
          "type": "address"
        },
        {
          "name": "_fund",
          "type": "uint256"
        }
      ],
      "name": "deductFund",
      "outputs": [],
      "payable": false,
      "stateMutability": "nonpayable",
      "type": "function"
    },
    {
      "constant": true,
      "inputs": [
        {
          "name": "_insuranceKey",
          "type": "bytes32"
        }
      ],
      "name": "queryInsuranceBuyer",
      "outputs": [
        {
          "name": "",
          "type": "address"
        }
      ],
      "payable": false,
      "stateMutability": "view",
      "type": "function"
    },
    {
      "constant": true,
      "inputs": [],
      "name": "getOwner",
      "outputs": [
        {
          "name": "",
          "type": "address"
        }
      ],
      "payable": false,
      "stateMutability": "view",
      "type": "function"
    },
    {
      "constant": true,
      "inputs": [
        {
          "name": "_candidate",
          "type": "address"
        }
      ],
      "name": "isAirlineFulfill",
      "outputs": [
        {
          "name": "",
          "type": "bool"
        }
      ],
      "payable": false,
      "stateMutability": "view",
      "type": "function"
    },
    {
      "constant": false,
      "inputs": [
        {
          "name": "_name",
          "type": "string"
        },
        {
          "name": "_airline",
          "type": "address"
        }
      ],
      "name": "addAirline",
      "outputs": [],
      "payable": false,
      "stateMutability": "nonpayable",
      "type": "function"
    },
    {
      "constant": true,
      "inputs": [
        {
          "name": "_airline",
          "type": "address"
        }
      ],
      "name": "isAirlineHasEnoughFund",
      "outputs": [
        {
          "name": "",
          "type": "bool"
        }
      ],
      "payable": false,
      "stateMutability": "view",
      "type": "function"
    },
    {
      "constant": true,
      "inputs": [
        {
          "name": "_flightID",
          "type": "bytes32"
        }
      ],
      "name": "getInsuranceKeysList",
      "outputs": [
        {
          "name": "",
          "type": "bytes32[]"
        }
      ],
      "payable": false,
      "stateMutability": "view",
      "type": "function"
    },
    {
      "constant": true,
      "inputs": [
        {
          "name": "_buyer",
          "type": "address"
        },
        {
          "name": "_flightKey",
          "type": "bytes32"
        },
        {
          "name": "_contractTimestamp",
          "type": "uint256"
        }
      ],
      "name": "generateInsuranceKey",
      "outputs": [
        {
          "name": "",
          "type": "bytes32"
        }
      ],
      "payable": false,
      "stateMutability": "pure",
      "type": "function"
    },
    {
      "constant": true,
      "inputs": [
        {
          "name": "_buyer",
          "type": "address"
        }
      ],
      "name": "isBuyerExist",
      "outputs": [
        {
          "name": "",
          "type": "bool"
        }
      ],
      "payable": false,
      "stateMutability": "view",
      "type": "function"
    },
    {
      "constant": true,
      "inputs": [
        {
          "name": "_insuranceKey",
          "type": "bytes32"
        }
      ],
      "name": "isActivated",
      "outputs": [
        {
          "name": "",
          "type": "bool"
        }
      ],
      "payable": false,
      "stateMutability": "view",
      "type": "function"
    },
    {
      "constant": true,
      "inputs": [
        {
          "name": "_airline",
          "type": "address"
        }
      ],
      "name": "queryFund",
      "outputs": [
        {
          "name": "",
          "type": "uint256"
        }
      ],
      "payable": false,
      "stateMutability": "view",
      "type": "function"
    },
    {
      "constant": true,
      "inputs": [],
      "name": "isOperational",
      "outputs": [
        {
          "name": "",
          "type": "bool"
        }
      ],
      "payable": false,
      "stateMutability": "view",
      "type": "function"
    },
    {
      "constant": false,
      "inputs": [
        {
          "name": "_buyer",
          "type": "address"
        },
        {
          "name": "_flightKey",
          "type": "bytes32"
        },
        {
          "name": "_contractTimestamp",
          "type": "uint256"
        },
        {
          "name": "_airline",
          "type": "address"
        },
        {
          "name": "_fee",
          "type": "uint256"
        }
      ],
      "name": "addInsurance",
      "outputs": [],
      "payable": false,
      "stateMutability": "nonpayable",
      "type": "function"
    },
    {
      "constant": false,
      "inputs": [
        {
          "name": "_airline",
          "type": "address"
        },
        {
          "name": "_fund",
          "type": "uint256"
        }
      ],
      "name": "addFund",
      "outputs": [],
      "payable": false,
      "stateMutability": "nonpayable",
      "type": "function"
    },
    {
      "constant": true,
      "inputs": [
        {
          "name": "_testingAddress",
          "type": "address"
        }
      ],
      "name": "isAirlineExist",
      "outputs": [
        {
          "name": "",
          "type": "bool"
        }
      ],
      "payable": false,
      "stateMutability": "view",
      "type": "function"
    },
    {
      "constant": true,
      "inputs": [
        {
          "name": "_flightID",
          "type": "bytes32"
        }
      ],
      "name": "queryFlightInfo",
      "outputs": [
        {
          "name": "flightKey",
          "type": "bytes32"
        },
        {
          "name": "code",
          "type": "string"
        },
        {
          "name": "airline",
          "type": "address"
        },
        {
          "name": "timestamp",
          "type": "uint256"
        },
        {
          "name": "status",
          "type": "uint8"
        }
      ],
      "payable": false,
      "stateMutability": "view",
      "type": "function"
    },
    {
      "constant": true,
      "inputs": [
        {
          "name": "_airline",
          "type": "address"
        }
      ],
      "name": "queryAirline",
      "outputs": [
        {
          "name": "name",
          "type": "string"
        },
        {
          "name": "status",
          "type": "uint8"
        },
        {
          "name": "votesCount",
          "type": "uint256"
        },
        {
          "name": "funds",
          "type": "uint256"
        }
      ],
      "payable": false,
      "stateMutability": "view",
      "type": "function"
    },
    {
      "constant": false,
      "inputs": [
        {
          "name": "_insuranceKey",
          "type": "bytes32"
        }
      ],
      "name": "creditInsurance",
      "outputs": [
        {
          "name": "credits",
          "type": "uint256"
        }
      ],
      "payable": false,
      "stateMutability": "nonpayable",
      "type": "function"
    },
    {
      "constant": true,
      "inputs": [
        {
          "name": "_testingAddress",
          "type": "address"
        }
      ],
      "name": "isAirlineFunded",
      "outputs": [
        {
          "name": "",
          "type": "bool"
        }
      ],
      "payable": false,
      "stateMutability": "view",
      "type": "function"
    },
    {
      "constant": true,
      "inputs": [
        {
          "name": "_insuranceKey",
          "type": "bytes32"
        }
      ],
      "name": "isCredited",
      "outputs": [
        {
          "name": "",
          "type": "bool"
        }
      ],
      "payable": false,
      "stateMutability": "view",
      "type": "function"
    },
    {
      "constant": true,
      "inputs": [
        {
          "name": "_flightID",
          "type": "bytes32"
        }
      ],
      "name": "isFlightLateAirline",
      "outputs": [
        {
          "name": "",
          "type": "bool"
        }
      ],
      "payable": false,
      "stateMutability": "view",
      "type": "function"
    },
    {
      "anonymous": false,
      "inputs": [
        {
          "indexed": false,
          "name": "flightCode",
          "type": "string"
        },
        {
          "indexed": false,
          "name": "deparTimestamp",
          "type": "uint256"
        },
        {
          "indexed": false,
          "name": "airline",
          "type": "address"
        },
        {
          "indexed": false,
          "name": "flightKey",
          "type": "bytes32"
        }
      ],
      "name": "FlightAdded",
      "type": "event"
    },
    {
      "anonymous": false,
      "inputs": [
        {
          "indexed": false,
          "name": "flightCode",
          "type": "string"
        },
        {
          "indexed": false,
          "name": "deparTimestamp",
          "type": "uint256"
        },
        {
          "indexed": false,
          "name": "airline",
          "type": "address"
        },
        {
          "indexed": false,
          "name": "flightKey",
          "type": "bytes32"
        },
        {
          "indexed": false,
          "name": "state",
          "type": "uint8"
        }
      ],
      "name": "FlightArrival",
      "type": "event"
    },
    {
      "anonymous": false,
      "inputs": [
        {
          "indexed": false,
          "name": "flightKey",
          "type": "bytes32"
        },
        {
          "indexed": false,
          "name": "insuranceKey",
          "type": "bytes32"
        },
        {
          "indexed": false,
          "name": "buyer",
          "type": "address"
        },
        {
          "indexed": false,
          "name": "fee",
          "type": "uint256"
        }
      ],
      "name": "BuyInsurance",
      "type": "event"
    },
    {
      "anonymous": false,
      "inputs": [
        {
          "indexed": false,
          "name": "flightKey",
          "type": "bytes32"
        },
        {
          "indexed": false,
          "name": "insuranceKey",
          "type": "bytes32"
        },
        {
          "indexed": false,
          "name": "buyer",
          "type": "address"
        },
        {
          "indexed": false,
          "name": "credits",
          "type": "uint256"
        }
      ],
      "name": "CreditInsurance",
      "type": "event"
    },
    {
      "anonymous": false,
      "inputs": [
        {
          "indexed": false,
          "name": "name",
          "type": "string"
        },
        {
          "indexed": false,
          "name": "airline",
          "type": "address"
        }
      ],
      "name": "AirlineEntered",
      "type": "event"
    },
    {
      "anonymous": false,
      "inputs": [
        {
          "indexed": false,
          "name": "name",
          "type": "string"
        },
        {
          "indexed": false,
          "name": "airline",
          "type": "address"
        }
      ],
      "name": "AirlinePendingVote",
      "type": "event"
    },
    {
      "anonymous": false,
      "inputs": [
        {
          "indexed": false,
          "name": "candidate",
          "type": "address"
        },
        {
          "indexed": false,
          "name": "voter",
          "type": "address"
        },
        {
          "indexed": false,
          "name": "votes",
          "type": "uint256"
        }
      ],
      "name": "AirlineVoted",
      "type": "event"
    },
    {
      "anonymous": false,
      "inputs": [
        {
          "indexed": false,
          "name": "name",
          "type": "string"
        },
        {
          "indexed": false,
          "name": "airline",
          "type": "address"
        }
      ],
      "name": "AirlineRegistered",
      "type": "event"
    },
    {
      "anonymous": false,
      "inputs": [
        {
          "indexed": false,
          "name": "name",
          "type": "string"
        },
        {
          "indexed": false,
          "name": "airline",
          "type": "address"
        },
        {
          "indexed": false,
          "name": "fund",
          "type": "uint256"
        }
      ],
      "name": "AirlineFunded",
      "type": "event"
    },
    {
      "constant": false,
      "inputs": [
        {
          "name": "_name",
          "type": "string"
        },
        {
          "name": "_airline",
          "type": "address"
        }
      ],
      "name": "registerAirline",
      "outputs": [],
      "payable": false,
      "stateMutability": "nonpayable",
      "type": "function"
    },
    {
      "constant": false,
      "inputs": [
        {
          "name": "_candidate",
          "type": "address"
        },
        {
          "name": "_voter",
          "type": "address"
        }
      ],
      "name": "vote",
      "outputs": [],
      "payable": false,
      "stateMutability": "nonpayable",
      "type": "function"
    },
    {
      "constant": false,
      "inputs": [
        {
          "name": "_code",
          "type": "string"
        },
        {
          "name": "_timestamp",
          "type": "uint256"
        },
        {
          "name": "_airline",
          "type": "address"
        }
      ],
      "name": "registerFlight",
      "outputs": [],
      "payable": false,
      "stateMutability": "nonpayable",
      "type": "function"
    },
    {
      "constant": false,
      "inputs": [
        {
          "name": "_buyer",
          "type": "address"
        },
        {
          "name": "_flightKey",
          "type": "bytes32"
        },
        {
          "name": "_contractTimestamp",
          "type": "uint256"
        },
        {
          "name": "_airline",
          "type": "address"
        },
        {
          "name": "_fee",
          "type": "uint256"
        }
      ],
      "name": "registerInsurance",
      "outputs": [],
      "payable": false,
      "stateMutability": "nonpayable",
      "type": "function"
    },
    {
      "constant": false,
      "inputs": [
        {
          "name": "flightKey",
          "type": "bytes32"
        }
      ],
      "name": "setFlightOnTime",
      "outputs": [],
      "payable": false,
      "stateMutability": "nonpayable",
      "type": "function"
    },
    {
      "constant": false,
      "inputs": [
        {
          "name": "flightKey",
          "type": "bytes32"
        }
      ],
      "name": "setFlightLateAirline",
      "outputs": [],
      "payable": false,
      "stateMutability": "nonpayable",
      "type": "function"
    },
    {
      "constant": false,
      "inputs": [
        {
          "name": "flightKey",
          "type": "bytes32"
        }
      ],
      "name": "setFlightLateNotAirline",
      "outputs": [],
      "payable": false,
      "stateMutability": "nonpayable",
      "type": "function"
    },
    {
      "constant": false,
      "inputs": [
        {
          "name": "insuranceKey",
          "type": "bytes32"
        }
      ],
      "name": "setInsuranceExpired",
      "outputs": [],
      "payable": false,
      "stateMutability": "nonpayable",
      "type": "function"
    },
    {
      "constant": false,
      "inputs": [
        {
          "name": "insuranceKey",
          "type": "bytes32"
        }
      ],
      "name": "setInsuranceCredited",
      "outputs": [],
      "payable": false,
      "stateMutability": "nonpayable",
      "type": "function"
    },
    {
      "constant": false,
      "inputs": [
        {
          "name": "insuranceKey",
          "type": "bytes32"
        }
      ],
      "name": "setInsuranceWithdrawn",
      "outputs": [],
      "payable": false,
      "stateMutability": "nonpayable",
      "type": "function"
    },
    {
      "constant": false,
      "inputs": [
        {
          "name": "flightKey",
          "type": "bytes32"
        }
      ],
      "name": "creditInsurees",
      "outputs": [],
      "payable": false,
      "stateMutability": "nonpayable",
      "type": "function"
    }
  ],
  "bytecode": "0x60806040526001600760146101000a81548160ff02191690831515021790555033600760006101000a81548173ffffffffffffffffffffffffffffffffffffffff021916908373ffffffffffffffffffffffffffffffffffffffff160217905550615f9e8061006f6000396000f3fe608060405234801561001057600080fd5b50600436106103995760003560e01c80637508ec20116101e9578063c77eb5a21161010f578063df00f5ea116100ad578063f2c6d0b21161007c578063f2c6d0b2146117f3578063f53b6d6514611821578063fb933ebd1461187d578063fc00b286146118c357610399565b8063df00f5ea14611578578063e7e4ff71146115d4578063e9e2ea95146116d1578063ee06ce2b146117b157610399565b8063cd905dff116100e9578063cd905dff14611458578063d0d6c8e11461147a578063d512c061146114fc578063d709f2a11461154a57610399565b8063c77eb5a2146113a4578063c9e4b0d3146113d2578063cc2f6eba1461142a57610399565b806392a0b6eb11610187578063b3e70c3111610156578063b3e70c3114611213578063b58c31be14611296578063b884907314611302578063ba87af801461135e57610399565b806392a0b6eb146110525780639348916f146110ae578063aed6862b146110dc578063b3924810146111b757610399565b806388e4fe3f116101c357806388e4fe3f14610f1e57806389199e3714610f6c578063893d20e814610fda57806389c6c14e1461102457610399565b80637508ec2014610e22578063762fee1814610e72578063849365a114610eb857610399565b806345e2748d116102ce5780635caea9cb1161026c57806363f045a51161023b57806363f045a514610c1f57806365c152f714610c855780636f0fec4b14610d6a5780636f1fa7a814610dc657610399565b80635caea9cb14610a645780635dade69914610abc5780635e913b2e14610b02578063637a66df14610b4657610399565b806358ac36a3116102a857806358ac36a31461094557806359d14b411461098b5780635aa0c5bb146109e75780635bcd59ae14610a4657610399565b806345e2748d146108d757806355b2bb0f1461090557806356f4fa1e1461092357610399565b80631afa74e51161033b57806334198f221161031557806334198f221461070f5780633d0277431461076b5780633d43020b1461083d57806343ba1e3c1461089557610399565b80631afa74e5146105e35780631dd7a3f614610647578063242f83e8146106c957610399565b80630f08f655116103775780630f08f65514610519578063110466ed1461055157806313a155ea146105815780631558ac86146105c557610399565b8063010c5c971461039e5780630d829250146103fa5780630e2c41291461043e575b600080fd5b6103e0600480360360208110156103b457600080fd5b81019080803573ffffffffffffffffffffffffffffffffffffffff169060200190929190505050611909565b604051808215151515815260200191505060405180910390f35b61043c6004803603602081101561041057600080fd5b81019080803573ffffffffffffffffffffffffffffffffffffffff16906020019092919050505061197b565b005b6105176004803603604081101561045457600080fd5b810190808035906020019064010000000081111561047157600080fd5b82018360208201111561048357600080fd5b803590602001918460018302840111640100000000831117156104a557600080fd5b91908080601f016020809104026020016040519081016040528093929190818152602001838380828437600081840152601f19601f820116905080830192505050505050509192919290803573ffffffffffffffffffffffffffffffffffffffff169060200190929190505050611a43565b005b61054f6004803603604081101561052f57600080fd5b810190808035906020019092919080359060200190929190505050611b52565b005b61057f6004803603602081101561056757600080fd5b81019080803515159060200190929190505050611d0f565b005b6105c36004803603602081101561059757600080fd5b81019080803573ffffffffffffffffffffffffffffffffffffffff169060200190929190505050611def565b005b6105cd611f6a565b6040518082815260200191505060405180910390f35b610645600480360360408110156105f957600080fd5b81019080803573ffffffffffffffffffffffffffffffffffffffff169060200190929190803573ffffffffffffffffffffffffffffffffffffffff169060200190929190505050611f77565b005b6106c7600480360360a081101561065d57600080fd5b81019080803573ffffffffffffffffffffffffffffffffffffffff1690602001909291908035906020019092919080359060200190929190803573ffffffffffffffffffffffffffffffffffffffff16906020019092919080359060200190929190505050612029565b005b6106f5600480360360208110156106df57600080fd5b8101908080359060200190929190505050612114565b604051808215151515815260200191505060405180910390f35b6107516004803603602081101561072557600080fd5b81019080803573ffffffffffffffffffffffffffffffffffffffff169060200190929190505050612141565b604051808215151515815260200191505060405180910390f35b6107976004803603602081101561078157600080fd5b8101908080359060200190929190505050612163565b604051808873ffffffffffffffffffffffffffffffffffffffff1673ffffffffffffffffffffffffffffffffffffffff1681526020018781526020018673ffffffffffffffffffffffffffffffffffffffff1673ffffffffffffffffffffffffffffffffffffffff16815260200185815260200184815260200183815260200182600381111561082357fe5b60ff16815260200197505050505050505060405180910390f35b61087f6004803603602081101561085357600080fd5b81019080803573ffffffffffffffffffffffffffffffffffffffff169060200190929190505050612275565b6040518082815260200191505060405180910390f35b6108c1600480360360208110156108ab57600080fd5b81019080803590602001909291905050506122c1565b6040518082815260200191505060405180910390f35b610903600480360360208110156108ed57600080fd5b8101908080359060200190929190505050612361565b005b61090d612411565b6040518082815260200191505060405180910390f35b61092b61241d565b604051808215151515815260200191505060405180910390f35b6109716004803603602081101561095b57600080fd5b810190808035906020019092919050505061242d565b604051808215151515815260200191505060405180910390f35b6109cd600480360360208110156109a157600080fd5b81019080803573ffffffffffffffffffffffffffffffffffffffff169060200190929190505050612472565b604051808215151515815260200191505060405180910390f35b6109ef6124c8565b6040518080602001828103825283818151815260200191508051906020019060200280838360005b83811015610a32578082015181840152602081019050610a17565b505050509050019250505060405180910390f35b610a4e612520565b6040518082815260200191505060405180910390f35b610aa660048036036020811015610a7a57600080fd5b81019080803573ffffffffffffffffffffffffffffffffffffffff16906020019092919050505061252c565b6040518082815260200191505060405180910390f35b610ae860048036036020811015610ad257600080fd5b810190808035906020019092919050505061257b565b604051808215151515815260200191505060405180910390f35b610b4460048036036020811015610b1857600080fd5b81019080803573ffffffffffffffffffffffffffffffffffffffff169060200190929190505050612590565b005b610c0960048036036040811015610b5c57600080fd5b8101908080359060200190640100000000811115610b7957600080fd5b820183602082011115610b8b57600080fd5b80359060200191846001830284011164010000000083111715610bad57600080fd5b91908080601f016020809104026020016040519081016040528093929190818152602001838380828437600081840152601f19601f82011690508083019250505050505050919291929080359060200190929190505050612660565b6040518082815260200191505060405180910390f35b610c6b60048036036040811015610c3557600080fd5b8101908080359060200190929190803573ffffffffffffffffffffffffffffffffffffffff1690602001909291905050506126e4565b604051808215151515815260200191505060405180910390f35b610d6860048036036060811015610c9b57600080fd5b8101908080359060200190640100000000811115610cb857600080fd5b820183602082011115610cca57600080fd5b80359060200191846001830284011164010000000083111715610cec57600080fd5b91908080601f016020809104026020016040519081016040528093929190818152602001838380828437600081840152601f19601f82011690508083019250505050505050919291929080359060200190929190803573ffffffffffffffffffffffffffffffffffffffff169060200190929190505050612753565b005b610dac60048036036020811015610d8057600080fd5b81019080803573ffffffffffffffffffffffffffffffffffffffff169060200190929190505050612941565b604051808215151515815260200191505060405180910390f35b610e0860048036036020811015610ddc57600080fd5b81019080803573ffffffffffffffffffffffffffffffffffffffff1690602001909291905050506129b2565b604051808215151515815260200191505060405180910390f35b610e5860048036036040811015610e3857600080fd5b810190808035906020019092919080359060200190929190505050612a15565b604051808215151515815260200191505060405180910390f35b610e9e60048036036020811015610e8857600080fd5b8101908080359060200190929190505050612ad1565b604051808215151515815260200191505060405180910390f35b610f0460048036036040811015610ece57600080fd5b81019080803573ffffffffffffffffffffffffffffffffffffffff16906020019092919080359060200190929190505050612afe565b604051808215151515815260200191505060405180910390f35b610f6a60048036036040811015610f3457600080fd5b81019080803573ffffffffffffffffffffffffffffffffffffffff16906020019092919080359060200190929190505050612bea565b005b610f9860048036036020811015610f8257600080fd5b8101908080359060200190929190505050612db5565b604051808273ffffffffffffffffffffffffffffffffffffffff1673ffffffffffffffffffffffffffffffffffffffff16815260200191505060405180910390f35b610fe2612e70565b604051808273ffffffffffffffffffffffffffffffffffffffff1673ffffffffffffffffffffffffffffffffffffffff16815260200191505060405180910390f35b6110506004803603602081101561103a57600080fd5b8101908080359060200190929190505050612e9a565b005b6110946004803603602081101561106857600080fd5b81019080803573ffffffffffffffffffffffffffffffffffffffff169060200190929190505050612f4a565b604051808215151515815260200191505060405180910390f35b6110da600480360360208110156110c457600080fd5b8101908080359060200190929190505050612f7c565b005b6111b5600480360360408110156110f257600080fd5b810190808035906020019064010000000081111561110f57600080fd5b82018360208201111561112157600080fd5b8035906020019184600183028401116401000000008311171561114357600080fd5b91908080601f016020809104026020016040519081016040528093929190818152602001838380828437600081840152601f19601f820116905080830192505050505050509192919290803573ffffffffffffffffffffffffffffffffffffffff16906020019092919050505061302c565b005b6111f9600480360360208110156111cd57600080fd5b81019080803573ffffffffffffffffffffffffffffffffffffffff1690602001909291905050506133d5565b604051808215151515815260200191505060405180910390f35b61123f6004803603602081101561122957600080fd5b810190808035906020019092919050505061342b565b6040518080602001828103825283818151815260200191508051906020019060200280838360005b83811015611282578082015181840152602081019050611267565b505050509050019250505060405180910390f35b6112ec600480360360608110156112ac57600080fd5b81019080803573ffffffffffffffffffffffffffffffffffffffff1690602001909291908035906020019092919080359060200190929190505050613516565b6040518082815260200191505060405180910390f35b6113446004803603602081101561131857600080fd5b81019080803573ffffffffffffffffffffffffffffffffffffffff169060200190929190505050613587565b604051808215151515815260200191505060405180910390f35b61138a6004803603602081101561137457600080fd5b81019080803590602001909291905050506135e0565b604051808215151515815260200191505060405180910390f35b6113d0600480360360208110156113ba57600080fd5b8101908080359060200190929190505050613625565b005b611414600480360360208110156113e857600080fd5b81019080803573ffffffffffffffffffffffffffffffffffffffff1690602001909291905050506136d5565b6040518082815260200191505060405180910390f35b6114566004803603602081101561144057600080fd5b810190808035906020019092919050505061379e565b005b6114606138f6565b604051808215151515815260200191505060405180910390f35b6114fa600480360360a081101561149057600080fd5b81019080803573ffffffffffffffffffffffffffffffffffffffff1690602001909291908035906020019092919080359060200190929190803573ffffffffffffffffffffffffffffffffffffffff1690602001909291908035906020019092919050505061390d565b005b6115486004803603604081101561151257600080fd5b81019080803573ffffffffffffffffffffffffffffffffffffffff16906020019092919080359060200190929190505050613c7e565b005b6115766004803603602081101561156057600080fd5b8101908080359060200190929190505050613dc6565b005b6115ba6004803603602081101561158e57600080fd5b81019080803573ffffffffffffffffffffffffffffffffffffffff169060200190929190505050613e76565b604051808215151515815260200191505060405180910390f35b611600600480360360208110156115ea57600080fd5b8101908080359060200190929190505050613ecf565b60405180868152602001806020018573ffffffffffffffffffffffffffffffffffffffff1673ffffffffffffffffffffffffffffffffffffffff16815260200184815260200183600381111561165257fe5b60ff168152602001828103825286818151815260200191508051906020019080838360005b83811015611692578082015181840152602081019050611677565b50505050905090810190601f1680156116bf5780820380516001836020036101000a031916815260200191505b50965050505050505060405180910390f35b611713600480360360208110156116e757600080fd5b81019080803573ffffffffffffffffffffffffffffffffffffffff16906020019092919050505061400d565b604051808060200185600281111561172757fe5b60ff168152602001848152602001838152602001828103825286818151815260200191508051906020019080838360005b83811015611773578082015181840152602081019050611758565b50505050905090810190601f1680156117a05780820380516001836020036101000a031916815260200191505b509550505050505060405180910390f35b6117dd600480360360208110156117c757600080fd5b81019080803590602001909291905050506141d7565b6040518082815260200191505060405180910390f35b61181f6004803603602081101561180957600080fd5b8101908080359060200190929190505050614338565b005b6118636004803603602081101561183757600080fd5b81019080803573ffffffffffffffffffffffffffffffffffffffff1690602001909291905050506143e8565b604051808215151515815260200191505060405180910390f35b6118a96004803603602081101561189357600080fd5b8101908080359060200190929190505050614459565b604051808215151515815260200191505060405180910390f35b6118ef600480360360208110156118d957600080fd5b810190808035906020019092919050505061449f565b604051808215151515815260200191505060405180910390f35b60006001600281111561191857fe5b600160008473ffffffffffffffffffffffffffffffffffffffff1673ffffffffffffffffffffffffffffffffffffffff16815260200190815260200160002060010160009054906101000a900460ff16600281111561197357fe5b149050919050565b8061198581613587565b6119f7576040517f08c379a00000000000000000000000000000000000000000000000000000000081526004018080602001828103825260138152602001807f427579657220646f65736e27742065786973740000000000000000000000000081525060200191505060405180910390fd5b6000600460008473ffffffffffffffffffffffffffffffffffffffff1673ffffffffffffffffffffffffffffffffffffffff168152602001908152602001600020600001819055505050565b611a4b6138f6565b611aa0576040517f08c379a0000000000000000000000000000000000000000000000000000000008152600401808060200182810382526025815260200180615e816025913960400191505060405180910390fd5b33600860008273ffffffffffffffffffffffffffffffffffffffff1673ffffffffffffffffffffffffffffffffffffffff16815260200190815260200160002060009054906101000a900460ff16611b43576040517f08c379a0000000000000000000000000000000000000000000000000000000008152600401808060200182810382526030815260200180615d8b6030913960400191505060405180910390fd5b611b4d838361302c565b505050565b611b5b82612114565b611bcd576040517f08c379a00000000000000000000000000000000000000000000000000000000081526004018080602001828103825260198152602001807f54686520666c6967687420646f6573206e6f742065786973740000000000000081525060200191505060405180910390fd5b611bd68261242d565b611c2b576040517f08c379a0000000000000000000000000000000000000000000000000000000008152600401808060200182810382526027815260200180615d406027913960400191505060405180910390fd5b611c358282612a15565b15611c8b576040517f08c379a0000000000000000000000000000000000000000000000000000000008152600401808060200182810382526028815260200180615e266028913960400191505060405180910390fd5b600160056000848152602001908152602001600020600401600083815260200190815260200160002060006101000a81548160ff021916908315150217905550600560008381526020019081526020016000206003018190806001815401808255809150509060018203906000526020600020016000909192909190915055505050565b600760009054906101000a900473ffffffffffffffffffffffffffffffffffffffff1673ffffffffffffffffffffffffffffffffffffffff163373ffffffffffffffffffffffffffffffffffffffff1614611dd2576040517f08c379a000000000000000000000000000000000000000000000000000000000815260040180806020018281038252601c8152602001807f43616c6c6572206973206e6f7420636f6e7472616374206f776e65720000000081525060200191505060405180910390fd5b80600760146101000a81548160ff02191690831515021790555050565b611df76138f6565b611e4c576040517f08c379a0000000000000000000000000000000000000000000000000000000008152600401808060200182810382526025815260200180615e816025913960400191505060405180910390fd5b600760009054906101000a900473ffffffffffffffffffffffffffffffffffffffff1673ffffffffffffffffffffffffffffffffffffffff163373ffffffffffffffffffffffffffffffffffffffff1614611f0f576040517f08c379a000000000000000000000000000000000000000000000000000000000815260040180806020018281038252601c8152602001807f43616c6c6572206973206e6f7420636f6e7472616374206f776e65720000000081525060200191505060405180910390fd5b6001600860008373ffffffffffffffffffffffffffffffffffffffff1673ffffffffffffffffffffffffffffffffffffffff16815260200190815260200160002060006101000a81548160ff02191690831515021790555050565b6000600280549050905090565b33600860008273ffffffffffffffffffffffffffffffffffffffff1673ffffffffffffffffffffffffffffffffffffffff16815260200190815260200160002060009054906101000a900460ff1661201a576040517f08c379a0000000000000000000000000000000000000000000000000000000008152600401808060200182810382526030815260200180615d8b6030913960400191505060405180910390fd5b61202483836144e5565b505050565b6120316138f6565b612086576040517f08c379a0000000000000000000000000000000000000000000000000000000008152600401808060200182810382526025815260200180615e816025913960400191505060405180910390fd5b836120908161242d565b6120e5576040517f08c379a0000000000000000000000000000000000000000000000000000000008152600401808060200182810382526023815260200180615e036023913960400191505060405180910390fd5b6120f2868686868661390d565b60006120ff878787613516565b905061210b8682611b52565b50505050505050565b60006005600083815260200190815260200160002060050160019054906101000a900460ff169050919050565b600061214c82611909565b8061215c575061215b826143e8565b5b9050919050565b60008060008060008060006003600089815260200190815260200160002060000160009054906101000a900473ffffffffffffffffffffffffffffffffffffffff169650600360008981526020019081526020016000206001015495506003600089815260200190815260200160002060020160009054906101000a900473ffffffffffffffffffffffffffffffffffffffff1694506003600089815260200190815260200160002060030154935060036000898152602001908152602001600020600401549250600360008981526020019081526020016000206005015491506003600089815260200190815260200160002060060160009054906101000a900460ff169050919395979092949650565b6000600460008373ffffffffffffffffffffffffffffffffffffffff1673ffffffffffffffffffffffffffffffffffffffff168152602001908152602001600020600001549050919050565b6000816122cd81612114565b61233f576040517f08c379a00000000000000000000000000000000000000000000000000000000081526004018080602001828103825260158152602001807f466c6967687420646f6573206e6f74206578697374000000000000000000000081525060200191505060405180910390fd5b6005600084815260200190815260200160002060030180549050915050919050565b33600860008273ffffffffffffffffffffffffffffffffffffffff1673ffffffffffffffffffffffffffffffffffffffff16815260200190815260200160002060009054906101000a900460ff16612404576040517f08c379a0000000000000000000000000000000000000000000000000000000008152600401808060200182810382526030815260200180615d8b6030913960400191505060405180910390fd5b61240d826147c4565b5050565b678ac7230489e8000081565b6000600460028054905010905090565b600080600381111561243b57fe5b6005600084815260200190815260200160002060050160009054906101000a900460ff16600381111561246a57fe5b149050919050565b6000600860008373ffffffffffffffffffffffffffffffffffffffff1673ffffffffffffffffffffffffffffffffffffffff16815260200190815260200160002060009054906101000a900460ff169050919050565b6060600680548060200260200160405190810160405280929190818152602001828054801561251657602002820191906000526020600020905b815481526020019060010190808311612502575b5050505050905090565b60008080549050905090565b6000600160008373ffffffffffffffffffffffffffffffffffffffff1673ffffffffffffffffffffffffffffffffffffffff168152602001908152602001600020600201805490509050919050565b6000670de0b6b3a76400008211159050919050565b61259981612941565b6125ee576040517f08c379a0000000000000000000000000000000000000000000000000000000008152600401808060200182810382526023815260200180615f2f6023913960400191505060405180910390fd5b60028190806001815401808255809150509060018203906000526020600020016000909192909190916101000a81548173ffffffffffffffffffffffffffffffffffffffff021916908373ffffffffffffffffffffffffffffffffffffffff1602179055505061265d816149f6565b50565b600082826040516020018083805190602001908083835b6020831061269a5780518252602082019150602081019050602083039250612677565b6001836020036101000a0380198251168184511680821785525050505050509050018281526020019250505060405160208183030381529060405280519060200120905092915050565b60008173ffffffffffffffffffffffffffffffffffffffff166003600085815260200190815260200160002060000160009054906101000a900473ffffffffffffffffffffffffffffffffffffffff1673ffffffffffffffffffffffffffffffffffffffff1614905092915050565b61275b6138f6565b6127b0576040517f08c379a0000000000000000000000000000000000000000000000000000000008152600401808060200182810382526025815260200180615e816025913960400191505060405180910390fd5b806127ba816143e8565b61282c576040517f08c379a00000000000000000000000000000000000000000000000000000000081526004018080602001828103825260208152602001807f4169726c696e65206d75737420626520696e2066756e6465642073746174757381525060200191505060405180910390fd5b81612836816133d5565b61288b576040517f08c379a0000000000000000000000000000000000000000000000000000000008152600401808060200182810382526033815260200180615e4e6033913960400191505060405180910390fd5b33600860008273ffffffffffffffffffffffffffffffffffffffff1673ffffffffffffffffffffffffffffffffffffffff16815260200190815260200160002060009054906101000a900460ff1661292e576040517f08c379a0000000000000000000000000000000000000000000000000000000008152600401808060200182810382526030815260200180615d8b6030913960400191505060405180910390fd5b612939868686614c6c565b505050505050565b600080600281111561294f57fe5b600160008473ffffffffffffffffffffffffffffffffffffffff1673ffffffffffffffffffffffffffffffffffffffff16815260200190815260200160002060010160009054906101000a900460ff1660028111156129aa57fe5b149050919050565b6000600160028080549050816129c457fe5b0401600160008473ffffffffffffffffffffffffffffffffffffffff1673ffffffffffffffffffffffffffffffffffffffff1681526020019081526020016000206002018054905010159050919050565b600082612a2181612114565b612a93576040517f08c379a00000000000000000000000000000000000000000000000000000000081526004018080602001828103825260158152602001807f466c6967687420646f6573206e6f74206578697374000000000000000000000081525060200191505060405180910390fd5b60056000858152602001908152602001600020600401600084815260200190815260200160002060009054906101000a900460ff1691505092915050565b60006003600083815260200190815260200160002060060160019054906101000a900460ff169050919050565b600081612b0a81612114565b612b7c576040517f08c379a00000000000000000000000000000000000000000000000000000000081526004018080602001828103825260158152602001807f466c6967687420646f6573206e6f74206578697374000000000000000000000081525060200191505060405180910390fd5b8373ffffffffffffffffffffffffffffffffffffffff166005600085815260200190815260200160002060020160009054906101000a900473ffffffffffffffffffffffffffffffffffffffff1673ffffffffffffffffffffffffffffffffffffffff161491505092915050565b81612bf481612141565b612c49576040517f08c379a000000000000000000000000000000000000000000000000000000000815260040180806020018281038252603d815260200180615ef2603d913960400191505060405180910390fd5b82612c5381613e76565b612cc5576040517f08c379a00000000000000000000000000000000000000000000000000000000081526004018080602001828103825260168152602001807f4164647265737320646f6573206e6f742065786973740000000000000000000081525060200191505060405180910390fd5b600160008573ffffffffffffffffffffffffffffffffffffffff1673ffffffffffffffffffffffffffffffffffffffff168152602001908152602001600020600301548310612d5f576040517f08c379a0000000000000000000000000000000000000000000000000000000008152600401808060200182810382526027815260200180615dbb6027913960400191505060405180910390fd5b82600160008673ffffffffffffffffffffffffffffffffffffffff1673ffffffffffffffffffffffffffffffffffffffff1681526020019081526020016000206003016000828254039250508190555050505050565b6000612dc082612ad1565b612e32576040517f08c379a00000000000000000000000000000000000000000000000000000000081526004018080602001828103825260178152602001807f496e737572616e636520646f65736e277420657869737400000000000000000081525060200191505060405180910390fd5b6003600083815260200190815260200160002060000160009054906101000a900473ffffffffffffffffffffffffffffffffffffffff169050919050565b6000600760009054906101000a900473ffffffffffffffffffffffffffffffffffffffff16905090565b33600860008273ffffffffffffffffffffffffffffffffffffffff1673ffffffffffffffffffffffffffffffffffffffff16815260200190815260200160002060009054906101000a900460ff16612f3d576040517f08c379a0000000000000000000000000000000000000000000000000000000008152600401808060200182810382526030815260200180615d8b6030913960400191505060405180910390fd5b612f4682614f6a565b5050565b6000612f5461241d565b80612f645750612f63826129b2565b5b15612f725760019050612f77565b600090505b919050565b33600860008273ffffffffffffffffffffffffffffffffffffffff1673ffffffffffffffffffffffffffffffffffffffff16815260200190815260200160002060009054906101000a900460ff1661301f576040517f08c379a0000000000000000000000000000000000000000000000000000000008152600401808060200182810382526030815260200180615d8b6030913960400191505060405180910390fd5b61302882615004565b5050565b8061303681613e76565b1561308c576040517f08c379a0000000000000000000000000000000000000000000000000000000008152600401808060200182810382526028815260200180615cf46028913960400191505060405180910390fd5b6130946159f9565b8381600001819052506000816020019060028111156130af57fe5b908160028111156130bc57fe5b815250506000816060018181525050600181608001901515908115158152505080600160008573ffffffffffffffffffffffffffffffffffffffff1673ffffffffffffffffffffffffffffffffffffffff1681526020019081526020016000206000820151816000019080519060200190613138929190615a35565b5060208201518160010160006101000a81548160ff0219169083600281111561315d57fe5b0217905550604082015181600201908051906020019061317e929190615ab5565b506060820151816003015560808201518160040160006101000a81548160ff02191690831515021790555090505060008390806001815401808255809150509060018203906000526020600020016000909192909190916101000a81548173ffffffffffffffffffffffffffffffffffffffff021916908373ffffffffffffffffffffffffffffffffffffffff160217905550507ff3100ff45bd551846ae092da6f82697190f72f24573165d1b06858cda4194d47848460405180806020018373ffffffffffffffffffffffffffffffffffffffff1673ffffffffffffffffffffffffffffffffffffffff168152602001828103825284818151815260200191508051906020019080838360005b838110156132a757808201518184015260208101905061328c565b50505050905090810190601f1680156132d45780820380516001836020036101000a031916815260200191505b50935050505060405180910390a16132eb83612f4a565b156132fe576132f983612590565b6133cf565b7f0dd0455f85bdf4c39bcd8911401aa00834ab66fbbee80ff3189bca70fa94c60d848460405180806020018373ffffffffffffffffffffffffffffffffffffffff1673ffffffffffffffffffffffffffffffffffffffff168152602001828103825284818151815260200191508051906020019080838360005b83811015613393578082015181840152602081019050613378565b50505050905090810190601f1680156133c05780820380516001836020036101000a031916815260200191505b50935050505060405180910390a15b50505050565b6000678ac7230489e80000600160008473ffffffffffffffffffffffffffffffffffffffff1673ffffffffffffffffffffffffffffffffffffffff16815260200190815260200160002060030154119050919050565b60608161343781612114565b6134a9576040517f08c379a00000000000000000000000000000000000000000000000000000000081526004018080602001828103825260158152602001807f466c6967687420646f6573206e6f74206578697374000000000000000000000081525060200191505060405180910390fd5b6005600084815260200190815260200160002060030180548060200260200160405190810160405280929190818152602001828054801561350957602002820191906000526020600020905b8154815260200190600101908083116134f5575b5050505050915050919050565b6000838383604051602001808473ffffffffffffffffffffffffffffffffffffffff1673ffffffffffffffffffffffffffffffffffffffff1660601b815260140183815260200182815260200193505050506040516020818303038152906040528051906020012090509392505050565b6000600460008373ffffffffffffffffffffffffffffffffffffffff1673ffffffffffffffffffffffffffffffffffffffff16815260200190815260200160002060010160009054906101000a900460ff169050919050565b60008060038111156135ee57fe5b6003600084815260200190815260200160002060060160009054906101000a900460ff16600381111561361d57fe5b149050919050565b33600860008273ffffffffffffffffffffffffffffffffffffffff1673ffffffffffffffffffffffffffffffffffffffff16815260200190815260200160002060009054906101000a900460ff166136c8576040517f08c379a0000000000000000000000000000000000000000000000000000000008152600401808060200182810382526030815260200180615d8b6030913960400191505060405180910390fd5b6136d18261509f565b5050565b6000816136e1816143e8565b613753576040517f08c379a00000000000000000000000000000000000000000000000000000000081526004018080602001828103825260208152602001807f4169726c696e65206d75737420626520696e2066756e6465642073746174757381525060200191505060405180910390fd5b600160008473ffffffffffffffffffffffffffffffffffffffff1673ffffffffffffffffffffffffffffffffffffffff16815260200190815260200160002060030154915050919050565b6137a66138f6565b6137fb576040517f08c379a0000000000000000000000000000000000000000000000000000000008152600401808060200182810382526025815260200180615e816025913960400191505060405180910390fd5b806138058161449f565b5033600860008273ffffffffffffffffffffffffffffffffffffffff1673ffffffffffffffffffffffffffffffffffffffff16815260200190815260200160002060009054906101000a900460ff166138a9576040517f08c379a0000000000000000000000000000000000000000000000000000000008152600401808060200182810382526030815260200180615d8b6030913960400191505060405180910390fd5b60606138b48461342b565b905060008090505b81518110156138ef576138e18282815181106138d457fe5b60200260200101516141d7565b5080806001019150506138bc565b5050505050565b6000600760149054906101000a900460ff16905090565b806139178161257b565b61396c576040517f08c379a0000000000000000000000000000000000000000000000000000000008152600401808060200182810382526027815260200180615ecb6027913960400191505060405180910390fd5b6000613979878787613516565b9050613983615b3f565b87816000019073ffffffffffffffffffffffffffffffffffffffff16908173ffffffffffffffffffffffffffffffffffffffff16815250508681602001818152505084816040019073ffffffffffffffffffffffffffffffffffffffff16908173ffffffffffffffffffffffffffffffffffffffff1681525050838160600181815250506000816080018181525050858160a001818152505060008160c001906003811115613a2e57fe5b90816003811115613a3b57fe5b8152505060018160e0019015159081151581525050806003600084815260200190815260200160002060008201518160000160006101000a81548173ffffffffffffffffffffffffffffffffffffffff021916908373ffffffffffffffffffffffffffffffffffffffff1602179055506020820151816001015560408201518160020160006101000a81548173ffffffffffffffffffffffffffffffffffffffff021916908373ffffffffffffffffffffffffffffffffffffffff160217905550606082015181600301556080820151816004015560a0820151816005015560c08201518160060160006101000a81548160ff02191690836003811115613b3e57fe5b021790555060e08201518160060160016101000a81548160ff021916908315150217905550905050613b6f88613587565b613bf95760405180604001604052806000815260200160011515815250600460008a73ffffffffffffffffffffffffffffffffffffffff1673ffffffffffffffffffffffffffffffffffffffff1681526020019081526020016000206000820151816000015560208201518160010160006101000a81548160ff0219169083151502179055509050505b7f9ab1ae65e296b9d32fa2d25d59c5ae030359d318f228e0513a4089f70fcdc61387838a87604051808581526020018481526020018373ffffffffffffffffffffffffffffffffffffffff1673ffffffffffffffffffffffffffffffffffffffff16815260200182815260200194505050505060405180910390a15050505050505050565b81613c8881612141565b613cdd576040517f08c379a000000000000000000000000000000000000000000000000000000000815260040180806020018281038252603d815260200180615ef2603d913960400191505060405180910390fd5b82613ce781613e76565b613d59576040517f08c379a00000000000000000000000000000000000000000000000000000000081526004018080602001828103825260168152602001807f4164647265737320646f6573206e6f742065786973740000000000000000000081525060200191505060405180910390fd5b613d62846143e8565b613d7057613d6f846152d1565b5b82600160008673ffffffffffffffffffffffffffffffffffffffff1673ffffffffffffffffffffffffffffffffffffffff1681526020019081526020016000206003016000828254019250508190555050505050565b33600860008273ffffffffffffffffffffffffffffffffffffffff1673ffffffffffffffffffffffffffffffffffffffff16815260200190815260200160002060009054906101000a900460ff16613e69576040517f08c379a0000000000000000000000000000000000000000000000000000000008152600401808060200182810382526030815260200180615d8b6030913960400191505060405180910390fd5b613e7282615598565b5050565b6000600160008373ffffffffffffffffffffffffffffffffffffffff1673ffffffffffffffffffffffffffffffffffffffff16815260200190815260200160002060040160009054906101000a900460ff169050919050565b600060606000806000600560008781526020019081526020016000206000018054600181600116156101000203166002900480601f016020809104026020016040519081016040528092919081815260200182805460018160011615610100020316600290048015613f825780601f10613f5757610100808354040283529160200191613f82565b820191906000526020600020905b815481529060010190602001808311613f6557829003601f168201915b505050505093506005600087815260200190815260200160002060020160009054906101000a900473ffffffffffffffffffffffffffffffffffffffff169250600560008781526020019081526020016000206001015491506005600087815260200190815260200160002060050160009054906101000a900460ff16905085945091939590929450565b60606000806000600160008673ffffffffffffffffffffffffffffffffffffffff1673ffffffffffffffffffffffffffffffffffffffff1681526020019081526020016000206000018054600181600116156101000203166002900480601f0160208091040260200160405190810160405280929190818152602001828054600181600116156101000203166002900480156140ea5780601f106140bf576101008083540402835291602001916140ea565b820191906000526020600020905b8154815290600101906020018083116140cd57829003601f168201915b50505050509350600160008673ffffffffffffffffffffffffffffffffffffffff1673ffffffffffffffffffffffffffffffffffffffff16815260200190815260200160002060010160009054906101000a900460ff169250600160008673ffffffffffffffffffffffffffffffffffffffff1673ffffffffffffffffffffffffffffffffffffffff168152602001908152602001600020600201805490509150600160008673ffffffffffffffffffffffffffffffffffffffff1673ffffffffffffffffffffffffffffffffffffffff1681526020019081526020016000206003015490509193509193565b6000816141e3816135e0565b614238576040517f08c379a0000000000000000000000000000000000000000000000000000000008152600401808060200182810382526025815260200180615ea66025913960400191505060405180910390fd5b60006003600085815260200190815260200160002060030154905060006003600086815260200190815260200160002060000160009054906101000a900473ffffffffffffffffffffffffffffffffffffffff16905060006142a460028461563390919063ffffffff16565b90506142b981846156c290919063ffffffff16565b945084600360008881526020019081526020016000206004018190555084600460008473ffffffffffffffffffffffffffffffffffffffff1673ffffffffffffffffffffffffffffffffffffffff1681526020019081526020016000206000016000828254019250508190555061432f86613dc6565b50505050919050565b33600860008273ffffffffffffffffffffffffffffffffffffffff1673ffffffffffffffffffffffffffffffffffffffff16815260200190815260200160002060009054906101000a900460ff166143db576040517f08c379a0000000000000000000000000000000000000000000000000000000008152600401808060200182810382526030815260200180615d8b6030913960400191505060405180910390fd5b6143e48261574a565b5050565b60006002808111156143f657fe5b600160008473ffffffffffffffffffffffffffffffffffffffff1673ffffffffffffffffffffffffffffffffffffffff16815260200190815260200160002060010160009054906101000a900460ff16600281111561445157fe5b149050919050565b60006002600381111561446857fe5b6003600084815260200190815260200160002060060160009054906101000a900460ff16600381111561449757fe5b149050919050565b6000600260038111156144ae57fe5b6005600084815260200190815260200160002060050160009054906101000a900460ff1660038111156144dd57fe5b149050919050565b806144ef81611909565b614544576040517f08c379a0000000000000000000000000000000000000000000000000000000008152600401808060200182810382526024815260200180615d676024913960400191505060405180910390fd5b61454d83613e76565b6145bf576040517f08c379a00000000000000000000000000000000000000000000000000000000081526004018080602001828103825260168152602001807f4169726c696e6520646f6573206e6f742065786973740000000000000000000081525060200191505060405180910390fd5b6145c883612941565b61461d576040517f08c379a0000000000000000000000000000000000000000000000000000000008152600401808060200182810382526021815260200180615f526021913960400191505060405180910390fd5b600160008473ffffffffffffffffffffffffffffffffffffffff1673ffffffffffffffffffffffffffffffffffffffff1681526020019081526020016000206002018290806001815401808255809150509060018203906000526020600020016000909192909190916101000a81548173ffffffffffffffffffffffffffffffffffffffff021916908373ffffffffffffffffffffffffffffffffffffffff160217905550506146cc83612f4a565b156146db576146da83612590565b5b7ff7c50f9eb2df776ff843af719b51fe3587613ead8477a913a6418c893f85ebd98383600160008773ffffffffffffffffffffffffffffffffffffffff1673ffffffffffffffffffffffffffffffffffffffff16815260200190815260200160002060020180549050604051808473ffffffffffffffffffffffffffffffffffffffff1673ffffffffffffffffffffffffffffffffffffffff1681526020018373ffffffffffffffffffffffffffffffffffffffff1673ffffffffffffffffffffffffffffffffffffffff168152602001828152602001935050505060405180910390a1505050565b806147ce8161242d565b614823576040517f08c379a0000000000000000000000000000000000000000000000000000000008152600401808060200182810382526023815260200180615e036023913960400191505060405180910390fd5b60026005600084815260200190815260200160002060050160006101000a81548160ff0219169083600381111561485657fe5b02179055507f46692d6d97cca5f30535d5452b425e85c40c7f0ef908efef4ab92b4d44e4f4776005600084815260200190815260200160002060000160056000858152602001908152602001600020600101546005600086815260200190815260200160002060020160009054906101000a900473ffffffffffffffffffffffffffffffffffffffff16856005600088815260200190815260200160002060050160009054906101000a900460ff1660405180806020018681526020018573ffffffffffffffffffffffffffffffffffffffff1673ffffffffffffffffffffffffffffffffffffffff16815260200184815260200183600381111561495757fe5b60ff1681526020018281038252878181546001816001161561010002031660029004815260200191508054600181600116156101000203166002900480156149e05780601f106149b5576101008083540402835291602001916149e0565b820191906000526020600020905b8154815290600101906020018083116149c357829003601f168201915b5050965050505050505060405180910390a15050565b80614a0081612941565b614a55576040517f08c379a0000000000000000000000000000000000000000000000000000000008152600401808060200182810382526021815260200180615f526021913960400191505060405180910390fd5b60018060008473ffffffffffffffffffffffffffffffffffffffff1673ffffffffffffffffffffffffffffffffffffffff16815260200190815260200160002060010160006101000a81548160ff02191690836002811115614ab357fe5b02179055506060600160008473ffffffffffffffffffffffffffffffffffffffff1673ffffffffffffffffffffffffffffffffffffffff1681526020019081526020016000206000018054600181600116156101000203166002900480601f016020809104026020016040519081016040528092919081815260200182805460018160011615610100020316600290048015614b905780601f10614b6557610100808354040283529160200191614b90565b820191906000526020600020905b815481529060010190602001808311614b7357829003601f168201915b505050505090507f4389233d1d7e817e3a41447176300b89c596c24ed4d58896d501ddb378abe2c4818460405180806020018373ffffffffffffffffffffffffffffffffffffffff1673ffffffffffffffffffffffffffffffffffffffff168152602001828103825284818151815260200191508051906020019080838360005b83811015614c2c578082015181840152602081019050614c11565b50505050905090810190601f168015614c595780820380516001836020036101000a031916815260200191505b50935050505060405180910390a1505050565b6000614c788484612660565b9050614c8381612114565b15614cd9576040517f08c379a0000000000000000000000000000000000000000000000000000000008152600401808060200182810382526021815260200180615de26021913960400191505060405180910390fd5b6060614ce3615bc0565b85816000018190525083816040019073ffffffffffffffffffffffffffffffffffffffff16908173ffffffffffffffffffffffffffffffffffffffff168152505084816020018181525050600081608001906003811115614d4057fe5b90816003811115614d4d57fe5b8152505060018160a001901515908115158152505081816060018190525080600560008581526020019081526020016000206000820151816000019080519060200190614d9b929190615a35565b506020820151816001015560408201518160020160006101000a81548173ffffffffffffffffffffffffffffffffffffffff021916908373ffffffffffffffffffffffffffffffffffffffff1602179055506060820151816003019080519060200190614e09929190615c19565b5060808201518160050160006101000a81548160ff02191690836003811115614e2e57fe5b021790555060a08201518160050160016101000a81548160ff02191690831515021790555090505060068390806001815401808255809150509060018203906000526020600020016000909192909190915055507f59261113d397865c7b2b317452691277210d64b6f75272d723f504a8c13250fe8686868660405180806020018581526020018473ffffffffffffffffffffffffffffffffffffffff1673ffffffffffffffffffffffffffffffffffffffff168152602001838152602001828103825286818151815260200191508051906020019080838360005b83811015614f25578082015181840152602081019050614f0a565b50505050905090810190601f168015614f525780820380516001836020036101000a031916815260200191505b509550505050505060405180910390a1505050505050565b80614f7481614459565b614fc9576040517f08c379a0000000000000000000000000000000000000000000000000000000008152600401808060200182810382526024815260200180615d1c6024913960400191505060405180910390fd5b600380600084815260200190815260200160002060060160006101000a81548160ff02191690836003811115614ffb57fe5b02179055505050565b8061500e816135e0565b615063576040517f08c379a0000000000000000000000000000000000000000000000000000000008152600401808060200182810382526025815260200180615ea66025913960400191505060405180910390fd5b60016003600084815260200190815260200160002060060160006101000a81548160ff0219169083600381111561509657fe5b02179055505050565b806150a98161242d565b6150fe576040517f08c379a0000000000000000000000000000000000000000000000000000000008152600401808060200182810382526023815260200180615e036023913960400191505060405180910390fd5b60036005600084815260200190815260200160002060050160006101000a81548160ff0219169083600381111561513157fe5b02179055507f46692d6d97cca5f30535d5452b425e85c40c7f0ef908efef4ab92b4d44e4f4776005600084815260200190815260200160002060000160056000858152602001908152602001600020600101546005600086815260200190815260200160002060020160009054906101000a900473ffffffffffffffffffffffffffffffffffffffff16856005600088815260200190815260200160002060050160009054906101000a900460ff1660405180806020018681526020018573ffffffffffffffffffffffffffffffffffffffff1673ffffffffffffffffffffffffffffffffffffffff16815260200184815260200183600381111561523257fe5b60ff1681526020018281038252878181546001816001161561010002031660029004815260200191508054600181600116156101000203166002900480156152bb5780601f10615290576101008083540402835291602001916152bb565b820191906000526020600020905b81548152906001019060200180831161529e57829003601f168201915b5050965050505050505060405180910390a15050565b806152db81611909565b615330576040517f08c379a0000000000000000000000000000000000000000000000000000000008152600401808060200182810382526024815260200180615d676024913960400191505060405180910390fd5b6002600160008473ffffffffffffffffffffffffffffffffffffffff1673ffffffffffffffffffffffffffffffffffffffff16815260200190815260200160002060010160006101000a81548160ff0219169083600281111561538f57fe5b02179055506060600160008473ffffffffffffffffffffffffffffffffffffffff1673ffffffffffffffffffffffffffffffffffffffff1681526020019081526020016000206000018054600181600116156101000203166002900480601f01602080910402602001604051908101604052809291908181526020018280546001816001161561010002031660029004801561546c5780601f106154415761010080835404028352916020019161546c565b820191906000526020600020905b81548152906001019060200180831161544f57829003601f168201915b505050505090506000600160008573ffffffffffffffffffffffffffffffffffffffff1673ffffffffffffffffffffffffffffffffffffffff1681526020019081526020016000206003015490507f53b7c1b088635937d93a99c488cc77c6d286057c245c779959f41c8b64fc74a282858360405180806020018473ffffffffffffffffffffffffffffffffffffffff1673ffffffffffffffffffffffffffffffffffffffff168152602001838152602001828103825285818151815260200191508051906020019080838360005b8381101561555657808201518184015260208101905061553b565b50505050905090810190601f1680156155835780820380516001836020036101000a031916815260200191505b5094505050505060405180910390a150505050565b806155a2816135e0565b6155f7576040517f08c379a0000000000000000000000000000000000000000000000000000000008152600401808060200182810382526025815260200180615ea66025913960400191505060405180910390fd5b60026003600084815260200190815260200160002060060160006101000a81548160ff0219169083600381111561562a57fe5b02179055505050565b60008082116156aa576040517f08c379a000000000000000000000000000000000000000000000000000000000815260040180806020018281038252601a8152602001807f536166654d6174683a206469766973696f6e206279207a65726f00000000000081525060200191505060405180910390fd5b60008284816156b557fe5b0490508091505092915050565b600080828401905083811015615740576040517f08c379a000000000000000000000000000000000000000000000000000000000815260040180806020018281038252601b8152602001807f536166654d6174683a206164646974696f6e206f766572666c6f77000000000081525060200191505060405180910390fd5b8091505092915050565b806157548161242d565b6157a9576040517f08c379a0000000000000000000000000000000000000000000000000000000008152600401808060200182810382526023815260200180615e036023913960400191505060405180910390fd5b816157b381612114565b615825576040517f08c379a00000000000000000000000000000000000000000000000000000000081526004018080602001828103825260158152602001807f466c6967687420646f6573206e6f74206578697374000000000000000000000081525060200191505060405180910390fd5b60016005600085815260200190815260200160002060050160006101000a81548160ff0219169083600381111561585857fe5b02179055507f46692d6d97cca5f30535d5452b425e85c40c7f0ef908efef4ab92b4d44e4f4776005600085815260200190815260200160002060000160056000868152602001908152602001600020600101546005600087815260200190815260200160002060020160009054906101000a900473ffffffffffffffffffffffffffffffffffffffff16866005600089815260200190815260200160002060050160009054906101000a900460ff1660405180806020018681526020018573ffffffffffffffffffffffffffffffffffffffff1673ffffffffffffffffffffffffffffffffffffffff16815260200184815260200183600381111561595957fe5b60ff1681526020018281038252878181546001816001161561010002031660029004815260200191508054600181600116156101000203166002900480156159e25780601f106159b7576101008083540402835291602001916159e2565b820191906000526020600020905b8154815290600101906020018083116159c557829003601f168201915b5050965050505050505060405180910390a1505050565b6040518060a001604052806060815260200160006002811115615a1857fe5b815260200160608152602001600081526020016000151581525090565b828054600181600116156101000203166002900490600052602060002090601f016020900481019282601f10615a7657805160ff1916838001178555615aa4565b82800160010185558215615aa4579182015b82811115615aa3578251825591602001919060010190615a88565b5b509050615ab19190615c66565b5090565b828054828255906000526020600020908101928215615b2e579160200282015b82811115615b2d5782518260006101000a81548173ffffffffffffffffffffffffffffffffffffffff021916908373ffffffffffffffffffffffffffffffffffffffff16021790555091602001919060010190615ad5565b5b509050615b3b9190615c8b565b5090565b604051806101000160405280600073ffffffffffffffffffffffffffffffffffffffff16815260200160008019168152602001600073ffffffffffffffffffffffffffffffffffffffff16815260200160008152602001600081526020016000815260200160006003811115615bb157fe5b81526020016000151581525090565b6040518060c001604052806060815260200160008152602001600073ffffffffffffffffffffffffffffffffffffffff1681526020016060815260200160006003811115615c0a57fe5b81526020016000151581525090565b828054828255906000526020600020908101928215615c55579160200282015b82811115615c54578251825591602001919060010190615c39565b5b509050615c629190615cce565b5090565b615c8891905b80821115615c84576000816000905550600101615c6c565b5090565b90565b615ccb91905b80821115615cc757600081816101000a81549073ffffffffffffffffffffffffffffffffffffffff021916905550600101615c91565b5090565b90565b615cf091905b80821115615cec576000816000905550600101615cd4565b5090565b9056fe41646472657373206861732072656769737465726564206173204169726c696e65206265666f7265496e737572616e6365206d75737420626520696e2043726564697465642073746174757354686520666c69676874206d75737420626520696e2072656769737465726564207374617475734169726c696e65206d75737420626520696e2072656769737465726564207374617475734f6e6c7920617574686f72697a65642063616c6c65727320636f756c642063616c6c20746869732066756e6374696f6e4169726c696e6527732066756e64206973206e6f7420656e6f75676820746f20706179206e6f77466c6967687420686173206265656e2072656769737465726564206265666f7265466c69676874206d75737420626520696e20526567697374657265642073746174757354686520666c696768742068617320616c726561647920676f742074686520696e737572616e63654169726c696e6527732066756e64206973206c657373207468616e204d494e49554d2066756e6420726571756972656d656e74436f6e74726163742069732063757272656e746c79206e6f74206f7065726174696f6e616c496e737572616e6365206d75737420626520696e2041637469766174656420737461747573496e737572616e636520466565206d757374206265206c657373207468616e20312065746865724169726c696e65206d7573742065697468657220626520696e2072656769737465726564206f722066756e6465642073746174757320746f2066756e6443616e646964617465206d75737420626520696e20656e7465726564207374617475734169726c696e65206d75737420626520696e20656e746572656420737461747573a165627a7a723058206d204b417efbf975d05815c17279632e74e235bd219032bda5806cdff81cb92a0029",
  "source": "pragma solidity ^0.5.8;\r\n\r\nimport \"../node_modules/openzeppelin-solidity/contracts/math/SafeMath.sol\";\r\n\r\nimport \"./AirlineData.sol\";\r\nimport \"./InsuranceData.sol\";\r\nimport \"./FlightData.sol\";\r\nimport \"./Authorizable.sol\";\r\n\r\ncontract FlightSuretyData is AirlineData, InsuranceData, FlightData, Authorizable{\r\n    using SafeMath for uint256;\r\n\r\n    function registerAirline(string memory _name, address _airline) public requireIsOperational requireAuthorizedCaller(msg.sender){\r\n        addAirline(_name, _airline);\r\n    }\r\n\r\n    function vote(address _candidate, address _voter) public requireAuthorizedCaller(msg.sender){\r\n        super.vote(_candidate, _voter);\r\n    }\r\n\r\n    function registerFlight(string memory _code, uint256 _timestamp, address _airline) public \r\n    requireIsOperational requireAirlineFunded(_airline) requireAirlinesHasEnoughFund(_airline) requireAuthorizedCaller(msg.sender){\r\n        addFlight(_code, _timestamp, _airline);\r\n    }\r\n\r\n    function registerInsurance(address _buyer, bytes32 _flightKey, uint256 _contractTimestamp, address _airline, uint256 _fee) public\r\n    requireIsOperational requireFlightRegistered(_flightKey){\r\n        addInsurance(_buyer, _flightKey, _contractTimestamp, _airline, _fee);\r\n        bytes32 _insuranceKey = generateInsuranceKey(_buyer, _flightKey, _contractTimestamp);\r\n        addInsuranceKey(_flightKey, _insuranceKey);\r\n    }\r\n\r\n    function setFlightOnTime(bytes32 flightKey) public requireAuthorizedCaller(msg.sender){\r\n        super.setFlightOnTime(flightKey);\r\n    }\r\n\r\n    function setFlightLateAirline(bytes32 flightKey) public requireAuthorizedCaller(msg.sender){\r\n        super.setFlightLateAirline(flightKey);\r\n    }\r\n\r\n     function setFlightLateNotAirline(bytes32 flightKey) public requireAuthorizedCaller(msg.sender){\r\n        super.setFlightLateNotAirline(flightKey);\r\n    }\r\n\r\n    function setInsuranceExpired(bytes32 insuranceKey) public requireAuthorizedCaller(msg.sender){\r\n        super.setInsuranceExpired(insuranceKey);\r\n    }\r\n\r\n    function setInsuranceCredited(bytes32 insuranceKey) public requireAuthorizedCaller(msg.sender){\r\n        super.setInsuranceCredited(insuranceKey);\r\n    }\r\n\r\n    function setInsuranceWithdrawn(bytes32 insuranceKey) public requireAuthorizedCaller(msg.sender){\r\n        super.setInsuranceWithdrawn(insuranceKey);\r\n    }\r\n\r\n    function creditInsurees(bytes32 flightKey) public requireIsOperational requireFlightLateAirline(flightKey) requireAuthorizedCaller(msg.sender){\r\n        bytes32[] memory insuranceKeysList = getInsuranceKeysList(flightKey);\r\n        for(uint256 i=0; i<insuranceKeysList.length; i++){\r\n            creditInsurance(insuranceKeysList[i]);\r\n        }\r\n    }\r\n}",
  "sourcePath": "C:/Users/andrewchan88/Documents/Coding/udacity/Blockchain/PartB/homework/project7_es_rm/contracts/FlightSuretyData.sol",
  "compiler": {
    "name": "solc",
    "version": "0.5.8+commit.23d335f2.Emscripten.clang"
  },
  "schemaVersion": "3.0.13",
  "updatedAt": "2019-10-08T14:42:01.827Z",
  "devdoc": {
    "methods": {
      "isOperational()": {
        "details": "Modifier that requires the \"operational\" boolean variable to be \"true\"\r     This is used on all state changing functions to pause the contract in \r     the event there is an issue that needs to be fixed\r"
      }
    }
  },
  "userdoc": {
    "methods": {
      "addAirline(string,address)": {
        "notice": "functions for handling airline register and vote\r"
      },
      "addInsurance(address,bytes32,uint256,address,uint256)": {
        "notice": "function for adding and crediting insurance\r"
      },
      "isAirlineExist(address)": {
        "notice": "Functions for checking condition of Airline & modifiers\r"
      },
      "isExist(bytes32)": {
        "notice": "Functions for conditions checking and modifiers\r"
      },
      "isFlightExist(bytes32)": {
        "notice": "functions for checking flight condition and modifiers\r"
      },
      "queryBuyerCredit(address)": {
        "notice": "functions for querying insurance info\r"
      },
      "queryFlightInfo(bytes32)": {
        "notice": "functions for querying flights status\r"
      },
      "queryFund(address)": {
        "notice": "functions for query airline data\r"
      }
    }
  }
}