{
  "contractName": "FlightSuretyApp",
  "abi": [
    {
      "constant": false,
      "inputs": [
        {
          "name": "mode",
          "type": "bool"
        }
      ],
      "name": "setOperatingStatus",
      "outputs": [],
      "payable": false,
      "stateMutability": "nonpayable",
      "type": "function"
    },
    {
      "constant": false,
      "inputs": [],
      "name": "registerOracle",
      "outputs": [],
      "payable": true,
      "stateMutability": "payable",
      "type": "function"
    },
    {
      "constant": true,
      "inputs": [
        {
          "name": "oracleAddress",
          "type": "address"
        }
      ],
      "name": "queryOracle",
      "outputs": [
        {
          "name": "isRegistered",
          "type": "bool"
        },
        {
          "name": "indexes",
          "type": "uint8[3]"
        }
      ],
      "payable": false,
      "stateMutability": "view",
      "type": "function"
    },
    {
      "constant": true,
      "inputs": [],
      "name": "getMyIndexes",
      "outputs": [
        {
          "name": "",
          "type": "uint8[3]"
        }
      ],
      "payable": false,
      "stateMutability": "view",
      "type": "function"
    },
    {
      "constant": true,
      "inputs": [],
      "name": "REGISTRATION_FEE",
      "outputs": [
        {
          "name": "",
          "type": "uint256"
        }
      ],
      "payable": false,
      "stateMutability": "view",
      "type": "function"
    },
    {
      "constant": true,
      "inputs": [],
      "name": "getAllOracles",
      "outputs": [
        {
          "name": "",
          "type": "address[]"
        }
      ],
      "payable": false,
      "stateMutability": "view",
      "type": "function"
    },
    {
      "constant": true,
      "inputs": [],
      "name": "getOwner",
      "outputs": [
        {
          "name": "",
          "type": "address"
        }
      ],
      "payable": false,
      "stateMutability": "view",
      "type": "function"
    },
    {
      "constant": true,
      "inputs": [],
      "name": "getAllResponseKeys",
      "outputs": [
        {
          "name": "",
          "type": "bytes32[]"
        }
      ],
      "payable": false,
      "stateMutability": "view",
      "type": "function"
    },
    {
      "constant": true,
      "inputs": [
        {
          "name": "responseKey",
          "type": "bytes32"
        }
      ],
      "name": "isResponseExist",
      "outputs": [
        {
          "name": "",
          "type": "bool"
        }
      ],
      "payable": false,
      "stateMutability": "view",
      "type": "function"
    },
    {
      "constant": true,
      "inputs": [
        {
          "name": "responseKey",
          "type": "bytes32"
        }
      ],
      "name": "isResponseOpen",
      "outputs": [
        {
          "name": "",
          "type": "bool"
        }
      ],
      "payable": false,
      "stateMutability": "view",
      "type": "function"
    },
    {
      "constant": true,
      "inputs": [],
      "name": "isOperational",
      "outputs": [
        {
          "name": "",
          "type": "bool"
        }
      ],
      "payable": false,
      "stateMutability": "view",
      "type": "function"
    },
    {
      "constant": true,
      "inputs": [
        {
          "name": "_fetchKey",
          "type": "bytes32"
        }
      ],
      "name": "queryResponseInfo",
      "outputs": [
        {
          "name": "requester",
          "type": "address"
        },
        {
          "name": "isOpen",
          "type": "bool"
        },
        {
          "name": "responsedOracles",
          "type": "address[]"
        },
        {
          "name": "statusCode",
          "type": "uint8"
        }
      ],
      "payable": false,
      "stateMutability": "view",
      "type": "function"
    },
    {
      "inputs": [
        {
          "name": "dataContractAddress",
          "type": "address"
        }
      ],
      "payable": false,
      "stateMutability": "nonpayable",
      "type": "constructor"
    },
    {
      "anonymous": false,
      "inputs": [
        {
          "indexed": false,
          "name": "airline",
          "type": "address"
        },
        {
          "indexed": false,
          "name": "flight",
          "type": "string"
        },
        {
          "indexed": false,
          "name": "timestamp",
          "type": "uint256"
        },
        {
          "indexed": false,
          "name": "status",
          "type": "uint8"
        }
      ],
      "name": "FlightStatusInfo",
      "type": "event"
    },
    {
      "anonymous": false,
      "inputs": [
        {
          "indexed": false,
          "name": "passenager",
          "type": "address"
        },
        {
          "indexed": false,
          "name": "credits",
          "type": "uint256"
        }
      ],
      "name": "WithdrawCredits",
      "type": "event"
    },
    {
      "anonymous": false,
      "inputs": [
        {
          "indexed": false,
          "name": "oracle",
          "type": "address"
        },
        {
          "indexed": false,
          "name": "indexes",
          "type": "uint8[3]"
        }
      ],
      "name": "OracleRegister",
      "type": "event"
    },
    {
      "anonymous": false,
      "inputs": [
        {
          "indexed": false,
          "name": "airline",
          "type": "address"
        },
        {
          "indexed": false,
          "name": "flight",
          "type": "string"
        },
        {
          "indexed": false,
          "name": "timestamp",
          "type": "uint256"
        },
        {
          "indexed": false,
          "name": "status",
          "type": "uint8"
        }
      ],
      "name": "OracleReport",
      "type": "event"
    },
    {
      "anonymous": false,
      "inputs": [
        {
          "indexed": false,
          "name": "index",
          "type": "uint8"
        },
        {
          "indexed": false,
          "name": "airline",
          "type": "address"
        },
        {
          "indexed": false,
          "name": "flight",
          "type": "string"
        },
        {
          "indexed": false,
          "name": "flightTimestamp",
          "type": "uint256"
        },
        {
          "indexed": false,
          "name": "fetchTimestamp",
          "type": "uint256"
        }
      ],
      "name": "OracleRequest",
      "type": "event"
    },
    {
      "constant": false,
      "inputs": [
        {
          "name": "_name",
          "type": "string"
        }
      ],
      "name": "registerAirline",
      "outputs": [],
      "payable": false,
      "stateMutability": "nonpayable",
      "type": "function"
    },
    {
      "constant": false,
      "inputs": [
        {
          "name": "_candidate",
          "type": "address"
        }
      ],
      "name": "airlineVote",
      "outputs": [],
      "payable": false,
      "stateMutability": "nonpayable",
      "type": "function"
    },
    {
      "constant": false,
      "inputs": [],
      "name": "airlineFund",
      "outputs": [],
      "payable": true,
      "stateMutability": "payable",
      "type": "function"
    },
    {
      "constant": false,
      "inputs": [
        {
          "name": "_code",
          "type": "string"
        },
        {
          "name": "_timestamp",
          "type": "uint256"
        }
      ],
      "name": "registerFlight",
      "outputs": [],
      "payable": false,
      "stateMutability": "nonpayable",
      "type": "function"
    },
    {
      "constant": false,
      "inputs": [
        {
          "name": "_code",
          "type": "string"
        },
        {
          "name": "_timestamp",
          "type": "uint256"
        }
      ],
      "name": "generateFlightKey",
      "outputs": [
        {
          "name": "",
          "type": "bytes32"
        }
      ],
      "payable": false,
      "stateMutability": "nonpayable",
      "type": "function"
    },
    {
      "constant": false,
      "inputs": [
        {
          "name": "_flightKey",
          "type": "bytes32"
        },
        {
          "name": "_contractTimestamp",
          "type": "uint256"
        },
        {
          "name": "_airline",
          "type": "address"
        }
      ],
      "name": "passenagerBuyInsurance",
      "outputs": [],
      "payable": true,
      "stateMutability": "payable",
      "type": "function"
    },
    {
      "constant": false,
      "inputs": [
        {
          "name": "_buyer",
          "type": "address"
        },
        {
          "name": "_flightKey",
          "type": "bytes32"
        },
        {
          "name": "_contractTimestamp",
          "type": "uint256"
        }
      ],
      "name": "generateInsuranceKey",
      "outputs": [
        {
          "name": "",
          "type": "bytes32"
        }
      ],
      "payable": false,
      "stateMutability": "nonpayable",
      "type": "function"
    },
    {
      "constant": false,
      "inputs": [
        {
          "name": "_insuranceKey",
          "type": "bytes32"
        }
      ],
      "name": "creditInsurance",
      "outputs": [],
      "payable": false,
      "stateMutability": "nonpayable",
      "type": "function"
    },
    {
      "constant": false,
      "inputs": [
        {
          "name": "_flightKey",
          "type": "bytes32"
        }
      ],
      "name": "creditAllInsurances",
      "outputs": [],
      "payable": false,
      "stateMutability": "nonpayable",
      "type": "function"
    },
    {
      "constant": false,
      "inputs": [],
      "name": "passenagerWithdrawCredits",
      "outputs": [],
      "payable": true,
      "stateMutability": "payable",
      "type": "function"
    },
    {
      "constant": false,
      "inputs": [
        {
          "name": "flightKey",
          "type": "bytes32"
        }
      ],
      "name": "proceedFlightNoCreditCase",
      "outputs": [],
      "payable": false,
      "stateMutability": "nonpayable",
      "type": "function"
    },
    {
      "constant": true,
      "inputs": [
        {
          "name": "randomIndex",
          "type": "uint8"
        },
        {
          "name": "airline",
          "type": "address"
        },
        {
          "name": "flight",
          "type": "string"
        },
        {
          "name": "flightTimestamp",
          "type": "uint256"
        },
        {
          "name": "fetchTimestamp",
          "type": "uint256"
        }
      ],
      "name": "generateResponseKey",
      "outputs": [
        {
          "name": "",
          "type": "bytes32"
        }
      ],
      "payable": false,
      "stateMutability": "pure",
      "type": "function"
    },
    {
      "constant": false,
      "inputs": [
        {
          "name": "airline",
          "type": "address"
        },
        {
          "name": "flightCode",
          "type": "string"
        },
        {
          "name": "flightTimestamp",
          "type": "uint256"
        },
        {
          "name": "fetchTimestamp",
          "type": "uint256"
        }
      ],
      "name": "fetchFlightStatus",
      "outputs": [],
      "payable": false,
      "stateMutability": "nonpayable",
      "type": "function"
    },
    {
      "constant": true,
      "inputs": [
        {
          "name": "index",
          "type": "uint8"
        },
        {
          "name": "requester",
          "type": "address"
        }
      ],
      "name": "checkAllIndexes",
      "outputs": [
        {
          "name": "",
          "type": "bool"
        }
      ],
      "payable": false,
      "stateMutability": "view",
      "type": "function"
    },
    {
      "constant": false,
      "inputs": [
        {
          "name": "fetchIndex",
          "type": "uint8"
        },
        {
          "name": "airline",
          "type": "address"
        },
        {
          "name": "flight",
          "type": "string"
        },
        {
          "name": "flightTimestamp",
          "type": "uint256"
        },
        {
          "name": "fetchTimestamp",
          "type": "uint256"
        },
        {
          "name": "statusCode",
          "type": "uint8"
        }
      ],
      "name": "submitOracleResponse",
      "outputs": [],
      "payable": false,
      "stateMutability": "nonpayable",
      "type": "function"
    },
    {
      "constant": false,
      "inputs": [
        {
          "name": "flight",
          "type": "string"
        },
        {
          "name": "timestamp",
          "type": "uint256"
        },
        {
          "name": "statusCode",
          "type": "uint8"
        }
      ],
      "name": "processFlightStatus",
      "outputs": [],
      "payable": false,
      "stateMutability": "nonpayable",
      "type": "function"
    },
    {
      "constant": true,
      "inputs": [],
      "name": "queryContractBalance",
      "outputs": [
        {
          "name": "",
          "type": "uint256"
        }
      ],
      "payable": false,
      "stateMutability": "view",
      "type": "function"
    },
    {
      "constant": false,
      "inputs": [
        {
          "name": "flightKey",
          "type": "bytes32"
        }
      ],
      "name": "setFlightOnTime",
      "outputs": [],
      "payable": false,
      "stateMutability": "nonpayable",
      "type": "function"
    },
    {
      "constant": false,
      "inputs": [
        {
          "name": "flightKey",
          "type": "bytes32"
        }
      ],
      "name": "setFlightLateAirline",
      "outputs": [],
      "payable": false,
      "stateMutability": "nonpayable",
      "type": "function"
    },
    {
      "constant": false,
      "inputs": [
        {
          "name": "flightKey",
          "type": "bytes32"
        }
      ],
      "name": "setFlightLateNotAirline",
      "outputs": [],
      "payable": false,
      "stateMutability": "nonpayable",
      "type": "function"
    }
  ],
  "bytecode": "0x608060405260008060006101000a81548160ff021916908360ff1602179055506001600560146101000a81548160ff02191690831515021790555034801561004657600080fd5b50604051602080613a538339810180604052602081101561006657600080fd5b810190808051906020019092919050505033600560006101000a81548173ffffffffffffffffffffffffffffffffffffffff021916908373ffffffffffffffffffffffffffffffffffffffff16021790555080600660006101000a81548173ffffffffffffffffffffffffffffffffffffffff021916908373ffffffffffffffffffffffffffffffffffffffff16021790555033600760006101000a81548173ffffffffffffffffffffffffffffffffffffffff021916908373ffffffffffffffffffffffffffffffffffffffff160217905550506139098061014a6000396000f3fe6080604052600436106101e35760003560e01c80637bcfd88411610102578063cc75f25d11610095578063cecf6b6c11610064578063cecf6b6c14610e5f578063ee06ce2b14610f3a578063ef488b9314610f75578063f2c6d0b214610fb0576101e3565b8063cc75f25d14610d14578063cca8427f14610d67578063cce7127b14610dba578063cd905dff14610e30576101e3565b8063b58c31be116100d1578063b58c31be14610b30578063bead056a14610ba9578063c17c3b2814610bfa578063c77eb5a214610cd9576101e3565b80637bcfd88414610967578063893d20e8146109715780639b7cb28f146109c8578063a4595b4814610a34576101e3565b806345e2748d1161017a57806364b4f7511161014957806364b4f7511461083d57806365a6bb291461086857806374dde552146108d457806375e0e52c1461092c576101e3565b806345e2748d146106bf5780635f1cc0e6146106fa5780635f746a851461074d578063637a66df14610757576101e3565b8063339d2590116101b6578063339d259014610435578063382fee6d1461043f57806338692aef146104d757806339cfc995146105ed576101e3565b806301465590146101e8578063110466ed146102135780632302f56a14610250578063252052101461036d575b600080fd5b3480156101f457600080fd5b506101fd610feb565b6040518082815260200191505060405180910390f35b34801561021f57600080fd5b5061024e6004803603602081101561023657600080fd5b8101908080351515906020019092919050505061100a565b005b34801561025c57600080fd5b50610357600480360360a081101561027357600080fd5b81019080803560ff169060200190929190803573ffffffffffffffffffffffffffffffffffffffff169060200190929190803590602001906401000000008111156102bd57600080fd5b8201836020820111156102cf57600080fd5b803590602001918460018302840111640100000000831117156102f157600080fd5b91908080601f016020809104026020016040519081016040528093929190818152602001838380828437600081840152601f19601f82011690508083019250505050505050919291929080359060200190929190803590602001909291905050506110ea565b6040518082815260200191505060405180910390f35b34801561037957600080fd5b506104336004803603602081101561039057600080fd5b81019080803590602001906401000000008111156103ad57600080fd5b8201836020820111156103bf57600080fd5b803590602001918460018302840111640100000000831117156103e157600080fd5b91908080601f016020809104026020016040519081016040528093929190818152602001838380828437600081840152601f19601f8201169050808301925050505050505091929192905050506111c1565b005b61043d6112ea565b005b34801561044b57600080fd5b5061048e6004803603602081101561046257600080fd5b81019080803573ffffffffffffffffffffffffffffffffffffffff169060200190929190505050611509565b604051808315151515815260200182600360200280838360005b838110156104c35780820151818401526020810190506104a8565b505050509050019250505060405180910390f35b3480156104e357600080fd5b506105eb600480360360c08110156104fa57600080fd5b81019080803560ff169060200190929190803573ffffffffffffffffffffffffffffffffffffffff1690602001909291908035906020019064010000000081111561054457600080fd5b82018360208201111561055657600080fd5b8035906020019184600183028401116401000000008311171561057857600080fd5b91908080601f016020809104026020016040519081016040528093929190818152602001838380828437600081840152601f19601f8201169050808301925050505050505091929192908035906020019092919080359060200190929190803560ff169060200190929190505050611610565b005b3480156105f957600080fd5b506106bd6004803603604081101561061057600080fd5b810190808035906020019064010000000081111561062d57600080fd5b82018360208201111561063f57600080fd5b8035906020019184600183028401116401000000008311171561066157600080fd5b91908080601f016020809104026020016040519081016040528093929190818152602001838380828437600081840152601f19601f82011690508083019250505050505050919291929080359060200190929190505050611a20565b005b3480156106cb57600080fd5b506106f8600480360360208110156106e257600080fd5b8101908080359060200190929190505050611b52565b005b34801561070657600080fd5b5061070f611be2565b6040518082600360200280838360005b8381101561073a57808201518184015260208101905061071f565b5050505090500191505060405180910390f35b610755611d55565b005b34801561076357600080fd5b506108276004803603604081101561077a57600080fd5b810190808035906020019064010000000081111561079757600080fd5b8201836020820111156107a957600080fd5b803590602001918460018302840111640100000000831117156107cb57600080fd5b91908080601f016020809104026020016040519081016040528093929190818152602001838380828437600081840152601f19601f82011690508083019250505050505050919291929080359060200190929190505050611e18565b6040518082815260200191505060405180910390f35b34801561084957600080fd5b50610852611f3f565b6040518082815260200191505060405180910390f35b34801561087457600080fd5b5061087d611f4b565b6040518080602001828103825283818151815260200191508051906020019060200280838360005b838110156108c05780820151818401526020810190506108a5565b505050509050019250505060405180910390f35b61092a600480360360608110156108ea57600080fd5b810190808035906020019092919080359060200190929190803573ffffffffffffffffffffffffffffffffffffffff169060200190929190505050611fd9565b005b34801561093857600080fd5b506109656004803603602081101561094f57600080fd5b81019080803590602001909291905050506120e3565b005b61096f61222a565b005b34801561097d57600080fd5b506109866124d7565b604051808273ffffffffffffffffffffffffffffffffffffffff1673ffffffffffffffffffffffffffffffffffffffff16815260200191505060405180910390f35b3480156109d457600080fd5b506109dd612501565b6040518080602001828103825283818151815260200191508051906020019060200280838360005b83811015610a20578082015181840152602081019050610a05565b505050509050019250505060405180910390f35b348015610a4057600080fd5b50610b2e60048036036080811015610a5757600080fd5b81019080803573ffffffffffffffffffffffffffffffffffffffff16906020019092919080359060200190640100000000811115610a9457600080fd5b820183602082011115610aa657600080fd5b80359060200191846001830284011164010000000083111715610ac857600080fd5b91908080601f016020809104026020016040519081016040528093929190818152602001838380828437600081840152601f19601f8201169050808301925050505050505091929192908035906020019092919080359060200190929190505050612559565b005b348015610b3c57600080fd5b50610b9360048036036060811015610b5357600080fd5b81019080803573ffffffffffffffffffffffffffffffffffffffff1690602001909291908035906020019092919080359060200190929190505050612700565b6040518082815260200191505060405180910390f35b348015610bb557600080fd5b50610bf860048036036020811015610bcc57600080fd5b81019080803573ffffffffffffffffffffffffffffffffffffffff1690602001909291905050506127f7565b005b348015610c0657600080fd5b50610cd760048036036060811015610c1d57600080fd5b8101908080359060200190640100000000811115610c3a57600080fd5b820183602082011115610c4c57600080fd5b80359060200191846001830284011164010000000083111715610c6e57600080fd5b91908080601f016020809104026020016040519081016040528093929190818152602001838380828437600081840152601f19601f82011690508083019250505050505050919291929080359060200190929190803560ff1690602001909291905050506128e7565b005b348015610ce557600080fd5b50610d1260048036036020811015610cfc57600080fd5b8101908080359060200190929190505050612ad1565b005b348015610d2057600080fd5b50610d4d60048036036020811015610d3757600080fd5b8101908080359060200190929190505050612b61565b604051808215151515815260200191505060405180910390f35b348015610d7357600080fd5b50610da060048036036020811015610d8a57600080fd5b8101908080359060200190929190505050612b8e565b604051808215151515815260200191505060405180910390f35b348015610dc657600080fd5b50610e1660048036036040811015610ddd57600080fd5b81019080803560ff169060200190929190803573ffffffffffffffffffffffffffffffffffffffff169060200190929190505050612bbb565b604051808215151515815260200191505060405180910390f35b348015610e3c57600080fd5b50610e45612d17565b604051808215151515815260200191505060405180910390f35b348015610e6b57600080fd5b50610e9860048036036020811015610e8257600080fd5b8101908080359060200190929190505050612d2e565b604051808573ffffffffffffffffffffffffffffffffffffffff1673ffffffffffffffffffffffffffffffffffffffff16815260200184151515158152602001806020018360ff1660ff168152602001828103825284818151815260200191508051906020019060200280838360005b83811015610f23578082015181840152602081019050610f08565b505050509050019550505050505060405180910390f35b348015610f4657600080fd5b50610f7360048036036020811015610f5d57600080fd5b8101908080359060200190929190505050612e5e565b005b348015610f8157600080fd5b50610fae60048036036020811015610f9857600080fd5b8101908080359060200190929190505050612f12565b005b348015610fbc57600080fd5b50610fe960048036036020811015610fd357600080fd5b81019080803590602001909291905050506130dd565b005b60003073ffffffffffffffffffffffffffffffffffffffff1631905090565b600560009054906101000a900473ffffffffffffffffffffffffffffffffffffffff1673ffffffffffffffffffffffffffffffffffffffff163373ffffffffffffffffffffffffffffffffffffffff16146110cd576040517f08c379a000000000000000000000000000000000000000000000000000000000815260040180806020018281038252601c8152602001807f43616c6c6572206973206e6f7420636f6e7472616374206f776e65720000000081525060200191505060405180910390fd5b80600560146101000a81548160ff02191690831515021790555050565b60008585858585604051602001808660ff1660ff1660f81b81526001018573ffffffffffffffffffffffffffffffffffffffff1673ffffffffffffffffffffffffffffffffffffffff1660601b815260140184805190602001908083835b6020831061116b5780518252602082019150602081019050602083039250611148565b6001836020036101000a0380198251168184511680821785525050505050509050018381526020018281526020019550505050505060405160208183030381529060405280519060200120905095945050505050565b600660009054906101000a900473ffffffffffffffffffffffffffffffffffffffff1673ffffffffffffffffffffffffffffffffffffffff16630e2c412982336040518363ffffffff1660e01b815260040180806020018373ffffffffffffffffffffffffffffffffffffffff1673ffffffffffffffffffffffffffffffffffffffff168152602001828103825284818151815260200191508051906020019080838360005b83811015611282578082015181840152602081019050611267565b50505050905090810190601f1680156112af5780820380516001836020036101000a031916815260200191505b509350505050600060405180830381600087803b1580156112cf57600080fd5b505af11580156112e3573d6000803e3d6000fd5b5050505050565b670de0b6b3a7640000341015611368576040517f08c379a000000000000000000000000000000000000000000000000000000000815260040180806020018281038252601c8152602001807f526567697374726174696f6e206665652069732072657175697265640000000081525060200191505060405180910390fd5b61137061363b565b6113793361316d565b9050604051806040016040528060011515815260200182815250600160003373ffffffffffffffffffffffffffffffffffffffff1673ffffffffffffffffffffffffffffffffffffffff16815260200190815260200160002060008201518160000160006101000a81548160ff02191690831515021790555060208201518160010190600361140992919061365d565b5090505060023390806001815401808255809150509060018203906000526020600020016000909192909190916101000a81548173ffffffffffffffffffffffffffffffffffffffff021916908373ffffffffffffffffffffffffffffffffffffffff160217905550507f2598defb89a76b880830bc3f19a1b6a55144ea08dfec47089a7ae1dc0611a4523382604051808373ffffffffffffffffffffffffffffffffffffffff1673ffffffffffffffffffffffffffffffffffffffff16815260200182600360200280838360005b838110156114f35780820151818401526020810190506114d8565b505050509050019250505060405180910390a150565b600061151361363b565b600160008473ffffffffffffffffffffffffffffffffffffffff1673ffffffffffffffffffffffffffffffffffffffff16815260200190815260200160002060000160009054906101000a900460ff169150600160008473ffffffffffffffffffffffffffffffffffffffff1673ffffffffffffffffffffffffffffffffffffffff168152602001908152602001600020600101600380602002604051908101604052809291908260038015611604576020028201916000905b82829054906101000a900460ff1660ff16815260200190600101906020826000010492830192600103820291508084116115cd5790505b50505050509050915091565b611618612d17565b61166d576040517f08c379a00000000000000000000000000000000000000000000000000000000081526004018080602001828103825260258152602001806138626025913960400191505060405180910390fd5b85336116798282612bbb565b6116ce576040517f08c379a00000000000000000000000000000000000000000000000000000000081526004018080602001828103825260238152602001806138bb6023913960400191505060405180910390fd5b60006116dd89898989896110ea565b90506003600082815260200190815260200160002060040160009054906101000a900460ff16611758576040517f08c379a00000000000000000000000000000000000000000000000000000000081526004018080602001828103825260348152602001806138876034913960400191505060405180910390fd5b6003600082815260200190815260200160002060010160008560ff1660ff1681526020019081526020016000203390806001815401808255809150509060018203906000526020600020016000909192909190916101000a81548173ffffffffffffffffffffffffffffffffffffffff021916908373ffffffffffffffffffffffffffffffffffffffff160217905550507f43c853095c2752648493c88b4baac4d580d2594ffb00c6f1d4242d844514f78388888887604051808573ffffffffffffffffffffffffffffffffffffffff1673ffffffffffffffffffffffffffffffffffffffff168152602001806020018481526020018360ff1660ff168152602001828103825285818151815260200191508051906020019080838360005b83811015611892578082015181840152602081019050611877565b50505050905090810190601f1680156118bf5780820380516001836020036101000a031916815260200191505b509550505050505060405180910390a1600380600083815260200190815260200160002060010160008660ff1660ff1681526020019081526020016000208054905010158015611914575061191381612b8e565b5b15611a155761192381856132f9565b7fe23f5229de535c091e3b7bec2665f5d698192d3b31393066e8987b7a05076b6c88888887604051808573ffffffffffffffffffffffffffffffffffffffff1673ffffffffffffffffffffffffffffffffffffffff168152602001806020018481526020018360ff1660ff168152602001828103825285818151815260200191508051906020019080838360005b838110156119cc5780820151818401526020810190506119b1565b50505050905090810190601f1680156119f95780820380516001836020036101000a031916815260200191505b509550505050505060405180910390a1611a148787866128e7565b5b505050505050505050565b600660009054906101000a900473ffffffffffffffffffffffffffffffffffffffff1673ffffffffffffffffffffffffffffffffffffffff166365c152f78383336040518463ffffffff1660e01b815260040180806020018481526020018373ffffffffffffffffffffffffffffffffffffffff1673ffffffffffffffffffffffffffffffffffffffff168152602001828103825285818151815260200191508051906020019080838360005b83811015611ae8578082015181840152602081019050611acd565b50505050905090810190601f168015611b155780820380516001836020036101000a031916815260200191505b50945050505050600060405180830381600087803b158015611b3657600080fd5b505af1158015611b4a573d6000803e3d6000fd5b505050505050565b600660009054906101000a900473ffffffffffffffffffffffffffffffffffffffff1673ffffffffffffffffffffffffffffffffffffffff166345e2748d826040518263ffffffff1660e01b815260040180828152602001915050600060405180830381600087803b158015611bc757600080fd5b505af1158015611bdb573d6000803e3d6000fd5b5050505050565b611bea61363b565b600160003373ffffffffffffffffffffffffffffffffffffffff1673ffffffffffffffffffffffffffffffffffffffff16815260200190815260200160002060000160009054906101000a900460ff16611cac576040517f08c379a000000000000000000000000000000000000000000000000000000000815260040180806020018281038252601b8152602001807f4e6f74207265676973746572656420617320616e206f7261636c65000000000081525060200191505060405180910390fd5b600160003373ffffffffffffffffffffffffffffffffffffffff1673ffffffffffffffffffffffffffffffffffffffff168152602001908152602001600020600101600380602002604051908101604052809291908260038015611d4b576020028201916000905b82829054906101000a900460ff1660ff1681526020019060010190602082600001049283019260010382029150808411611d145790505b5050505050905090565b600660009054906101000a900473ffffffffffffffffffffffffffffffffffffffff1673ffffffffffffffffffffffffffffffffffffffff1663d512c06133346040518363ffffffff1660e01b8152600401808373ffffffffffffffffffffffffffffffffffffffff1673ffffffffffffffffffffffffffffffffffffffff16815260200182815260200192505050600060405180830381600087803b158015611dfe57600080fd5b505af1158015611e12573d6000803e3d6000fd5b50505050565b6000600660009054906101000a900473ffffffffffffffffffffffffffffffffffffffff1673ffffffffffffffffffffffffffffffffffffffff1663637a66df84846040518363ffffffff1660e01b81526004018080602001838152602001828103825284818151815260200191508051906020019080838360005b83811015611eaf578082015181840152602081019050611e94565b50505050905090810190601f168015611edc5780820380516001836020036101000a031916815260200191505b509350505050602060405180830381600087803b158015611efc57600080fd5b505af1158015611f10573d6000803e3d6000fd5b505050506040513d6020811015611f2657600080fd5b8101908080519060200190929190505050905092915050565b670de0b6b3a764000081565b60606002805480602002602001604051908101604052809291908181526020018280548015611fcf57602002820191906000526020600020905b8160009054906101000a900473ffffffffffffffffffffffffffffffffffffffff1673ffffffffffffffffffffffffffffffffffffffff1681526020019060010190808311611f85575b5050505050905090565b600660009054906101000a900473ffffffffffffffffffffffffffffffffffffffff1673ffffffffffffffffffffffffffffffffffffffff16631dd7a3f633858585346040518663ffffffff1660e01b8152600401808673ffffffffffffffffffffffffffffffffffffffff1673ffffffffffffffffffffffffffffffffffffffff1681526020018581526020018481526020018373ffffffffffffffffffffffffffffffffffffffff1673ffffffffffffffffffffffffffffffffffffffff16815260200182815260200195505050505050600060405180830381600087803b1580156120c657600080fd5b505af11580156120da573d6000803e3d6000fd5b50505050505050565b6060600660009054906101000a900473ffffffffffffffffffffffffffffffffffffffff1673ffffffffffffffffffffffffffffffffffffffff1663b3e70c31836040518263ffffffff1660e01b815260040180828152602001915050600060405180830381600087803b15801561215a57600080fd5b505af115801561216e573d6000803e3d6000fd5b505050506040513d6000823e3d601f19601f82011682018060405250602081101561219857600080fd5b8101908080516401000000008111156121b057600080fd5b828101905060208101848111156121c657600080fd5b81518560208202830111640100000000821117156121e357600080fd5b5050929190505050905060008090505b81518110156122255761221882828151811061220b57fe5b6020026020010151612e5e565b80806001019150506121f3565b505050565b6000600660009054906101000a900473ffffffffffffffffffffffffffffffffffffffff1673ffffffffffffffffffffffffffffffffffffffff16633d43020b336040518263ffffffff1660e01b8152600401808273ffffffffffffffffffffffffffffffffffffffff1673ffffffffffffffffffffffffffffffffffffffff168152602001915050602060405180830381600087803b1580156122cd57600080fd5b505af11580156122e1573d6000803e3d6000fd5b505050506040513d60208110156122f757600080fd5b8101908080519060200190929190505050905080612313610feb565b11612369576040517f08c379a00000000000000000000000000000000000000000000000000000000081526004018080602001828103825260218152602001806138416021913960400191505060405180910390fd5b600660009054906101000a900473ffffffffffffffffffffffffffffffffffffffff1673ffffffffffffffffffffffffffffffffffffffff16630d829250336040518263ffffffff1660e01b8152600401808273ffffffffffffffffffffffffffffffffffffffff1673ffffffffffffffffffffffffffffffffffffffff168152602001915050600060405180830381600087803b15801561240a57600080fd5b505af115801561241e573d6000803e3d6000fd5b505050503373ffffffffffffffffffffffffffffffffffffffff166108fc829081150290604051600060405180830381858888f19350505050158015612468573d6000803e3d6000fd5b507fc9e6f3f8fb37ac201925cd75e0db3ed75fc3e0741fdebcce5df22a1e82e1e9673382604051808373ffffffffffffffffffffffffffffffffffffffff1673ffffffffffffffffffffffffffffffffffffffff1681526020018281526020019250505060405180910390a150565b6000600560009054906101000a900473ffffffffffffffffffffffffffffffffffffffff16905090565b6060600480548060200260200160405190810160405280929190818152602001828054801561254f57602002820191906000526020600020905b81548152602001906001019080831161253b575b5050505050905090565b612561612d17565b6125b6576040517f08c379a00000000000000000000000000000000000000000000000000000000081526004018080602001828103825260258152602001806138626025913960400191505060405180910390fd5b60006125c13361338f565b905060006125d282878787876110ea565b9050600481908060018154018082558091505090600182039060005260206000200160009091929091909150555061260a813361347c565b7f4102fce89e47e45007f3bc619c7bf7c6046884c39aa682ab0d0b4fcfbf13985b8287878787604051808660ff1660ff1681526020018573ffffffffffffffffffffffffffffffffffffffff1673ffffffffffffffffffffffffffffffffffffffff16815260200180602001848152602001838152602001828103825285818151815260200191508051906020019080838360005b838110156126ba57808201518184015260208101905061269f565b50505050905090810190601f1680156126e75780820380516001836020036101000a031916815260200191505b50965050505050505060405180910390a1505050505050565b6000600660009054906101000a900473ffffffffffffffffffffffffffffffffffffffff1673ffffffffffffffffffffffffffffffffffffffff1663b58c31be8585856040518463ffffffff1660e01b8152600401808473ffffffffffffffffffffffffffffffffffffffff1673ffffffffffffffffffffffffffffffffffffffff1681526020018381526020018281526020019350505050602060405180830381600087803b1580156127b357600080fd5b505af11580156127c7573d6000803e3d6000fd5b505050506040513d60208110156127dd57600080fd5b810190808051906020019092919050505090509392505050565b600660009054906101000a900473ffffffffffffffffffffffffffffffffffffffff1673ffffffffffffffffffffffffffffffffffffffff16631afa74e582336040518363ffffffff1660e01b8152600401808373ffffffffffffffffffffffffffffffffffffffff1673ffffffffffffffffffffffffffffffffffffffff1681526020018273ffffffffffffffffffffffffffffffffffffffff1673ffffffffffffffffffffffffffffffffffffffff16815260200192505050600060405180830381600087803b1580156128cc57600080fd5b505af11580156128e0573d6000803e3d6000fd5b5050505050565b6128ef612d17565b612944576040517f08c379a00000000000000000000000000000000000000000000000000000000081526004018080602001828103825260258152602001806138626025913960400191505060405180910390fd5b6000600660009054906101000a900473ffffffffffffffffffffffffffffffffffffffff1673ffffffffffffffffffffffffffffffffffffffff1663637a66df85856040518363ffffffff1660e01b81526004018080602001838152602001828103825284818151815260200191508051906020019080838360005b838110156129db5780820151818401526020810190506129c0565b50505050905090810190601f168015612a085780820380516001836020036101000a031916815260200191505b509350505050602060405180830381600087803b158015612a2857600080fd5b505af1158015612a3c573d6000803e3d6000fd5b505050506040513d6020811015612a5257600080fd5b81019080805190602001909291905050509050600060ff168260ff1614612acb57601460ff168260ff161415612a9957612a8b81611b52565b612a94816120e3565b612aca565b612aa281612f12565b600a60ff168260ff161415612abf57612aba816130dd565b612ac9565b612ac881612ad1565b5b5b5b50505050565b600660009054906101000a900473ffffffffffffffffffffffffffffffffffffffff1673ffffffffffffffffffffffffffffffffffffffff1663c77eb5a2826040518263ffffffff1660e01b815260040180828152602001915050600060405180830381600087803b158015612b4657600080fd5b505af1158015612b5a573d6000803e3d6000fd5b5050505050565b60006003600083815260200190815260200160002060040160009054906101000a900460ff169050919050565b60006003600083815260200190815260200160002060000160149054906101000a900460ff169050919050565b60008260ff16600160008473ffffffffffffffffffffffffffffffffffffffff1673ffffffffffffffffffffffffffffffffffffffff168152602001908152602001600020600101600060038110612c0f57fe5b602091828204019190069054906101000a900460ff1660ff161480612c9c57508260ff16600160008473ffffffffffffffffffffffffffffffffffffffff1673ffffffffffffffffffffffffffffffffffffffff168152602001908152602001600020600101600160038110612c8157fe5b602091828204019190069054906101000a900460ff1660ff16145b80612d0f57508260ff16600160008473ffffffffffffffffffffffffffffffffffffffff1673ffffffffffffffffffffffffffffffffffffffff168152602001908152602001600020600101600260038110612cf457fe5b602091828204019190069054906101000a900460ff1660ff16145b905092915050565b6000600560149054906101000a900460ff16905090565b600080606060006003600086815260200190815260200160002060000160009054906101000a900473ffffffffffffffffffffffffffffffffffffffff1693506003600086815260200190815260200160002060000160149054906101000a900460ff16925060036000868152602001908152602001600020600301805480602002602001604051908101604052809291908181526020018280548015612e2a57602002820191906000526020600020905b8160009054906101000a900473ffffffffffffffffffffffffffffffffffffffff1673ffffffffffffffffffffffffffffffffffffffff1681526020019060010190808311612de0575b505050505091506003600086815260200190815260200160002060040160019054906101000a900460ff1690509193509193565b600660009054906101000a900473ffffffffffffffffffffffffffffffffffffffff1673ffffffffffffffffffffffffffffffffffffffff1663ee06ce2b826040518263ffffffff1660e01b815260040180828152602001915050602060405180830381600087803b158015612ed357600080fd5b505af1158015612ee7573d6000803e3d6000fd5b505050506040513d6020811015612efd57600080fd5b81019080805190602001909291905050505050565b6060600660009054906101000a900473ffffffffffffffffffffffffffffffffffffffff1673ffffffffffffffffffffffffffffffffffffffff1663b3e70c31836040518263ffffffff1660e01b815260040180828152602001915050600060405180830381600087803b158015612f8957600080fd5b505af1158015612f9d573d6000803e3d6000fd5b505050506040513d6000823e3d601f19601f820116820180604052506020811015612fc757600080fd5b810190808051640100000000811115612fdf57600080fd5b82810190506020810184811115612ff557600080fd5b815185602082028301116401000000008211171561301257600080fd5b5050929190505050905060008090505b81518110156130d857600660009054906101000a900473ffffffffffffffffffffffffffffffffffffffff1673ffffffffffffffffffffffffffffffffffffffff16639348916f83838151811061307557fe5b60200260200101516040518263ffffffff1660e01b815260040180828152602001915050600060405180830381600087803b1580156130b357600080fd5b505af11580156130c7573d6000803e3d6000fd5b505050508080600101915050613022565b505050565b600660009054906101000a900473ffffffffffffffffffffffffffffffffffffffff1673ffffffffffffffffffffffffffffffffffffffff1663f2c6d0b2826040518263ffffffff1660e01b815260040180828152602001915050600060405180830381600087803b15801561315257600080fd5b505af1158015613166573d6000803e3d6000fd5b5050505050565b61317561363b565b61317d61363b565b6131868361338f565b8160006003811061319357fe5b602002019060ff16908160ff1681525050806000600381106131b157fe5b6020020151816001600381106131c357fe5b602002019060ff16908160ff16815250505b806000600381106131e257fe5b602002015160ff16816001600381106131f757fe5b602002015160ff1614156132315761320e8361338f565b8160016003811061321b57fe5b602002019060ff16908160ff16815250506131d5565b8060016003811061323e57fe5b60200201518160026003811061325057fe5b602002019060ff16908160ff16815250505b8060006003811061326f57fe5b602002015160ff168160026003811061328457fe5b602002015160ff1614806132bf5750806001600381106132a057fe5b602002015160ff16816002600381106132b557fe5b602002015160ff16145b156132f0576132cd8361338f565b816002600381106132da57fe5b602002019060ff16908160ff1681525050613262565b80915050919050565b60016003600084815260200190815260200160002060000160146101000a81548160ff02191690831515021790551561338b5760006003600084815260200190815260200160002060000160146101000a81548160ff021916908315150217905550806003600084815260200190815260200160002060040160016101000a81548160ff021916908360ff1602179055505b5050565b600080600a905060008160ff1660008081819054906101000a900460ff168092919060010191906101000a81548160ff021916908360ff16021790555060ff1643034085604051602001808381526020018273ffffffffffffffffffffffffffffffffffffffff1673ffffffffffffffffffffffffffffffffffffffff1660601b8152601401925050506040516020818303038152906040528051906020012060001c8161343957fe5b06905060fa6000809054906101000a900460ff1660ff1611156134725760008060006101000a81548160ff021916908360ff1602179055505b8092505050919050565b61348582612b61565b156134f8576040517f08c379a000000000000000000000000000000000000000000000000000000000815260040180806020018281038252601b8152602001807f526573706f6e7365496e666f2063726561746564206265666f7265000000000081525060200191505060405180910390fd5b6135006136f7565b81816000019073ffffffffffffffffffffffffffffffffffffffff16908173ffffffffffffffffffffffffffffffffffffffff168152505060018160200190151590811515815250506001816060019015159081151581525050806003600085815260200190815260200160002060008201518160000160006101000a81548173ffffffffffffffffffffffffffffffffffffffff021916908373ffffffffffffffffffffffffffffffffffffffff16021790555060208201518160000160146101000a81548160ff02191690831515021790555060408201518160030190805190602001906135f1929190613743565b5060608201518160040160006101000a81548160ff02191690831515021790555060808201518160040160016101000a81548160ff021916908360ff160217905550905050505050565b6040518060600160405280600390602082028038833980820191505090505090565b826003601f016020900481019282156136e65791602002820160005b838211156136b757835183826101000a81548160ff021916908360ff1602179055509260200192600101602081600001049283019260010302613679565b80156136e45782816101000a81549060ff02191690556001016020816000010492830192600103026136b7565b505b5090506136f391906137cd565b5090565b6040518060a00160405280600073ffffffffffffffffffffffffffffffffffffffff16815260200160001515815260200160608152602001600015158152602001600060ff1681525090565b8280548282559060005260206000209081019282156137bc579160200282015b828111156137bb5782518260006101000a81548173ffffffffffffffffffffffffffffffffffffffff021916908373ffffffffffffffffffffffffffffffffffffffff16021790555091602001919060010190613763565b5b5090506137c991906137fd565b5090565b6137fa91905b808211156137f657600081816101000a81549060ff0219169055506001016137d3565b5090565b90565b61383d91905b8082111561383957600081816101000a81549073ffffffffffffffffffffffffffffffffffffffff021916905550600101613803565b5090565b9056fe4170706c69636174696f6e2773206574686572206973206e6f7420656e6f756768436f6e74726163742069732063757272656e746c79206e6f74206f7065726174696f6e616c47656e65726174656420726573706f6e7365206b657920646f6573206e6f74206d61746368206f7261636c652072657175657374496e64657820646f6573206e6f74206d61746368206f7261636c652072657175657374a165627a7a723058207b57c6d6e1792ba3df43b8e3030c92c5836312659362e0a34bf70ce78c831bc20029",
  "source": "pragma solidity ^0.5.8;\r\nimport \"./OracleManagement.sol\";\r\nimport \"./Operational.sol\";\r\n\r\nimport \"../node_modules/openzeppelin-solidity/contracts/math/SafeMath.sol\";\r\n\r\ncontract FlightSuretyApp is OracleManagement, Operational{\r\n    using SafeMath for uint256;\r\n    FlightSuretyDataInterface flightSuretyData;\r\n    address private contractOwner;\r\n    //address private suretyDataAddress;\r\n    \r\n    uint8 private constant STATUS_CODE_UNKNOWN = 0;\r\n    uint8 private constant STATUS_CODE_ON_TIME = 10;\r\n    uint8 private constant STATUS_CODE_LATE_AIRLINE = 20;\r\n    uint8 private constant STATUS_CODE_LATE_WEATHER = 30;\r\n    uint8 private constant STATUS_CODE_LATE_TECHNICAL = 40;\r\n    uint8 private constant STATUS_CODE_LATE_OTHER = 50;\r\n\r\n    event FlightStatusInfo(address airline, string flight, uint256 timestamp, uint8 status);\r\n    event WithdrawCredits(address passenager, uint256 credits);\r\n\r\n    constructor(address dataContractAddress) public{\r\n        //suretyDataAddress = dataContractAddress;\r\n        flightSuretyData = FlightSuretyDataInterface(dataContractAddress);\r\n        contractOwner = msg.sender;\r\n    }\r\n\r\n/*\r\n    function getDataAddress() public view returns(address){\r\n        return suretyDataAddress;\r\n    }\r\n*/\r\n    \r\n\r\n    function registerAirline(string memory _name) public{\r\n        flightSuretyData.registerAirline(_name, msg.sender);\r\n    }\r\n\r\n    function airlineVote(address _candidate) public{\r\n        flightSuretyData.vote(_candidate, msg.sender);\r\n    }\r\n\r\n    function airlineFund() public payable{\r\n        flightSuretyData.addFund(msg.sender, msg.value);\r\n    }\r\n\r\n    //function registerFlight(string memory _code, uint256 _timestamp) public view returns(address){\r\n    function registerFlight(string memory _code, uint256 _timestamp) public{\r\n        flightSuretyData.registerFlight(_code, _timestamp, msg.sender);\r\n        //return msg.sender;\r\n    }\r\n\r\n    function generateFlightKey(string memory _code, uint256 _timestamp) public returns(bytes32){\r\n        return flightSuretyData.generateFlightKey(_code, _timestamp);\r\n    }\r\n\r\n    function passenagerBuyInsurance(bytes32 _flightKey, uint256 _contractTimestamp, address _airline) public payable{\r\n        flightSuretyData.registerInsurance(msg.sender, _flightKey, _contractTimestamp, _airline, msg.value);\r\n        //registerInsurance(address _buyer, bytes32 _flightKey, uint256 _contractTimestamp, address _airline, uint256 _fee) external\r\n    }\r\n\r\n    //address _buyer, bytes32 _flightKey, uint256 _contractTimestamp\r\n    function generateInsuranceKey(address _buyer, bytes32 _flightKey, uint256 _contractTimestamp) public returns(bytes32){\r\n        return flightSuretyData.generateInsuranceKey(_buyer, _flightKey, _contractTimestamp);\r\n    }\r\n\r\n    function creditInsurance(bytes32 _insuranceKey) public{\r\n        flightSuretyData.creditInsurance(_insuranceKey);\r\n    }\r\n\r\n    function creditAllInsurances(bytes32 _flightKey) public{\r\n        bytes32[] memory _insurancesKeys = flightSuretyData.getInsuranceKeysList(_flightKey);\r\n        for(uint256 i=0; i<_insurancesKeys.length; i++){\r\n            creditInsurance(_insurancesKeys[i]);\r\n        }\r\n    }\r\n\r\n    function passenagerWithdrawCredits() public payable{\r\n        uint256 credits = flightSuretyData.queryBuyerCredit(msg.sender);\r\n        require(queryContractBalance()>credits, \"Application's ether is not enough\");\r\n        flightSuretyData.deductCredits(msg.sender);\r\n        msg.sender.transfer(credits);\r\n        emit WithdrawCredits(msg.sender, credits);\r\n    }\r\n\r\n    function proceedFlightNoCreditCase(bytes32 flightKey) public{\r\n        bytes32[] memory _insurancesKeys = flightSuretyData.getInsuranceKeysList(flightKey);\r\n        for(uint256 i=0; i<_insurancesKeys.length; i++){\r\n            //flightSuretyData.setInsuranceWithdrawn(_insurancesKeys[i]);\r\n            flightSuretyData.setInsuranceExpired(_insurancesKeys[i]);\r\n        }\r\n    }\r\n\r\n    /**\r\n    * Handling oracles\r\n    */\r\n    function generateResponseKey(uint8 randomIndex, address airline, string memory flight,uint256 flightTimestamp, uint256 fetchTimestamp) public pure returns(bytes32){\r\n        return  keccak256(abi.encodePacked(randomIndex, airline, flight, flightTimestamp, fetchTimestamp));\r\n    }\r\n\r\n    function fetchFlightStatus(address airline, string memory flightCode, uint256 flightTimestamp, uint256 fetchTimestamp) \r\n    public requireIsOperational{\r\n        uint8 fetchIndex = getRandomIndex(msg.sender);\r\n        bytes32 reponseKey = generateResponseKey(fetchIndex, airline, flightCode, flightTimestamp, fetchTimestamp);\r\n        allResponseKeys.push(reponseKey);\r\n        createResponseInfo(reponseKey, msg.sender);\r\n\r\n        emit OracleRequest(fetchIndex, airline, flightCode, flightTimestamp, fetchTimestamp);\r\n    }\r\n\r\n    function checkAllIndexes(uint8 index, address requester) public view returns(bool){\r\n        return ((oracles[requester].indexes[0] == index) || (oracles[requester].indexes[1] == index) || (oracles[requester].indexes[2] == index));\r\n    }\r\n\r\n    modifier requireCorrectIndexes(uint8 index, address oracle){\r\n        require(checkAllIndexes(index, oracle), \"Index does not match oracle request\");\r\n        _;\r\n    }\r\n\r\n\r\n    // Called by oracle when a response is available to an outstanding request\r\n    // For the response to be accepted, there must be a pending request that is open\r\n    // and matches one of the three Indexes randomly assigned to the oracle at the\r\n    // time of registration (i.e. uninvited oracles are not welcome)\r\n    function submitOracleResponse(uint8 fetchIndex, address airline, string memory  flight, uint256 flightTimestamp, uint256 fetchTimestamp, uint8 statusCode) public requireIsOperational requireCorrectIndexes(fetchIndex, msg.sender){\r\n        //require(((oracles[msg.sender].indexes[0] == index) || (oracles[msg.sender].indexes[1] == index) || (oracles[msg.sender].indexes[2] == index)), \"Index does not match oracle request\");\r\n\r\n        //bytes32 key = keccak256(abi.encodePacked(index, airline, flight, timestamp)); \r\n        bytes32 key = generateResponseKey(fetchIndex, airline, flight, flightTimestamp, fetchTimestamp);\r\n        require(oracleResponses[key].isExist, \"Generated response key does not match oracle request\");\r\n\r\n        oracleResponses[key].responses[statusCode].push(msg.sender);\r\n\r\n        // Information isn't considered verified until at least MIN_RESPONSES\r\n        // oracles respond with the *** same *** information\r\n        emit OracleReport(airline, flight, flightTimestamp, statusCode);\r\n        if ((oracleResponses[key].responses[statusCode].length >= MIN_RESPONSES)&&(isResponseOpen(key))) {\r\n            setResponseClose(key, statusCode);\r\n            emit FlightStatusInfo(airline, flight, flightTimestamp, statusCode);\r\n\r\n            // Handle flight status as appropriate\r\n            processFlightStatus(flight, flightTimestamp, statusCode);\r\n        }\r\n    }\r\n\r\n    /**\r\n    * @dev Called after oracle has updated flight status\r\n    *\r\n    */  \r\n    function processFlightStatus(string memory flight, uint256 timestamp, uint8 statusCode) public requireIsOperational{\r\n        //if (statusCode == STATUS_CODE_LATE_AIRLINE) creditInsurees(flight)\r\n        bytes32 flightKey = flightSuretyData.generateFlightKey(flight, timestamp);\r\n        if (statusCode != STATUS_CODE_UNKNOWN) {\r\n            if (statusCode == STATUS_CODE_LATE_AIRLINE){\r\n                setFlightLateAirline(flightKey);\r\n                creditAllInsurances(flightKey);\r\n            } else {\r\n                proceedFlightNoCreditCase(flightKey);\r\n                if (statusCode == STATUS_CODE_ON_TIME) {\r\n                    setFlightOnTime(flightKey);\r\n                } else {\r\n                    setFlightLateNotAirline(flightKey);\r\n                }\r\n            }\r\n        }\r\n    }\r\n\r\n    function queryContractBalance() public view returns(uint256){\r\n        return address(this).balance;\r\n    }\r\n\r\n    function setFlightOnTime(bytes32 flightKey) public{\r\n        flightSuretyData.setFlightOnTime(flightKey);\r\n    }\r\n\r\n    function setFlightLateAirline(bytes32 flightKey) public{\r\n        flightSuretyData.setFlightLateAirline(flightKey);\r\n    }\r\n\r\n    function setFlightLateNotAirline(bytes32 flightKey) public{\r\n        flightSuretyData.setFlightLateNotAirline(flightKey);\r\n    }\r\n}\r\n\r\ncontract FlightSuretyDataInterface{\r\n    function registerAirline(string calldata _name, address _airline) external;\r\n    function vote(address _candidate, address _voter) external;\r\n    function couldFund(address _candidate) external returns(bool);\r\n    function addFund(address _airline, uint256 _fund) external;\r\n    function registerFlight(string calldata _code, uint256 _timestamp, address _airline) external;\r\n    function registerInsurance(address _buyer, bytes32 _flightKey, uint256 _contractTimestamp, address _airline, uint256 _fee) external;\r\n    function creditInsurance(bytes32 _insuranceKey) external returns(uint256);\r\n    function deductInsurance(bytes32 _insuranceKey, address _airline) external returns(uint256);\r\n    function queryInsuranceBuyer(bytes32 _insuranceKey) external returns(address);\r\n    function generateFlightKey(string calldata flightCode, uint256 timestamp) external returns(bytes32);\r\n    function generateInsuranceKey(address _buyer, bytes32 _flightKey, uint256 _contractTimestamp) external returns(bytes32);\r\n    function getInsuranceKeysList(bytes32 flightKey) external returns(bytes32[] memory);\r\n    function setInsuranceWithdrawn(bytes32 insuranceKey) external;\r\n    function setInsuranceExpired(bytes32 insuranceKey) external;\r\n    function queryBuyerCredit(address _buyer) external returns(uint256);\r\n    function deductCredits(address _buyer) external;\r\n    function setFlightOnTime(bytes32 _flightID) external;\r\n    function setFlightLateAirline(bytes32 _flightID) external;\r\n    function setFlightLateNotAirline(bytes32 _flightID) external; \r\n}",
  "sourcePath": "C:/Users/andrewchan88/Documents/Coding/udacity/Blockchain/PartB/homework/project7_es_rm/contracts/FlightSuretyApp.sol",
  "compiler": {
    "name": "solc",
    "version": "0.5.8+commit.23d335f2.Emscripten.clang"
  },
  "schemaVersion": "3.0.13",
  "updatedAt": "2019-10-10T15:54:44.575Z",
  "devdoc": {
    "methods": {
      "isOperational()": {
        "details": "Modifier that requires the \"operational\" boolean variable to be \"true\"\r     This is used on all state changing functions to pause the contract in \r     the event there is an issue that needs to be fixed\r"
      },
      "processFlightStatus(string,uint256,uint8)": {
        "details": "Called after oracle has updated flight status\r     "
      }
    }
  },
  "userdoc": {
    "methods": {
      "generateResponseKey(uint8,address,string,uint256,uint256)": {
        "notice": "Handling oracles\r"
      }
    }
  }
}