{
  "contractName": "FlightSuretyApp",
  "abi": [
    {
      "constant": false,
      "inputs": [
        {
          "name": "mode",
          "type": "bool"
        }
      ],
      "name": "setOperatingStatus",
      "outputs": [],
      "payable": false,
      "stateMutability": "nonpayable",
      "type": "function"
    },
    {
      "constant": false,
      "inputs": [],
      "name": "registerOracle",
      "outputs": [],
      "payable": true,
      "stateMutability": "payable",
      "type": "function"
    },
    {
      "constant": true,
      "inputs": [
        {
          "name": "oracleAddress",
          "type": "address"
        }
      ],
      "name": "queryOracle",
      "outputs": [
        {
          "name": "isRegistered",
          "type": "bool"
        },
        {
          "name": "indexes",
          "type": "uint8[3]"
        }
      ],
      "payable": false,
      "stateMutability": "view",
      "type": "function"
    },
    {
      "constant": true,
      "inputs": [],
      "name": "getMyIndexes",
      "outputs": [
        {
          "name": "",
          "type": "uint8[3]"
        }
      ],
      "payable": false,
      "stateMutability": "view",
      "type": "function"
    },
    {
      "constant": true,
      "inputs": [],
      "name": "REGISTRATION_FEE",
      "outputs": [
        {
          "name": "",
          "type": "uint256"
        }
      ],
      "payable": false,
      "stateMutability": "view",
      "type": "function"
    },
    {
      "constant": true,
      "inputs": [],
      "name": "getAllOracles",
      "outputs": [
        {
          "name": "",
          "type": "address[]"
        }
      ],
      "payable": false,
      "stateMutability": "view",
      "type": "function"
    },
    {
      "constant": true,
      "inputs": [],
      "name": "getOwner",
      "outputs": [
        {
          "name": "",
          "type": "address"
        }
      ],
      "payable": false,
      "stateMutability": "view",
      "type": "function"
    },
    {
      "constant": true,
      "inputs": [],
      "name": "getAllResponseKeys",
      "outputs": [
        {
          "name": "",
          "type": "bytes32[]"
        }
      ],
      "payable": false,
      "stateMutability": "view",
      "type": "function"
    },
    {
      "constant": true,
      "inputs": [
        {
          "name": "responseKey",
          "type": "bytes32"
        }
      ],
      "name": "isResponseExist",
      "outputs": [
        {
          "name": "",
          "type": "bool"
        }
      ],
      "payable": false,
      "stateMutability": "view",
      "type": "function"
    },
    {
      "constant": true,
      "inputs": [
        {
          "name": "responseKey",
          "type": "bytes32"
        }
      ],
      "name": "isResponseOpen",
      "outputs": [
        {
          "name": "",
          "type": "bool"
        }
      ],
      "payable": false,
      "stateMutability": "view",
      "type": "function"
    },
    {
      "constant": true,
      "inputs": [],
      "name": "isOperational",
      "outputs": [
        {
          "name": "",
          "type": "bool"
        }
      ],
      "payable": false,
      "stateMutability": "view",
      "type": "function"
    },
    {
      "constant": true,
      "inputs": [
        {
          "name": "_fetchKey",
          "type": "bytes32"
        }
      ],
      "name": "queryResponseInfo",
      "outputs": [
        {
          "name": "requester",
          "type": "address"
        },
        {
          "name": "isOpen",
          "type": "bool"
        },
        {
          "name": "responsedOracles",
          "type": "address[]"
        },
        {
          "name": "statusCode",
          "type": "uint8"
        }
      ],
      "payable": false,
      "stateMutability": "view",
      "type": "function"
    },
    {
      "inputs": [
        {
          "name": "dataContractAddress",
          "type": "address"
        },
        {
          "name": "buyerContractAddress",
          "type": "address"
        }
      ],
      "payable": false,
      "stateMutability": "nonpayable",
      "type": "constructor"
    },
    {
      "anonymous": false,
      "inputs": [
        {
          "indexed": false,
          "name": "airline",
          "type": "address"
        },
        {
          "indexed": false,
          "name": "flight",
          "type": "string"
        },
        {
          "indexed": false,
          "name": "timestamp",
          "type": "uint256"
        },
        {
          "indexed": false,
          "name": "status",
          "type": "uint8"
        }
      ],
      "name": "FlightStatusInfo",
      "type": "event"
    },
    {
      "anonymous": false,
      "inputs": [
        {
          "indexed": false,
          "name": "passenager",
          "type": "address"
        },
        {
          "indexed": false,
          "name": "credits",
          "type": "uint256"
        }
      ],
      "name": "WithdrawCredits",
      "type": "event"
    },
    {
      "anonymous": false,
      "inputs": [
        {
          "indexed": false,
          "name": "oracle",
          "type": "address"
        },
        {
          "indexed": false,
          "name": "indexes",
          "type": "uint8[3]"
        }
      ],
      "name": "OracleRegister",
      "type": "event"
    },
    {
      "anonymous": false,
      "inputs": [
        {
          "indexed": false,
          "name": "airline",
          "type": "address"
        },
        {
          "indexed": false,
          "name": "flight",
          "type": "string"
        },
        {
          "indexed": false,
          "name": "timestamp",
          "type": "uint256"
        },
        {
          "indexed": false,
          "name": "status",
          "type": "uint8"
        }
      ],
      "name": "OracleReport",
      "type": "event"
    },
    {
      "anonymous": false,
      "inputs": [
        {
          "indexed": false,
          "name": "index",
          "type": "uint8"
        },
        {
          "indexed": false,
          "name": "airline",
          "type": "address"
        },
        {
          "indexed": false,
          "name": "flight",
          "type": "string"
        },
        {
          "indexed": false,
          "name": "flightTimestamp",
          "type": "uint256"
        },
        {
          "indexed": false,
          "name": "fetchTimestamp",
          "type": "uint256"
        }
      ],
      "name": "OracleRequest",
      "type": "event"
    },
    {
      "constant": false,
      "inputs": [
        {
          "name": "_name",
          "type": "string"
        }
      ],
      "name": "registerAirline",
      "outputs": [],
      "payable": false,
      "stateMutability": "nonpayable",
      "type": "function"
    },
    {
      "constant": false,
      "inputs": [
        {
          "name": "_candidate",
          "type": "address"
        }
      ],
      "name": "airlineVote",
      "outputs": [],
      "payable": false,
      "stateMutability": "nonpayable",
      "type": "function"
    },
    {
      "constant": false,
      "inputs": [],
      "name": "airlineFund",
      "outputs": [],
      "payable": true,
      "stateMutability": "payable",
      "type": "function"
    },
    {
      "constant": false,
      "inputs": [
        {
          "name": "_code",
          "type": "string"
        },
        {
          "name": "_timestamp",
          "type": "uint256"
        }
      ],
      "name": "registerFlight",
      "outputs": [],
      "payable": false,
      "stateMutability": "nonpayable",
      "type": "function"
    },
    {
      "constant": false,
      "inputs": [
        {
          "name": "_flightKey",
          "type": "bytes32"
        },
        {
          "name": "_airline",
          "type": "address"
        }
      ],
      "name": "passenagerBuyInsurance",
      "outputs": [],
      "payable": true,
      "stateMutability": "payable",
      "type": "function"
    },
    {
      "constant": false,
      "inputs": [
        {
          "name": "_insuranceKey",
          "type": "bytes32"
        }
      ],
      "name": "creditInsurance",
      "outputs": [],
      "payable": false,
      "stateMutability": "nonpayable",
      "type": "function"
    },
    {
      "constant": false,
      "inputs": [
        {
          "name": "_flightKey",
          "type": "bytes32"
        }
      ],
      "name": "creditAllInsurances",
      "outputs": [],
      "payable": false,
      "stateMutability": "nonpayable",
      "type": "function"
    },
    {
      "constant": false,
      "inputs": [],
      "name": "passenagerWithdrawCredits",
      "outputs": [],
      "payable": true,
      "stateMutability": "payable",
      "type": "function"
    },
    {
      "constant": false,
      "inputs": [
        {
          "name": "flightKey",
          "type": "bytes32"
        }
      ],
      "name": "proceedFlightNoCreditCase",
      "outputs": [],
      "payable": false,
      "stateMutability": "nonpayable",
      "type": "function"
    },
    {
      "constant": true,
      "inputs": [
        {
          "name": "randomIndex",
          "type": "uint8"
        },
        {
          "name": "airline",
          "type": "address"
        },
        {
          "name": "flight",
          "type": "string"
        },
        {
          "name": "flightTimestamp",
          "type": "uint256"
        },
        {
          "name": "fetchTimestamp",
          "type": "uint256"
        }
      ],
      "name": "generateResponseKey",
      "outputs": [
        {
          "name": "",
          "type": "bytes32"
        }
      ],
      "payable": false,
      "stateMutability": "pure",
      "type": "function"
    },
    {
      "constant": false,
      "inputs": [
        {
          "name": "airline",
          "type": "address"
        },
        {
          "name": "flightCode",
          "type": "string"
        },
        {
          "name": "flightTimestamp",
          "type": "uint256"
        },
        {
          "name": "fetchTimestamp",
          "type": "uint256"
        }
      ],
      "name": "fetchFlightStatus",
      "outputs": [],
      "payable": false,
      "stateMutability": "nonpayable",
      "type": "function"
    },
    {
      "constant": true,
      "inputs": [
        {
          "name": "index",
          "type": "uint8"
        },
        {
          "name": "requester",
          "type": "address"
        }
      ],
      "name": "checkAllIndexes",
      "outputs": [
        {
          "name": "",
          "type": "bool"
        }
      ],
      "payable": false,
      "stateMutability": "view",
      "type": "function"
    },
    {
      "constant": false,
      "inputs": [
        {
          "name": "fetchIndex",
          "type": "uint8"
        },
        {
          "name": "airline",
          "type": "address"
        },
        {
          "name": "flight",
          "type": "string"
        },
        {
          "name": "flightTimestamp",
          "type": "uint256"
        },
        {
          "name": "fetchTimestamp",
          "type": "uint256"
        },
        {
          "name": "statusCode",
          "type": "uint8"
        }
      ],
      "name": "submitOracleResponse",
      "outputs": [],
      "payable": false,
      "stateMutability": "nonpayable",
      "type": "function"
    },
    {
      "constant": false,
      "inputs": [
        {
          "name": "flight",
          "type": "string"
        },
        {
          "name": "timestamp",
          "type": "uint256"
        },
        {
          "name": "statusCode",
          "type": "uint8"
        }
      ],
      "name": "processFlightStatus",
      "outputs": [],
      "payable": false,
      "stateMutability": "nonpayable",
      "type": "function"
    },
    {
      "constant": true,
      "inputs": [],
      "name": "queryContractBalance",
      "outputs": [
        {
          "name": "",
          "type": "uint256"
        }
      ],
      "payable": false,
      "stateMutability": "view",
      "type": "function"
    },
    {
      "constant": false,
      "inputs": [
        {
          "name": "flightKey",
          "type": "bytes32"
        }
      ],
      "name": "setFlightOnTime",
      "outputs": [],
      "payable": false,
      "stateMutability": "nonpayable",
      "type": "function"
    },
    {
      "constant": false,
      "inputs": [
        {
          "name": "flightKey",
          "type": "bytes32"
        }
      ],
      "name": "setFlightLateAirline",
      "outputs": [],
      "payable": false,
      "stateMutability": "nonpayable",
      "type": "function"
    },
    {
      "constant": false,
      "inputs": [
        {
          "name": "flightKey",
          "type": "bytes32"
        }
      ],
      "name": "setFlightLateNotAirline",
      "outputs": [],
      "payable": false,
      "stateMutability": "nonpayable",
      "type": "function"
    }
  ],
  "bytecode": "0x608060405260008060006101000a81548160ff021916908360ff1602179055506001600560146101000a81548160ff02191690831515021790555034801561004657600080fd5b50604051604080613c448339810180604052604081101561006657600080fd5b81019080805190602001909291908051906020019092919050505033600560006101000a81548173ffffffffffffffffffffffffffffffffffffffff021916908373ffffffffffffffffffffffffffffffffffffffff16021790555081600660006101000a81548173ffffffffffffffffffffffffffffffffffffffff021916908373ffffffffffffffffffffffffffffffffffffffff16021790555080600760006101000a81548173ffffffffffffffffffffffffffffffffffffffff021916908373ffffffffffffffffffffffffffffffffffffffff16021790555033600860006101000a81548173ffffffffffffffffffffffffffffffffffffffff021916908373ffffffffffffffffffffffffffffffffffffffff1602179055505050613aae806101966000396000f3fe6080604052600436106101cd5760003560e01c8063893d20e8116100f7578063cc75f25d11610095578063cecf6b6c11610064578063cecf6b6c14610ce0578063ee06ce2b14610dbb578063ef488b9314610df6578063f2c6d0b214610e31576101cd565b8063cc75f25d14610b95578063cca8427f14610be8578063cce7127b14610c3b578063cd905dff14610cb1576101cd565b8063a4595b48116100d1578063a4595b481461092e578063bead056a14610a2a578063c17c3b2814610a7b578063c77eb5a214610b5a576101cd565b8063893d20e81461081d57806394a577ba146108745780639b7cb28f146108c2576101cd565b806339cfc9951161016f57806364b4f7511161013e57806364b4f7511461074157806365a6bb291461076c57806375e0e52c146107d85780637bcfd88414610813576101cd565b806339cfc995146105d757806345e2748d146106a95780635f1cc0e6146106e45780635f746a8514610737576101cd565b806325205210116101ab5780632520521014610357578063339d25901461041f578063382fee6d1461042957806338692aef146104c1576101cd565b806301465590146101d2578063110466ed146101fd5780632302f56a1461023a575b600080fd5b3480156101de57600080fd5b506101e7610e6c565b6040518082815260200191505060405180910390f35b34801561020957600080fd5b506102386004803603602081101561022057600080fd5b81019080803515159060200190929190505050610e8b565b005b34801561024657600080fd5b50610341600480360360a081101561025d57600080fd5b81019080803560ff169060200190929190803573ffffffffffffffffffffffffffffffffffffffff169060200190929190803590602001906401000000008111156102a757600080fd5b8201836020820111156102b957600080fd5b803590602001918460018302840111640100000000831117156102db57600080fd5b91908080601f016020809104026020016040519081016040528093929190818152602001838380828437600081840152601f19601f8201169050808301925050505050505091929192908035906020019092919080359060200190929190505050610f6b565b6040518082815260200191505060405180910390f35b34801561036357600080fd5b5061041d6004803603602081101561037a57600080fd5b810190808035906020019064010000000081111561039757600080fd5b8201836020820111156103a957600080fd5b803590602001918460018302840111640100000000831117156103cb57600080fd5b91908080601f016020809104026020016040519081016040528093929190818152602001838380828437600081840152601f19601f820116905080830192505050505050509192919290505050611042565b005b61042761116b565b005b34801561043557600080fd5b506104786004803603602081101561044c57600080fd5b81019080803573ffffffffffffffffffffffffffffffffffffffff16906020019092919050505061138a565b604051808315151515815260200182600360200280838360005b838110156104ad578082015181840152602081019050610492565b505050509050019250505060405180910390f35b3480156104cd57600080fd5b506105d5600480360360c08110156104e457600080fd5b81019080803560ff169060200190929190803573ffffffffffffffffffffffffffffffffffffffff1690602001909291908035906020019064010000000081111561052e57600080fd5b82018360208201111561054057600080fd5b8035906020019184600183028401116401000000008311171561056257600080fd5b91908080601f016020809104026020016040519081016040528093929190818152602001838380828437600081840152601f19601f8201169050808301925050505050505091929192908035906020019092919080359060200190929190803560ff169060200190929190505050611491565b005b3480156105e357600080fd5b506106a7600480360360408110156105fa57600080fd5b810190808035906020019064010000000081111561061757600080fd5b82018360208201111561062957600080fd5b8035906020019184600183028401116401000000008311171561064b57600080fd5b91908080601f016020809104026020016040519081016040528093929190818152602001838380828437600081840152601f19601f820116905080830192505050505050509192919290803590602001909291905050506118a1565b005b3480156106b557600080fd5b506106e2600480360360208110156106cc57600080fd5b81019080803590602001909291905050506119d3565b005b3480156106f057600080fd5b506106f9611a63565b6040518082600360200280838360005b83811015610724578082015181840152602081019050610709565b5050505090500191505060405180910390f35b61073f611bd6565b005b34801561074d57600080fd5b50610756611c99565b6040518082815260200191505060405180910390f35b34801561077857600080fd5b50610781611ca5565b6040518080602001828103825283818151815260200191508051906020019060200280838360005b838110156107c45780820151818401526020810190506107a9565b505050509050019250505060405180910390f35b3480156107e457600080fd5b50610811600480360360208110156107fb57600080fd5b8101908080359060200190929190505050611d33565b005b61081b611e7a565b005b34801561082957600080fd5b50610832612127565b604051808273ffffffffffffffffffffffffffffffffffffffff1673ffffffffffffffffffffffffffffffffffffffff16815260200191505060405180910390f35b6108c06004803603604081101561088a57600080fd5b8101908080359060200190929190803573ffffffffffffffffffffffffffffffffffffffff169060200190929190505050612151565b005b3480156108ce57600080fd5b506108d76124bd565b6040518080602001828103825283818151815260200191508051906020019060200280838360005b8381101561091a5780820151818401526020810190506108ff565b505050509050019250505060405180910390f35b34801561093a57600080fd5b50610a286004803603608081101561095157600080fd5b81019080803573ffffffffffffffffffffffffffffffffffffffff1690602001909291908035906020019064010000000081111561098e57600080fd5b8201836020820111156109a057600080fd5b803590602001918460018302840111640100000000831117156109c257600080fd5b91908080601f016020809104026020016040519081016040528093929190818152602001838380828437600081840152601f19601f8201169050808301925050505050505091929192908035906020019092919080359060200190929190505050612515565b005b348015610a3657600080fd5b50610a7960048036036020811015610a4d57600080fd5b81019080803573ffffffffffffffffffffffffffffffffffffffff1690602001909291905050506126bc565b005b348015610a8757600080fd5b50610b5860048036036060811015610a9e57600080fd5b8101908080359060200190640100000000811115610abb57600080fd5b820183602082011115610acd57600080fd5b80359060200191846001830284011164010000000083111715610aef57600080fd5b91908080601f016020809104026020016040519081016040528093929190818152602001838380828437600081840152601f19601f82011690508083019250505050505050919291929080359060200190929190803560ff1690602001909291905050506127ac565b005b348015610b6657600080fd5b50610b9360048036036020811015610b7d57600080fd5b8101908080359060200190929190505050612996565b005b348015610ba157600080fd5b50610bce60048036036020811015610bb857600080fd5b8101908080359060200190929190505050612a26565b604051808215151515815260200191505060405180910390f35b348015610bf457600080fd5b50610c2160048036036020811015610c0b57600080fd5b8101908080359060200190929190505050612a53565b604051808215151515815260200191505060405180910390f35b348015610c4757600080fd5b50610c9760048036036040811015610c5e57600080fd5b81019080803560ff169060200190929190803573ffffffffffffffffffffffffffffffffffffffff169060200190929190505050612a80565b604051808215151515815260200191505060405180910390f35b348015610cbd57600080fd5b50610cc6612bdc565b604051808215151515815260200191505060405180910390f35b348015610cec57600080fd5b50610d1960048036036020811015610d0357600080fd5b8101908080359060200190929190505050612bf3565b604051808573ffffffffffffffffffffffffffffffffffffffff1673ffffffffffffffffffffffffffffffffffffffff16815260200184151515158152602001806020018360ff1660ff168152602001828103825284818151815260200191508051906020019060200280838360005b83811015610da4578082015181840152602081019050610d89565b505050509050019550505050505060405180910390f35b348015610dc757600080fd5b50610df460048036036020811015610dde57600080fd5b8101908080359060200190929190505050612d23565b005b348015610e0257600080fd5b50610e2f60048036036020811015610e1957600080fd5b81019080803590602001909291905050506130b7565b005b348015610e3d57600080fd5b50610e6a60048036036020811015610e5457600080fd5b8101908080359060200190929190505050613282565b005b60003073ffffffffffffffffffffffffffffffffffffffff1631905090565b600560009054906101000a900473ffffffffffffffffffffffffffffffffffffffff1673ffffffffffffffffffffffffffffffffffffffff163373ffffffffffffffffffffffffffffffffffffffff1614610f4e576040517f08c379a000000000000000000000000000000000000000000000000000000000815260040180806020018281038252601c8152602001807f43616c6c6572206973206e6f7420636f6e7472616374206f776e65720000000081525060200191505060405180910390fd5b80600560146101000a81548160ff02191690831515021790555050565b60008585858585604051602001808660ff1660ff1660f81b81526001018573ffffffffffffffffffffffffffffffffffffffff1673ffffffffffffffffffffffffffffffffffffffff1660601b815260140184805190602001908083835b60208310610fec5780518252602082019150602081019050602083039250610fc9565b6001836020036101000a0380198251168184511680821785525050505050509050018381526020018281526020019550505050505060405160208183030381529060405280519060200120905095945050505050565b600660009054906101000a900473ffffffffffffffffffffffffffffffffffffffff1673ffffffffffffffffffffffffffffffffffffffff16630e2c412982336040518363ffffffff1660e01b815260040180806020018373ffffffffffffffffffffffffffffffffffffffff1673ffffffffffffffffffffffffffffffffffffffff168152602001828103825284818151815260200191508051906020019080838360005b838110156111035780820151818401526020810190506110e8565b50505050905090810190601f1680156111305780820380516001836020036101000a031916815260200191505b509350505050600060405180830381600087803b15801561115057600080fd5b505af1158015611164573d6000803e3d6000fd5b5050505050565b670de0b6b3a76400003410156111e9576040517f08c379a000000000000000000000000000000000000000000000000000000000815260040180806020018281038252601c8152602001807f526567697374726174696f6e206665652069732072657175697265640000000081525060200191505060405180910390fd5b6111f16137e0565b6111fa33613312565b9050604051806040016040528060011515815260200182815250600160003373ffffffffffffffffffffffffffffffffffffffff1673ffffffffffffffffffffffffffffffffffffffff16815260200190815260200160002060008201518160000160006101000a81548160ff02191690831515021790555060208201518160010190600361128a929190613802565b5090505060023390806001815401808255809150509060018203906000526020600020016000909192909190916101000a81548173ffffffffffffffffffffffffffffffffffffffff021916908373ffffffffffffffffffffffffffffffffffffffff160217905550507f2598defb89a76b880830bc3f19a1b6a55144ea08dfec47089a7ae1dc0611a4523382604051808373ffffffffffffffffffffffffffffffffffffffff1673ffffffffffffffffffffffffffffffffffffffff16815260200182600360200280838360005b83811015611374578082015181840152602081019050611359565b505050509050019250505060405180910390a150565b60006113946137e0565b600160008473ffffffffffffffffffffffffffffffffffffffff1673ffffffffffffffffffffffffffffffffffffffff16815260200190815260200160002060000160009054906101000a900460ff169150600160008473ffffffffffffffffffffffffffffffffffffffff1673ffffffffffffffffffffffffffffffffffffffff168152602001908152602001600020600101600380602002604051908101604052809291908260038015611485576020028201916000905b82829054906101000a900460ff1660ff168152602001906001019060208260000104928301926001038202915080841161144e5790505b50505050509050915091565b611499612bdc565b6114ee576040517f08c379a0000000000000000000000000000000000000000000000000000000008152600401808060200182810382526025815260200180613a076025913960400191505060405180910390fd5b85336114fa8282612a80565b61154f576040517f08c379a0000000000000000000000000000000000000000000000000000000008152600401808060200182810382526023815260200180613a606023913960400191505060405180910390fd5b600061155e8989898989610f6b565b90506003600082815260200190815260200160002060040160009054906101000a900460ff166115d9576040517f08c379a0000000000000000000000000000000000000000000000000000000008152600401808060200182810382526034815260200180613a2c6034913960400191505060405180910390fd5b6003600082815260200190815260200160002060010160008560ff1660ff1681526020019081526020016000203390806001815401808255809150509060018203906000526020600020016000909192909190916101000a81548173ffffffffffffffffffffffffffffffffffffffff021916908373ffffffffffffffffffffffffffffffffffffffff160217905550507f43c853095c2752648493c88b4baac4d580d2594ffb00c6f1d4242d844514f78388888887604051808573ffffffffffffffffffffffffffffffffffffffff1673ffffffffffffffffffffffffffffffffffffffff168152602001806020018481526020018360ff1660ff168152602001828103825285818151815260200191508051906020019080838360005b838110156117135780820151818401526020810190506116f8565b50505050905090810190601f1680156117405780820380516001836020036101000a031916815260200191505b509550505050505060405180910390a1600380600083815260200190815260200160002060010160008660ff1660ff1681526020019081526020016000208054905010158015611795575061179481612a53565b5b15611896576117a4818561349e565b7fe23f5229de535c091e3b7bec2665f5d698192d3b31393066e8987b7a05076b6c88888887604051808573ffffffffffffffffffffffffffffffffffffffff1673ffffffffffffffffffffffffffffffffffffffff168152602001806020018481526020018360ff1660ff168152602001828103825285818151815260200191508051906020019080838360005b8381101561184d578082015181840152602081019050611832565b50505050905090810190601f16801561187a5780820380516001836020036101000a031916815260200191505b509550505050505060405180910390a16118958787866127ac565b5b505050505050505050565b600660009054906101000a900473ffffffffffffffffffffffffffffffffffffffff1673ffffffffffffffffffffffffffffffffffffffff166365c152f78383336040518463ffffffff1660e01b815260040180806020018481526020018373ffffffffffffffffffffffffffffffffffffffff1673ffffffffffffffffffffffffffffffffffffffff168152602001828103825285818151815260200191508051906020019080838360005b8381101561196957808201518184015260208101905061194e565b50505050905090810190601f1680156119965780820380516001836020036101000a031916815260200191505b50945050505050600060405180830381600087803b1580156119b757600080fd5b505af11580156119cb573d6000803e3d6000fd5b505050505050565b600660009054906101000a900473ffffffffffffffffffffffffffffffffffffffff1673ffffffffffffffffffffffffffffffffffffffff166345e2748d826040518263ffffffff1660e01b815260040180828152602001915050600060405180830381600087803b158015611a4857600080fd5b505af1158015611a5c573d6000803e3d6000fd5b5050505050565b611a6b6137e0565b600160003373ffffffffffffffffffffffffffffffffffffffff1673ffffffffffffffffffffffffffffffffffffffff16815260200190815260200160002060000160009054906101000a900460ff16611b2d576040517f08c379a000000000000000000000000000000000000000000000000000000000815260040180806020018281038252601b8152602001807f4e6f74207265676973746572656420617320616e206f7261636c65000000000081525060200191505060405180910390fd5b600160003373ffffffffffffffffffffffffffffffffffffffff1673ffffffffffffffffffffffffffffffffffffffff168152602001908152602001600020600101600380602002604051908101604052809291908260038015611bcc576020028201916000905b82829054906101000a900460ff1660ff1681526020019060010190602082600001049283019260010382029150808411611b955790505b5050505050905090565b600660009054906101000a900473ffffffffffffffffffffffffffffffffffffffff1673ffffffffffffffffffffffffffffffffffffffff1663d512c06133346040518363ffffffff1660e01b8152600401808373ffffffffffffffffffffffffffffffffffffffff1673ffffffffffffffffffffffffffffffffffffffff16815260200182815260200192505050600060405180830381600087803b158015611c7f57600080fd5b505af1158015611c93573d6000803e3d6000fd5b50505050565b670de0b6b3a764000081565b60606002805480602002602001604051908101604052809291908181526020018280548015611d2957602002820191906000526020600020905b8160009054906101000a900473ffffffffffffffffffffffffffffffffffffffff1673ffffffffffffffffffffffffffffffffffffffff1681526020019060010190808311611cdf575b5050505050905090565b6060600660009054906101000a900473ffffffffffffffffffffffffffffffffffffffff1673ffffffffffffffffffffffffffffffffffffffff1663b3e70c31836040518263ffffffff1660e01b815260040180828152602001915050600060405180830381600087803b158015611daa57600080fd5b505af1158015611dbe573d6000803e3d6000fd5b505050506040513d6000823e3d601f19601f820116820180604052506020811015611de857600080fd5b810190808051640100000000811115611e0057600080fd5b82810190506020810184811115611e1657600080fd5b8151856020820283011164010000000082111715611e3357600080fd5b5050929190505050905060008090505b8151811015611e7557611e68828281518110611e5b57fe5b6020026020010151612d23565b8080600101915050611e43565b505050565b6000600760009054906101000a900473ffffffffffffffffffffffffffffffffffffffff1673ffffffffffffffffffffffffffffffffffffffff16633d43020b336040518263ffffffff1660e01b8152600401808273ffffffffffffffffffffffffffffffffffffffff1673ffffffffffffffffffffffffffffffffffffffff168152602001915050602060405180830381600087803b158015611f1d57600080fd5b505af1158015611f31573d6000803e3d6000fd5b505050506040513d6020811015611f4757600080fd5b8101908080519060200190929190505050905080611f63610e6c565b11611fb9576040517f08c379a00000000000000000000000000000000000000000000000000000000081526004018080602001828103825260218152602001806139e66021913960400191505060405180910390fd5b600760009054906101000a900473ffffffffffffffffffffffffffffffffffffffff1673ffffffffffffffffffffffffffffffffffffffff16630d829250336040518263ffffffff1660e01b8152600401808273ffffffffffffffffffffffffffffffffffffffff1673ffffffffffffffffffffffffffffffffffffffff168152602001915050600060405180830381600087803b15801561205a57600080fd5b505af115801561206e573d6000803e3d6000fd5b505050503373ffffffffffffffffffffffffffffffffffffffff166108fc829081150290604051600060405180830381858888f193505050501580156120b8573d6000803e3d6000fd5b507fc9e6f3f8fb37ac201925cd75e0db3ed75fc3e0741fdebcce5df22a1e82e1e9673382604051808373ffffffffffffffffffffffffffffffffffffffff1673ffffffffffffffffffffffffffffffffffffffff1681526020018281526020019250505060405180910390a150565b6000600560009054906101000a900473ffffffffffffffffffffffffffffffffffffffff16905090565b600660009054906101000a900473ffffffffffffffffffffffffffffffffffffffff1673ffffffffffffffffffffffffffffffffffffffff166319dd27b5338484346040518563ffffffff1660e01b8152600401808573ffffffffffffffffffffffffffffffffffffffff1673ffffffffffffffffffffffffffffffffffffffff1681526020018481526020018373ffffffffffffffffffffffffffffffffffffffff1673ffffffffffffffffffffffffffffffffffffffff168152602001828152602001945050505050600060405180830381600087803b15801561223657600080fd5b505af115801561224a573d6000803e3d6000fd5b50505050600760009054906101000a900473ffffffffffffffffffffffffffffffffffffffff1673ffffffffffffffffffffffffffffffffffffffff1663ad90a0c033846040518363ffffffff1660e01b8152600401808373ffffffffffffffffffffffffffffffffffffffff1673ffffffffffffffffffffffffffffffffffffffff16815260200182815260200192505050600060405180830381600087803b1580156122f757600080fd5b505af115801561230b573d6000803e3d6000fd5b505050506000600660009054906101000a900473ffffffffffffffffffffffffffffffffffffffff1673ffffffffffffffffffffffffffffffffffffffff166355f2bb2433856040518363ffffffff1660e01b8152600401808373ffffffffffffffffffffffffffffffffffffffff1673ffffffffffffffffffffffffffffffffffffffff16815260200182815260200192505050602060405180830381600087803b1580156123ba57600080fd5b505af11580156123ce573d6000803e3d6000fd5b505050506040513d60208110156123e457600080fd5b81019080805190602001909291905050509050600760009054906101000a900473ffffffffffffffffffffffffffffffffffffffff1673ffffffffffffffffffffffffffffffffffffffff16638836a31833836040518363ffffffff1660e01b8152600401808373ffffffffffffffffffffffffffffffffffffffff1673ffffffffffffffffffffffffffffffffffffffff16815260200182815260200192505050600060405180830381600087803b1580156124a057600080fd5b505af11580156124b4573d6000803e3d6000fd5b50505050505050565b6060600480548060200260200160405190810160405280929190818152602001828054801561250b57602002820191906000526020600020905b8154815260200190600101908083116124f7575b5050505050905090565b61251d612bdc565b612572576040517f08c379a0000000000000000000000000000000000000000000000000000000008152600401808060200182810382526025815260200180613a076025913960400191505060405180910390fd5b600061257d33613534565b9050600061258e8287878787610f6b565b905060048190806001815401808255809150509060018203906000526020600020016000909192909190915055506125c68133613621565b7f4102fce89e47e45007f3bc619c7bf7c6046884c39aa682ab0d0b4fcfbf13985b8287878787604051808660ff1660ff1681526020018573ffffffffffffffffffffffffffffffffffffffff1673ffffffffffffffffffffffffffffffffffffffff16815260200180602001848152602001838152602001828103825285818151815260200191508051906020019080838360005b8381101561267657808201518184015260208101905061265b565b50505050905090810190601f1680156126a35780820380516001836020036101000a031916815260200191505b50965050505050505060405180910390a1505050505050565b600660009054906101000a900473ffffffffffffffffffffffffffffffffffffffff1673ffffffffffffffffffffffffffffffffffffffff16631afa74e582336040518363ffffffff1660e01b8152600401808373ffffffffffffffffffffffffffffffffffffffff1673ffffffffffffffffffffffffffffffffffffffff1681526020018273ffffffffffffffffffffffffffffffffffffffff1673ffffffffffffffffffffffffffffffffffffffff16815260200192505050600060405180830381600087803b15801561279157600080fd5b505af11580156127a5573d6000803e3d6000fd5b5050505050565b6127b4612bdc565b612809576040517f08c379a0000000000000000000000000000000000000000000000000000000008152600401808060200182810382526025815260200180613a076025913960400191505060405180910390fd5b6000600660009054906101000a900473ffffffffffffffffffffffffffffffffffffffff1673ffffffffffffffffffffffffffffffffffffffff1663637a66df85856040518363ffffffff1660e01b81526004018080602001838152602001828103825284818151815260200191508051906020019080838360005b838110156128a0578082015181840152602081019050612885565b50505050905090810190601f1680156128cd5780820380516001836020036101000a031916815260200191505b509350505050602060405180830381600087803b1580156128ed57600080fd5b505af1158015612901573d6000803e3d6000fd5b505050506040513d602081101561291757600080fd5b81019080805190602001909291905050509050600060ff168260ff161461299057601460ff168260ff16141561295e57612950816119d3565b61295981611d33565b61298f565b612967816130b7565b600a60ff168260ff1614156129845761297f81613282565b61298e565b61298d81612996565b5b5b5b50505050565b600660009054906101000a900473ffffffffffffffffffffffffffffffffffffffff1673ffffffffffffffffffffffffffffffffffffffff1663c77eb5a2826040518263ffffffff1660e01b815260040180828152602001915050600060405180830381600087803b158015612a0b57600080fd5b505af1158015612a1f573d6000803e3d6000fd5b5050505050565b60006003600083815260200190815260200160002060040160009054906101000a900460ff169050919050565b60006003600083815260200190815260200160002060000160149054906101000a900460ff169050919050565b60008260ff16600160008473ffffffffffffffffffffffffffffffffffffffff1673ffffffffffffffffffffffffffffffffffffffff168152602001908152602001600020600101600060038110612ad457fe5b602091828204019190069054906101000a900460ff1660ff161480612b6157508260ff16600160008473ffffffffffffffffffffffffffffffffffffffff1673ffffffffffffffffffffffffffffffffffffffff168152602001908152602001600020600101600160038110612b4657fe5b602091828204019190069054906101000a900460ff1660ff16145b80612bd457508260ff16600160008473ffffffffffffffffffffffffffffffffffffffff1673ffffffffffffffffffffffffffffffffffffffff168152602001908152602001600020600101600260038110612bb957fe5b602091828204019190069054906101000a900460ff1660ff16145b905092915050565b6000600560149054906101000a900460ff16905090565b600080606060006003600086815260200190815260200160002060000160009054906101000a900473ffffffffffffffffffffffffffffffffffffffff1693506003600086815260200190815260200160002060000160149054906101000a900460ff16925060036000868152602001908152602001600020600301805480602002602001604051908101604052809291908181526020018280548015612cef57602002820191906000526020600020905b8160009054906101000a900473ffffffffffffffffffffffffffffffffffffffff1673ffffffffffffffffffffffffffffffffffffffff1681526020019060010190808311612ca5575b505050505091506003600086815260200190815260200160002060040160019054906101000a900460ff1690509193509193565b6000600660009054906101000a900473ffffffffffffffffffffffffffffffffffffffff1673ffffffffffffffffffffffffffffffffffffffff166389199e37836040518263ffffffff1660e01b815260040180828152602001915050602060405180830381600087803b158015612d9a57600080fd5b505af1158015612dae573d6000803e3d6000fd5b505050506040513d6020811015612dc457600080fd5b81019080805190602001909291905050509050600660009054906101000a900473ffffffffffffffffffffffffffffffffffffffff1673ffffffffffffffffffffffffffffffffffffffff1663ee06ce2b836040518263ffffffff1660e01b815260040180828152602001915050602060405180830381600087803b158015612e4c57600080fd5b505af1158015612e60573d6000803e3d6000fd5b505050506040513d6020811015612e7657600080fd5b8101908080519060200190929190505050506000600660009054906101000a900473ffffffffffffffffffffffffffffffffffffffff1673ffffffffffffffffffffffffffffffffffffffff1663f8813dfb846040518263ffffffff1660e01b815260040180828152602001915050602060405180830381600087803b158015612eff57600080fd5b505af1158015612f13573d6000803e3d6000fd5b505050506040513d6020811015612f2957600080fd5b810190808051906020019092919050505090506000600660009054906101000a900473ffffffffffffffffffffffffffffffffffffffff1673ffffffffffffffffffffffffffffffffffffffff16634652cb90836040518263ffffffff1660e01b815260040180828152602001915050602060405180830381600087803b158015612fb357600080fd5b505af1158015612fc7573d6000803e3d6000fd5b505050506040513d6020811015612fdd57600080fd5b81019080805190602001909291905050509050600760009054906101000a900473ffffffffffffffffffffffffffffffffffffffff1673ffffffffffffffffffffffffffffffffffffffff1663b7c6342f84836040518363ffffffff1660e01b8152600401808373ffffffffffffffffffffffffffffffffffffffff1673ffffffffffffffffffffffffffffffffffffffff16815260200182815260200192505050600060405180830381600087803b15801561309957600080fd5b505af11580156130ad573d6000803e3d6000fd5b5050505050505050565b6060600660009054906101000a900473ffffffffffffffffffffffffffffffffffffffff1673ffffffffffffffffffffffffffffffffffffffff1663b3e70c31836040518263ffffffff1660e01b815260040180828152602001915050600060405180830381600087803b15801561312e57600080fd5b505af1158015613142573d6000803e3d6000fd5b505050506040513d6000823e3d601f19601f82011682018060405250602081101561316c57600080fd5b81019080805164010000000081111561318457600080fd5b8281019050602081018481111561319a57600080fd5b81518560208202830111640100000000821117156131b757600080fd5b5050929190505050905060008090505b815181101561327d57600660009054906101000a900473ffffffffffffffffffffffffffffffffffffffff1673ffffffffffffffffffffffffffffffffffffffff16639348916f83838151811061321a57fe5b60200260200101516040518263ffffffff1660e01b815260040180828152602001915050600060405180830381600087803b15801561325857600080fd5b505af115801561326c573d6000803e3d6000fd5b5050505080806001019150506131c7565b505050565b600660009054906101000a900473ffffffffffffffffffffffffffffffffffffffff1673ffffffffffffffffffffffffffffffffffffffff1663f2c6d0b2826040518263ffffffff1660e01b815260040180828152602001915050600060405180830381600087803b1580156132f757600080fd5b505af115801561330b573d6000803e3d6000fd5b5050505050565b61331a6137e0565b6133226137e0565b61332b83613534565b8160006003811061333857fe5b602002019060ff16908160ff16815250508060006003811061335657fe5b60200201518160016003811061336857fe5b602002019060ff16908160ff16815250505b8060006003811061338757fe5b602002015160ff168160016003811061339c57fe5b602002015160ff1614156133d6576133b383613534565b816001600381106133c057fe5b602002019060ff16908160ff168152505061337a565b806001600381106133e357fe5b6020020151816002600381106133f557fe5b602002019060ff16908160ff16815250505b8060006003811061341457fe5b602002015160ff168160026003811061342957fe5b602002015160ff16148061346457508060016003811061344557fe5b602002015160ff168160026003811061345a57fe5b602002015160ff16145b156134955761347283613534565b8160026003811061347f57fe5b602002019060ff16908160ff1681525050613407565b80915050919050565b60016003600084815260200190815260200160002060000160146101000a81548160ff0219169083151502179055156135305760006003600084815260200190815260200160002060000160146101000a81548160ff021916908315150217905550806003600084815260200190815260200160002060040160016101000a81548160ff021916908360ff1602179055505b5050565b600080600a905060008160ff1660008081819054906101000a900460ff168092919060010191906101000a81548160ff021916908360ff16021790555060ff1643034085604051602001808381526020018273ffffffffffffffffffffffffffffffffffffffff1673ffffffffffffffffffffffffffffffffffffffff1660601b8152601401925050506040516020818303038152906040528051906020012060001c816135de57fe5b06905060fa6000809054906101000a900460ff1660ff1611156136175760008060006101000a81548160ff021916908360ff1602179055505b8092505050919050565b61362a82612a26565b1561369d576040517f08c379a000000000000000000000000000000000000000000000000000000000815260040180806020018281038252601b8152602001807f526573706f6e7365496e666f2063726561746564206265666f7265000000000081525060200191505060405180910390fd5b6136a561389c565b81816000019073ffffffffffffffffffffffffffffffffffffffff16908173ffffffffffffffffffffffffffffffffffffffff168152505060018160200190151590811515815250506001816060019015159081151581525050806003600085815260200190815260200160002060008201518160000160006101000a81548173ffffffffffffffffffffffffffffffffffffffff021916908373ffffffffffffffffffffffffffffffffffffffff16021790555060208201518160000160146101000a81548160ff02191690831515021790555060408201518160030190805190602001906137969291906138e8565b5060608201518160040160006101000a81548160ff02191690831515021790555060808201518160040160016101000a81548160ff021916908360ff160217905550905050505050565b6040518060600160405280600390602082028038833980820191505090505090565b826003601f0160209004810192821561388b5791602002820160005b8382111561385c57835183826101000a81548160ff021916908360ff160217905550926020019260010160208160000104928301926001030261381e565b80156138895782816101000a81549060ff021916905560010160208160000104928301926001030261385c565b505b5090506138989190613972565b5090565b6040518060a00160405280600073ffffffffffffffffffffffffffffffffffffffff16815260200160001515815260200160608152602001600015158152602001600060ff1681525090565b828054828255906000526020600020908101928215613961579160200282015b828111156139605782518260006101000a81548173ffffffffffffffffffffffffffffffffffffffff021916908373ffffffffffffffffffffffffffffffffffffffff16021790555091602001919060010190613908565b5b50905061396e91906139a2565b5090565b61399f91905b8082111561399b57600081816101000a81549060ff021916905550600101613978565b5090565b90565b6139e291905b808211156139de57600081816101000a81549073ffffffffffffffffffffffffffffffffffffffff0219169055506001016139a8565b5090565b9056fe4170706c69636174696f6e2773206574686572206973206e6f7420656e6f756768436f6e74726163742069732063757272656e746c79206e6f74206f7065726174696f6e616c47656e65726174656420726573706f6e7365206b657920646f6573206e6f74206d61746368206f7261636c652072657175657374496e64657820646f6573206e6f74206d61746368206f7261636c652072657175657374a165627a7a72305820cec6132cb8d7d4f787437c0645faddec92bc8cdec9227cdeb6bca47e167286ca0029",
  "source": "pragma solidity ^0.5.8;\r\nimport \"./OracleManagement.sol\";\r\nimport \"./Operational.sol\";\r\n\r\nimport \"../node_modules/openzeppelin-solidity/contracts/math/SafeMath.sol\";\r\n\r\ncontract FlightSuretyApp is OracleManagement, Operational{\r\n    using SafeMath for uint256;\r\n    FlightSuretyDataInterface flightSuretyData;\r\n    BuyerDataInterface buyerData;\r\n    address private contractOwner;\r\n    //address private suretyDataAddress;\r\n    \r\n    uint8 private constant STATUS_CODE_UNKNOWN = 0;\r\n    uint8 private constant STATUS_CODE_ON_TIME = 10;\r\n    uint8 private constant STATUS_CODE_LATE_AIRLINE = 20;\r\n    uint8 private constant STATUS_CODE_LATE_WEATHER = 30;\r\n    uint8 private constant STATUS_CODE_LATE_TECHNICAL = 40;\r\n    uint8 private constant STATUS_CODE_LATE_OTHER = 50;\r\n\r\n    event FlightStatusInfo(address airline, string flight, uint256 timestamp, uint8 status);\r\n    event WithdrawCredits(address passenager, uint256 credits);\r\n\r\n    constructor(address dataContractAddress, address buyerContractAddress) public{\r\n        //suretyDataAddress = dataContractAddress;\r\n        flightSuretyData = FlightSuretyDataInterface(dataContractAddress);\r\n        buyerData = BuyerDataInterface(buyerContractAddress);\r\n        contractOwner = msg.sender;\r\n    }\r\n\r\n/*\r\n    function getDataAddress() public view returns(address){\r\n        return suretyDataAddress;\r\n    }\r\n*/\r\n    \r\n\r\n    function registerAirline(string memory _name) public{\r\n        flightSuretyData.registerAirline(_name, msg.sender);\r\n    }\r\n\r\n    function airlineVote(address _candidate) public{\r\n        flightSuretyData.vote(_candidate, msg.sender);\r\n    }\r\n\r\n    function airlineFund() public payable{\r\n        flightSuretyData.addFund(msg.sender, msg.value);\r\n    }\r\n\r\n    //function registerFlight(string memory _code, uint256 _timestamp) public view returns(address){\r\n    function registerFlight(string memory _code, uint256 _timestamp) public{\r\n        flightSuretyData.registerFlight(_code, _timestamp, msg.sender);\r\n        //return msg.sender;\r\n    }\r\n\r\n    /*\r\n    function generateFlightKey(string memory _code, uint256 _timestamp) public returns(bytes32){\r\n        return flightSuretyData.generateFlightKey(_code, _timestamp);\r\n    }\r\n    */\r\n\r\n    function passenagerBuyInsurance(bytes32 _flightKey, address _airline) public payable{\r\n        flightSuretyData.registerInsurance(msg.sender, _flightKey, _airline, msg.value);\r\n        buyerData.appendFlight(msg.sender, _flightKey);\r\n        bytes32 _insuranceKey = flightSuretyData.generateInsuranceKey(msg.sender, _flightKey);\r\n        buyerData.appendInsurance(msg.sender, _insuranceKey);\r\n        //registerInsurance(address _buyer, bytes32 _flightKey, uint256 _contractTimestamp, address _airline, uint256 _fee) external\r\n    }\r\n\r\n    //address _buyer, bytes32 _flightKey, uint256 _contractTimestamp\r\n    /*\r\n    function generateInsuranceKey(address _buyer, bytes32 _flightKey, uint256 _contractTimestamp) public returns(bytes32){\r\n        return flightSuretyData.generateInsuranceKey(_buyer, _flightKey, _contractTimestamp);\r\n    }\r\n    */\r\n\r\n    function creditInsurance(bytes32 _insuranceKey) public{\r\n        address _buyer = flightSuretyData.queryInsuranceBuyer(_insuranceKey);\r\n        flightSuretyData.creditInsurance(_insuranceKey);\r\n        uint256 _fee = flightSuretyData.queryInsuranceFee(_insuranceKey);\r\n        uint256 _credits = flightSuretyData.calculateCredits(_fee);\r\n        buyerData.addCreditsToBuyer(_buyer, _credits);\r\n    }\r\n\r\n    function creditAllInsurances(bytes32 _flightKey) public{\r\n        bytes32[] memory _insurancesKeys = flightSuretyData.getInsuranceKeysList(_flightKey);\r\n        for(uint256 i=0; i<_insurancesKeys.length; i++){\r\n            creditInsurance(_insurancesKeys[i]);\r\n        }\r\n    }\r\n\r\n    function passenagerWithdrawCredits() public payable{\r\n        uint256 credits = buyerData.queryBuyerCredit(msg.sender);\r\n        require(queryContractBalance()>credits, \"Application's ether is not enough\");\r\n        buyerData.deductCredits(msg.sender);\r\n        msg.sender.transfer(credits);\r\n        emit WithdrawCredits(msg.sender, credits);\r\n    }\r\n\r\n    function proceedFlightNoCreditCase(bytes32 flightKey) public{\r\n        bytes32[] memory _insurancesKeys = flightSuretyData.getInsuranceKeysList(flightKey);\r\n        for(uint256 i=0; i<_insurancesKeys.length; i++){\r\n            //flightSuretyData.setInsuranceWithdrawn(_insurancesKeys[i]);\r\n            flightSuretyData.setInsuranceExpired(_insurancesKeys[i]);\r\n        }\r\n    }\r\n\r\n    /**\r\n    * Handling oracles\r\n    */\r\n    function generateResponseKey(uint8 randomIndex, address airline, string memory flight,uint256 flightTimestamp, uint256 fetchTimestamp) public pure returns(bytes32){\r\n        return  keccak256(abi.encodePacked(randomIndex, airline, flight, flightTimestamp, fetchTimestamp));\r\n    }\r\n\r\n    function fetchFlightStatus(address airline, string memory flightCode, uint256 flightTimestamp, uint256 fetchTimestamp) \r\n    public requireIsOperational{\r\n        uint8 fetchIndex = getRandomIndex(msg.sender);\r\n        bytes32 reponseKey = generateResponseKey(fetchIndex, airline, flightCode, flightTimestamp, fetchTimestamp);\r\n        allResponseKeys.push(reponseKey);\r\n        createResponseInfo(reponseKey, msg.sender);\r\n\r\n        emit OracleRequest(fetchIndex, airline, flightCode, flightTimestamp, fetchTimestamp);\r\n    }\r\n\r\n    function checkAllIndexes(uint8 index, address requester) public view returns(bool){\r\n        return ((oracles[requester].indexes[0] == index) || (oracles[requester].indexes[1] == index) || (oracles[requester].indexes[2] == index));\r\n    }\r\n\r\n    modifier requireCorrectIndexes(uint8 index, address oracle){\r\n        require(checkAllIndexes(index, oracle), \"Index does not match oracle request\");\r\n        _;\r\n    }\r\n\r\n\r\n    // Called by oracle when a response is available to an outstanding request\r\n    // For the response to be accepted, there must be a pending request that is open\r\n    // and matches one of the three Indexes randomly assigned to the oracle at the\r\n    // time of registration (i.e. uninvited oracles are not welcome)\r\n    function submitOracleResponse(uint8 fetchIndex, address airline, string memory  flight, uint256 flightTimestamp, uint256 fetchTimestamp, uint8 statusCode) public requireIsOperational requireCorrectIndexes(fetchIndex, msg.sender){\r\n        //require(((oracles[msg.sender].indexes[0] == index) || (oracles[msg.sender].indexes[1] == index) || (oracles[msg.sender].indexes[2] == index)), \"Index does not match oracle request\");\r\n\r\n        //bytes32 key = keccak256(abi.encodePacked(index, airline, flight, timestamp)); \r\n        bytes32 key = generateResponseKey(fetchIndex, airline, flight, flightTimestamp, fetchTimestamp);\r\n        require(oracleResponses[key].isExist, \"Generated response key does not match oracle request\");\r\n\r\n        oracleResponses[key].responses[statusCode].push(msg.sender);\r\n\r\n        // Information isn't considered verified until at least MIN_RESPONSES\r\n        // oracles respond with the *** same *** information\r\n        emit OracleReport(airline, flight, flightTimestamp, statusCode);\r\n        if ((oracleResponses[key].responses[statusCode].length >= MIN_RESPONSES)&&(isResponseOpen(key))) {\r\n            setResponseClose(key, statusCode);\r\n            emit FlightStatusInfo(airline, flight, flightTimestamp, statusCode);\r\n\r\n            // Handle flight status as appropriate\r\n            processFlightStatus(flight, flightTimestamp, statusCode);\r\n        }\r\n    }\r\n\r\n    /**\r\n    * @dev Called after oracle has updated flight status\r\n    *\r\n    */  \r\n    function processFlightStatus(string memory flight, uint256 timestamp, uint8 statusCode) public requireIsOperational{\r\n        //if (statusCode == STATUS_CODE_LATE_AIRLINE) creditInsurees(flight)\r\n        bytes32 flightKey = flightSuretyData.generateFlightKey(flight, timestamp);\r\n        if (statusCode != STATUS_CODE_UNKNOWN) {\r\n            if (statusCode == STATUS_CODE_LATE_AIRLINE){\r\n                setFlightLateAirline(flightKey);\r\n                creditAllInsurances(flightKey);\r\n            } else {\r\n                proceedFlightNoCreditCase(flightKey);\r\n                if (statusCode == STATUS_CODE_ON_TIME) {\r\n                    setFlightOnTime(flightKey);\r\n                } else {\r\n                    setFlightLateNotAirline(flightKey);\r\n                }\r\n            }\r\n        }\r\n    }\r\n\r\n    function queryContractBalance() public view returns(uint256){\r\n        return address(this).balance;\r\n    }\r\n\r\n    function setFlightOnTime(bytes32 flightKey) public{\r\n        flightSuretyData.setFlightOnTime(flightKey);\r\n    }\r\n\r\n    function setFlightLateAirline(bytes32 flightKey) public{\r\n        flightSuretyData.setFlightLateAirline(flightKey);\r\n    }\r\n\r\n    function setFlightLateNotAirline(bytes32 flightKey) public{\r\n        flightSuretyData.setFlightLateNotAirline(flightKey);\r\n    }\r\n}\r\n\r\ncontract FlightSuretyDataInterface{\r\n    function registerAirline(string calldata _name, address _airline) external;\r\n    function vote(address _candidate, address _voter) external;\r\n    function couldFund(address _candidate) external returns(bool);\r\n    function addFund(address _airline, uint256 _fund) external;\r\n    function registerFlight(string calldata _code, uint256 _timestamp, address _airline) external;\r\n    function registerInsurance(address _buyer, bytes32 _flightKey, address _airline, uint256 _fee) external;\r\n    function calculateCredits(uint256 fee) external returns(uint256);\r\n    function creditInsurance(bytes32 _insuranceKey) external returns(uint256);\r\n    function deductInsurance(bytes32 _insuranceKey, address _airline) external returns(uint256);\r\n    function queryInsuranceBuyer(bytes32 _insuranceKey) external returns(address);\r\n    function queryInsuranceFee(bytes32 _insuranceKey) external returns(uint256);\r\n    function generateFlightKey(string calldata flightCode, uint256 timestamp) external returns(bytes32);\r\n    function generateInsuranceKey(address _buyer, bytes32 _flightKey) external returns(bytes32);\r\n    function getInsuranceKeysList(bytes32 flightKey) external returns(bytes32[] memory);\r\n    function setInsuranceWithdrawn(bytes32 insuranceKey) external;\r\n    function setInsuranceExpired(bytes32 insuranceKey) external;\r\n    //function queryBuyerCredit(address _buyer) external returns(uint256);\r\n    //function deductCredits(address _buyer) external;\r\n    function setFlightOnTime(bytes32 _flightID) external;\r\n    function setFlightLateAirline(bytes32 _flightID) external;\r\n    function setFlightLateNotAirline(bytes32 _flightID) external; \r\n}\r\n\r\ncontract BuyerDataInterface{\r\n    function appendInsurance(address _buyer, bytes32 _insuranceKey) external;\r\n    function appendFlight(address _buyer, bytes32 _flightKey) external;\r\n    function addCreditsToBuyer(address _buyer, uint256 _credits) external;\r\n    function deductCredits(address _buyer) external;\r\n    function queryBuyerInsuranceKeys(address _buyer) external returns(bytes32[] memory);\r\n    function queryBuyerFlightKeys(address _buyer) external returns(bytes32[] memory);\r\n    function queryBuyerCredit(address _buyer) external returns(uint256);\r\n}",
  "sourcePath": "C:/Users/andrewchan88/Documents/Coding/udacity/Blockchain/PartB/homework/project7_es_rm/contracts/FlightSuretyApp.sol",
  "compiler": {
    "name": "solc",
    "version": "0.5.8+commit.23d335f2.Emscripten.clang"
  },
  "schemaVersion": "3.0.13",
  "updatedAt": "2019-10-12T07:44:58.441Z",
  "devdoc": {
    "methods": {
      "isOperational()": {
        "details": "Modifier that requires the \"operational\" boolean variable to be \"true\"\r     This is used on all state changing functions to pause the contract in \r     the event there is an issue that needs to be fixed\r"
      },
      "processFlightStatus(string,uint256,uint8)": {
        "details": "Called after oracle has updated flight status\r     "
      }
    }
  },
  "userdoc": {
    "methods": {
      "generateResponseKey(uint8,address,string,uint256,uint256)": {
        "notice": "Handling oracles\r"
      }
    }
  }
}