{
  "contractName": "InsuranceData",
  "abi": [
    {
      "anonymous": false,
      "inputs": [
        {
          "indexed": false,
          "name": "flightKey",
          "type": "bytes32"
        },
        {
          "indexed": false,
          "name": "insuranceKey",
          "type": "bytes32"
        },
        {
          "indexed": false,
          "name": "buyer",
          "type": "address"
        },
        {
          "indexed": false,
          "name": "fee",
          "type": "uint256"
        }
      ],
      "name": "BuyInsurance",
      "type": "event"
    },
    {
      "anonymous": false,
      "inputs": [
        {
          "indexed": false,
          "name": "flightKey",
          "type": "bytes32"
        },
        {
          "indexed": false,
          "name": "insuranceKey",
          "type": "bytes32"
        },
        {
          "indexed": false,
          "name": "buyer",
          "type": "address"
        },
        {
          "indexed": false,
          "name": "credits",
          "type": "uint256"
        }
      ],
      "name": "CreditInsurance",
      "type": "event"
    },
    {
      "constant": true,
      "inputs": [
        {
          "name": "_buyer",
          "type": "address"
        },
        {
          "name": "_flightKey",
          "type": "bytes32"
        }
      ],
      "name": "generateInsuranceKey",
      "outputs": [
        {
          "name": "",
          "type": "bytes32"
        }
      ],
      "payable": false,
      "stateMutability": "pure",
      "type": "function"
    },
    {
      "constant": true,
      "inputs": [
        {
          "name": "_insuranceKey",
          "type": "bytes32"
        }
      ],
      "name": "isExist",
      "outputs": [
        {
          "name": "",
          "type": "bool"
        }
      ],
      "payable": false,
      "stateMutability": "view",
      "type": "function"
    },
    {
      "constant": true,
      "inputs": [
        {
          "name": "_insuranceKey",
          "type": "bytes32"
        }
      ],
      "name": "isActivated",
      "outputs": [
        {
          "name": "",
          "type": "bool"
        }
      ],
      "payable": false,
      "stateMutability": "view",
      "type": "function"
    },
    {
      "constant": true,
      "inputs": [
        {
          "name": "_insuranceKey",
          "type": "bytes32"
        }
      ],
      "name": "isCredited",
      "outputs": [
        {
          "name": "",
          "type": "bool"
        }
      ],
      "payable": false,
      "stateMutability": "view",
      "type": "function"
    },
    {
      "constant": true,
      "inputs": [
        {
          "name": "_insuranceKey",
          "type": "bytes32"
        },
        {
          "name": "_candidate",
          "type": "address"
        }
      ],
      "name": "isBuyer",
      "outputs": [
        {
          "name": "",
          "type": "bool"
        }
      ],
      "payable": false,
      "stateMutability": "view",
      "type": "function"
    },
    {
      "constant": true,
      "inputs": [
        {
          "name": "fee",
          "type": "uint256"
        }
      ],
      "name": "isLessThanMax",
      "outputs": [
        {
          "name": "",
          "type": "bool"
        }
      ],
      "payable": false,
      "stateMutability": "pure",
      "type": "function"
    },
    {
      "constant": false,
      "inputs": [
        {
          "name": "_buyer",
          "type": "address"
        },
        {
          "name": "_flightKey",
          "type": "bytes32"
        },
        {
          "name": "_airline",
          "type": "address"
        },
        {
          "name": "_fee",
          "type": "uint256"
        }
      ],
      "name": "addInsurance",
      "outputs": [],
      "payable": false,
      "stateMutability": "nonpayable",
      "type": "function"
    },
    {
      "constant": true,
      "inputs": [
        {
          "name": "fee",
          "type": "uint256"
        }
      ],
      "name": "calculateCredits",
      "outputs": [
        {
          "name": "credits",
          "type": "uint256"
        }
      ],
      "payable": false,
      "stateMutability": "pure",
      "type": "function"
    },
    {
      "constant": false,
      "inputs": [
        {
          "name": "_insuranceKey",
          "type": "bytes32"
        }
      ],
      "name": "creditInsurance",
      "outputs": [
        {
          "name": "credits",
          "type": "uint256"
        }
      ],
      "payable": false,
      "stateMutability": "nonpayable",
      "type": "function"
    },
    {
      "constant": false,
      "inputs": [
        {
          "name": "_insuranceKey",
          "type": "bytes32"
        }
      ],
      "name": "setInsuranceExpired",
      "outputs": [],
      "payable": false,
      "stateMutability": "nonpayable",
      "type": "function"
    },
    {
      "constant": false,
      "inputs": [
        {
          "name": "_insuranceKey",
          "type": "bytes32"
        }
      ],
      "name": "setInsuranceCredited",
      "outputs": [],
      "payable": false,
      "stateMutability": "nonpayable",
      "type": "function"
    },
    {
      "constant": false,
      "inputs": [
        {
          "name": "_insuranceKey",
          "type": "bytes32"
        }
      ],
      "name": "setInsuranceWithdrawn",
      "outputs": [],
      "payable": false,
      "stateMutability": "nonpayable",
      "type": "function"
    },
    {
      "constant": true,
      "inputs": [
        {
          "name": "_insuranceKey",
          "type": "bytes32"
        }
      ],
      "name": "queryInsuranceInfo",
      "outputs": [
        {
          "name": "buyer",
          "type": "address"
        },
        {
          "name": "flightKey",
          "type": "bytes32"
        },
        {
          "name": "airline",
          "type": "address"
        },
        {
          "name": "fee",
          "type": "uint256"
        },
        {
          "name": "credits",
          "type": "uint256"
        },
        {
          "name": "insuranceStatus",
          "type": "uint8"
        }
      ],
      "payable": false,
      "stateMutability": "view",
      "type": "function"
    },
    {
      "constant": true,
      "inputs": [
        {
          "name": "_insuranceKey",
          "type": "bytes32"
        }
      ],
      "name": "queryInsuranceBuyer",
      "outputs": [
        {
          "name": "",
          "type": "address"
        }
      ],
      "payable": false,
      "stateMutability": "view",
      "type": "function"
    },
    {
      "constant": true,
      "inputs": [
        {
          "name": "_insuranceKey",
          "type": "bytes32"
        }
      ],
      "name": "queryInsuranceFee",
      "outputs": [
        {
          "name": "",
          "type": "uint256"
        }
      ],
      "payable": false,
      "stateMutability": "view",
      "type": "function"
    }
  ],
  "bytecode": "0x608060405234801561001057600080fd5b5061115e806100206000396000f3fe608060405234801561001057600080fd5b50600436106100f55760003560e01c806389199e3711610097578063d709f2a111610066578063d709f2a1146104e3578063ee06ce2b14610511578063f8813dfb14610553578063fb933ebd14610595576100f5565b806389199e37146103d357806389c6c14e146104415780639348916f1461046f578063ba87af801461049d576100f5565b80635a1c1e70116100d35780635a1c1e70146102695780635dade699146102e157806363f045a514610327578063762fee181461038d576100f5565b80633d027743146100fa5780634652cb90146101c557806355f2bb2414610207575b600080fd5b6101266004803603602081101561011057600080fd5b81019080803590602001909291905050506105db565b604051808773ffffffffffffffffffffffffffffffffffffffff1673ffffffffffffffffffffffffffffffffffffffff1681526020018681526020018573ffffffffffffffffffffffffffffffffffffffff1673ffffffffffffffffffffffffffffffffffffffff1681526020018481526020018381526020018260038111156101ac57fe5b60ff168152602001965050505050505060405180910390f35b6101f1600480360360208110156101db57600080fd5b81019080803590602001909291905050506106ca565b6040518082815260200191505060405180910390f35b6102536004803603604081101561021d57600080fd5b81019080803573ffffffffffffffffffffffffffffffffffffffff169060200190929190803590602001909291905050506106f9565b6040518082815260200191505060405180910390f35b6102df6004803603608081101561027f57600080fd5b81019080803573ffffffffffffffffffffffffffffffffffffffff16906020019092919080359060200190929190803573ffffffffffffffffffffffffffffffffffffffff16906020019092919080359060200190929190505050610761565b005b61030d600480360360208110156102f757600080fd5b8101908080359060200190929190505050610a28565b604051808215151515815260200191505060405180910390f35b6103736004803603604081101561033d57600080fd5b8101908080359060200190929190803573ffffffffffffffffffffffffffffffffffffffff169060200190929190505050610a3d565b604051808215151515815260200191505060405180910390f35b6103b9600480360360208110156103a357600080fd5b8101908080359060200190929190505050610aab565b604051808215151515815260200191505060405180910390f35b6103ff600480360360208110156103e957600080fd5b8101908080359060200190929190505050610ad7565b604051808273ffffffffffffffffffffffffffffffffffffffff1673ffffffffffffffffffffffffffffffffffffffff16815260200191505060405180910390f35b61046d6004803603602081101561045757600080fd5b8101908080359060200190929190505050610b91565b005b61049b6004803603602081101561048557600080fd5b8101908080359060200190929190505050610c2b565b005b6104c9600480360360208110156104b357600080fd5b8101908080359060200190929190505050610cc5565b604051808215151515815260200191505060405180910390f35b61050f600480360360208110156104f957600080fd5b8101908080359060200190929190505050610d09565b005b61053d6004803603602081101561052757600080fd5b8101908080359060200190929190505050610da3565b6040518082815260200191505060405180910390f35b61057f6004803603602081101561056957600080fd5b8101908080359060200190929190505050610e53565b6040518082815260200191505060405180910390f35b6105c1600480360360208110156105ab57600080fd5b8101908080359060200190929190505050610eed565b604051808215151515815260200191505060405180910390f35b60008060008060008060008088815260200190815260200160002060000160009054906101000a900473ffffffffffffffffffffffffffffffffffffffff16955060008088815260200190815260200160002060010154945060008088815260200190815260200160002060020160009054906101000a900473ffffffffffffffffffffffffffffffffffffffff16935060008088815260200190815260200160002060030154925060008088815260200190815260200160002060040154915060008088815260200190815260200160002060050160009054906101000a900460ff16905091939550919395565b60006106f26106e3600284610f3290919063ffffffff16565b83610fc190919063ffffffff16565b9050919050565b60008282604051602001808373ffffffffffffffffffffffffffffffffffffffff1673ffffffffffffffffffffffffffffffffffffffff1660601b81526014018281526020019250505060405160208183030381529060405280519060200120905092915050565b8061076b81610a28565b6107c0576040517f08c379a000000000000000000000000000000000000000000000000000000000815260040180806020018281038252602781526020018061110c6027913960400191505060405180910390fd5b60006107cc86866106f9565b90506107d6611049565b86816000019073ffffffffffffffffffffffffffffffffffffffff16908173ffffffffffffffffffffffffffffffffffffffff16815250508581602001818152505084816040019073ffffffffffffffffffffffffffffffffffffffff16908173ffffffffffffffffffffffffffffffffffffffff168152505083816060018181525050600081608001818152505060008160a00190600381111561087757fe5b9081600381111561088457fe5b8152505060018160c00190151590811515815250508060008084815260200190815260200160002060008201518160000160006101000a81548173ffffffffffffffffffffffffffffffffffffffff021916908373ffffffffffffffffffffffffffffffffffffffff1602179055506020820151816001015560408201518160020160006101000a81548173ffffffffffffffffffffffffffffffffffffffff021916908373ffffffffffffffffffffffffffffffffffffffff160217905550606082015181600301556080820151816004015560a08201518160050160006101000a81548160ff0219169083600381111561097c57fe5b021790555060c08201518160050160016101000a81548160ff0219169083151502179055509050507f9ab1ae65e296b9d32fa2d25d59c5ae030359d318f228e0513a4089f70fcdc61386838987604051808581526020018481526020018373ffffffffffffffffffffffffffffffffffffffff1673ffffffffffffffffffffffffffffffffffffffff16815260200182815260200194505050505060405180910390a150505050505050565b6000670de0b6b3a76400008211159050919050565b60008173ffffffffffffffffffffffffffffffffffffffff1660008085815260200190815260200160002060000160009054906101000a900473ffffffffffffffffffffffffffffffffffffffff1673ffffffffffffffffffffffffffffffffffffffff1614905092915050565b600080600083815260200190815260200160002060050160019054906101000a900460ff169050919050565b6000610ae282610aab565b610b54576040517f08c379a00000000000000000000000000000000000000000000000000000000081526004018080602001828103825260178152602001807f496e737572616e636520646f65736e277420657869737400000000000000000081525060200191505060405180910390fd5b60008083815260200190815260200160002060000160009054906101000a900473ffffffffffffffffffffffffffffffffffffffff169050919050565b80610b9b81610eed565b610bf0576040517f08c379a00000000000000000000000000000000000000000000000000000000081526004018080602001828103825260248152602001806110c36024913960400191505060405180910390fd5b600360008084815260200190815260200160002060050160006101000a81548160ff02191690836003811115610c2257fe5b02179055505050565b80610c3581610cc5565b610c8a576040517f08c379a00000000000000000000000000000000000000000000000000000000081526004018080602001828103825260258152602001806110e76025913960400191505060405180910390fd5b600160008084815260200190815260200160002060050160006101000a81548160ff02191690836003811115610cbc57fe5b02179055505050565b6000806003811115610cd357fe5b60008084815260200190815260200160002060050160009054906101000a900460ff166003811115610d0157fe5b149050919050565b80610d1381610cc5565b610d68576040517f08c379a00000000000000000000000000000000000000000000000000000000081526004018080602001828103825260258152602001806110e76025913960400191505060405180910390fd5b600260008084815260200190815260200160002060050160006101000a81548160ff02191690836003811115610d9a57fe5b02179055505050565b600081610daf81610cc5565b610e04576040517f08c379a00000000000000000000000000000000000000000000000000000000081526004018080602001828103825260258152602001806110e76025913960400191505060405180910390fd5b6000806000858152602001908152602001600020600301549050610e27816106ca565b92508260008086815260200190815260200160002060040181905550610e4c84610d09565b5050919050565b6000610e5e82610aab565b610ed0576040517f08c379a00000000000000000000000000000000000000000000000000000000081526004018080602001828103825260178152602001807f496e737572616e636520646f65736e277420657869737400000000000000000081525060200191505060405180910390fd5b600080838152602001908152602001600020600301549050919050565b600060026003811115610efc57fe5b60008084815260200190815260200160002060050160009054906101000a900460ff166003811115610f2a57fe5b149050919050565b6000808211610fa9576040517f08c379a000000000000000000000000000000000000000000000000000000000815260040180806020018281038252601a8152602001807f536166654d6174683a206469766973696f6e206279207a65726f00000000000081525060200191505060405180910390fd5b6000828481610fb457fe5b0490508091505092915050565b60008082840190508381101561103f576040517f08c379a000000000000000000000000000000000000000000000000000000000815260040180806020018281038252601b8152602001807f536166654d6174683a206164646974696f6e206f766572666c6f77000000000081525060200191505060405180910390fd5b8091505092915050565b6040518060e00160405280600073ffffffffffffffffffffffffffffffffffffffff16815260200160008019168152602001600073ffffffffffffffffffffffffffffffffffffffff1681526020016000815260200160008152602001600060038111156110b357fe5b8152602001600015158152509056fe496e737572616e6365206d75737420626520696e20437265646974656420737461747573496e737572616e6365206d75737420626520696e2041637469766174656420737461747573496e737572616e636520466565206d757374206265206c657373207468616e2031206574686572a165627a7a723058209a3de273c349569857ea8598f9066fd62d3d793a423de22072c122c85c2095750029",
  "source": "pragma solidity ^0.5.8;\r\n\r\nimport \"../node_modules/openzeppelin-solidity/contracts/math/SafeMath.sol\";\r\n\r\ncontract InsuranceData{\r\n    using SafeMath for uint256;\r\n    uint256 constant MAX_FEE = 1 ether;\r\n    \r\n    struct Insurance{\r\n        address payable buyer;\r\n        bytes32 flightKey;\r\n        address airline;\r\n        uint256 fee;\r\n        uint256 credits;\r\n        InsuranceStatus status;\r\n        bool isExist;\r\n    }\r\n/*\r\n    struct Buyer{\r\n        uint256 credits;\r\n        bool isExist;\r\n    }\r\n*/\r\n\r\n    enum InsuranceStatus{Activated, Expired, Credited, Withdrawn}\r\n    mapping(bytes32=>Insurance) insurances;\r\n    //mapping(address=>Buyer) buyers;\r\n\r\n    event BuyInsurance(bytes32 flightKey, bytes32 insuranceKey, address buyer, uint256 fee);\r\n    event CreditInsurance(bytes32 flightKey, bytes32 insuranceKey, address buyer, uint256 credits);\r\n    \r\n    // the key for extracting insurance\r\n    function generateInsuranceKey(address _buyer, bytes32 _flightKey) public pure returns(bytes32){\r\n        return keccak256(abi.encodePacked(_buyer, _flightKey));\r\n    }\r\n\r\n    /**\r\n    Functions for conditions checking and modifiers\r\n     */\r\n    \r\n    function isExist(bytes32 _insuranceKey) public view returns(bool){\r\n        return insurances[_insuranceKey].isExist;\r\n    }\r\n    \r\n    function isActivated(bytes32 _insuranceKey) public view returns(bool){\r\n        return insurances[_insuranceKey].status == InsuranceStatus.Activated;\r\n    }\r\n\r\n    modifier requireActivated(bytes32 _insuranceKey){\r\n        require(isActivated(_insuranceKey), \"Insurance must be in Activated status\");\r\n        _;\r\n    }\r\n\r\n    function isCredited(bytes32 _insuranceKey) public view returns(bool){\r\n        return insurances[_insuranceKey].status == InsuranceStatus.Credited;\r\n    }\r\n\r\n    modifier requireCredited(bytes32 _insuranceKey){\r\n        require(isCredited(_insuranceKey), \"Insurance must be in Credited status\");\r\n        _;\r\n    }\r\n\r\n    function isBuyer(bytes32 _insuranceKey, address _candidate) public view returns(bool){\r\n        return insurances[_insuranceKey].buyer == _candidate;\r\n    }\r\n\r\n    modifier requireBuyer(bytes32 _insuranceKey, address buyer){\r\n        require(isBuyer(_insuranceKey, buyer), \"Only buyer of insurance could withdraw credit\");\r\n        _;\r\n    }\r\n/*\r\n    function isAirline(bytes32 _insuranceKey, address _candidate) public view returns(bool){\r\n        return insurances[_insuranceKey].airline == _candidate;\r\n    }\r\n\r\n    modifier requireAirline(bytes32 _insuranceKey, address _airline){\r\n        require(isAirline(_insuranceKey, _airline), \"Only airline of insurance could pay insurance\");\r\n        _;\r\n    }\r\n*/\r\n/*\r\n    function isBuyerExist(address _buyer) public view returns(bool){\r\n        return buyers[_buyer].isExist;\r\n    }\r\n\r\n    modifier requireBuyerExist(address _buyer) {\r\n        require(isBuyerExist(_buyer), \"Buyer doesn't exist\");\r\n        _;\r\n    }\r\n*/\r\n\r\n    function isLessThanMax(uint256 fee) public pure returns(bool){\r\n        return fee<=MAX_FEE;\r\n    }\r\n\r\n    modifier requireLessThanMax(uint256 fee){\r\n        require(isLessThanMax(fee), \"Insurance Fee must be less than 1 ether\");\r\n        _;\r\n    }\r\n\r\n    /**\r\n    function for adding and crediting insurance\r\n     */\r\n    function addInsurance(address _buyer, bytes32 _flightKey, address _airline, uint256 _fee) requireLessThanMax(_fee) \r\n    public{\r\n        bytes32 insuranceKey = generateInsuranceKey(_buyer, _flightKey);\r\n        Insurance memory insurance;\r\n        insurance.buyer = address(uint160(_buyer));\r\n        insurance.flightKey = _flightKey;\r\n        insurance.airline = _airline;\r\n        insurance.fee = _fee;\r\n        insurance.credits = 0;\r\n        insurance.status = InsuranceStatus.Activated;\r\n        insurance.isExist = true;\r\n\r\n        insurances[insuranceKey] = insurance;\r\n\r\n        /*\r\n        if(!isBuyerExist(_buyer)){\r\n            buyers[_buyer] = Buyer({credits:0, isExist:true});\r\n        }\r\n        */\r\n        emit BuyInsurance(_flightKey, insuranceKey, _buyer, _fee);\r\n    }\r\n\r\n    function calculateCredits(uint256 fee) public pure returns(uint256 credits){\r\n        credits = fee.add(fee.div(2));\r\n    }\r\n\r\n    function creditInsurance(bytes32 _insuranceKey) public requireActivated(_insuranceKey) returns(uint256 credits){\r\n        uint256 fee = insurances[_insuranceKey].fee;\r\n        //address buyer = insurances[_insuranceKey].buyer;\r\n        credits = calculateCredits(fee);\r\n        insurances[_insuranceKey].credits = credits;\r\n        //buyers[buyer].credits += credits;\r\n        setInsuranceCredited(_insuranceKey);\r\n        //emit CreditInsurance(insurances[_insuranceKey].flightKey,_insuranceKey,buyer,credits);\r\n    }\r\n\r\n    /*\r\n    function deductCredits(address _buyer) public requireBuyerExist(_buyer){\r\n        buyers[_buyer].credits = 0;\r\n    }\r\n    */\r\n\r\n    /** \r\n    functions for setting insurance state\r\n    */\r\n\r\n    function setInsuranceExpired(bytes32 _insuranceKey) public requireActivated(_insuranceKey){\r\n        insurances[_insuranceKey].status = InsuranceStatus.Expired;\r\n    }\r\n\r\n    function setInsuranceCredited(bytes32 _insuranceKey) public requireActivated(_insuranceKey){\r\n        insurances[_insuranceKey].status = InsuranceStatus.Credited;\r\n    }\r\n\r\n    function setInsuranceWithdrawn(bytes32 _insuranceKey) public requireCredited(_insuranceKey){\r\n        insurances[_insuranceKey].status = InsuranceStatus.Withdrawn;\r\n    }\r\n\r\n    /**\r\n    functions for querying insurance info\r\n     */\r\n     /*\r\n    function queryBuyerCredit(address _buyer) public view returns(uint256){\r\n        return buyers[_buyer].credits;\r\n    }\r\n    */\r\n    \r\n    function queryInsuranceInfo(bytes32 _insuranceKey) public view returns(address buyer, bytes32 flightKey, address airline, uint256 fee, uint256 credits, InsuranceStatus insuranceStatus) {\r\n        buyer = insurances[_insuranceKey].buyer;\r\n        flightKey = insurances[_insuranceKey].flightKey;\r\n        airline = insurances[_insuranceKey].airline;\r\n        fee = insurances[_insuranceKey].fee;\r\n        credits = insurances[_insuranceKey].credits;\r\n        insuranceStatus = insurances[_insuranceKey].status;\r\n    }\r\n\r\n    function queryInsuranceBuyer(bytes32 _insuranceKey) public view returns(address){\r\n        require(isExist(_insuranceKey), \"Insurance doesn't exist\");\r\n        return insurances[_insuranceKey].buyer;\r\n    }\r\n\r\n    function queryInsuranceFee(bytes32 _insuranceKey) public view returns(uint256){\r\n        require(isExist(_insuranceKey), \"Insurance doesn't exist\");\r\n        return insurances[_insuranceKey].fee;\r\n    }\r\n}",
  "sourcePath": "C:\\Users\\andrewchan88\\Documents\\Coding\\udacity\\Blockchain\\PartB\\homework\\project7_es_rm\\contracts\\InsuranceData.sol",
  "compiler": {
    "name": "solc",
    "version": "0.5.8+commit.23d335f2.Emscripten.clang"
  },
  "schemaVersion": "3.0.13",
  "updatedAt": "2019-10-12T07:44:54.856Z",
  "devdoc": {
    "methods": {}
  },
  "userdoc": {
    "methods": {
      "addInsurance(address,bytes32,address,uint256)": {
        "notice": "function for adding and crediting insurance\r"
      },
      "isExist(bytes32)": {
        "notice": "Functions for conditions checking and modifiers\r"
      },
      "queryInsuranceInfo(bytes32)": {
        "notice": "functions for querying insurance info\r"
      },
      "setInsuranceExpired(bytes32)": {
        "notice": "functions for setting insurance state\r"
      }
    }
  }
}