{
  "contractName": "InsuranceData",
  "abi": [
    {
      "anonymous": false,
      "inputs": [
        {
          "indexed": false,
          "name": "flightKey",
          "type": "bytes32"
        },
        {
          "indexed": false,
          "name": "insuranceKey",
          "type": "bytes32"
        },
        {
          "indexed": false,
          "name": "buyer",
          "type": "address"
        },
        {
          "indexed": false,
          "name": "fee",
          "type": "uint256"
        }
      ],
      "name": "BuyInsurance",
      "type": "event"
    },
    {
      "anonymous": false,
      "inputs": [
        {
          "indexed": false,
          "name": "flightKey",
          "type": "bytes32"
        },
        {
          "indexed": false,
          "name": "insuranceKey",
          "type": "bytes32"
        },
        {
          "indexed": false,
          "name": "buyer",
          "type": "address"
        },
        {
          "indexed": false,
          "name": "credits",
          "type": "uint256"
        }
      ],
      "name": "CreditInsurance",
      "type": "event"
    },
    {
      "constant": true,
      "inputs": [
        {
          "name": "_buyer",
          "type": "address"
        },
        {
          "name": "_flightKey",
          "type": "bytes32"
        },
        {
          "name": "_contractTimestamp",
          "type": "uint256"
        }
      ],
      "name": "generateInsuranceKey",
      "outputs": [
        {
          "name": "",
          "type": "bytes32"
        }
      ],
      "payable": false,
      "stateMutability": "pure",
      "type": "function"
    },
    {
      "constant": true,
      "inputs": [
        {
          "name": "_insuranceKey",
          "type": "bytes32"
        }
      ],
      "name": "isExist",
      "outputs": [
        {
          "name": "",
          "type": "bool"
        }
      ],
      "payable": false,
      "stateMutability": "view",
      "type": "function"
    },
    {
      "constant": true,
      "inputs": [
        {
          "name": "_insuranceKey",
          "type": "bytes32"
        }
      ],
      "name": "isActivated",
      "outputs": [
        {
          "name": "",
          "type": "bool"
        }
      ],
      "payable": false,
      "stateMutability": "view",
      "type": "function"
    },
    {
      "constant": true,
      "inputs": [
        {
          "name": "_insuranceKey",
          "type": "bytes32"
        }
      ],
      "name": "isCredited",
      "outputs": [
        {
          "name": "",
          "type": "bool"
        }
      ],
      "payable": false,
      "stateMutability": "view",
      "type": "function"
    },
    {
      "constant": true,
      "inputs": [
        {
          "name": "_insuranceKey",
          "type": "bytes32"
        },
        {
          "name": "_candidate",
          "type": "address"
        }
      ],
      "name": "isBuyer",
      "outputs": [
        {
          "name": "",
          "type": "bool"
        }
      ],
      "payable": false,
      "stateMutability": "view",
      "type": "function"
    },
    {
      "constant": true,
      "inputs": [
        {
          "name": "_buyer",
          "type": "address"
        }
      ],
      "name": "isBuyerExist",
      "outputs": [
        {
          "name": "",
          "type": "bool"
        }
      ],
      "payable": false,
      "stateMutability": "view",
      "type": "function"
    },
    {
      "constant": true,
      "inputs": [
        {
          "name": "fee",
          "type": "uint256"
        }
      ],
      "name": "isLessThanMax",
      "outputs": [
        {
          "name": "",
          "type": "bool"
        }
      ],
      "payable": false,
      "stateMutability": "view",
      "type": "function"
    },
    {
      "constant": false,
      "inputs": [
        {
          "name": "_buyer",
          "type": "address"
        },
        {
          "name": "_flightKey",
          "type": "bytes32"
        },
        {
          "name": "_contractTimestamp",
          "type": "uint256"
        },
        {
          "name": "_airline",
          "type": "address"
        },
        {
          "name": "_fee",
          "type": "uint256"
        }
      ],
      "name": "addInsurance",
      "outputs": [],
      "payable": false,
      "stateMutability": "nonpayable",
      "type": "function"
    },
    {
      "constant": false,
      "inputs": [
        {
          "name": "_insuranceKey",
          "type": "bytes32"
        }
      ],
      "name": "creditInsurance",
      "outputs": [
        {
          "name": "credits",
          "type": "uint256"
        }
      ],
      "payable": false,
      "stateMutability": "nonpayable",
      "type": "function"
    },
    {
      "constant": false,
      "inputs": [
        {
          "name": "_buyer",
          "type": "address"
        }
      ],
      "name": "deductCredits",
      "outputs": [],
      "payable": false,
      "stateMutability": "nonpayable",
      "type": "function"
    },
    {
      "constant": false,
      "inputs": [
        {
          "name": "_insuranceKey",
          "type": "bytes32"
        }
      ],
      "name": "setInsuranceExpired",
      "outputs": [],
      "payable": false,
      "stateMutability": "nonpayable",
      "type": "function"
    },
    {
      "constant": false,
      "inputs": [
        {
          "name": "_insuranceKey",
          "type": "bytes32"
        }
      ],
      "name": "setInsuranceCredited",
      "outputs": [],
      "payable": false,
      "stateMutability": "nonpayable",
      "type": "function"
    },
    {
      "constant": false,
      "inputs": [
        {
          "name": "_insuranceKey",
          "type": "bytes32"
        }
      ],
      "name": "setInsuranceWithdrawn",
      "outputs": [],
      "payable": false,
      "stateMutability": "nonpayable",
      "type": "function"
    },
    {
      "constant": true,
      "inputs": [
        {
          "name": "_buyer",
          "type": "address"
        }
      ],
      "name": "queryBuyerCredit",
      "outputs": [
        {
          "name": "",
          "type": "uint256"
        }
      ],
      "payable": false,
      "stateMutability": "view",
      "type": "function"
    },
    {
      "constant": true,
      "inputs": [
        {
          "name": "_insuranceKey",
          "type": "bytes32"
        }
      ],
      "name": "queryInsuranceInfo",
      "outputs": [
        {
          "name": "buyer",
          "type": "address"
        },
        {
          "name": "flightKey",
          "type": "bytes32"
        },
        {
          "name": "airline",
          "type": "address"
        },
        {
          "name": "fee",
          "type": "uint256"
        },
        {
          "name": "credits",
          "type": "uint256"
        },
        {
          "name": "contractTimestamp",
          "type": "uint256"
        },
        {
          "name": "insuranceStatus",
          "type": "uint8"
        }
      ],
      "payable": false,
      "stateMutability": "view",
      "type": "function"
    },
    {
      "constant": true,
      "inputs": [
        {
          "name": "_insuranceKey",
          "type": "bytes32"
        }
      ],
      "name": "queryInsuranceBuyer",
      "outputs": [
        {
          "name": "",
          "type": "address"
        }
      ],
      "payable": false,
      "stateMutability": "view",
      "type": "function"
    }
  ],
  "bytecode": "0x608060405234801561001057600080fd5b50611420806100206000396000f3fe608060405234801561001057600080fd5b50600436106101005760003560e01c80639348916f11610097578063d0d6c8e111610066578063d0d6c8e11461053d578063d709f2a1146105bf578063ee06ce2b146105ed578063fb933ebd1461062f57610100565b80639348916f14610401578063b58c31be1461042f578063b88490731461049b578063ba87af80146104f757610100565b806363f045a5116100d357806363f045a5146102b9578063762fee181461031f57806389199e371461036557806389c6c14e146103d357610100565b80630d829250146101055780633d027743146101495780633d43020b1461021b5780635dade69914610273575b600080fd5b6101476004803603602081101561011b57600080fd5b81019080803573ffffffffffffffffffffffffffffffffffffffff169060200190929190505050610675565b005b6101756004803603602081101561015f57600080fd5b810190808035906020019092919050505061073d565b604051808873ffffffffffffffffffffffffffffffffffffffff1673ffffffffffffffffffffffffffffffffffffffff1681526020018781526020018673ffffffffffffffffffffffffffffffffffffffff1673ffffffffffffffffffffffffffffffffffffffff16815260200185815260200184815260200183815260200182600381111561020157fe5b60ff16815260200197505050505050505060405180910390f35b61025d6004803603602081101561023157600080fd5b81019080803573ffffffffffffffffffffffffffffffffffffffff169060200190929190505050610848565b6040518082815260200191505060405180910390f35b61029f6004803603602081101561028957600080fd5b8101908080359060200190929190505050610894565b604051808215151515815260200191505060405180910390f35b610305600480360360408110156102cf57600080fd5b8101908080359060200190929190803573ffffffffffffffffffffffffffffffffffffffff1690602001909291905050506108a9565b604051808215151515815260200191505060405180910390f35b61034b6004803603602081101561033557600080fd5b8101908080359060200190929190505050610917565b604051808215151515815260200191505060405180910390f35b6103916004803603602081101561037b57600080fd5b8101908080359060200190929190505050610943565b604051808273ffffffffffffffffffffffffffffffffffffffff1673ffffffffffffffffffffffffffffffffffffffff16815260200191505060405180910390f35b6103ff600480360360208110156103e957600080fd5b81019080803590602001909291905050506109fd565b005b61042d6004803603602081101561041757600080fd5b8101908080359060200190929190505050610a97565b005b6104856004803603606081101561044557600080fd5b81019080803573ffffffffffffffffffffffffffffffffffffffff1690602001909291908035906020019092919080359060200190929190505050610b31565b6040518082815260200191505060405180910390f35b6104dd600480360360208110156104b157600080fd5b81019080803573ffffffffffffffffffffffffffffffffffffffff169060200190929190505050610ba2565b604051808215151515815260200191505060405180910390f35b6105236004803603602081101561050d57600080fd5b8101908080359060200190929190505050610bfb565b604051808215151515815260200191505060405180910390f35b6105bd600480360360a081101561055357600080fd5b81019080803573ffffffffffffffffffffffffffffffffffffffff1690602001909291908035906020019092919080359060200190929190803573ffffffffffffffffffffffffffffffffffffffff16906020019092919080359060200190929190505050610c3f565b005b6105eb600480360360208110156105d557600080fd5b8101908080359060200190929190505050610faf565b005b6106196004803603602081101561060357600080fd5b8101908080359060200190929190505050611049565b6040518082815260200191505060405180910390f35b61065b6004803603602081101561064557600080fd5b81019080803590602001909291905050506111a7565b604051808215151515815260200191505060405180910390f35b8061067f81610ba2565b6106f1576040517f08c379a00000000000000000000000000000000000000000000000000000000081526004018080602001828103825260138152602001807f427579657220646f65736e27742065786973740000000000000000000000000081525060200191505060405180910390fd5b6000600160008473ffffffffffffffffffffffffffffffffffffffff1673ffffffffffffffffffffffffffffffffffffffff168152602001908152602001600020600001819055505050565b600080600080600080600080600089815260200190815260200160002060000160009054906101000a900473ffffffffffffffffffffffffffffffffffffffff16965060008089815260200190815260200160002060010154955060008089815260200190815260200160002060020160009054906101000a900473ffffffffffffffffffffffffffffffffffffffff16945060008089815260200190815260200160002060030154935060008089815260200190815260200160002060040154925060008089815260200190815260200160002060050154915060008089815260200190815260200160002060060160009054906101000a900460ff169050919395979092949650565b6000600160008373ffffffffffffffffffffffffffffffffffffffff1673ffffffffffffffffffffffffffffffffffffffff168152602001908152602001600020600001549050919050565b6000670de0b6b3a76400008211159050919050565b60008173ffffffffffffffffffffffffffffffffffffffff1660008085815260200190815260200160002060000160009054906101000a900473ffffffffffffffffffffffffffffffffffffffff1673ffffffffffffffffffffffffffffffffffffffff1614905092915050565b600080600083815260200190815260200160002060060160019054906101000a900460ff169050919050565b600061094e82610917565b6109c0576040517f08c379a00000000000000000000000000000000000000000000000000000000081526004018080602001828103825260178152602001807f496e737572616e636520646f65736e277420657869737400000000000000000081525060200191505060405180910390fd5b60008083815260200190815260200160002060000160009054906101000a900473ffffffffffffffffffffffffffffffffffffffff169050919050565b80610a07816111a7565b610a5c576040517f08c379a00000000000000000000000000000000000000000000000000000000081526004018080602001828103825260248152602001806113856024913960400191505060405180910390fd5b600360008084815260200190815260200160002060060160006101000a81548160ff02191690836003811115610a8e57fe5b02179055505050565b80610aa181610bfb565b610af6576040517f08c379a00000000000000000000000000000000000000000000000000000000081526004018080602001828103825260258152602001806113a96025913960400191505060405180910390fd5b600160008084815260200190815260200160002060060160006101000a81548160ff02191690836003811115610b2857fe5b02179055505050565b6000838383604051602001808473ffffffffffffffffffffffffffffffffffffffff1673ffffffffffffffffffffffffffffffffffffffff1660601b815260140183815260200182815260200193505050506040516020818303038152906040528051906020012090509392505050565b6000600160008373ffffffffffffffffffffffffffffffffffffffff1673ffffffffffffffffffffffffffffffffffffffff16815260200190815260200160002060010160009054906101000a900460ff169050919050565b6000806003811115610c0957fe5b60008084815260200190815260200160002060060160009054906101000a900460ff166003811115610c3757fe5b149050919050565b80610c4981610894565b610c9e576040517f08c379a00000000000000000000000000000000000000000000000000000000081526004018080602001828103825260278152602001806113ce6027913960400191505060405180910390fd5b6000610cab878787610b31565b9050610cb5611303565b87816000019073ffffffffffffffffffffffffffffffffffffffff16908173ffffffffffffffffffffffffffffffffffffffff16815250508681602001818152505084816040019073ffffffffffffffffffffffffffffffffffffffff16908173ffffffffffffffffffffffffffffffffffffffff1681525050838160600181815250506000816080018181525050858160a001818152505060008160c001906003811115610d6057fe5b90816003811115610d6d57fe5b8152505060018160e00190151590811515815250508060008084815260200190815260200160002060008201518160000160006101000a81548173ffffffffffffffffffffffffffffffffffffffff021916908373ffffffffffffffffffffffffffffffffffffffff1602179055506020820151816001015560408201518160020160006101000a81548173ffffffffffffffffffffffffffffffffffffffff021916908373ffffffffffffffffffffffffffffffffffffffff160217905550606082015181600301556080820151816004015560a0820151816005015560c08201518160060160006101000a81548160ff02191690836003811115610e6f57fe5b021790555060e08201518160060160016101000a81548160ff021916908315150217905550905050610ea088610ba2565b610f2a5760405180604001604052806000815260200160011515815250600160008a73ffffffffffffffffffffffffffffffffffffffff1673ffffffffffffffffffffffffffffffffffffffff1681526020019081526020016000206000820151816000015560208201518160010160006101000a81548160ff0219169083151502179055509050505b7f9ab1ae65e296b9d32fa2d25d59c5ae030359d318f228e0513a4089f70fcdc61387838a87604051808581526020018481526020018373ffffffffffffffffffffffffffffffffffffffff1673ffffffffffffffffffffffffffffffffffffffff16815260200182815260200194505050505060405180910390a15050505050505050565b80610fb981610bfb565b61100e576040517f08c379a00000000000000000000000000000000000000000000000000000000081526004018080602001828103825260258152602001806113a96025913960400191505060405180910390fd5b600260008084815260200190815260200160002060060160006101000a81548160ff0219169083600381111561104057fe5b02179055505050565b60008161105581610bfb565b6110aa576040517f08c379a00000000000000000000000000000000000000000000000000000000081526004018080602001828103825260258152602001806113a96025913960400191505060405180910390fd5b6000806000858152602001908152602001600020600301549050600080600086815260200190815260200160002060000160009054906101000a900473ffffffffffffffffffffffffffffffffffffffff16905060006111146002846111ec90919063ffffffff16565b9050611129818461127b90919063ffffffff16565b9450846000808881526020019081526020016000206004018190555084600160008473ffffffffffffffffffffffffffffffffffffffff1673ffffffffffffffffffffffffffffffffffffffff1681526020019081526020016000206000016000828254019250508190555061119e86610faf565b50505050919050565b6000600260038111156111b657fe5b60008084815260200190815260200160002060060160009054906101000a900460ff1660038111156111e457fe5b149050919050565b6000808211611263576040517f08c379a000000000000000000000000000000000000000000000000000000000815260040180806020018281038252601a8152602001807f536166654d6174683a206469766973696f6e206279207a65726f00000000000081525060200191505060405180910390fd5b600082848161126e57fe5b0490508091505092915050565b6000808284019050838110156112f9576040517f08c379a000000000000000000000000000000000000000000000000000000000815260040180806020018281038252601b8152602001807f536166654d6174683a206164646974696f6e206f766572666c6f77000000000081525060200191505060405180910390fd5b8091505092915050565b604051806101000160405280600073ffffffffffffffffffffffffffffffffffffffff16815260200160008019168152602001600073ffffffffffffffffffffffffffffffffffffffff1681526020016000815260200160008152602001600081526020016000600381111561137557fe5b8152602001600015158152509056fe496e737572616e6365206d75737420626520696e20437265646974656420737461747573496e737572616e6365206d75737420626520696e2041637469766174656420737461747573496e737572616e636520466565206d757374206265206c657373207468616e2031206574686572a165627a7a723058209654f80bcae1e2bbe9ea414177b0524bb08fbfd68b7f7d847049dd150e85bbfd0029",
  "source": "pragma solidity ^0.5.8;\r\n\r\nimport \"../node_modules/openzeppelin-solidity/contracts/math/SafeMath.sol\";\r\n\r\ncontract InsuranceData{\r\n    using SafeMath for uint256;\r\n    uint256 constant MAX_FEE = 1 ether;\r\n    \r\n    struct Insurance{\r\n        address payable buyer;\r\n        bytes32 flightKey;\r\n        address airline;\r\n        uint256 fee;\r\n        uint256 credits;\r\n        uint256 contractTimestamp;\r\n        InsuranceStatus status;\r\n        bool isExist;\r\n    }\r\n\r\n    struct Buyer{\r\n        uint256 credits;\r\n        bool isExist;\r\n    }\r\n\r\n    enum InsuranceStatus{Activated, Expired, Credited, Withdrawn}\r\n    mapping(bytes32=>Insurance) insurances;\r\n    mapping(address=>Buyer) buyers;\r\n\r\n    event BuyInsurance(bytes32 flightKey, bytes32 insuranceKey, address buyer, uint256 fee);\r\n    event CreditInsurance(bytes32 flightKey, bytes32 insuranceKey, address buyer, uint256 credits);\r\n    \r\n    // the key for extracting insurance\r\n    function generateInsuranceKey(address _buyer, bytes32 _flightKey, uint256 _contractTimestamp) public pure returns(bytes32){\r\n        return keccak256(abi.encodePacked(_buyer, _flightKey, _contractTimestamp));    \r\n    }\r\n\r\n    /**\r\n    Functions for conditions checking and modifiers\r\n     */\r\n    \r\n    function isExist(bytes32 _insuranceKey) public view returns(bool){\r\n        return insurances[_insuranceKey].isExist;\r\n    }\r\n    \r\n    function isActivated(bytes32 _insuranceKey) public view returns(bool){\r\n        return insurances[_insuranceKey].status == InsuranceStatus.Activated;\r\n    }\r\n\r\n    modifier requireActivated(bytes32 _insuranceKey){\r\n        require(isActivated(_insuranceKey), \"Insurance must be in Activated status\");\r\n        _;\r\n    }\r\n\r\n    function isCredited(bytes32 _insuranceKey) public view returns(bool){\r\n        return insurances[_insuranceKey].status == InsuranceStatus.Credited;\r\n    }\r\n\r\n    modifier requireCredited(bytes32 _insuranceKey){\r\n        require(isCredited(_insuranceKey), \"Insurance must be in Credited status\");\r\n        _;\r\n    }\r\n\r\n    function isBuyer(bytes32 _insuranceKey, address _candidate) public view returns(bool){\r\n        return insurances[_insuranceKey].buyer == _candidate;\r\n    }\r\n\r\n    modifier requireBuyer(bytes32 _insuranceKey, address buyer){\r\n        require(isBuyer(_insuranceKey, buyer), \"Only buyer of insurance could withdraw credit\");\r\n        _;\r\n    }\r\n/*\r\n    function isAirline(bytes32 _insuranceKey, address _candidate) public view returns(bool){\r\n        return insurances[_insuranceKey].airline == _candidate;\r\n    }\r\n\r\n    modifier requireAirline(bytes32 _insuranceKey, address _airline){\r\n        require(isAirline(_insuranceKey, _airline), \"Only airline of insurance could pay insurance\");\r\n        _;\r\n    }\r\n*/\r\n    function isBuyerExist(address _buyer) public view returns(bool){\r\n        return buyers[_buyer].isExist;\r\n    }\r\n\r\n    modifier requireBuyerExist(address _buyer) {\r\n        require(isBuyerExist(_buyer), \"Buyer doesn't exist\");\r\n        _;\r\n    }\r\n\r\n    function isLessThanMax(uint256 fee) public view returns(bool){\r\n        return fee<=MAX_FEE;\r\n    }\r\n\r\n    modifier requireLessThanMax(uint256 fee){\r\n        require(isLessThanMax(fee), \"Insurance Fee must be less than 1 ether\");\r\n        _;\r\n    }\r\n\r\n    /**\r\n    function for adding and crediting insurance\r\n     */\r\n    function addInsurance(address _buyer, bytes32 _flightKey, uint256 _contractTimestamp, address _airline, uint256 _fee) requireLessThanMax(_fee) \r\n    public{\r\n        bytes32 insuranceKey = generateInsuranceKey(_buyer, _flightKey, _contractTimestamp);\r\n        Insurance memory insurance;\r\n        insurance.buyer = address(uint160(_buyer));\r\n        insurance.flightKey = _flightKey;\r\n        insurance.airline = _airline;\r\n        insurance.fee = _fee;\r\n        insurance.credits = 0;\r\n        insurance.contractTimestamp = _contractTimestamp;\r\n        insurance.status = InsuranceStatus.Activated;\r\n        insurance.isExist = true;\r\n\r\n        insurances[insuranceKey] = insurance;\r\n\r\n        if(!isBuyerExist(_buyer)){\r\n            buyers[_buyer] = Buyer({credits:0, isExist:true});\r\n        }\r\n        emit BuyInsurance(_flightKey, insuranceKey, _buyer, _fee);\r\n    }\r\n\r\n    function creditInsurance(bytes32 _insuranceKey) public requireActivated(_insuranceKey) returns(uint256 credits){\r\n        uint256 fee = insurances[_insuranceKey].fee;\r\n        address buyer = insurances[_insuranceKey].buyer;\r\n        uint256 half = fee.div(2);\r\n        credits = fee.add(half);\r\n        insurances[_insuranceKey].credits = credits;\r\n        buyers[buyer].credits += credits;\r\n        setInsuranceCredited(_insuranceKey);\r\n        //emit CreditInsurance(insurances[_insuranceKey].flightKey,_insuranceKey,buyer,credits);\r\n    }\r\n\r\n    function deductCredits(address _buyer) public requireBuyerExist(_buyer){\r\n        buyers[_buyer].credits = 0;\r\n    }\r\n\r\n    /** \r\n    functions for setting insurance state\r\n    */\r\n\r\n    function setInsuranceExpired(bytes32 _insuranceKey) public requireActivated(_insuranceKey){\r\n        insurances[_insuranceKey].status = InsuranceStatus.Expired;\r\n    }\r\n\r\n    function setInsuranceCredited(bytes32 _insuranceKey) public requireActivated(_insuranceKey){\r\n        insurances[_insuranceKey].status = InsuranceStatus.Credited;\r\n    }\r\n\r\n    function setInsuranceWithdrawn(bytes32 _insuranceKey) public requireCredited(_insuranceKey){\r\n        insurances[_insuranceKey].status = InsuranceStatus.Withdrawn;\r\n    }\r\n\r\n    /**\r\n    functions for querying insurance info\r\n     */\r\n    function queryBuyerCredit(address _buyer) public view returns(uint256){\r\n        return buyers[_buyer].credits;\r\n    }\r\n    \r\n    function queryInsuranceInfo(bytes32 _insuranceKey) public view returns(address buyer, bytes32 flightKey, address airline, uint256 fee, uint256 credits, uint256 contractTimestamp, InsuranceStatus insuranceStatus) {\r\n        buyer = insurances[_insuranceKey].buyer;\r\n        flightKey = insurances[_insuranceKey].flightKey;\r\n        airline = insurances[_insuranceKey].airline;\r\n        fee = insurances[_insuranceKey].fee;\r\n        credits = insurances[_insuranceKey].credits;\r\n        contractTimestamp = insurances[_insuranceKey].contractTimestamp;\r\n        insuranceStatus = insurances[_insuranceKey].status;\r\n    }\r\n\r\n    function queryInsuranceBuyer(bytes32 _insuranceKey) public view returns(address){\r\n        require(isExist(_insuranceKey), \"Insurance doesn't exist\");\r\n        return insurances[_insuranceKey].buyer;\r\n    }\r\n}",
  "sourcePath": "C:\\Users\\andrewchan88\\Documents\\Coding\\udacity\\Blockchain\\PartB\\homework\\project7_es_rm\\contracts\\InsuranceData.sol",
  "compiler": {
    "name": "solc",
    "version": "0.5.8+commit.23d335f2.Emscripten.clang"
  },
  "schemaVersion": "3.0.13",
  "updatedAt": "2019-10-08T14:41:56.971Z",
  "devdoc": {
    "methods": {}
  },
  "userdoc": {
    "methods": {
      "addInsurance(address,bytes32,uint256,address,uint256)": {
        "notice": "function for adding and crediting insurance\r"
      },
      "isExist(bytes32)": {
        "notice": "Functions for conditions checking and modifiers\r"
      },
      "queryBuyerCredit(address)": {
        "notice": "functions for querying insurance info\r"
      },
      "setInsuranceExpired(bytes32)": {
        "notice": "functions for setting insurance state\r"
      }
    }
  }
}