{
  "contractName": "InsuranceData",
  "abi": [
    {
      "anonymous": false,
      "inputs": [
        {
          "indexed": false,
          "name": "flightKey",
          "type": "bytes32"
        },
        {
          "indexed": false,
          "name": "insuranceKey",
          "type": "bytes32"
        },
        {
          "indexed": false,
          "name": "buyer",
          "type": "address"
        },
        {
          "indexed": false,
          "name": "fee",
          "type": "uint256"
        }
      ],
      "name": "BuyInsurance",
      "type": "event"
    },
    {
      "anonymous": false,
      "inputs": [
        {
          "indexed": false,
          "name": "flightKey",
          "type": "bytes32"
        },
        {
          "indexed": false,
          "name": "insuranceKey",
          "type": "bytes32"
        },
        {
          "indexed": false,
          "name": "buyer",
          "type": "address"
        },
        {
          "indexed": false,
          "name": "credits",
          "type": "uint256"
        }
      ],
      "name": "CreditInsurance",
      "type": "event"
    },
    {
      "constant": true,
      "inputs": [
        {
          "name": "_buyer",
          "type": "address"
        },
        {
          "name": "_flightKey",
          "type": "bytes32"
        },
        {
          "name": "_contractTimestamp",
          "type": "uint256"
        }
      ],
      "name": "generateInsuranceKey",
      "outputs": [
        {
          "name": "",
          "type": "bytes32"
        }
      ],
      "payable": false,
      "stateMutability": "pure",
      "type": "function"
    },
    {
      "constant": true,
      "inputs": [
        {
          "name": "_insuranceKey",
          "type": "bytes32"
        }
      ],
      "name": "isExist",
      "outputs": [
        {
          "name": "",
          "type": "bool"
        }
      ],
      "payable": false,
      "stateMutability": "view",
      "type": "function"
    },
    {
      "constant": true,
      "inputs": [
        {
          "name": "_insuranceKey",
          "type": "bytes32"
        }
      ],
      "name": "isActivated",
      "outputs": [
        {
          "name": "",
          "type": "bool"
        }
      ],
      "payable": false,
      "stateMutability": "view",
      "type": "function"
    },
    {
      "constant": true,
      "inputs": [
        {
          "name": "_insuranceKey",
          "type": "bytes32"
        }
      ],
      "name": "isCredited",
      "outputs": [
        {
          "name": "",
          "type": "bool"
        }
      ],
      "payable": false,
      "stateMutability": "view",
      "type": "function"
    },
    {
      "constant": true,
      "inputs": [
        {
          "name": "_insuranceKey",
          "type": "bytes32"
        },
        {
          "name": "_candidate",
          "type": "address"
        }
      ],
      "name": "isBuyer",
      "outputs": [
        {
          "name": "",
          "type": "bool"
        }
      ],
      "payable": false,
      "stateMutability": "view",
      "type": "function"
    },
    {
      "constant": true,
      "inputs": [
        {
          "name": "_insuranceKey",
          "type": "bytes32"
        },
        {
          "name": "_candidate",
          "type": "address"
        }
      ],
      "name": "isAirline",
      "outputs": [
        {
          "name": "",
          "type": "bool"
        }
      ],
      "payable": false,
      "stateMutability": "view",
      "type": "function"
    },
    {
      "constant": true,
      "inputs": [
        {
          "name": "_buyer",
          "type": "address"
        }
      ],
      "name": "isBuyerExist",
      "outputs": [
        {
          "name": "",
          "type": "bool"
        }
      ],
      "payable": false,
      "stateMutability": "view",
      "type": "function"
    },
    {
      "constant": false,
      "inputs": [
        {
          "name": "_buyer",
          "type": "address"
        },
        {
          "name": "_flightKey",
          "type": "bytes32"
        },
        {
          "name": "_contractTimestamp",
          "type": "uint256"
        },
        {
          "name": "_airline",
          "type": "address"
        },
        {
          "name": "_fee",
          "type": "uint256"
        }
      ],
      "name": "addInsurance",
      "outputs": [],
      "payable": false,
      "stateMutability": "nonpayable",
      "type": "function"
    },
    {
      "constant": false,
      "inputs": [
        {
          "name": "_insuranceKey",
          "type": "bytes32"
        }
      ],
      "name": "creditInsurance",
      "outputs": [
        {
          "name": "credits",
          "type": "uint256"
        }
      ],
      "payable": false,
      "stateMutability": "nonpayable",
      "type": "function"
    },
    {
      "constant": false,
      "inputs": [
        {
          "name": "_buyer",
          "type": "address"
        }
      ],
      "name": "deductCredits",
      "outputs": [],
      "payable": false,
      "stateMutability": "nonpayable",
      "type": "function"
    },
    {
      "constant": false,
      "inputs": [
        {
          "name": "_insuranceKey",
          "type": "bytes32"
        }
      ],
      "name": "setInsuranceExpired",
      "outputs": [],
      "payable": false,
      "stateMutability": "nonpayable",
      "type": "function"
    },
    {
      "constant": false,
      "inputs": [
        {
          "name": "_insuranceKey",
          "type": "bytes32"
        }
      ],
      "name": "setInsuranceCredited",
      "outputs": [],
      "payable": false,
      "stateMutability": "nonpayable",
      "type": "function"
    },
    {
      "constant": false,
      "inputs": [
        {
          "name": "_insuranceKey",
          "type": "bytes32"
        }
      ],
      "name": "setInsuranceWithdrawn",
      "outputs": [],
      "payable": false,
      "stateMutability": "nonpayable",
      "type": "function"
    },
    {
      "constant": true,
      "inputs": [
        {
          "name": "_buyer",
          "type": "address"
        }
      ],
      "name": "queryBuyerCredit",
      "outputs": [
        {
          "name": "",
          "type": "uint256"
        }
      ],
      "payable": false,
      "stateMutability": "view",
      "type": "function"
    },
    {
      "constant": true,
      "inputs": [
        {
          "name": "_insuranceKey",
          "type": "bytes32"
        }
      ],
      "name": "queryInsuranceInfo",
      "outputs": [
        {
          "name": "buyer",
          "type": "address"
        },
        {
          "name": "flightKey",
          "type": "bytes32"
        },
        {
          "name": "airline",
          "type": "address"
        },
        {
          "name": "fee",
          "type": "uint256"
        },
        {
          "name": "credits",
          "type": "uint256"
        },
        {
          "name": "contractTimestamp",
          "type": "uint256"
        },
        {
          "name": "insuranceStatus",
          "type": "uint8"
        }
      ],
      "payable": false,
      "stateMutability": "view",
      "type": "function"
    },
    {
      "constant": true,
      "inputs": [
        {
          "name": "_insuranceKey",
          "type": "bytes32"
        }
      ],
      "name": "queryInsuranceBuyer",
      "outputs": [
        {
          "name": "",
          "type": "address"
        }
      ],
      "payable": false,
      "stateMutability": "view",
      "type": "function"
    }
  ],
  "bytecode": "0x608060405234801561001057600080fd5b50611412806100206000396000f3fe608060405234801561001057600080fd5b50600436106101005760003560e01c80639348916f11610097578063d0d6c8e111610066578063d0d6c8e11461055d578063d709f2a1146105df578063ee06ce2b1461060d578063fb933ebd1461064f57610100565b80639348916f14610421578063b58c31be1461044f578063b8849073146104bb578063ba87af801461051757610100565b80636db6f112116100d35780636db6f112146102d9578063762fee181461033f57806389199e371461038557806389c6c14e146103f357610100565b80630d829250146101055780633d027743146101495780633d43020b1461021b57806363f045a514610273575b600080fd5b6101476004803603602081101561011b57600080fd5b81019080803573ffffffffffffffffffffffffffffffffffffffff169060200190929190505050610695565b005b6101756004803603602081101561015f57600080fd5b810190808035906020019092919050505061075d565b604051808873ffffffffffffffffffffffffffffffffffffffff1673ffffffffffffffffffffffffffffffffffffffff1681526020018781526020018673ffffffffffffffffffffffffffffffffffffffff1673ffffffffffffffffffffffffffffffffffffffff16815260200185815260200184815260200183815260200182600381111561020157fe5b60ff16815260200197505050505050505060405180910390f35b61025d6004803603602081101561023157600080fd5b81019080803573ffffffffffffffffffffffffffffffffffffffff169060200190929190505050610868565b6040518082815260200191505060405180910390f35b6102bf6004803603604081101561028957600080fd5b8101908080359060200190929190803573ffffffffffffffffffffffffffffffffffffffff1690602001909291905050506108b4565b604051808215151515815260200191505060405180910390f35b610325600480360360408110156102ef57600080fd5b8101908080359060200190929190803573ffffffffffffffffffffffffffffffffffffffff169060200190929190505050610922565b604051808215151515815260200191505060405180910390f35b61036b6004803603602081101561035557600080fd5b8101908080359060200190929190505050610990565b604051808215151515815260200191505060405180910390f35b6103b16004803603602081101561039b57600080fd5b81019080803590602001909291905050506109bc565b604051808273ffffffffffffffffffffffffffffffffffffffff1673ffffffffffffffffffffffffffffffffffffffff16815260200191505060405180910390f35b61041f6004803603602081101561040957600080fd5b8101908080359060200190929190505050610a76565b005b61044d6004803603602081101561043757600080fd5b8101908080359060200190929190505050610b10565b005b6104a56004803603606081101561046557600080fd5b81019080803573ffffffffffffffffffffffffffffffffffffffff1690602001909291908035906020019092919080359060200190929190505050610baa565b6040518082815260200191505060405180910390f35b6104fd600480360360208110156104d157600080fd5b81019080803573ffffffffffffffffffffffffffffffffffffffff169060200190929190505050610c1b565b604051808215151515815260200191505060405180910390f35b6105436004803603602081101561052d57600080fd5b8101908080359060200190929190505050610c74565b604051808215151515815260200191505060405180910390f35b6105dd600480360360a081101561057357600080fd5b81019080803573ffffffffffffffffffffffffffffffffffffffff1690602001909291908035906020019092919080359060200190929190803573ffffffffffffffffffffffffffffffffffffffff16906020019092919080359060200190929190505050610cb8565b005b61060b600480360360208110156105f557600080fd5b8101908080359060200190929190505050610fc8565b005b6106396004803603602081101561062357600080fd5b8101908080359060200190929190505050611062565b6040518082815260200191505060405180910390f35b61067b6004803603602081101561066557600080fd5b81019080803590602001909291905050506111c0565b604051808215151515815260200191505060405180910390f35b8061069f81610c1b565b610711576040517f08c379a00000000000000000000000000000000000000000000000000000000081526004018080602001828103825260138152602001807f427579657220646f65736e27742065786973740000000000000000000000000081525060200191505060405180910390fd5b6000600160008473ffffffffffffffffffffffffffffffffffffffff1673ffffffffffffffffffffffffffffffffffffffff168152602001908152602001600020600001819055505050565b600080600080600080600080600089815260200190815260200160002060000160009054906101000a900473ffffffffffffffffffffffffffffffffffffffff16965060008089815260200190815260200160002060010154955060008089815260200190815260200160002060020160009054906101000a900473ffffffffffffffffffffffffffffffffffffffff16945060008089815260200190815260200160002060030154935060008089815260200190815260200160002060040154925060008089815260200190815260200160002060050154915060008089815260200190815260200160002060060160009054906101000a900460ff169050919395979092949650565b6000600160008373ffffffffffffffffffffffffffffffffffffffff1673ffffffffffffffffffffffffffffffffffffffff168152602001908152602001600020600001549050919050565b60008173ffffffffffffffffffffffffffffffffffffffff1660008085815260200190815260200160002060000160009054906101000a900473ffffffffffffffffffffffffffffffffffffffff1673ffffffffffffffffffffffffffffffffffffffff1614905092915050565b60008173ffffffffffffffffffffffffffffffffffffffff1660008085815260200190815260200160002060020160009054906101000a900473ffffffffffffffffffffffffffffffffffffffff1673ffffffffffffffffffffffffffffffffffffffff1614905092915050565b600080600083815260200190815260200160002060060160019054906101000a900460ff169050919050565b60006109c782610990565b610a39576040517f08c379a00000000000000000000000000000000000000000000000000000000081526004018080602001828103825260178152602001807f496e737572616e636520646f65736e277420657869737400000000000000000081525060200191505060405180910390fd5b60008083815260200190815260200160002060000160009054906101000a900473ffffffffffffffffffffffffffffffffffffffff169050919050565b80610a80816111c0565b610ad5576040517f08c379a000000000000000000000000000000000000000000000000000000000815260040180806020018281038252602481526020018061139e6024913960400191505060405180910390fd5b600360008084815260200190815260200160002060060160006101000a81548160ff02191690836003811115610b0757fe5b02179055505050565b80610b1a81610c74565b610b6f576040517f08c379a00000000000000000000000000000000000000000000000000000000081526004018080602001828103825260258152602001806113c26025913960400191505060405180910390fd5b600160008084815260200190815260200160002060060160006101000a81548160ff02191690836003811115610ba157fe5b02179055505050565b6000838383604051602001808473ffffffffffffffffffffffffffffffffffffffff1673ffffffffffffffffffffffffffffffffffffffff1660601b815260140183815260200182815260200193505050506040516020818303038152906040528051906020012090509392505050565b6000600160008373ffffffffffffffffffffffffffffffffffffffff1673ffffffffffffffffffffffffffffffffffffffff16815260200190815260200160002060010160009054906101000a900460ff169050919050565b6000806003811115610c8257fe5b60008084815260200190815260200160002060060160009054906101000a900460ff166003811115610cb057fe5b149050919050565b6000610cc5868686610baa565b9050610ccf61131c565b86816000019073ffffffffffffffffffffffffffffffffffffffff16908173ffffffffffffffffffffffffffffffffffffffff16815250508581602001818152505083816040019073ffffffffffffffffffffffffffffffffffffffff16908173ffffffffffffffffffffffffffffffffffffffff1681525050828160600181815250506000816080018181525050848160a001818152505060008160c001906003811115610d7a57fe5b90816003811115610d8757fe5b8152505060018160e00190151590811515815250508060008084815260200190815260200160002060008201518160000160006101000a81548173ffffffffffffffffffffffffffffffffffffffff021916908373ffffffffffffffffffffffffffffffffffffffff1602179055506020820151816001015560408201518160020160006101000a81548173ffffffffffffffffffffffffffffffffffffffff021916908373ffffffffffffffffffffffffffffffffffffffff160217905550606082015181600301556080820151816004015560a0820151816005015560c08201518160060160006101000a81548160ff02191690836003811115610e8957fe5b021790555060e08201518160060160016101000a81548160ff021916908315150217905550905050610eba87610c1b565b610f445760405180604001604052806000815260200160011515815250600160008973ffffffffffffffffffffffffffffffffffffffff1673ffffffffffffffffffffffffffffffffffffffff1681526020019081526020016000206000820151816000015560208201518160010160006101000a81548160ff0219169083151502179055509050505b7f9ab1ae65e296b9d32fa2d25d59c5ae030359d318f228e0513a4089f70fcdc61386838986604051808581526020018481526020018373ffffffffffffffffffffffffffffffffffffffff1673ffffffffffffffffffffffffffffffffffffffff16815260200182815260200194505050505060405180910390a150505050505050565b80610fd281610c74565b611027576040517f08c379a00000000000000000000000000000000000000000000000000000000081526004018080602001828103825260258152602001806113c26025913960400191505060405180910390fd5b600260008084815260200190815260200160002060060160006101000a81548160ff0219169083600381111561105957fe5b02179055505050565b60008161106e81610c74565b6110c3576040517f08c379a00000000000000000000000000000000000000000000000000000000081526004018080602001828103825260258152602001806113c26025913960400191505060405180910390fd5b6000806000858152602001908152602001600020600301549050600080600086815260200190815260200160002060000160009054906101000a900473ffffffffffffffffffffffffffffffffffffffff169050600061112d60028461120590919063ffffffff16565b9050611142818461129490919063ffffffff16565b9450846000808881526020019081526020016000206004018190555084600160008473ffffffffffffffffffffffffffffffffffffffff1673ffffffffffffffffffffffffffffffffffffffff168152602001908152602001600020600001600082825401925050819055506111b786610fc8565b50505050919050565b6000600260038111156111cf57fe5b60008084815260200190815260200160002060060160009054906101000a900460ff1660038111156111fd57fe5b149050919050565b600080821161127c576040517f08c379a000000000000000000000000000000000000000000000000000000000815260040180806020018281038252601a8152602001807f536166654d6174683a206469766973696f6e206279207a65726f00000000000081525060200191505060405180910390fd5b600082848161128757fe5b0490508091505092915050565b600080828401905083811015611312576040517f08c379a000000000000000000000000000000000000000000000000000000000815260040180806020018281038252601b8152602001807f536166654d6174683a206164646974696f6e206f766572666c6f77000000000081525060200191505060405180910390fd5b8091505092915050565b604051806101000160405280600073ffffffffffffffffffffffffffffffffffffffff16815260200160008019168152602001600073ffffffffffffffffffffffffffffffffffffffff1681526020016000815260200160008152602001600081526020016000600381111561138e57fe5b8152602001600015158152509056fe496e737572616e6365206d75737420626520696e20437265646974656420737461747573496e737572616e6365206d75737420626520696e2041637469766174656420737461747573a165627a7a7230582085dd2811c2effc55f657f8fdf46108785b513381f945e148cd11c10bda99b8290029",
  "source": "pragma solidity ^0.5.8;\r\n\r\nimport \"../node_modules/openzeppelin-solidity/contracts/math/SafeMath.sol\";\r\n\r\ncontract InsuranceData{\r\n    using SafeMath for uint256;\r\n    \r\n    struct Insurance{\r\n        address payable buyer;\r\n        bytes32 flightKey;\r\n        address airline;\r\n        uint256 fee;\r\n        uint256 credits;\r\n        uint256 contractTimestamp;\r\n        InsuranceStatus status;\r\n        bool isExist;\r\n    }\r\n\r\n    struct Buyer{\r\n        uint256 credits;\r\n        bool isExist;\r\n    }\r\n\r\n    enum InsuranceStatus{Activated, Expired, Credited, Withdrawn}\r\n    mapping(bytes32=>Insurance) insurances;\r\n    mapping(address=>Buyer) buyers;\r\n\r\n    event BuyInsurance(bytes32 flightKey, bytes32 insuranceKey, address buyer, uint256 fee);\r\n    event CreditInsurance(bytes32 flightKey, bytes32 insuranceKey, address buyer, uint256 credits);\r\n    \r\n    // the key for extracting insurance\r\n    function generateInsuranceKey(address _buyer, bytes32 _flightKey, uint256 _contractTimestamp) public pure returns(bytes32){\r\n        return keccak256(abi.encodePacked(_buyer, _flightKey, _contractTimestamp));    \r\n    }\r\n\r\n    /**\r\n    Functions for conditions checking and modifiers\r\n     */\r\n    \r\n    function isExist(bytes32 _insuranceKey) public view returns(bool){\r\n        return insurances[_insuranceKey].isExist;\r\n    }\r\n    \r\n    function isActivated(bytes32 _insuranceKey) public view returns(bool){\r\n        return insurances[_insuranceKey].status == InsuranceStatus.Activated;\r\n    }\r\n\r\n    modifier requireActivated(bytes32 _insuranceKey){\r\n        require(isActivated(_insuranceKey), \"Insurance must be in Activated status\");\r\n        _;\r\n    }\r\n\r\n    function isCredited(bytes32 _insuranceKey) public view returns(bool){\r\n        return insurances[_insuranceKey].status == InsuranceStatus.Credited;\r\n    }\r\n\r\n    modifier requireCredited(bytes32 _insuranceKey){\r\n        require(isCredited(_insuranceKey), \"Insurance must be in Credited status\");\r\n        _;\r\n    }\r\n\r\n    function isBuyer(bytes32 _insuranceKey, address _candidate) public view returns(bool){\r\n        return insurances[_insuranceKey].buyer == _candidate;\r\n    }\r\n\r\n    modifier requireBuyer(bytes32 _insuranceKey, address buyer){\r\n        require(isBuyer(_insuranceKey, buyer), \"Only buyer of insurance could withdraw credit\");\r\n        _;\r\n    }\r\n\r\n    function isAirline(bytes32 _insuranceKey, address _candidate) public view returns(bool){\r\n        return insurances[_insuranceKey].airline == _candidate;\r\n    }\r\n\r\n    modifier requireAirline(bytes32 _insuranceKey, address _airline){\r\n        require(isAirline(_insuranceKey, _airline), \"Only airline of insurance could pay insurance\");\r\n        _;\r\n    }\r\n\r\n    function isBuyerExist(address _buyer) public view returns(bool){\r\n        return buyers[_buyer].isExist;\r\n    }\r\n\r\n    modifier requireBuyerExist(address _buyer) {\r\n        require(isBuyerExist(_buyer), \"Buyer doesn't exist\");\r\n        _;\r\n    }\r\n\r\n    /**\r\n    function for adding and crediting insurance\r\n     */\r\n    function addInsurance(address _buyer, bytes32 _flightKey, uint256 _contractTimestamp, address _airline, uint256 _fee) public{\r\n        bytes32 insuranceKey = generateInsuranceKey(_buyer, _flightKey, _contractTimestamp);\r\n        Insurance memory insurance;\r\n        insurance.buyer = address(uint160(_buyer));\r\n        insurance.flightKey = _flightKey;\r\n        insurance.airline = _airline;\r\n        insurance.fee = _fee;\r\n        insurance.credits = 0;\r\n        insurance.contractTimestamp = _contractTimestamp;\r\n        insurance.status = InsuranceStatus.Activated;\r\n        insurance.isExist = true;\r\n\r\n        insurances[insuranceKey] = insurance;\r\n\r\n        if(!isBuyerExist(_buyer)){\r\n            buyers[_buyer] = Buyer({credits:0, isExist:true});\r\n        }\r\n        emit BuyInsurance(_flightKey, insuranceKey, _buyer, _fee);\r\n    }\r\n\r\n    function creditInsurance(bytes32 _insuranceKey) public requireActivated(_insuranceKey) returns(uint256 credits){\r\n        uint256 fee = insurances[_insuranceKey].fee;\r\n        address buyer = insurances[_insuranceKey].buyer;\r\n        uint256 half = fee.div(2);\r\n        credits = fee.add(half);\r\n        insurances[_insuranceKey].credits = credits;\r\n        buyers[buyer].credits += credits;\r\n        setInsuranceCredited(_insuranceKey);\r\n        //emit CreditInsurance(insurances[_insuranceKey].flightKey,_insuranceKey,buyer,credits);\r\n    }\r\n\r\n    function deductCredits(address _buyer) public requireBuyerExist(_buyer){\r\n        buyers[_buyer].credits = 0;\r\n    }\r\n\r\n    /** \r\n    functions for setting insurance state\r\n    */\r\n\r\n    function setInsuranceExpired(bytes32 _insuranceKey) public requireActivated(_insuranceKey){\r\n        insurances[_insuranceKey].status = InsuranceStatus.Expired;\r\n    }\r\n\r\n    function setInsuranceCredited(bytes32 _insuranceKey) public requireActivated(_insuranceKey){\r\n        insurances[_insuranceKey].status = InsuranceStatus.Credited;\r\n    }\r\n\r\n    function setInsuranceWithdrawn(bytes32 _insuranceKey) public requireCredited(_insuranceKey){\r\n        insurances[_insuranceKey].status = InsuranceStatus.Withdrawn;\r\n    }\r\n\r\n    /**\r\n    functions for querying insurance info\r\n     */\r\n    function queryBuyerCredit(address _buyer) public view returns(uint256){\r\n        return buyers[_buyer].credits;\r\n    }\r\n    \r\n    function queryInsuranceInfo(bytes32 _insuranceKey) public view returns(address buyer, bytes32 flightKey, address airline, uint256 fee, uint256 credits, uint256 contractTimestamp, InsuranceStatus insuranceStatus) {\r\n        buyer = insurances[_insuranceKey].buyer;\r\n        flightKey = insurances[_insuranceKey].flightKey;\r\n        airline = insurances[_insuranceKey].airline;\r\n        fee = insurances[_insuranceKey].fee;\r\n        credits = insurances[_insuranceKey].credits;\r\n        contractTimestamp = insurances[_insuranceKey].contractTimestamp;\r\n        insuranceStatus = insurances[_insuranceKey].status;\r\n    }\r\n\r\n    function queryInsuranceBuyer(bytes32 _insuranceKey) public view returns(address){\r\n        require(isExist(_insuranceKey), \"Insurance doesn't exist\");\r\n        return insurances[_insuranceKey].buyer;\r\n    }\r\n}",
  "sourcePath": "C:\\Users\\andrewchan88\\Documents\\Coding\\udacity\\Blockchain\\PartB\\homework\\project7_es_rm\\contracts\\InsuranceData.sol",
  "compiler": {
    "name": "solc",
    "version": "0.5.8+commit.23d335f2.Emscripten.clang"
  },
  "schemaVersion": "3.0.13",
  "updatedAt": "2019-10-07T03:56:31.495Z",
  "devdoc": {
    "methods": {}
  },
  "userdoc": {
    "methods": {
      "addInsurance(address,bytes32,uint256,address,uint256)": {
        "notice": "function for adding and crediting insurance\r"
      },
      "isExist(bytes32)": {
        "notice": "Functions for conditions checking and modifiers\r"
      },
      "queryBuyerCredit(address)": {
        "notice": "functions for querying insurance info\r"
      },
      "setInsuranceExpired(bytes32)": {
        "notice": "functions for setting insurance state\r"
      }
    }
  }
}