{
  "contractName": "OracleManagement",
  "abi": [
    {
      "constant": true,
      "inputs": [],
      "name": "REGISTRATION_FEE",
      "outputs": [
        {
          "name": "",
          "type": "uint256"
        }
      ],
      "payable": false,
      "stateMutability": "view",
      "type": "function"
    },
    {
      "anonymous": false,
      "inputs": [
        {
          "indexed": false,
          "name": "oracle",
          "type": "address"
        },
        {
          "indexed": false,
          "name": "indexes",
          "type": "uint8[3]"
        }
      ],
      "name": "OracleRegister",
      "type": "event"
    },
    {
      "anonymous": false,
      "inputs": [
        {
          "indexed": false,
          "name": "airline",
          "type": "address"
        },
        {
          "indexed": false,
          "name": "flight",
          "type": "string"
        },
        {
          "indexed": false,
          "name": "timestamp",
          "type": "uint256"
        },
        {
          "indexed": false,
          "name": "status",
          "type": "uint8"
        }
      ],
      "name": "OracleReport",
      "type": "event"
    },
    {
      "anonymous": false,
      "inputs": [
        {
          "indexed": false,
          "name": "index",
          "type": "uint8"
        },
        {
          "indexed": false,
          "name": "airline",
          "type": "address"
        },
        {
          "indexed": false,
          "name": "flight",
          "type": "string"
        },
        {
          "indexed": false,
          "name": "timestamp",
          "type": "uint256"
        }
      ],
      "name": "OracleRequest",
      "type": "event"
    },
    {
      "constant": true,
      "inputs": [
        {
          "name": "responseKey",
          "type": "bytes32"
        }
      ],
      "name": "isResponseExist",
      "outputs": [
        {
          "name": "",
          "type": "bool"
        }
      ],
      "payable": false,
      "stateMutability": "view",
      "type": "function"
    },
    {
      "constant": true,
      "inputs": [
        {
          "name": "responseKey",
          "type": "bytes32"
        }
      ],
      "name": "isResponseOpen",
      "outputs": [
        {
          "name": "",
          "type": "bool"
        }
      ],
      "payable": false,
      "stateMutability": "view",
      "type": "function"
    },
    {
      "constant": true,
      "inputs": [
        {
          "name": "_fetchKey",
          "type": "bytes32"
        }
      ],
      "name": "queryResponseInfo",
      "outputs": [
        {
          "name": "requester",
          "type": "address"
        },
        {
          "name": "isOpen",
          "type": "bool"
        },
        {
          "name": "responsedOracles",
          "type": "address[]"
        },
        {
          "name": "statusCode",
          "type": "uint8"
        }
      ],
      "payable": false,
      "stateMutability": "view",
      "type": "function"
    },
    {
      "constant": true,
      "inputs": [],
      "name": "getAllResponseKeys",
      "outputs": [
        {
          "name": "",
          "type": "bytes32[]"
        }
      ],
      "payable": false,
      "stateMutability": "view",
      "type": "function"
    },
    {
      "constant": true,
      "inputs": [],
      "name": "getMyIndexes",
      "outputs": [
        {
          "name": "",
          "type": "uint8[3]"
        }
      ],
      "payable": false,
      "stateMutability": "view",
      "type": "function"
    },
    {
      "constant": false,
      "inputs": [],
      "name": "registerOracle",
      "outputs": [],
      "payable": true,
      "stateMutability": "payable",
      "type": "function"
    },
    {
      "constant": true,
      "inputs": [
        {
          "name": "oracleAddress",
          "type": "address"
        }
      ],
      "name": "queryOracle",
      "outputs": [
        {
          "name": "isRegistered",
          "type": "bool"
        },
        {
          "name": "indexes",
          "type": "uint8[3]"
        }
      ],
      "payable": false,
      "stateMutability": "view",
      "type": "function"
    },
    {
      "constant": true,
      "inputs": [],
      "name": "getAllOracles",
      "outputs": [
        {
          "name": "",
          "type": "address[]"
        }
      ],
      "payable": false,
      "stateMutability": "view",
      "type": "function"
    }
  ],
  "bytecode": "0x608060405260008060006101000a81548160ff021916908360ff16021790555034801561002b57600080fd5b50610eaa8061003b6000396000f3fe6080604052600436106100865760003560e01c806365a6bb291161005957806365a6bb29146101ab5780639b7cb28f14610217578063cc75f25d14610283578063cca8427f146102d6578063cecf6b6c1461032957610086565b8063339d25901461008b578063382fee6d146100955780635f1cc0e61461012d57806364b4f75114610180575b600080fd5b610093610404565b005b3480156100a157600080fd5b506100e4600480360360208110156100b857600080fd5b81019080803573ffffffffffffffffffffffffffffffffffffffff169060200190929190505050610623565b604051808315151515815260200182600360200280838360005b838110156101195780820151818401526020810190506100fe565b505050509050019250505060405180910390f35b34801561013957600080fd5b5061014261072a565b6040518082600360200280838360005b8381101561016d578082015181840152602081019050610152565b5050505090500191505060405180910390f35b34801561018c57600080fd5b5061019561089d565b6040518082815260200191505060405180910390f35b3480156101b757600080fd5b506101c06108a9565b6040518080602001828103825283818151815260200191508051906020019060200280838360005b838110156102035780820151818401526020810190506101e8565b505050509050019250505060405180910390f35b34801561022357600080fd5b5061022c610937565b6040518080602001828103825283818151815260200191508051906020019060200280838360005b8381101561026f578082015181840152602081019050610254565b505050509050019250505060405180910390f35b34801561028f57600080fd5b506102bc600480360360208110156102a657600080fd5b810190808035906020019092919050505061098f565b604051808215151515815260200191505060405180910390f35b3480156102e257600080fd5b5061030f600480360360208110156102f957600080fd5b81019080803590602001909291905050506109bc565b604051808215151515815260200191505060405180910390f35b34801561033557600080fd5b506103626004803603602081101561034c57600080fd5b81019080803590602001909291905050506109e9565b604051808573ffffffffffffffffffffffffffffffffffffffff1673ffffffffffffffffffffffffffffffffffffffff16815260200184151515158152602001806020018360ff1660ff168152602001828103825284818151815260200191508051906020019060200280838360005b838110156103ed5780820151818401526020810190506103d2565b505050509050019550505050505060405180910390f35b670de0b6b3a7640000341015610482576040517f08c379a000000000000000000000000000000000000000000000000000000000815260040180806020018281038252601c8152602001807f526567697374726174696f6e206665652069732072657175697265640000000081525060200191505060405180910390fd5b61048a610d92565b61049333610b19565b9050604051806040016040528060011515815260200182815250600160003373ffffffffffffffffffffffffffffffffffffffff1673ffffffffffffffffffffffffffffffffffffffff16815260200190815260200160002060008201518160000160006101000a81548160ff021916908315150217905550602082015181600101906003610523929190610db4565b5090505060023390806001815401808255809150509060018203906000526020600020016000909192909190916101000a81548173ffffffffffffffffffffffffffffffffffffffff021916908373ffffffffffffffffffffffffffffffffffffffff160217905550507f2598defb89a76b880830bc3f19a1b6a55144ea08dfec47089a7ae1dc0611a4523382604051808373ffffffffffffffffffffffffffffffffffffffff1673ffffffffffffffffffffffffffffffffffffffff16815260200182600360200280838360005b8381101561060d5780820151818401526020810190506105f2565b505050509050019250505060405180910390a150565b600061062d610d92565b600160008473ffffffffffffffffffffffffffffffffffffffff1673ffffffffffffffffffffffffffffffffffffffff16815260200190815260200160002060000160009054906101000a900460ff169150600160008473ffffffffffffffffffffffffffffffffffffffff1673ffffffffffffffffffffffffffffffffffffffff16815260200190815260200160002060010160038060200260405190810160405280929190826003801561071e576020028201916000905b82829054906101000a900460ff1660ff16815260200190600101906020826000010492830192600103820291508084116106e75790505b50505050509050915091565b610732610d92565b600160003373ffffffffffffffffffffffffffffffffffffffff1673ffffffffffffffffffffffffffffffffffffffff16815260200190815260200160002060000160009054906101000a900460ff166107f4576040517f08c379a000000000000000000000000000000000000000000000000000000000815260040180806020018281038252601b8152602001807f4e6f74207265676973746572656420617320616e206f7261636c65000000000081525060200191505060405180910390fd5b600160003373ffffffffffffffffffffffffffffffffffffffff1673ffffffffffffffffffffffffffffffffffffffff168152602001908152602001600020600101600380602002604051908101604052809291908260038015610893576020028201916000905b82829054906101000a900460ff1660ff168152602001906001019060208260000104928301926001038202915080841161085c5790505b5050505050905090565b670de0b6b3a764000081565b6060600280548060200260200160405190810160405280929190818152602001828054801561092d57602002820191906000526020600020905b8160009054906101000a900473ffffffffffffffffffffffffffffffffffffffff1673ffffffffffffffffffffffffffffffffffffffff16815260200190600101908083116108e3575b5050505050905090565b6060600480548060200260200160405190810160405280929190818152602001828054801561098557602002820191906000526020600020905b815481526020019060010190808311610971575b5050505050905090565b60006003600083815260200190815260200160002060040160009054906101000a900460ff169050919050565b60006003600083815260200190815260200160002060000160149054906101000a900460ff169050919050565b600080606060006003600086815260200190815260200160002060000160009054906101000a900473ffffffffffffffffffffffffffffffffffffffff1693506003600086815260200190815260200160002060000160149054906101000a900460ff16925060036000868152602001908152602001600020600301805480602002602001604051908101604052809291908181526020018280548015610ae557602002820191906000526020600020905b8160009054906101000a900473ffffffffffffffffffffffffffffffffffffffff1673ffffffffffffffffffffffffffffffffffffffff1681526020019060010190808311610a9b575b505050505091506003600086815260200190815260200160002060040160019054906101000a900460ff1690509193509193565b610b21610d92565b610b29610d92565b610b3283610ca5565b81600060038110610b3f57fe5b602002019060ff16908160ff168152505080600060038110610b5d57fe5b602002015181600160038110610b6f57fe5b602002019060ff16908160ff16815250505b80600060038110610b8e57fe5b602002015160ff1681600160038110610ba357fe5b602002015160ff161415610bdd57610bba83610ca5565b81600160038110610bc757fe5b602002019060ff16908160ff1681525050610b81565b80600160038110610bea57fe5b602002015181600260038110610bfc57fe5b602002019060ff16908160ff16815250505b80600060038110610c1b57fe5b602002015160ff1681600260038110610c3057fe5b602002015160ff161480610c6b575080600160038110610c4c57fe5b602002015160ff1681600260038110610c6157fe5b602002015160ff16145b15610c9c57610c7983610ca5565b81600260038110610c8657fe5b602002019060ff16908160ff1681525050610c0e565b80915050919050565b600080600a905060008160ff1660008081819054906101000a900460ff168092919060010191906101000a81548160ff021916908360ff16021790555060ff1643034085604051602001808381526020018273ffffffffffffffffffffffffffffffffffffffff1673ffffffffffffffffffffffffffffffffffffffff1660601b8152601401925050506040516020818303038152906040528051906020012060001c81610d4f57fe5b06905060fa6000809054906101000a900460ff1660ff161115610d885760008060006101000a81548160ff021916908360ff1602179055505b8092505050919050565b6040518060600160405280600390602082028038833980820191505090505090565b826003601f01602090048101928215610e3d5791602002820160005b83821115610e0e57835183826101000a81548160ff021916908360ff1602179055509260200192600101602081600001049283019260010302610dd0565b8015610e3b5782816101000a81549060ff0219169055600101602081600001049283019260010302610e0e565b505b509050610e4a9190610e4e565b5090565b610e7b91905b80821115610e7757600081816101000a81549060ff021916905550600101610e54565b5090565b9056fea165627a7a723058203f1dabf9405568f3bb2b6539cd6432b7424cece245a4b042f5f2cd3004f44a200029",
  "source": "pragma solidity ^0.5.8;\r\n\r\nimport \"../node_modules/openzeppelin-solidity/contracts/math/SafeMath.sol\";\r\n\r\ncontract OracleManagement{\r\n    using SafeMath for uint256;\r\n    //Incremented to add pseudo-randomness at various points\r\n    uint8 private nonce = 0;\r\n    \r\n    // Fee to be paid when registering oracle\r\n    uint256 public constant REGISTRATION_FEE = 1 ether;\r\n    \r\n    // Number of oracles that must respond for valid status\r\n    uint256 internal constant MIN_RESPONSES = 3;\r\n    \r\n    struct Oracle{\r\n        bool isRegistered;\r\n        uint8[3] indexes; \r\n    }\r\n    \r\n    // Track all registered oracles\r\n    mapping(address => Oracle) internal oracles;\r\n    address[] internal allOracles;\r\n    \r\n    // Model for responses from oracles\r\n    struct ResponseInfo{\r\n        address requester; \r\n        bool isOpen;\r\n        mapping(uint8 => address[]) responses;\r\n        mapping(address => uint8) responsedRecords;\r\n        address[] responsedOracles;\r\n        bool isExist;\r\n        uint8 statusCode;\r\n    }\r\n    \r\n    // Track all oracle responses\r\n    // Key = hash(index, flight, timestamp)\r\n    mapping(bytes32 => ResponseInfo) internal oracleResponses;\r\n    bytes32[] internal allResponseKeys;\r\n\r\n    function isResponseExist(bytes32 responseKey) public view returns(bool){\r\n        return oracleResponses[responseKey].isExist;\r\n    }\r\n\r\n    modifier requireResponseExist(bytes32 responseKey){\r\n        require(isResponseExist(responseKey), \"ResponseInfo doesn't exist\");\r\n        _;\r\n    }\r\n\r\n    function isResponseOpen(bytes32 responseKey) public view returns(bool){\r\n        return oracleResponses[responseKey].isOpen;\r\n    }\r\n\r\n    function setResponseClose(bytes32 responseKey, uint8 _statusCode) internal {\r\n        if (oracleResponses[responseKey].isOpen = true){\r\n            oracleResponses[responseKey].isOpen = false;\r\n            oracleResponses[responseKey].statusCode = _statusCode;\r\n        }\r\n    }\r\n\r\n    function createResponseInfo(bytes32 responseKey, address _requester) internal{\r\n        require(!isResponseExist(responseKey), \"ResponseInfo created before\");\r\n        ResponseInfo memory responseInfo;\r\n        responseInfo.requester = _requester;\r\n        responseInfo.isOpen = true;\r\n        responseInfo.isExist = true;\r\n        oracleResponses[responseKey] = responseInfo;\r\n    }\r\n\r\n    function addOneResponse(bytes32 responseKey, address oracle, uint8 responsedCode) internal requireResponseExist(responseKey){\r\n        oracleResponses[responseKey].responses[responsedCode].push(oracle);\r\n        oracleResponses[responseKey].responsedRecords[oracle] = responsedCode;\r\n        oracleResponses[responseKey].responsedOracles.push(oracle);\r\n    }\r\n\r\n    function queryResponseInfo(bytes32 _fetchKey) public view \r\n        returns(address requester, bool isOpen, address[] memory responsedOracles, uint8 statusCode){\r\n            requester = oracleResponses[_fetchKey].requester;\r\n            isOpen = oracleResponses[_fetchKey].isOpen;\r\n            responsedOracles = oracleResponses[_fetchKey].responsedOracles;\r\n            statusCode = oracleResponses[_fetchKey].statusCode;\r\n    }\r\n     \r\n    function getAllResponseKeys() public view returns(bytes32[] memory){\r\n        return allResponseKeys;\r\n    }\r\n\r\n    event OracleRegister(address oracle, uint8[3] indexes);\r\n    event OracleReport(address airline, string flight, uint256 timestamp, uint8 status);\r\n    // Event fired when flight status request is submitted\r\n    // Oracles track this and if they have a matching index\r\n    // they fetch data and submit a response\r\n    event OracleRequest(uint8 index, address airline, string flight, uint256 timestamp);\r\n    \r\n    function getMyIndexes() public view returns(uint8[3] memory) {\r\n        require(oracles[msg.sender].isRegistered, \"Not registered as an oracle\");\r\n        return oracles[msg.sender].indexes;\r\n    }\r\n    \r\n    // Returns array of three non-duplicating integers from 0-9\r\n    function generateIndexes(address account) internal returns(uint8[3] memory){\r\n        uint8[3] memory indexes;\r\n        indexes[0] = getRandomIndex(account);\r\n        \r\n        indexes[1] = indexes[0];\r\n        while(indexes[1] == indexes[0]) {\r\n            indexes[1] = getRandomIndex(account);\r\n        }\r\n\r\n        indexes[2] = indexes[1];\r\n        while((indexes[2] == indexes[0]) || (indexes[2] == indexes[1])) {\r\n            indexes[2] = getRandomIndex(account);\r\n        }\r\n\r\n        return indexes;\r\n    }\r\n    \r\n    // Returns array of three non-duplicating integers from 0-9\r\n    function getRandomIndex(address account)internal returns (uint8){\r\n        uint8 maxValue = 10;\r\n\r\n        // Pseudo random number...the incrementing nonce adds variation\r\n        uint8 random = uint8(uint256(keccak256(abi.encodePacked(blockhash(block.number - nonce++), account))) % maxValue);\r\n\r\n        if (nonce > 250) {\r\n            nonce = 0;  // Can only fetch blockhashes for last 256 blocks so we adapt\r\n        }\r\n\r\n        return random;\r\n    }\r\n    \r\n    // Register an oracle with the contract\r\n    function registerOracle() external payable{\r\n        // Require registration fee\r\n        require(msg.value >= REGISTRATION_FEE, \"Registration fee is required\");\r\n        \r\n        uint8[3] memory indexes = generateIndexes(msg.sender);\r\n        \r\n        oracles[msg.sender] = Oracle({isRegistered: true, indexes: indexes});\r\n        allOracles.push(msg.sender);\r\n        emit OracleRegister(msg.sender, indexes);\r\n    }\r\n\r\n    function queryOracle(address oracleAddress) public view returns(bool isRegistered, uint8[3] memory indexes){\r\n        isRegistered = oracles[oracleAddress].isRegistered;\r\n        indexes = oracles[oracleAddress].indexes;\r\n    }\r\n\r\n    function getAllOracles() public view returns(address[] memory){\r\n        return allOracles;\r\n    }\r\n}",
  "sourcePath": "C:\\Users\\andrewchan88\\Documents\\Coding\\udacity\\Blockchain\\PartB\\homework\\project7_es_rm\\contracts\\OracleManagement.sol",
  "compiler": {
    "name": "solc",
    "version": "0.5.8+commit.23d335f2.Emscripten.clang"
  },
  "schemaVersion": "3.0.13",
  "updatedAt": "2019-10-07T03:56:31.555Z",
  "devdoc": {
    "methods": {}
  },
  "userdoc": {
    "methods": {}
  }
}